{
  "_format": "hh-sol-artifact-1",
  "contractName": "Collection721",
  "sourceName": "contracts/hydro/hydro-main/Collection721.sol",
  "abi": [
    {
      "inputs": [
        {
          "internalType": "string",
          "name": "_name",
          "type": "string"
        },
        {
          "internalType": "string",
          "name": "_symbol",
          "type": "string"
        },
        {
          "internalType": "address",
          "name": "_feeDestination",
          "type": "address"
        },
        {
          "internalType": "uint256",
          "name": "_maxMintInTotalPerWallet",
          "type": "uint256"
        },
        {
          "internalType": "bytes32",
          "name": "_saleConfigRoot",
          "type": "bytes32"
        },
        {
          "internalType": "address",
          "name": "_msgSigner",
          "type": "address"
        },
        {
          "internalType": "string",
          "name": "_baseURI",
          "type": "string"
        },
        {
          "internalType": "uint256",
          "name": "_revealTime",
          "type": "uint256"
        }
      ],
      "stateMutability": "nonpayable",
      "type": "constructor"
    },
    {
      "inputs": [
        {
          "internalType": "address",
          "name": "operator",
          "type": "address"
        }
      ],
      "name": "OperatorNotAllowed",
      "type": "error"
    },
    {
      "anonymous": false,
      "inputs": [
        {
          "indexed": true,
          "internalType": "address",
          "name": "owner",
          "type": "address"
        },
        {
          "indexed": true,
          "internalType": "address",
          "name": "approved",
          "type": "address"
        },
        {
          "indexed": true,
          "internalType": "uint256",
          "name": "tokenId",
          "type": "uint256"
        }
      ],
      "name": "Approval",
      "type": "event"
    },
    {
      "anonymous": false,
      "inputs": [
        {
          "indexed": true,
          "internalType": "address",
          "name": "owner",
          "type": "address"
        },
        {
          "indexed": true,
          "internalType": "address",
          "name": "operator",
          "type": "address"
        },
        {
          "indexed": false,
          "internalType": "bool",
          "name": "approved",
          "type": "bool"
        }
      ],
      "name": "ApprovalForAll",
      "type": "event"
    },
    {
      "anonymous": false,
      "inputs": [
        {
          "indexed": false,
          "internalType": "address",
          "name": "msgSender",
          "type": "address"
        },
        {
          "indexed": false,
          "internalType": "uint256",
          "name": "fromTokenId",
          "type": "uint256"
        },
        {
          "indexed": false,
          "internalType": "uint256",
          "name": "toTokenId",
          "type": "uint256"
        }
      ],
      "name": "Mint",
      "type": "event"
    },
    {
      "anonymous": false,
      "inputs": [
        {
          "indexed": true,
          "internalType": "address",
          "name": "previousOwner",
          "type": "address"
        },
        {
          "indexed": true,
          "internalType": "address",
          "name": "newOwner",
          "type": "address"
        }
      ],
      "name": "OwnershipTransferred",
      "type": "event"
    },
    {
      "anonymous": false,
      "inputs": [
        {
          "indexed": true,
          "internalType": "address",
          "name": "from",
          "type": "address"
        },
        {
          "indexed": true,
          "internalType": "address",
          "name": "to",
          "type": "address"
        },
        {
          "indexed": true,
          "internalType": "uint256",
          "name": "tokenId",
          "type": "uint256"
        }
      ],
      "name": "Transfer",
      "type": "event"
    },
    {
      "inputs": [
        {
          "internalType": "address",
          "name": "to",
          "type": "address"
        },
        {
          "internalType": "uint256",
          "name": "tokenId",
          "type": "uint256"
        }
      ],
      "name": "approve",
      "outputs": [],
      "stateMutability": "nonpayable",
      "type": "function"
    },
    {
      "inputs": [
        {
          "internalType": "string",
          "name": "",
          "type": "string"
        },
        {
          "internalType": "address",
          "name": "",
          "type": "address"
        }
      ],
      "name": "balanceByIdentifier",
      "outputs": [
        {
          "internalType": "uint256",
          "name": "",
          "type": "uint256"
        }
      ],
      "stateMutability": "view",
      "type": "function"
    },
    {
      "inputs": [
        {
          "internalType": "address",
          "name": "owner",
          "type": "address"
        }
      ],
      "name": "balanceOf",
      "outputs": [
        {
          "internalType": "uint256",
          "name": "",
          "type": "uint256"
        }
      ],
      "stateMutability": "view",
      "type": "function"
    },
    {
      "inputs": [],
      "name": "baseURI",
      "outputs": [
        {
          "internalType": "string",
          "name": "",
          "type": "string"
        }
      ],
      "stateMutability": "view",
      "type": "function"
    },
    {
      "inputs": [],
      "name": "contractURI",
      "outputs": [
        {
          "internalType": "string",
          "name": "",
          "type": "string"
        }
      ],
      "stateMutability": "view",
      "type": "function"
    },
    {
      "inputs": [],
      "name": "emptyRoot",
      "outputs": [
        {
          "internalType": "bytes32",
          "name": "",
          "type": "bytes32"
        }
      ],
      "stateMutability": "view",
      "type": "function"
    },
    {
      "inputs": [],
      "name": "feeDestination",
      "outputs": [
        {
          "internalType": "address",
          "name": "",
          "type": "address"
        }
      ],
      "stateMutability": "view",
      "type": "function"
    },
    {
      "inputs": [
        {
          "internalType": "uint256",
          "name": "tokenId",
          "type": "uint256"
        }
      ],
      "name": "getApproved",
      "outputs": [
        {
          "internalType": "address",
          "name": "",
          "type": "address"
        }
      ],
      "stateMutability": "view",
      "type": "function"
    },
    {
      "inputs": [
        {
          "components": [
            {
              "internalType": "string",
              "name": "saleIdentifier",
              "type": "string"
            },
            {
              "internalType": "bool",
              "name": "enabled",
              "type": "bool"
            },
            {
              "internalType": "uint256",
              "name": "startTime",
              "type": "uint256"
            },
            {
              "internalType": "uint256",
              "name": "endTime",
              "type": "uint256"
            },
            {
              "internalType": "uint256",
              "name": "mintCharge",
              "type": "uint256"
            },
            {
              "internalType": "bytes32",
              "name": "whitelistRoot",
              "type": "bytes32"
            },
            {
              "internalType": "uint256",
              "name": "maxMintPerWallet",
              "type": "uint256"
            },
            {
              "internalType": "uint256",
              "name": "maxMintInSale",
              "type": "uint256"
            }
          ],
          "internalType": "struct Collection721.SaleConfig",
          "name": "config",
          "type": "tuple"
        }
      ],
      "name": "getSaleConfigLeaf",
      "outputs": [
        {
          "internalType": "bytes32",
          "name": "",
          "type": "bytes32"
        }
      ],
      "stateMutability": "pure",
      "type": "function"
    },
    {
      "inputs": [
        {
          "internalType": "address",
          "name": "owner",
          "type": "address"
        },
        {
          "internalType": "address",
          "name": "operator",
          "type": "address"
        }
      ],
      "name": "isApprovedForAll",
      "outputs": [
        {
          "internalType": "bool",
          "name": "",
          "type": "bool"
        }
      ],
      "stateMutability": "view",
      "type": "function"
    },
    {
      "inputs": [
        {
          "internalType": "bytes",
          "name": "",
          "type": "bytes"
        }
      ],
      "name": "isSignatureRedeemed",
      "outputs": [
        {
          "internalType": "bool",
          "name": "",
          "type": "bool"
        }
      ],
      "stateMutability": "view",
      "type": "function"
    },
    {
      "inputs": [],
      "name": "maxMintInTotalPerWallet",
      "outputs": [
        {
          "internalType": "uint256",
          "name": "",
          "type": "uint256"
        }
      ],
      "stateMutability": "view",
      "type": "function"
    },
    {
      "inputs": [
        {
          "internalType": "bytes32[]",
          "name": "saleConfigProof",
          "type": "bytes32[]"
        },
        {
          "internalType": "bytes32[]",
          "name": "whitelistProof",
          "type": "bytes32[]"
        },
        {
          "internalType": "uint256",
          "name": "numberOfMint",
          "type": "uint256"
        },
        {
          "internalType": "string",
          "name": "message",
          "type": "string"
        },
        {
          "internalType": "bytes",
          "name": "signature",
          "type": "bytes"
        },
        {
          "components": [
            {
              "internalType": "string",
              "name": "saleIdentifier",
              "type": "string"
            },
            {
              "internalType": "bool",
              "name": "enabled",
              "type": "bool"
            },
            {
              "internalType": "uint256",
              "name": "startTime",
              "type": "uint256"
            },
            {
              "internalType": "uint256",
              "name": "endTime",
              "type": "uint256"
            },
            {
              "internalType": "uint256",
              "name": "mintCharge",
              "type": "uint256"
            },
            {
              "internalType": "bytes32",
              "name": "whitelistRoot",
              "type": "bytes32"
            },
            {
              "internalType": "uint256",
              "name": "maxMintPerWallet",
              "type": "uint256"
            },
            {
              "internalType": "uint256",
              "name": "maxMintInSale",
              "type": "uint256"
            }
          ],
          "internalType": "struct Collection721.SaleConfig",
          "name": "config",
          "type": "tuple"
        }
      ],
      "name": "mint",
      "outputs": [],
      "stateMutability": "payable",
      "type": "function"
    },
    {
      "inputs": [
        {
          "internalType": "string",
          "name": "",
          "type": "string"
        }
      ],
      "name": "mintCountByIdentifier",
      "outputs": [
        {
          "internalType": "uint256",
          "name": "",
          "type": "uint256"
        }
      ],
      "stateMutability": "view",
      "type": "function"
    },
    {
      "inputs": [],
      "name": "msgSigner",
      "outputs": [
        {
          "internalType": "address",
          "name": "",
          "type": "address"
        }
      ],
      "stateMutability": "view",
      "type": "function"
    },
    {
      "inputs": [],
      "name": "name",
      "outputs": [
        {
          "internalType": "string",
          "name": "",
          "type": "string"
        }
      ],
      "stateMutability": "view",
      "type": "function"
    },
    {
      "inputs": [],
      "name": "owner",
      "outputs": [
        {
          "internalType": "address",
          "name": "",
          "type": "address"
        }
      ],
      "stateMutability": "view",
      "type": "function"
    },
    {
      "inputs": [
        {
          "internalType": "uint256",
          "name": "tokenId",
          "type": "uint256"
        }
      ],
      "name": "ownerOf",
      "outputs": [
        {
          "internalType": "address",
          "name": "",
          "type": "address"
        }
      ],
      "stateMutability": "view",
      "type": "function"
    },
    {
      "inputs": [],
      "name": "renounceOwnership",
      "outputs": [],
      "stateMutability": "nonpayable",
      "type": "function"
    },
    {
      "inputs": [],
      "name": "revealTime",
      "outputs": [
        {
          "internalType": "uint256",
          "name": "",
          "type": "uint256"
        }
      ],
      "stateMutability": "view",
      "type": "function"
    },
    {
      "inputs": [
        {
          "internalType": "address",
          "name": "_from",
          "type": "address"
        },
        {
          "internalType": "address",
          "name": "_to",
          "type": "address"
        },
        {
          "internalType": "uint256",
          "name": "_tokenId",
          "type": "uint256"
        }
      ],
      "name": "safeTransferFrom",
      "outputs": [],
      "stateMutability": "nonpayable",
      "type": "function"
    },
    {
      "inputs": [
        {
          "internalType": "address",
          "name": "_from",
          "type": "address"
        },
        {
          "internalType": "address",
          "name": "_to",
          "type": "address"
        },
        {
          "internalType": "uint256",
          "name": "_tokenId",
          "type": "uint256"
        },
        {
          "internalType": "bytes",
          "name": "data",
          "type": "bytes"
        }
      ],
      "name": "safeTransferFrom",
      "outputs": [],
      "stateMutability": "nonpayable",
      "type": "function"
    },
    {
      "inputs": [],
      "name": "saleConfigsRoot",
      "outputs": [
        {
          "internalType": "bytes32",
          "name": "",
          "type": "bytes32"
        }
      ],
      "stateMutability": "view",
      "type": "function"
    },
    {
      "inputs": [
        {
          "internalType": "address",
          "name": "operator",
          "type": "address"
        },
        {
          "internalType": "bool",
          "name": "approved",
          "type": "bool"
        }
      ],
      "name": "setApprovalForAll",
      "outputs": [],
      "stateMutability": "nonpayable",
      "type": "function"
    },
    {
      "inputs": [
        {
          "internalType": "bytes4",
          "name": "interfaceId",
          "type": "bytes4"
        }
      ],
      "name": "supportsInterface",
      "outputs": [
        {
          "internalType": "bool",
          "name": "",
          "type": "bool"
        }
      ],
      "stateMutability": "view",
      "type": "function"
    },
    {
      "inputs": [],
      "name": "symbol",
      "outputs": [
        {
          "internalType": "string",
          "name": "",
          "type": "string"
        }
      ],
      "stateMutability": "view",
      "type": "function"
    },
    {
      "inputs": [],
      "name": "tokenId",
      "outputs": [
        {
          "internalType": "uint256",
          "name": "",
          "type": "uint256"
        }
      ],
      "stateMutability": "view",
      "type": "function"
    },
    {
      "inputs": [
        {
          "internalType": "uint256",
          "name": "_tokenId",
          "type": "uint256"
        }
      ],
      "name": "tokenURI",
      "outputs": [
        {
          "internalType": "string",
          "name": "",
          "type": "string"
        }
      ],
      "stateMutability": "view",
      "type": "function"
    },
    {
      "inputs": [
        {
          "internalType": "address",
          "name": "_from",
          "type": "address"
        },
        {
          "internalType": "address",
          "name": "_to",
          "type": "address"
        },
        {
          "internalType": "uint256",
          "name": "_tokenId",
          "type": "uint256"
        }
      ],
      "name": "transferFrom",
      "outputs": [],
      "stateMutability": "nonpayable",
      "type": "function"
    },
    {
      "inputs": [
        {
          "internalType": "address",
          "name": "newOwner",
          "type": "address"
        }
      ],
      "name": "transferOwnership",
      "outputs": [],
      "stateMutability": "nonpayable",
      "type": "function"
    },
    {
      "inputs": [
        {
          "internalType": "string",
          "name": "_baseURI",
          "type": "string"
        }
      ],
      "name": "updateBaseURI",
      "outputs": [],
      "stateMutability": "nonpayable",
      "type": "function"
    },
    {
      "inputs": [
        {
          "internalType": "address",
          "name": "_feeDestination",
          "type": "address"
        }
      ],
      "name": "updateFeeToAddress",
      "outputs": [],
      "stateMutability": "nonpayable",
      "type": "function"
    },
    {
      "inputs": [
        {
          "internalType": "uint256",
          "name": "_val",
          "type": "uint256"
        }
      ],
      "name": "updateMaxMintInTotalPerWallet",
      "outputs": [],
      "stateMutability": "nonpayable",
      "type": "function"
    },
    {
      "inputs": [
        {
          "internalType": "uint256",
          "name": "_revealTime",
          "type": "uint256"
        }
      ],
      "name": "updateRevealTime",
      "outputs": [],
      "stateMutability": "nonpayable",
      "type": "function"
    },
    {
      "inputs": [
        {
          "internalType": "bytes32",
          "name": "_saleConfigRoot",
          "type": "bytes32"
        }
      ],
      "name": "updateSaleConfigRoot",
      "outputs": [],
      "stateMutability": "nonpayable",
      "type": "function"
    }
  ],
  "bytecode": "0x6080604052600160075560006008553480156200001b57600080fd5b50604051620035e1380380620035e18339810160408190526200003e9162000418565b733cc6cdda760b79bafa08df41ecfa224f810dceb660018989620000623362000238565b81516200007790600190602085019062000288565b5080516200008d90600290602084019062000288565b5050506daaeb6d7670e522a718067333cd4e3b15620001d55780156200012357604051633e9f1edf60e11b81523060048201526001600160a01b03831660248201526daaeb6d7670e522a718067333cd4e90637d3e3dbe906044015b600060405180830381600087803b1580156200010457600080fd5b505af115801562000119573d6000803e3d6000fd5b50505050620001d5565b6001600160a01b03821615620001745760405163a0af290360e01b81523060048201526001600160a01b03831660248201526daaeb6d7670e522a718067333cd4e9063a0af290390604401620000e9565b604051632210724360e11b81523060048201526daaeb6d7670e522a718067333cd4e90634420e48690602401600060405180830381600087803b158015620001bb57600080fd5b505af1158015620001d0573d6000803e3d6000fd5b505050505b5050600980546001600160a01b038089166001600160a01b031992831617909255600a869055600f80549286169290911691909117905581516200022190601090602085019062000288565b50600e949094555050506011555062000528915050565b600080546001600160a01b038381166001600160a01b0319831681178455604051919092169283917f8be0079c531659141344cd1fd0a4f28419497f9722a3daafe3b4186f6b6457e09190a35050565b8280546200029690620004ec565b90600052602060002090601f016020900481019282620002ba576000855562000305565b82601f10620002d557805160ff191683800117855562000305565b8280016001018555821562000305579182015b8281111562000305578251825591602001919060010190620002e8565b506200031392915062000317565b5090565b5b8082111562000313576000815560010162000318565b634e487b7160e01b600052604160045260246000fd5b600082601f8301126200035657600080fd5b81516001600160401b03808211156200037357620003736200032e565b604051601f8301601f19908116603f011681019082821181831017156200039e576200039e6200032e565b81604052838152602092508683858801011115620003bb57600080fd5b600091505b83821015620003df5785820183015181830184015290820190620003c0565b83821115620003f15760008385830101525b9695505050505050565b80516001600160a01b03811681146200041357600080fd5b919050565b600080600080600080600080610100898b0312156200043657600080fd5b88516001600160401b03808211156200044e57600080fd5b6200045c8c838d0162000344565b995060208b01519150808211156200047357600080fd5b620004818c838d0162000344565b98506200049160408c01620003fb565b975060608b0151965060808b01519550620004af60a08c01620003fb565b945060c08b0151915080821115620004c657600080fd5b50620004d58b828c0162000344565b92505060e089015190509295985092959890939650565b600181811c908216806200050157607f821691505b6020821081036200052257634e487b7160e01b600052602260045260246000fd5b50919050565b6130a980620005386000396000f3fe6080604052600436106101c45760003560e01c80638da5cb5b116100f8578063c87b56dd11610090578063c87b56dd1461054d578063ca73e5e91461056d578063d9c79c1c1461058d578063dc9f75f7146105a0578063de53fcd5146105c0578063e8a3d485146105e0578063e985e9c5146105f5578063eaf3a58914610615578063f2fde38b1461062b57600080fd5b80638da5cb5b1461040e578063931688cb1461042c57806395d89b411461044c5780639a953ea214610461578063a22cb46514610477578063ae5adfd214610497578063b88d4fde146104df578063ba4cc749146104ff578063ba829d711461053757600080fd5b806342842e0e1161016b57806342842e0e1461030e57806361b5a2a21461032e5780636352211e1461034e5780636c0360eb1461036e57806370a0823114610383578063715018a6146103a35780638028b285146103b857806380e73783146103d857806383699816146103ee57600080fd5b8063018779c7146101c957806301ffc9a71461021957806306fdde0314610239578063081812fc1461025b578063095ea7b31461028857806317d70f7c146102aa578063210112f5146102ce57806323b872dd146102ee575b600080fd5b3480156101d557600080fd5b506102046101e436600461262d565b8051602081830181018051600b8252928201919093012091525460ff1681565b60405190151581526020015b60405180910390f35b34801561022557600080fd5b50610204610234366004612677565b61064b565b34801561024557600080fd5b5061024e61069d565b60405161021091906126ec565b34801561026757600080fd5b5061027b6102763660046126ff565b61072f565b6040516102109190612718565b34801561029457600080fd5b506102a86102a3366004612748565b610756565b005b3480156102b657600080fd5b506102c060075481565b604051908152602001610210565b3480156102da57600080fd5b506102a86102e9366004612772565b610870565b3480156102fa57600080fd5b506102a861030936600461278d565b61089a565b34801561031a57600080fd5b506102a861032936600461278d565b6109ef565b34801561033a57600080fd5b506102a86103493660046126ff565b610b39565b34801561035a57600080fd5b5061027b6103693660046126ff565b610b46565b34801561037a57600080fd5b5061024e610b7a565b34801561038f57600080fd5b506102c061039e366004612772565b610c08565b3480156103af57600080fd5b506102a8610c8e565b3480156103c457600080fd5b50600f5461027b906001600160a01b031681565b3480156103e457600080fd5b506102c060085481565b3480156103fa57600080fd5b506102a86104093660046126ff565b610ca2565b34801561041a57600080fd5b506000546001600160a01b031661027b565b34801561043857600080fd5b506102a861044736600461262d565b610caf565b34801561045857600080fd5b5061024e610cce565b34801561046d57600080fd5b506102c0600e5481565b34801561048357600080fd5b506102a86104923660046127e2565b610cdd565b3480156104a357600080fd5b506102c06104b2366004612819565b8151602081840181018051600d825292820194820194909420919093529091526000908152604090205481565b3480156104eb57600080fd5b506102a86104fa366004612866565b610ce8565b34801561050b57600080fd5b506102c061051a36600461262d565b8051602081830181018051600c8252928201919093012091525481565b34801561054357600080fd5b506102c060115481565b34801561055957600080fd5b5061024e6105683660046126ff565b610e40565b34801561057957600080fd5b506102c0610588366004612962565b610ecc565b6102a861059b366004612a15565b610f41565b3480156105ac57600080fd5b506102a86105bb3660046126ff565b611629565b3480156105cc57600080fd5b5060095461027b906001600160a01b031681565b3480156105ec57600080fd5b5061024e611636565b34801561060157600080fd5b50610204610610366004612aee565b611674565b34801561062157600080fd5b506102c0600a5481565b34801561063757600080fd5b506102a8610646366004612772565b6116a2565b60006001600160e01b031982166380ac58cd60e01b148061067c57506001600160e01b03198216635b5e139f60e01b145b8061069757506301ffc9a760e01b6001600160e01b03198316145b92915050565b6060600180546106ac90612b18565b80601f01602080910402602001604051908101604052809291908181526020018280546106d890612b18565b80156107255780601f106106fa57610100808354040283529160200191610725565b820191906000526020600020905b81548152906001019060200180831161070857829003601f168201915b5050505050905090565b600061073a8261171b565b506000908152600560205260409020546001600160a01b031690565b600061076182610b46565b9050806001600160a01b0316836001600160a01b0316036107d35760405162461bcd60e51b815260206004820152602160248201527f4552433732313a20617070726f76616c20746f2063757272656e74206f776e656044820152603960f91b60648201526084015b60405180910390fd5b336001600160a01b03821614806107ef57506107ef8133611674565b6108615760405162461bcd60e51b815260206004820152603d60248201527f4552433732313a20617070726f76652063616c6c6572206973206e6f7420746f60448201527f6b656e206f776e6572206f7220617070726f76656420666f7220616c6c00000060648201526084016107ca565b61086b8383611740565b505050565b6108786117ae565b600980546001600160a01b0319166001600160a01b0392909216919091179055565b826daaeb6d7670e522a718067333cd4e3b156109de57336001600160a01b038216036108d0576108cb848484611808565b6109e9565b604051633185c44d60e21b81526daaeb6d7670e522a718067333cd4e9063c6171134906109039030903390600401612b52565b602060405180830381865afa158015610920573d6000803e3d6000fd5b505050506040513d601f19601f820116820180604052508101906109449190612b6c565b80156109bf5750604051633185c44d60e21b81526daaeb6d7670e522a718067333cd4e9063c61711349061097e9030908590600401612b52565b602060405180830381865afa15801561099b573d6000803e3d6000fd5b505050506040513d601f19601f820116820180604052508101906109bf9190612b6c565b6109de5733604051633b79c77360e21b81526004016107ca9190612718565b6109e9848484611808565b50505050565b826daaeb6d7670e522a718067333cd4e3b15610b2e57336001600160a01b03821603610a20576108cb848484611839565b604051633185c44d60e21b81526daaeb6d7670e522a718067333cd4e9063c617113490610a539030903390600401612b52565b602060405180830381865afa158015610a70573d6000803e3d6000fd5b505050506040513d601f19601f82011682018060405250810190610a949190612b6c565b8015610b0f5750604051633185c44d60e21b81526daaeb6d7670e522a718067333cd4e9063c617113490610ace9030908590600401612b52565b602060405180830381865afa158015610aeb573d6000803e3d6000fd5b505050506040513d601f19601f82011682018060405250810190610b0f9190612b6c565b610b2e5733604051633b79c77360e21b81526004016107ca9190612718565b6109e9848484611839565b610b416117ae565b600e55565b600080610b5283611854565b90506001600160a01b0381166106975760405162461bcd60e51b81526004016107ca90612b89565b60108054610b8790612b18565b80601f0160208091040260200160405190810160405280929190818152602001828054610bb390612b18565b8015610c005780601f10610bd557610100808354040283529160200191610c00565b820191906000526020600020905b815481529060010190602001808311610be357829003601f168201915b505050505081565b60006001600160a01b038216610c725760405162461bcd60e51b815260206004820152602960248201527f4552433732313a2061646472657373207a65726f206973206e6f7420612076616044820152683634b21037bbb732b960b91b60648201526084016107ca565b506001600160a01b031660009081526004602052604090205490565b610c966117ae565b610ca0600061186f565b565b610caa6117ae565b600a55565b610cb76117ae565b8051610cca9060109060208401906124b6565b5050565b6060600280546106ac90612b18565b610cca3383836118bf565b836daaeb6d7670e522a718067333cd4e3b15610e2d57336001600160a01b03821603610d1f57610d1a85858585611989565b610e39565b604051633185c44d60e21b81526daaeb6d7670e522a718067333cd4e9063c617113490610d529030903390600401612b52565b602060405180830381865afa158015610d6f573d6000803e3d6000fd5b505050506040513d601f19601f82011682018060405250810190610d939190612b6c565b8015610e0e5750604051633185c44d60e21b81526daaeb6d7670e522a718067333cd4e9063c617113490610dcd9030908590600401612b52565b602060405180830381865afa158015610dea573d6000803e3d6000fd5b505050506040513d601f19601f82011682018060405250810190610e0e9190612b6c565b610e2d5733604051633b79c77360e21b81526004016107ca9190612718565b610e3985858585611989565b5050505050565b6060601154600014158015610e5757506011544211155b15610e9a576010610e693060146119bb565b610e7246611b5d565b604051602001610e8493929190612c54565b6040516020818303038152906040529050919050565b6010610ea73060146119bb565b610eb046611b5d565b610eb985611b5d565b604051602001610e849493929190612cc9565b80516020808301516040808501516060860151608087015160a088015160c089015160e08a01519551600099610f06999098979101612d62565b60408051601f19818403018152828252805160209182012090830152015b604051602081830303815290604052805190602001209050919050565b85858583600854600a5403610f8d5760405162461bcd60e51b8152602060048201526012602482015271139bc81cd85b194818dbdb999a59dd5c995960721b60448201526064016107ca565b610fa284600a54610f9d84610ecc565b611bef565b610fe45760405162461bcd60e51b8152602060048201526013602482015272496e76616c69642053616c6520436f6e66696760681b60448201526064016107ca565b806020015161102b5760405162461bcd60e51b815260206004820152601360248201527214d85b19481a5cc81b9bdd08195b98589b1959606a1b60448201526064016107ca565b6040810151429015801590611044575081604001518110155b61108b5760405162461bcd60e51b815260206004820152601860248201527714d85b19481a185cc81b9bdd081cdd185c9d1959081e595d60421b60448201526064016107ca565b8160600151811115806110a057506060820151155b6110dd5760405162461bcd60e51b815260206004820152600e60248201526d14d85b19481a185cc8195b99195960921b60448201526064016107ca565b8282608001516110ed9190612dc7565b34101561113c5760405162461bcd60e51b815260206004820152601f60248201527f4e6f7420656e6f756768206d696e74206368617267652070726f76696465640060448201526064016107ca565b8160e0015183600c84600001516040516111569190612de6565b90815260200160405180910390205461116f9190612e02565b11156111b65760405162461bcd60e51b81526020600482015260166024820152754d61782053616c65204c696d6974204578636565647360501b60448201526064016107ca565b8160c0015183600d84600001516040516111d09190612de6565b908152604080516020928190038301902033600090815292529020546111f69190612e02565b11156112445760405162461bcd60e51b815260206004820181905260248201527f4d61784d696e7450657257616c6c657453616c654c696d69744578636565647360448201526064016107ca565b600e54156112b157600e548361125933610c08565b6112639190612e02565b11156112b15760405162461bcd60e51b815260206004820152601e60248201527f4d6178546f74616c4d696e7457616c6c65744c696d697445786365656473000060448201526064016107ca565b6008548260a00151146113405760a08201516040516001600160601b03193360601b1660208201526112fd91869160340160405160208183030381529060405280519060200120611bef565b6113405760405162461bcd60e51b8152602060048201526014602482015273155cd95c881b9bdd081dda1a5d195b1a5cdd195960621b60448201526064016107ca565b8787600b816040516113529190612de6565b9081526040519081900360200190205460ff16156113af5760405162461bcd60e51b815260206004820152601a60248201527914da59db985d1d5c9948185b1c9958591e481c995919595b595960321b60448201526064016107ca565b600f546040516001600160a01b03909116906113fa9083906113f4906113d9908790602001612de6565b60405160208183030381529060405280519060200120611c05565b90611c40565b6001600160a01b0316146114445760405162461bcd60e51b8152602060048201526011602482015270496e76616c6964205369676e617475726560781b60448201526064016107ca565b60008b1161148b5760405162461bcd60e51b815260206004820152601460248201527304e756d626572206f66206d696e747320697320360641b60448201526064016107ca565b60005b8b8110156114bd576114ad33826007546114a89190612e02565b611c64565b6114b681612e1a565b905061148e565b508a6007546114cc9190612e02565b60075587516040518c91600d916114e39190612de6565b908152604080516020928190038301902033600090815292528120805490919061150e908490612e02565b909155505087516040518c91600c916115279190612de6565b908152602001604051809103902060008282546115449190612e02565b925050819055506001600b8a60405161155d9190612de6565b908152604051908190036020018120805492151560ff19909316929092179091556009546001600160a01b0316903480156108fc02916000818181858888f193505050501580156115b2573d6000803e3d6000fd5b507f4c209b5fc8ad50758f13e2e1088ba56a560dff690a1c6fef26394f4c03821c4f338c6007546115e39190612e33565b60016007546115f29190612e33565b604080516001600160a01b03909416845260208401929092529082015260600160405180910390a150505050505050505050505050565b6116316117ae565b601155565b606060106116453060146119bb565b61164e46611b5d565b60405160200161166093929190612e4a565b604051602081830303815290604052905090565b6001600160a01b03918216600090815260066020908152604080832093909416825291909152205460ff1690565b6116aa6117ae565b6001600160a01b03811661170f5760405162461bcd60e51b815260206004820152602660248201527f4f776e61626c653a206e6577206f776e657220697320746865207a65726f206160448201526564647265737360d01b60648201526084016107ca565b6117188161186f565b50565b61172481611d7f565b6117185760405162461bcd60e51b81526004016107ca90612b89565b600081815260056020526040902080546001600160a01b0319166001600160a01b038416908117909155819061177582610b46565b6001600160a01b03167f8c5be1e5ebec7d5bd14f71427d1e84f3dd0314c0f7b2291e5b200ac8c7c3b92560405160405180910390a45050565b6000546001600160a01b03163314610ca05760405162461bcd60e51b815260206004820181905260248201527f4f776e61626c653a2063616c6c6572206973206e6f7420746865206f776e657260448201526064016107ca565b6118123382611d9c565b61182e5760405162461bcd60e51b81526004016107ca90612ebb565b61086b838383611dfb565b61086b83838360405180602001604052806000815250610ce8565b6000908152600360205260409020546001600160a01b031690565b600080546001600160a01b038381166001600160a01b0319831681178455604051919092169283917f8be0079c531659141344cd1fd0a4f28419497f9722a3daafe3b4186f6b6457e09190a35050565b816001600160a01b0316836001600160a01b03160361191c5760405162461bcd60e51b815260206004820152601960248201527822a9219b99189d1030b8383937bb32903a379031b0b63632b960391b60448201526064016107ca565b6001600160a01b03838116600081815260066020908152604080832094871680845294825291829020805460ff191686151590811790915591519182527f17307eab39ab6107e8899845ad3d59bd9653f200f220920489ca2b5937696c31910160405180910390a3505050565b6119933383611d9c565b6119af5760405162461bcd60e51b81526004016107ca90612ebb565b6109e984848484611f6c565b606060006119ca836002612dc7565b6119d5906002612e02565b6001600160401b038111156119ec576119ec61254f565b6040519080825280601f01601f191660200182016040528015611a16576020820181803683370190505b509050600360fc1b81600081518110611a3157611a31612f08565b60200101906001600160f81b031916908160001a905350600f60fb1b81600181518110611a6057611a60612f08565b60200101906001600160f81b031916908160001a9053506000611a84846002612dc7565b611a8f906001612e02565b90505b6001811115611b07576f181899199a1a9b1b9c1cb0b131b232b360811b85600f1660108110611ac357611ac3612f08565b1a60f81b828281518110611ad957611ad9612f08565b60200101906001600160f81b031916908160001a90535060049490941c93611b0081612f1e565b9050611a92565b508315611b565760405162461bcd60e51b815260206004820181905260248201527f537472696e67733a20686578206c656e67746820696e73756666696369656e7460448201526064016107ca565b9392505050565b60606000611b6a83611f9f565b60010190506000816001600160401b03811115611b8957611b8961254f565b6040519080825280601f01601f191660200182016040528015611bb3576020820181803683370190505b5090508181016020015b600019016f181899199a1a9b1b9c1cb0b131b232b360811b600a86061a8153600a8504945084611bbd57509392505050565b600082611bfc8584612075565b14949350505050565b6040517f19457468657265756d205369676e6564204d6573736167653a0a3332000000006020820152603c8101829052600090605c01610f24565b6000806000611c4f85856120ba565b91509150611c5c816120ff565b509392505050565b6001600160a01b038216611cba5760405162461bcd60e51b815260206004820181905260248201527f4552433732313a206d696e7420746f20746865207a65726f206164647265737360448201526064016107ca565b611cc381611d7f565b15611ce05760405162461bcd60e51b81526004016107ca90612f35565b611cee600083836001612244565b611cf781611d7f565b15611d145760405162461bcd60e51b81526004016107ca90612f35565b6001600160a01b038216600081815260046020908152604080832080546001019055848352600390915280822080546001600160a01b0319168417905551839291907fddf252ad1be2c89b69c2b068fc378daa952ba7f163c4a11628f55a4df523b3ef908290a45050565b600080611d8b83611854565b6001600160a01b0316141592915050565b600080611da883610b46565b9050806001600160a01b0316846001600160a01b03161480611dcf5750611dcf8185611674565b80611df35750836001600160a01b0316611de88461072f565b6001600160a01b0316145b949350505050565b826001600160a01b0316611e0e82610b46565b6001600160a01b031614611e345760405162461bcd60e51b81526004016107ca90612f6c565b6001600160a01b038216611e965760405162461bcd60e51b8152602060048201526024808201527f4552433732313a207472616e7366657220746f20746865207a65726f206164646044820152637265737360e01b60648201526084016107ca565b611ea38383836001612244565b826001600160a01b0316611eb682610b46565b6001600160a01b031614611edc5760405162461bcd60e51b81526004016107ca90612f6c565b600081815260056020908152604080832080546001600160a01b03199081169091556001600160a01b0387811680865260048552838620805460001901905590871680865283862080546001019055868652600390945282852080549092168417909155905184937fddf252ad1be2c89b69c2b068fc378daa952ba7f163c4a11628f55a4df523b3ef91a4505050565b611f77848484611dfb565b611f83848484846122cc565b6109e95760405162461bcd60e51b81526004016107ca90612fb1565b60008072184f03e93ff9f4daa797ed6e38ed64bf6a1f0160401b8310611fde5772184f03e93ff9f4daa797ed6e38ed64bf6a1f0160401b830492506040015b6904ee2d6d415b85acef8160201b8310612008576904ee2d6d415b85acef8160201b830492506020015b662386f26fc10000831061202657662386f26fc10000830492506010015b6305f5e100831061203e576305f5e100830492506008015b612710831061205257612710830492506004015b60648310612064576064830492506002015b600a83106106975760010192915050565b600081815b8451811015611c5c576120a68286838151811061209957612099612f08565b60200260200101516123cd565b9150806120b281612e1a565b91505061207a565b60008082516041036120f05760208301516040840151606085015160001a6120e4878285856123fc565b945094505050506120f8565b506000905060025b9250929050565b600081600481111561211357612113613003565b0361211b5750565b600181600481111561212f5761212f613003565b036121775760405162461bcd60e51b815260206004820152601860248201527745434453413a20696e76616c6964207369676e617475726560401b60448201526064016107ca565b600281600481111561218b5761218b613003565b036121d85760405162461bcd60e51b815260206004820152601f60248201527f45434453413a20696e76616c6964207369676e6174757265206c656e6774680060448201526064016107ca565b60038160048111156121ec576121ec613003565b036117185760405162461bcd60e51b815260206004820152602260248201527f45434453413a20696e76616c6964207369676e6174757265202773272076616c604482015261756560f01b60648201526084016107ca565b60018111156109e9576001600160a01b0384161561228a576001600160a01b03841660009081526004602052604081208054839290612284908490612e33565b90915550505b6001600160a01b038316156109e9576001600160a01b038316600090815260046020526040812080548392906122c1908490612e02565b909155505050505050565b60006001600160a01b0384163b156123c257604051630a85bd0160e11b81526001600160a01b0385169063150b7a0290612310903390899088908890600401613019565b6020604051808303816000875af192505050801561234b575060408051601f3d908101601f1916820190925261234891810190613056565b60015b6123a8573d808015612379576040519150601f19603f3d011682016040523d82523d6000602084013e61237e565b606091505b5080516000036123a05760405162461bcd60e51b81526004016107ca90612fb1565b805181602001fd5b6001600160e01b031916630a85bd0160e11b149050611df3565b506001949350505050565b60008183106123e9576000828152602084905260409020611b56565b6000838152602083905260409020611b56565b6000806fa2a8918ca85bafe22016d0b997e4df60600160ff1b0383111561242957506000905060036124ad565b6040805160008082526020820180845289905260ff881692820192909252606081018690526080810185905260019060a0016020604051602081039080840390855afa15801561247d573d6000803e3d6000fd5b5050604051601f1901519150506001600160a01b0381166124a6576000600192509250506124ad565b9150600090505b94509492505050565b8280546124c290612b18565b90600052602060002090601f0160209004810192826124e4576000855561252a565b82601f106124fd57805160ff191683800117855561252a565b8280016001018555821561252a579182015b8281111561252a57825182559160200191906001019061250f565b5061253692915061253a565b5090565b5b80821115612536576000815560010161253b565b634e487b7160e01b600052604160045260246000fd5b60405161010081016001600160401b03811182821017156125885761258861254f565b60405290565b604051601f8201601f191681016001600160401b03811182821017156125b6576125b661254f565b604052919050565b600082601f8301126125cf57600080fd5b81356001600160401b038111156125e8576125e861254f565b6125fb601f8201601f191660200161258e565b81815284602083860101111561261057600080fd5b816020850160208301376000918101602001919091529392505050565b60006020828403121561263f57600080fd5b81356001600160401b0381111561265557600080fd5b611df3848285016125be565b6001600160e01b03198116811461171857600080fd5b60006020828403121561268957600080fd5b8135611b5681612661565b60005b838110156126af578181015183820152602001612697565b838111156109e95750506000910152565b600081518084526126d8816020860160208601612694565b601f01601f19169290920160200192915050565b602081526000611b5660208301846126c0565b60006020828403121561271157600080fd5b5035919050565b6001600160a01b0391909116815260200190565b80356001600160a01b038116811461274357600080fd5b919050565b6000806040838503121561275b57600080fd5b6127648361272c565b946020939093013593505050565b60006020828403121561278457600080fd5b611b568261272c565b6000806000606084860312156127a257600080fd5b6127ab8461272c565b92506127b96020850161272c565b9150604084013590509250925092565b801515811461171857600080fd5b8035612743816127c9565b600080604083850312156127f557600080fd5b6127fe8361272c565b9150602083013561280e816127c9565b809150509250929050565b6000806040838503121561282c57600080fd5b82356001600160401b0381111561284257600080fd5b61284e858286016125be565b92505061285d6020840161272c565b90509250929050565b6000806000806080858703121561287c57600080fd5b6128858561272c565b93506128936020860161272c565b92506040850135915060608501356001600160401b038111156128b557600080fd5b6128c1878288016125be565b91505092959194509250565b600061010082840312156128e057600080fd5b6128e8612565565b905081356001600160401b0381111561290057600080fd5b61290c848285016125be565b82525061291b602083016127d7565b602082015260408201356040820152606082013560608201526080820135608082015260a082013560a082015260c082013560c082015260e082013560e082015292915050565b60006020828403121561297457600080fd5b81356001600160401b0381111561298a57600080fd5b611df3848285016128cd565b600082601f8301126129a757600080fd5b813560206001600160401b038211156129c2576129c261254f565b8160051b6129d182820161258e565b92835284810182019282810190878511156129eb57600080fd5b83870192505b84831015612a0a578235825291830191908301906129f1565b979650505050505050565b60008060008060008060c08789031215612a2e57600080fd5b86356001600160401b0380821115612a4557600080fd5b612a518a838b01612996565b97506020890135915080821115612a6757600080fd5b612a738a838b01612996565b9650604089013595506060890135915080821115612a9057600080fd5b612a9c8a838b016125be565b94506080890135915080821115612ab257600080fd5b612abe8a838b016125be565b935060a0890135915080821115612ad457600080fd5b50612ae189828a016128cd565b9150509295509295509295565b60008060408385031215612b0157600080fd5b612b0a8361272c565b915061285d6020840161272c565b600181811c90821680612b2c57607f821691505b602082108103612b4c57634e487b7160e01b600052602260045260246000fd5b50919050565b6001600160a01b0392831681529116602082015260400190565b600060208284031215612b7e57600080fd5b8151611b56816127c9565b602080825260189082015277115490cdcc8c4e881a5b9d985b1a59081d1bdad95b88125160421b604082015260600190565b8054600090600181811c9080831680612bd557607f831692505b60208084108203612bf657634e487b7160e01b600052602260045260246000fd5b818015612c0a5760018114612c1b57612c48565b60ff19861689528489019650612c48565b60008881526020902060005b86811015612c405781548b820152908501908301612c27565b505084890196505b50505050505092915050565b6000612c608286612bbb565b7868696464656e2d746f6b656e2d7572693f616464726573733d60381b81528451612c92816019840160208901612694565b68266e6574776f726b3d60b81b601992909101918201528351612cbc816022840160208801612694565b0160220195945050505050565b6000612cd58287612bbb565b71746f6b656e2d7572693f616464726573733d60701b81528551612d00816012840160208a01612694565b68266e6574776f726b3d60b81b601292909101918201528451612d2a81601b840160208901612694565b6826746f6b656e49643d60b81b601b92909101918201528351612d54816024840160208801612694565b016024019695505050505050565b60008951612d74818460208e01612694565b98151560f81b919098019081526001810196909652602186019490945260418501929092526061840152608183015260a182015260c10192915050565b634e487b7160e01b600052601160045260246000fd5b6000816000190483118215151615612de157612de1612db1565b500290565b60008251612df8818460208701612694565b9190910192915050565b60008219821115612e1557612e15612db1565b500190565b600060018201612e2c57612e2c612db1565b5060010190565b600082821015612e4557612e45612db1565b500390565b6000612e568286612bbb565b74636f6e74726163742d7572693f616464726573733d60581b81528451612e84816015840160208901612694565b68266e6574776f726b3d60b81b601592909101918201528351612eae81601e840160208801612694565b01601e0195945050505050565b6020808252602d908201527f4552433732313a2063616c6c6572206973206e6f7420746f6b656e206f776e6560408201526c1c881bdc88185c1c1c9bdd9959609a1b606082015260800190565b634e487b7160e01b600052603260045260246000fd5b600081612f2d57612f2d612db1565b506000190190565b6020808252601c908201527f4552433732313a20746f6b656e20616c7265616479206d696e74656400000000604082015260600190565b60208082526025908201527f4552433732313a207472616e736665722066726f6d20696e636f72726563742060408201526437bbb732b960d91b606082015260800190565b60208082526032908201527f4552433732313a207472616e7366657220746f206e6f6e20455243373231526560408201527131b2b4bb32b91034b6b83632b6b2b73a32b960711b606082015260800190565b634e487b7160e01b600052602160045260246000fd5b6001600160a01b038581168252841660208201526040810183905260806060820181905260009061304c908301846126c0565b9695505050505050565b60006020828403121561306857600080fd5b8151611b568161266156fea2646970667358221220488510b965d62d3593dc7cbf87e1651912dd901da36ec7fe2ef5eb3d304d819f64736f6c634300080d0033",
  "linkReferences": {},
  "deployedLinkReferences": {}
}