{
  "_format": "hh-sol-artifact-1",
  "contractName": "Collection721",
  "sourceName": "contracts/hydro/hydro-main/Collection721.sol",
  "abi": [
    {
      "inputs": [
        {
          "internalType": "string",
          "name": "_name",
          "type": "string"
        },
        {
          "internalType": "string",
          "name": "_symbol",
          "type": "string"
        },
        {
          "internalType": "address",
          "name": "_feeDestination",
          "type": "address"
        },
        {
          "internalType": "uint256",
          "name": "_maxMintInTotalPerWallet",
          "type": "uint256"
        },
        {
          "internalType": "bytes32",
          "name": "_saleConfigRoot",
          "type": "bytes32"
        },
        {
          "internalType": "address",
          "name": "_msgSigner",
          "type": "address"
        },
        {
          "internalType": "string",
          "name": "_baseURI",
          "type": "string"
        },
        {
          "internalType": "uint256",
          "name": "_revealTime",
          "type": "uint256"
        }
      ],
      "stateMutability": "nonpayable",
      "type": "constructor"
    },
    {
      "inputs": [
        {
          "internalType": "address",
          "name": "operator",
          "type": "address"
        }
      ],
      "name": "OperatorNotAllowed",
      "type": "error"
    },
    {
      "anonymous": false,
      "inputs": [
        {
          "indexed": true,
          "internalType": "address",
          "name": "owner",
          "type": "address"
        },
        {
          "indexed": true,
          "internalType": "address",
          "name": "approved",
          "type": "address"
        },
        {
          "indexed": true,
          "internalType": "uint256",
          "name": "tokenId",
          "type": "uint256"
        }
      ],
      "name": "Approval",
      "type": "event"
    },
    {
      "anonymous": false,
      "inputs": [
        {
          "indexed": true,
          "internalType": "address",
          "name": "owner",
          "type": "address"
        },
        {
          "indexed": true,
          "internalType": "address",
          "name": "operator",
          "type": "address"
        },
        {
          "indexed": false,
          "internalType": "bool",
          "name": "approved",
          "type": "bool"
        }
      ],
      "name": "ApprovalForAll",
      "type": "event"
    },
    {
      "anonymous": false,
      "inputs": [
        {
          "indexed": false,
          "internalType": "address",
          "name": "msgSender",
          "type": "address"
        },
        {
          "indexed": false,
          "internalType": "uint256",
          "name": "fromTokenId",
          "type": "uint256"
        },
        {
          "indexed": false,
          "internalType": "uint256",
          "name": "toTokenId",
          "type": "uint256"
        }
      ],
      "name": "Mint",
      "type": "event"
    },
    {
      "anonymous": false,
      "inputs": [
        {
          "indexed": true,
          "internalType": "address",
          "name": "previousOwner",
          "type": "address"
        },
        {
          "indexed": true,
          "internalType": "address",
          "name": "newOwner",
          "type": "address"
        }
      ],
      "name": "OwnershipTransferred",
      "type": "event"
    },
    {
      "anonymous": false,
      "inputs": [
        {
          "indexed": true,
          "internalType": "address",
          "name": "from",
          "type": "address"
        },
        {
          "indexed": true,
          "internalType": "address",
          "name": "to",
          "type": "address"
        },
        {
          "indexed": true,
          "internalType": "uint256",
          "name": "tokenId",
          "type": "uint256"
        }
      ],
      "name": "Transfer",
      "type": "event"
    },
    {
      "inputs": [
        {
          "internalType": "address",
          "name": "to",
          "type": "address"
        },
        {
          "internalType": "uint256",
          "name": "tokenId",
          "type": "uint256"
        }
      ],
      "name": "approve",
      "outputs": [],
      "stateMutability": "nonpayable",
      "type": "function"
    },
    {
      "inputs": [
        {
          "internalType": "string",
          "name": "",
          "type": "string"
        },
        {
          "internalType": "address",
          "name": "",
          "type": "address"
        }
      ],
      "name": "balanceByIdentifier",
      "outputs": [
        {
          "internalType": "uint256",
          "name": "",
          "type": "uint256"
        }
      ],
      "stateMutability": "view",
      "type": "function"
    },
    {
      "inputs": [
        {
          "internalType": "address",
          "name": "owner",
          "type": "address"
        }
      ],
      "name": "balanceOf",
      "outputs": [
        {
          "internalType": "uint256",
          "name": "",
          "type": "uint256"
        }
      ],
      "stateMutability": "view",
      "type": "function"
    },
    {
      "inputs": [],
      "name": "baseURI",
      "outputs": [
        {
          "internalType": "string",
          "name": "",
          "type": "string"
        }
      ],
      "stateMutability": "view",
      "type": "function"
    },
    {
      "inputs": [],
      "name": "contractURI",
      "outputs": [
        {
          "internalType": "string",
          "name": "",
          "type": "string"
        }
      ],
      "stateMutability": "view",
      "type": "function"
    },
    {
      "inputs": [],
      "name": "emptyRoot",
      "outputs": [
        {
          "internalType": "bytes32",
          "name": "",
          "type": "bytes32"
        }
      ],
      "stateMutability": "view",
      "type": "function"
    },
    {
      "inputs": [],
      "name": "feeDestination",
      "outputs": [
        {
          "internalType": "address",
          "name": "",
          "type": "address"
        }
      ],
      "stateMutability": "view",
      "type": "function"
    },
    {
      "inputs": [
        {
          "internalType": "uint256",
          "name": "tokenId",
          "type": "uint256"
        }
      ],
      "name": "getApproved",
      "outputs": [
        {
          "internalType": "address",
          "name": "",
          "type": "address"
        }
      ],
      "stateMutability": "view",
      "type": "function"
    },
    {
      "inputs": [
        {
          "components": [
            {
              "internalType": "string",
              "name": "saleIdentifier",
              "type": "string"
            },
            {
              "internalType": "bool",
              "name": "enabled",
              "type": "bool"
            },
            {
              "internalType": "uint256",
              "name": "startTime",
              "type": "uint256"
            },
            {
              "internalType": "uint256",
              "name": "endTime",
              "type": "uint256"
            },
            {
              "internalType": "uint256",
              "name": "mintCharge",
              "type": "uint256"
            },
            {
              "internalType": "bytes32",
              "name": "whitelistRoot",
              "type": "bytes32"
            },
            {
              "internalType": "uint256",
              "name": "maxMintPerWallet",
              "type": "uint256"
            },
            {
              "internalType": "uint256",
              "name": "maxMintInSale",
              "type": "uint256"
            }
          ],
          "internalType": "struct Collection721.SaleConfig",
          "name": "config",
          "type": "tuple"
        }
      ],
      "name": "getSaleConfigLeaf",
      "outputs": [
        {
          "internalType": "bytes32",
          "name": "",
          "type": "bytes32"
        }
      ],
      "stateMutability": "pure",
      "type": "function"
    },
    {
      "inputs": [
        {
          "internalType": "address",
          "name": "owner",
          "type": "address"
        },
        {
          "internalType": "address",
          "name": "operator",
          "type": "address"
        }
      ],
      "name": "isApprovedForAll",
      "outputs": [
        {
          "internalType": "bool",
          "name": "",
          "type": "bool"
        }
      ],
      "stateMutability": "view",
      "type": "function"
    },
    {
      "inputs": [
        {
          "internalType": "bytes",
          "name": "",
          "type": "bytes"
        }
      ],
      "name": "isSignatureRedeemed",
      "outputs": [
        {
          "internalType": "bool",
          "name": "",
          "type": "bool"
        }
      ],
      "stateMutability": "view",
      "type": "function"
    },
    {
      "inputs": [],
      "name": "maxMintInTotalPerWallet",
      "outputs": [
        {
          "internalType": "uint256",
          "name": "",
          "type": "uint256"
        }
      ],
      "stateMutability": "view",
      "type": "function"
    },
    {
      "inputs": [
        {
          "internalType": "bytes32[]",
          "name": "saleConfigProof",
          "type": "bytes32[]"
        },
        {
          "internalType": "bytes32[]",
          "name": "whitelistProof",
          "type": "bytes32[]"
        },
        {
          "internalType": "uint256",
          "name": "numberOfMint",
          "type": "uint256"
        },
        {
          "internalType": "string",
          "name": "message",
          "type": "string"
        },
        {
          "internalType": "bytes",
          "name": "signature",
          "type": "bytes"
        },
        {
          "components": [
            {
              "internalType": "string",
              "name": "saleIdentifier",
              "type": "string"
            },
            {
              "internalType": "bool",
              "name": "enabled",
              "type": "bool"
            },
            {
              "internalType": "uint256",
              "name": "startTime",
              "type": "uint256"
            },
            {
              "internalType": "uint256",
              "name": "endTime",
              "type": "uint256"
            },
            {
              "internalType": "uint256",
              "name": "mintCharge",
              "type": "uint256"
            },
            {
              "internalType": "bytes32",
              "name": "whitelistRoot",
              "type": "bytes32"
            },
            {
              "internalType": "uint256",
              "name": "maxMintPerWallet",
              "type": "uint256"
            },
            {
              "internalType": "uint256",
              "name": "maxMintInSale",
              "type": "uint256"
            }
          ],
          "internalType": "struct Collection721.SaleConfig",
          "name": "config",
          "type": "tuple"
        }
      ],
      "name": "mint",
      "outputs": [],
      "stateMutability": "payable",
      "type": "function"
    },
    {
      "inputs": [
        {
          "internalType": "string",
          "name": "",
          "type": "string"
        }
      ],
      "name": "mintCountByIdentifier",
      "outputs": [
        {
          "internalType": "uint256",
          "name": "",
          "type": "uint256"
        }
      ],
      "stateMutability": "view",
      "type": "function"
    },
    {
      "inputs": [],
      "name": "msgSigner",
      "outputs": [
        {
          "internalType": "address",
          "name": "",
          "type": "address"
        }
      ],
      "stateMutability": "view",
      "type": "function"
    },
    {
      "inputs": [],
      "name": "name",
      "outputs": [
        {
          "internalType": "string",
          "name": "",
          "type": "string"
        }
      ],
      "stateMutability": "view",
      "type": "function"
    },
    {
      "inputs": [],
      "name": "owner",
      "outputs": [
        {
          "internalType": "address",
          "name": "",
          "type": "address"
        }
      ],
      "stateMutability": "view",
      "type": "function"
    },
    {
      "inputs": [
        {
          "internalType": "uint256",
          "name": "tokenId",
          "type": "uint256"
        }
      ],
      "name": "ownerOf",
      "outputs": [
        {
          "internalType": "address",
          "name": "",
          "type": "address"
        }
      ],
      "stateMutability": "view",
      "type": "function"
    },
    {
      "inputs": [],
      "name": "renounceOwnership",
      "outputs": [],
      "stateMutability": "nonpayable",
      "type": "function"
    },
    {
      "inputs": [],
      "name": "revealTime",
      "outputs": [
        {
          "internalType": "uint256",
          "name": "",
          "type": "uint256"
        }
      ],
      "stateMutability": "view",
      "type": "function"
    },
    {
      "inputs": [
        {
          "internalType": "address",
          "name": "_from",
          "type": "address"
        },
        {
          "internalType": "address",
          "name": "_to",
          "type": "address"
        },
        {
          "internalType": "uint256",
          "name": "_tokenId",
          "type": "uint256"
        }
      ],
      "name": "safeTransferFrom",
      "outputs": [],
      "stateMutability": "nonpayable",
      "type": "function"
    },
    {
      "inputs": [
        {
          "internalType": "address",
          "name": "_from",
          "type": "address"
        },
        {
          "internalType": "address",
          "name": "_to",
          "type": "address"
        },
        {
          "internalType": "uint256",
          "name": "_tokenId",
          "type": "uint256"
        },
        {
          "internalType": "bytes",
          "name": "data",
          "type": "bytes"
        }
      ],
      "name": "safeTransferFrom",
      "outputs": [],
      "stateMutability": "nonpayable",
      "type": "function"
    },
    {
      "inputs": [],
      "name": "saleConfigsRoot",
      "outputs": [
        {
          "internalType": "bytes32",
          "name": "",
          "type": "bytes32"
        }
      ],
      "stateMutability": "view",
      "type": "function"
    },
    {
      "inputs": [
        {
          "internalType": "address",
          "name": "operator",
          "type": "address"
        },
        {
          "internalType": "bool",
          "name": "approved",
          "type": "bool"
        }
      ],
      "name": "setApprovalForAll",
      "outputs": [],
      "stateMutability": "nonpayable",
      "type": "function"
    },
    {
      "inputs": [
        {
          "internalType": "bytes4",
          "name": "interfaceId",
          "type": "bytes4"
        }
      ],
      "name": "supportsInterface",
      "outputs": [
        {
          "internalType": "bool",
          "name": "",
          "type": "bool"
        }
      ],
      "stateMutability": "view",
      "type": "function"
    },
    {
      "inputs": [],
      "name": "symbol",
      "outputs": [
        {
          "internalType": "string",
          "name": "",
          "type": "string"
        }
      ],
      "stateMutability": "view",
      "type": "function"
    },
    {
      "inputs": [],
      "name": "tokenId",
      "outputs": [
        {
          "internalType": "uint256",
          "name": "",
          "type": "uint256"
        }
      ],
      "stateMutability": "view",
      "type": "function"
    },
    {
      "inputs": [
        {
          "internalType": "uint256",
          "name": "_tokenId",
          "type": "uint256"
        }
      ],
      "name": "tokenURI",
      "outputs": [
        {
          "internalType": "string",
          "name": "",
          "type": "string"
        }
      ],
      "stateMutability": "view",
      "type": "function"
    },
    {
      "inputs": [
        {
          "internalType": "address",
          "name": "_from",
          "type": "address"
        },
        {
          "internalType": "address",
          "name": "_to",
          "type": "address"
        },
        {
          "internalType": "uint256",
          "name": "_tokenId",
          "type": "uint256"
        }
      ],
      "name": "transferFrom",
      "outputs": [],
      "stateMutability": "nonpayable",
      "type": "function"
    },
    {
      "inputs": [
        {
          "internalType": "address",
          "name": "newOwner",
          "type": "address"
        }
      ],
      "name": "transferOwnership",
      "outputs": [],
      "stateMutability": "nonpayable",
      "type": "function"
    },
    {
      "inputs": [
        {
          "internalType": "string",
          "name": "_baseURI",
          "type": "string"
        }
      ],
      "name": "updateBaseURI",
      "outputs": [],
      "stateMutability": "nonpayable",
      "type": "function"
    },
    {
      "inputs": [
        {
          "internalType": "address",
          "name": "_feeDestination",
          "type": "address"
        }
      ],
      "name": "updateFeeToAddress",
      "outputs": [],
      "stateMutability": "nonpayable",
      "type": "function"
    },
    {
      "inputs": [
        {
          "internalType": "uint256",
          "name": "_val",
          "type": "uint256"
        }
      ],
      "name": "updateMaxMintInTotalPerWallet",
      "outputs": [],
      "stateMutability": "nonpayable",
      "type": "function"
    },
    {
      "inputs": [
        {
          "internalType": "uint256",
          "name": "_revealTime",
          "type": "uint256"
        }
      ],
      "name": "updateRevealTime",
      "outputs": [],
      "stateMutability": "nonpayable",
      "type": "function"
    },
    {
      "inputs": [
        {
          "internalType": "bytes32",
          "name": "_saleConfigRoot",
          "type": "bytes32"
        }
      ],
      "name": "updateSaleConfigRoot",
      "outputs": [],
      "stateMutability": "nonpayable",
      "type": "function"
    }
  ],
  "bytecode": "0x6080604052600160075560006008553480156200001b57600080fd5b50604051620033a8380380620033a88339810160408190526200003e9162000418565b733cc6cdda760b79bafa08df41ecfa224f810dceb660018989620000623362000238565b81516200007790600190602085019062000288565b5080516200008d90600290602084019062000288565b5050506daaeb6d7670e522a718067333cd4e3b15620001d55780156200012357604051633e9f1edf60e11b81523060048201526001600160a01b03831660248201526daaeb6d7670e522a718067333cd4e90637d3e3dbe906044015b600060405180830381600087803b1580156200010457600080fd5b505af115801562000119573d6000803e3d6000fd5b50505050620001d5565b6001600160a01b03821615620001745760405163a0af290360e01b81523060048201526001600160a01b03831660248201526daaeb6d7670e522a718067333cd4e9063a0af290390604401620000e9565b604051632210724360e11b81523060048201526daaeb6d7670e522a718067333cd4e90634420e48690602401600060405180830381600087803b158015620001bb57600080fd5b505af1158015620001d0573d6000803e3d6000fd5b505050505b5050600980546001600160a01b038089166001600160a01b031992831617909255600a869055600f80549286169290911691909117905581516200022190601090602085019062000288565b50600e949094555050506011555062000528915050565b600080546001600160a01b038381166001600160a01b0319831681178455604051919092169283917f8be0079c531659141344cd1fd0a4f28419497f9722a3daafe3b4186f6b6457e09190a35050565b8280546200029690620004ec565b90600052602060002090601f016020900481019282620002ba576000855562000305565b82601f10620002d557805160ff191683800117855562000305565b8280016001018555821562000305579182015b8281111562000305578251825591602001919060010190620002e8565b506200031392915062000317565b5090565b5b8082111562000313576000815560010162000318565b634e487b7160e01b600052604160045260246000fd5b600082601f8301126200035657600080fd5b81516001600160401b03808211156200037357620003736200032e565b604051601f8301601f19908116603f011681019082821181831017156200039e576200039e6200032e565b81604052838152602092508683858801011115620003bb57600080fd5b600091505b83821015620003df5785820183015181830184015290820190620003c0565b83821115620003f15760008385830101525b9695505050505050565b80516001600160a01b03811681146200041357600080fd5b919050565b600080600080600080600080610100898b0312156200043657600080fd5b88516001600160401b03808211156200044e57600080fd5b6200045c8c838d0162000344565b995060208b01519150808211156200047357600080fd5b620004818c838d0162000344565b98506200049160408c01620003fb565b975060608b0151965060808b01519550620004af60a08c01620003fb565b945060c08b0151915080821115620004c657600080fd5b50620004d58b828c0162000344565b92505060e089015190509295985092959890939650565b600181811c908216806200050157607f821691505b6020821081036200052257634e487b7160e01b600052602260045260246000fd5b50919050565b612e7080620005386000396000f3fe6080604052600436106101c45760003560e01c80638da5cb5b116100f8578063c87b56dd11610090578063c87b56dd1461054d578063ca73e5e91461056d578063d9c79c1c1461058d578063dc9f75f7146105a0578063de53fcd5146105c0578063e8a3d485146105e0578063e985e9c5146105f5578063eaf3a58914610615578063f2fde38b1461062b57600080fd5b80638da5cb5b1461040e578063931688cb1461042c57806395d89b411461044c5780639a953ea214610461578063a22cb46514610477578063ae5adfd214610497578063b88d4fde146104df578063ba4cc749146104ff578063ba829d711461053757600080fd5b806342842e0e1161016b57806342842e0e1461030e57806361b5a2a21461032e5780636352211e1461034e5780636c0360eb1461036e57806370a0823114610383578063715018a6146103a35780638028b285146103b857806380e73783146103d857806383699816146103ee57600080fd5b8063018779c7146101c957806301ffc9a71461021957806306fdde0314610239578063081812fc1461025b578063095ea7b31461028857806317d70f7c146102aa578063210112f5146102ce57806323b872dd146102ee575b600080fd5b3480156101d557600080fd5b506102046101e4366004612431565b8051602081830181018051600b8252928201919093012091525460ff1681565b60405190151581526020015b60405180910390f35b34801561022557600080fd5b5061020461023436600461247b565b61064b565b34801561024557600080fd5b5061024e61069d565b60405161021091906124f0565b34801561026757600080fd5b5061027b610276366004612503565b61072f565b604051610210919061251c565b34801561029457600080fd5b506102a86102a336600461254c565b610756565b005b3480156102b657600080fd5b506102c060075481565b604051908152602001610210565b3480156102da57600080fd5b506102a86102e9366004612576565b610870565b3480156102fa57600080fd5b506102a8610309366004612591565b61089a565b34801561031a57600080fd5b506102a8610329366004612591565b61094f565b34801561033a57600080fd5b506102a8610349366004612503565b610a04565b34801561035a57600080fd5b5061027b610369366004612503565b610a11565b34801561037a57600080fd5b5061024e610a46565b34801561038f57600080fd5b506102c061039e366004612576565b610ad4565b3480156103af57600080fd5b506102a8610b5a565b3480156103c457600080fd5b50600f5461027b906001600160a01b031681565b3480156103e457600080fd5b506102c060085481565b3480156103fa57600080fd5b506102a8610409366004612503565b610b6e565b34801561041a57600080fd5b506000546001600160a01b031661027b565b34801561043857600080fd5b506102a8610447366004612431565b610b7b565b34801561045857600080fd5b5061024e610b9a565b34801561046d57600080fd5b506102c0600e5481565b34801561048357600080fd5b506102a86104923660046125e6565b610ba9565b3480156104a357600080fd5b506102c06104b236600461261d565b8151602081840181018051600d825292820194820194909420919093529091526000908152604090205481565b3480156104eb57600080fd5b506102a86104fa36600461266a565b610bb4565b34801561050b57600080fd5b506102c061051a366004612431565b8051602081830181018051600c8252928201919093012091525481565b34801561054357600080fd5b506102c060115481565b34801561055957600080fd5b5061024e610568366004612503565b610c70565b34801561057957600080fd5b506102c0610588366004612766565b610cfc565b6102a861059b366004612819565b610d71565b3480156105ac57600080fd5b506102a86105bb366004612503565b611459565b3480156105cc57600080fd5b5060095461027b906001600160a01b031681565b3480156105ec57600080fd5b5061024e611466565b34801561060157600080fd5b506102046106103660046128f2565b6114a4565b34801561062157600080fd5b506102c0600a5481565b34801561063757600080fd5b506102a8610646366004612576565b6114d2565b60006001600160e01b031982166380ac58cd60e01b148061067c57506001600160e01b03198216635b5e139f60e01b145b8061069757506301ffc9a760e01b6001600160e01b03198316145b92915050565b6060600180546106ac9061291c565b80601f01602080910402602001604051908101604052809291908181526020018280546106d89061291c565b80156107255780601f106106fa57610100808354040283529160200191610725565b820191906000526020600020905b81548152906001019060200180831161070857829003601f168201915b5050505050905090565b600061073a8261154b565b506000908152600560205260409020546001600160a01b031690565b600061076182610a11565b9050806001600160a01b0316836001600160a01b0316036107d35760405162461bcd60e51b815260206004820152602160248201527f4552433732313a20617070726f76616c20746f2063757272656e74206f776e656044820152603960f91b60648201526084015b60405180910390fd5b336001600160a01b03821614806107ef57506107ef81336114a4565b6108615760405162461bcd60e51b815260206004820152603e60248201527f4552433732313a20617070726f76652063616c6c6572206973206e6f7420746f60448201527f6b656e206f776e6572206e6f7220617070726f76656420666f7220616c6c000060648201526084016107ca565b61086b8383611570565b505050565b6108786115de565b600980546001600160a01b0319166001600160a01b0392909216919091179055565b6daaeb6d7670e522a718067333cd4e3b1561094457604051633185c44d60e21b81526daaeb6d7670e522a718067333cd4e9063c6171134906108e29030903390600401612956565b6020604051808303816000875af1158015610901573d6000803e3d6000fd5b505050506040513d601f19601f820116820180604052508101906109259190612970565b6109445733604051633b79c77360e21b81526004016107ca919061251c565b61086b838383611638565b6daaeb6d7670e522a718067333cd4e3b156109f957604051633185c44d60e21b81526daaeb6d7670e522a718067333cd4e9063c6171134906109979030903390600401612956565b6020604051808303816000875af11580156109b6573d6000803e3d6000fd5b505050506040513d601f19601f820116820180604052508101906109da9190612970565b6109f95733604051633b79c77360e21b81526004016107ca919061251c565b61086b838383611669565b610a0c6115de565b600e55565b6000818152600360205260408120546001600160a01b0316806106975760405162461bcd60e51b81526004016107ca9061298d565b60108054610a539061291c565b80601f0160208091040260200160405190810160405280929190818152602001828054610a7f9061291c565b8015610acc5780601f10610aa157610100808354040283529160200191610acc565b820191906000526020600020905b815481529060010190602001808311610aaf57829003601f168201915b505050505081565b60006001600160a01b038216610b3e5760405162461bcd60e51b815260206004820152602960248201527f4552433732313a2061646472657373207a65726f206973206e6f7420612076616044820152683634b21037bbb732b960b91b60648201526084016107ca565b506001600160a01b031660009081526004602052604090205490565b610b626115de565b610b6c6000611684565b565b610b766115de565b600a55565b610b836115de565b8051610b969060109060208401906122ba565b5050565b6060600280546106ac9061291c565b610b963383836116d4565b6daaeb6d7670e522a718067333cd4e3b15610c5e57604051633185c44d60e21b81526daaeb6d7670e522a718067333cd4e9063c617113490610bfc9030903390600401612956565b6020604051808303816000875af1158015610c1b573d6000803e3d6000fd5b505050506040513d601f19601f82011682018060405250810190610c3f9190612970565b610c5e5733604051633b79c77360e21b81526004016107ca919061251c565b610c6a8484848461179e565b50505050565b6060601154600014158015610c8757506011544211155b15610cca576010610c993060146117d0565b610ca246611972565b604051602001610cb493929190612a58565b6040516020818303038152906040529050919050565b6010610cd73060146117d0565b610ce046611972565b610ce985611972565b604051602001610cb49493929190612acd565b80516020808301516040808501516060860151608087015160a088015160c089015160e08a01519551600099610d36999098979101612b66565b60408051601f19818403018152828252805160209182012090830152015b604051602081830303815290604052805190602001209050919050565b85858583600854600a5403610dbd5760405162461bcd60e51b8152602060048201526012602482015271139bc81cd85b194818dbdb999a59dd5c995960721b60448201526064016107ca565b610dd284600a54610dcd84610cfc565b611a7a565b610e145760405162461bcd60e51b8152602060048201526013602482015272496e76616c69642053616c6520436f6e66696760681b60448201526064016107ca565b8060200151610e5b5760405162461bcd60e51b815260206004820152601360248201527214d85b19481a5cc81b9bdd08195b98589b1959606a1b60448201526064016107ca565b6040810151429015801590610e74575081604001518110155b610ebb5760405162461bcd60e51b815260206004820152601860248201527714d85b19481a185cc81b9bdd081cdd185c9d1959081e595d60421b60448201526064016107ca565b816060015181111580610ed057506060820151155b610f0d5760405162461bcd60e51b815260206004820152600e60248201526d14d85b19481a185cc8195b99195960921b60448201526064016107ca565b828260800151610f1d9190612bcb565b341015610f6c5760405162461bcd60e51b815260206004820152601f60248201527f4e6f7420656e6f756768206d696e74206368617267652070726f76696465640060448201526064016107ca565b8160e0015183600c8460000151604051610f869190612bea565b908152602001604051809103902054610f9f9190612c06565b1115610fe65760405162461bcd60e51b81526020600482015260166024820152754d61782053616c65204c696d6974204578636565647360501b60448201526064016107ca565b8160c0015183600d84600001516040516110009190612bea565b908152604080516020928190038301902033600090815292529020546110269190612c06565b11156110745760405162461bcd60e51b815260206004820181905260248201527f4d61784d696e7450657257616c6c657453616c654c696d69744578636565647360448201526064016107ca565b600e54156110e157600e548361108933610ad4565b6110939190612c06565b11156110e15760405162461bcd60e51b815260206004820152601e60248201527f4d6178546f74616c4d696e7457616c6c65744c696d697445786365656473000060448201526064016107ca565b6008548260a00151146111705760a08201516040516001600160601b03193360601b16602082015261112d91869160340160405160208183030381529060405280519060200120611a7a565b6111705760405162461bcd60e51b8152602060048201526014602482015273155cd95c881b9bdd081dda1a5d195b1a5cdd195960621b60448201526064016107ca565b8787600b816040516111829190612bea565b9081526040519081900360200190205460ff16156111df5760405162461bcd60e51b815260206004820152601a60248201527914da59db985d1d5c9948185b1c9958591e481c995919595b595960321b60448201526064016107ca565b600f546040516001600160a01b039091169061122a90839061122490611209908790602001612bea565b60405160208183030381529060405280519060200120611a90565b90611acb565b6001600160a01b0316146112745760405162461bcd60e51b8152602060048201526011602482015270496e76616c6964205369676e617475726560781b60448201526064016107ca565b60008b116112bb5760405162461bcd60e51b815260206004820152601460248201527304e756d626572206f66206d696e747320697320360641b60448201526064016107ca565b60005b8b8110156112ed576112dd33826007546112d89190612c06565b611aef565b6112e681612c1e565b90506112be565b508a6007546112fc9190612c06565b60075587516040518c91600d916113139190612bea565b908152604080516020928190038301902033600090815292528120805490919061133e908490612c06565b909155505087516040518c91600c916113579190612bea565b908152602001604051809103902060008282546113749190612c06565b925050819055506001600b8a60405161138d9190612bea565b908152604051908190036020018120805492151560ff19909316929092179091556009546001600160a01b0316903480156108fc02916000818181858888f193505050501580156113e2573d6000803e3d6000fd5b507f4c209b5fc8ad50758f13e2e1088ba56a560dff690a1c6fef26394f4c03821c4f338c6007546114139190612c37565b60016007546114229190612c37565b604080516001600160a01b03909416845260208401929092529082015260600160405180910390a150505050505050505050505050565b6114616115de565b601155565b606060106114753060146117d0565b61147e46611972565b60405160200161149093929190612c4e565b604051602081830303815290604052905090565b6001600160a01b03918216600090815260066020908152604080832093909416825291909152205460ff1690565b6114da6115de565b6001600160a01b03811661153f5760405162461bcd60e51b815260206004820152602660248201527f4f776e61626c653a206e6577206f776e657220697320746865207a65726f206160448201526564647265737360d01b60648201526084016107ca565b61154881611684565b50565b61155481611c22565b6115485760405162461bcd60e51b81526004016107ca9061298d565b600081815260056020526040902080546001600160a01b0319166001600160a01b03841690811790915581906115a582610a11565b6001600160a01b03167f8c5be1e5ebec7d5bd14f71427d1e84f3dd0314c0f7b2291e5b200ac8c7c3b92560405160405180910390a45050565b6000546001600160a01b03163314610b6c5760405162461bcd60e51b815260206004820181905260248201527f4f776e61626c653a2063616c6c6572206973206e6f7420746865206f776e657260448201526064016107ca565b6116423382611c3f565b61165e5760405162461bcd60e51b81526004016107ca90612cbf565b61086b838383611c9d565b61086b83838360405180602001604052806000815250610bb4565b600080546001600160a01b038381166001600160a01b0319831681178455604051919092169283917f8be0079c531659141344cd1fd0a4f28419497f9722a3daafe3b4186f6b6457e09190a35050565b816001600160a01b0316836001600160a01b0316036117315760405162461bcd60e51b815260206004820152601960248201527822a9219b99189d1030b8383937bb32903a379031b0b63632b960391b60448201526064016107ca565b6001600160a01b03838116600081815260066020908152604080832094871680845294825291829020805460ff191686151590811790915591519182527f17307eab39ab6107e8899845ad3d59bd9653f200f220920489ca2b5937696c31910160405180910390a3505050565b6117a83383611c3f565b6117c45760405162461bcd60e51b81526004016107ca90612cbf565b610c6a84848484611e39565b606060006117df836002612bcb565b6117ea906002612c06565b6001600160401b0381111561180157611801612353565b6040519080825280601f01601f19166020018201604052801561182b576020820181803683370190505b509050600360fc1b8160008151811061184657611846612d0d565b60200101906001600160f81b031916908160001a905350600f60fb1b8160018151811061187557611875612d0d565b60200101906001600160f81b031916908160001a9053506000611899846002612bcb565b6118a4906001612c06565b90505b600181111561191c576f181899199a1a9b1b9c1cb0b131b232b360811b85600f16601081106118d8576118d8612d0d565b1a60f81b8282815181106118ee576118ee612d0d565b60200101906001600160f81b031916908160001a90535060049490941c9361191581612d23565b90506118a7565b50831561196b5760405162461bcd60e51b815260206004820181905260248201527f537472696e67733a20686578206c656e67746820696e73756666696369656e7460448201526064016107ca565b9392505050565b6060816000036119995750506040805180820190915260018152600360fc1b602082015290565b8160005b81156119c357806119ad81612c1e565b91506119bc9050600a83612d50565b915061199d565b6000816001600160401b038111156119dd576119dd612353565b6040519080825280601f01601f191660200182016040528015611a07576020820181803683370190505b5090505b8415611a7257611a1c600183612c37565b9150611a29600a86612d64565b611a34906030612c06565b60f81b818381518110611a4957611a49612d0d565b60200101906001600160f81b031916908160001a905350611a6b600a86612d50565b9450611a0b565b949350505050565b600082611a878584611e6c565b14949350505050565b6040517f19457468657265756d205369676e6564204d6573736167653a0a3332000000006020820152603c8101829052600090605c01610d54565b6000806000611ada8585611eb1565b91509150611ae781611ef6565b509392505050565b6001600160a01b038216611b455760405162461bcd60e51b815260206004820181905260248201527f4552433732313a206d696e7420746f20746865207a65726f206164647265737360448201526064016107ca565b611b4e81611c22565b15611b9b5760405162461bcd60e51b815260206004820152601c60248201527f4552433732313a20746f6b656e20616c7265616479206d696e7465640000000060448201526064016107ca565b6001600160a01b0382166000908152600460205260408120805460019290611bc4908490612c06565b909155505060008181526003602052604080822080546001600160a01b0319166001600160a01b03861690811790915590518392907fddf252ad1be2c89b69c2b068fc378daa952ba7f163c4a11628f55a4df523b3ef908290a45050565b6000908152600360205260409020546001600160a01b0316151590565b600080611c4b83610a11565b9050806001600160a01b0316846001600160a01b03161480611c725750611c7281856114a4565b80611a725750836001600160a01b0316611c8b8461072f565b6001600160a01b031614949350505050565b826001600160a01b0316611cb082610a11565b6001600160a01b031614611d145760405162461bcd60e51b815260206004820152602560248201527f4552433732313a207472616e736665722066726f6d20696e636f72726563742060448201526437bbb732b960d91b60648201526084016107ca565b6001600160a01b038216611d765760405162461bcd60e51b8152602060048201526024808201527f4552433732313a207472616e7366657220746f20746865207a65726f206164646044820152637265737360e01b60648201526084016107ca565b611d81600082611570565b6001600160a01b0383166000908152600460205260408120805460019290611daa908490612c37565b90915550506001600160a01b0382166000908152600460205260408120805460019290611dd8908490612c06565b909155505060008181526003602052604080822080546001600160a01b0319166001600160a01b0386811691821790925591518493918716917fddf252ad1be2c89b69c2b068fc378daa952ba7f163c4a11628f55a4df523b3ef91a4505050565b611e44848484611c9d565b611e50848484846120a7565b610c6a5760405162461bcd60e51b81526004016107ca90612d78565b600081815b8451811015611ae757611e9d82868381518110611e9057611e90612d0d565b60200260200101516121a8565b915080611ea981612c1e565b915050611e71565b6000808251604103611ee75760208301516040840151606085015160001a611edb878285856121d7565b94509450505050611eef565b506000905060025b9250929050565b6000816004811115611f0a57611f0a612dca565b03611f125750565b6001816004811115611f2657611f26612dca565b03611f6e5760405162461bcd60e51b815260206004820152601860248201527745434453413a20696e76616c6964207369676e617475726560401b60448201526064016107ca565b6002816004811115611f8257611f82612dca565b03611fcf5760405162461bcd60e51b815260206004820152601f60248201527f45434453413a20696e76616c6964207369676e6174757265206c656e6774680060448201526064016107ca565b6003816004811115611fe357611fe3612dca565b0361203b5760405162461bcd60e51b815260206004820152602260248201527f45434453413a20696e76616c6964207369676e6174757265202773272076616c604482015261756560f01b60648201526084016107ca565b600481600481111561204f5761204f612dca565b036115485760405162461bcd60e51b815260206004820152602260248201527f45434453413a20696e76616c6964207369676e6174757265202776272076616c604482015261756560f01b60648201526084016107ca565b60006001600160a01b0384163b1561219d57604051630a85bd0160e11b81526001600160a01b0385169063150b7a02906120eb903390899088908890600401612de0565b6020604051808303816000875af1925050508015612126575060408051601f3d908101601f1916820190925261212391810190612e1d565b60015b612183573d808015612154576040519150601f19603f3d011682016040523d82523d6000602084013e612159565b606091505b50805160000361217b5760405162461bcd60e51b81526004016107ca90612d78565b805181602001fd5b6001600160e01b031916630a85bd0160e11b149050611a72565b506001949350505050565b60008183106121c457600082815260208490526040902061196b565b600083815260208390526040902061196b565b6000806fa2a8918ca85bafe22016d0b997e4df60600160ff1b0383111561220457506000905060036122b1565b8460ff16601b1415801561221c57508460ff16601c14155b1561222d57506000905060046122b1565b6040805160008082526020820180845289905260ff881692820192909252606081018690526080810185905260019060a0016020604051602081039080840390855afa158015612281573d6000803e3d6000fd5b5050604051601f1901519150506001600160a01b0381166122aa576000600192509250506122b1565b9150600090505b94509492505050565b8280546122c69061291c565b90600052602060002090601f0160209004810192826122e8576000855561232e565b82601f1061230157805160ff191683800117855561232e565b8280016001018555821561232e579182015b8281111561232e578251825591602001919060010190612313565b5061233a92915061233e565b5090565b5b8082111561233a576000815560010161233f565b634e487b7160e01b600052604160045260246000fd5b60405161010081016001600160401b038111828210171561238c5761238c612353565b60405290565b604051601f8201601f191681016001600160401b03811182821017156123ba576123ba612353565b604052919050565b600082601f8301126123d357600080fd5b81356001600160401b038111156123ec576123ec612353565b6123ff601f8201601f1916602001612392565b81815284602083860101111561241457600080fd5b816020850160208301376000918101602001919091529392505050565b60006020828403121561244357600080fd5b81356001600160401b0381111561245957600080fd5b611a72848285016123c2565b6001600160e01b03198116811461154857600080fd5b60006020828403121561248d57600080fd5b813561196b81612465565b60005b838110156124b357818101518382015260200161249b565b83811115610c6a5750506000910152565b600081518084526124dc816020860160208601612498565b601f01601f19169290920160200192915050565b60208152600061196b60208301846124c4565b60006020828403121561251557600080fd5b5035919050565b6001600160a01b0391909116815260200190565b80356001600160a01b038116811461254757600080fd5b919050565b6000806040838503121561255f57600080fd5b61256883612530565b946020939093013593505050565b60006020828403121561258857600080fd5b61196b82612530565b6000806000606084860312156125a657600080fd5b6125af84612530565b92506125bd60208501612530565b9150604084013590509250925092565b801515811461154857600080fd5b8035612547816125cd565b600080604083850312156125f957600080fd5b61260283612530565b91506020830135612612816125cd565b809150509250929050565b6000806040838503121561263057600080fd5b82356001600160401b0381111561264657600080fd5b612652858286016123c2565b92505061266160208401612530565b90509250929050565b6000806000806080858703121561268057600080fd5b61268985612530565b935061269760208601612530565b92506040850135915060608501356001600160401b038111156126b957600080fd5b6126c5878288016123c2565b91505092959194509250565b600061010082840312156126e457600080fd5b6126ec612369565b905081356001600160401b0381111561270457600080fd5b612710848285016123c2565b82525061271f602083016125db565b602082015260408201356040820152606082013560608201526080820135608082015260a082013560a082015260c082013560c082015260e082013560e082015292915050565b60006020828403121561277857600080fd5b81356001600160401b0381111561278e57600080fd5b611a72848285016126d1565b600082601f8301126127ab57600080fd5b813560206001600160401b038211156127c6576127c6612353565b8160051b6127d5828201612392565b92835284810182019282810190878511156127ef57600080fd5b83870192505b8483101561280e578235825291830191908301906127f5565b979650505050505050565b60008060008060008060c0878903121561283257600080fd5b86356001600160401b038082111561284957600080fd5b6128558a838b0161279a565b9750602089013591508082111561286b57600080fd5b6128778a838b0161279a565b965060408901359550606089013591508082111561289457600080fd5b6128a08a838b016123c2565b945060808901359150808211156128b657600080fd5b6128c28a838b016123c2565b935060a08901359150808211156128d857600080fd5b506128e589828a016126d1565b9150509295509295509295565b6000806040838503121561290557600080fd5b61290e83612530565b915061266160208401612530565b600181811c9082168061293057607f821691505b60208210810361295057634e487b7160e01b600052602260045260246000fd5b50919050565b6001600160a01b0392831681529116602082015260400190565b60006020828403121561298257600080fd5b815161196b816125cd565b602080825260189082015277115490cdcc8c4e881a5b9d985b1a59081d1bdad95b88125160421b604082015260600190565b8054600090600181811c90808316806129d957607f831692505b602080841082036129fa57634e487b7160e01b600052602260045260246000fd5b818015612a0e5760018114612a1f57612a4c565b60ff19861689528489019650612a4c565b60008881526020902060005b86811015612a445781548b820152908501908301612a2b565b505084890196505b50505050505092915050565b6000612a6482866129bf565b7868696464656e2d746f6b656e2d7572693f616464726573733d60381b81528451612a96816019840160208901612498565b68266e6574776f726b3d60b81b601992909101918201528351612ac0816022840160208801612498565b0160220195945050505050565b6000612ad982876129bf565b71746f6b656e2d7572693f616464726573733d60701b81528551612b04816012840160208a01612498565b68266e6574776f726b3d60b81b601292909101918201528451612b2e81601b840160208901612498565b6826746f6b656e49643d60b81b601b92909101918201528351612b58816024840160208801612498565b016024019695505050505050565b60008951612b78818460208e01612498565b98151560f81b919098019081526001810196909652602186019490945260418501929092526061840152608183015260a182015260c10192915050565b634e487b7160e01b600052601160045260246000fd5b6000816000190483118215151615612be557612be5612bb5565b500290565b60008251612bfc818460208701612498565b9190910192915050565b60008219821115612c1957612c19612bb5565b500190565b600060018201612c3057612c30612bb5565b5060010190565b600082821015612c4957612c49612bb5565b500390565b6000612c5a82866129bf565b74636f6e74726163742d7572693f616464726573733d60581b81528451612c88816015840160208901612498565b68266e6574776f726b3d60b81b601592909101918201528351612cb281601e840160208801612498565b01601e0195945050505050565b6020808252602e908201527f4552433732313a2063616c6c6572206973206e6f7420746f6b656e206f776e6560408201526d1c881b9bdc88185c1c1c9bdd995960921b606082015260800190565b634e487b7160e01b600052603260045260246000fd5b600081612d3257612d32612bb5565b506000190190565b634e487b7160e01b600052601260045260246000fd5b600082612d5f57612d5f612d3a565b500490565b600082612d7357612d73612d3a565b500690565b60208082526032908201527f4552433732313a207472616e7366657220746f206e6f6e20455243373231526560408201527131b2b4bb32b91034b6b83632b6b2b73a32b960711b606082015260800190565b634e487b7160e01b600052602160045260246000fd5b6001600160a01b0385811682528416602082015260408101839052608060608201819052600090612e13908301846124c4565b9695505050505050565b600060208284031215612e2f57600080fd5b815161196b8161246556fea2646970667358221220119f87b6df2b94ebb0af9ca28722b652ec3a2d028817f0aab191b715282edb9c64736f6c634300080d0033",
  "linkReferences": {},
  "deployedLinkReferences": {}
}