{
  "_format": "hh-sol-artifact-1",
  "contractName": "Collection721",
  "sourceName": "contracts/Collection721.sol",
  "abi": [
    {
      "inputs": [
        {
          "internalType": "string",
          "name": "_name",
          "type": "string"
        },
        {
          "internalType": "string",
          "name": "_symbol",
          "type": "string"
        },
        {
          "internalType": "address",
          "name": "_feeDestination",
          "type": "address"
        },
        {
          "internalType": "uint256",
          "name": "_maxMintInTotalPerWallet",
          "type": "uint256"
        },
        {
          "internalType": "bytes32",
          "name": "_saleConfigRoot",
          "type": "bytes32"
        },
        {
          "internalType": "address",
          "name": "_msgSigner",
          "type": "address"
        },
        {
          "internalType": "string",
          "name": "_baseURI",
          "type": "string"
        }
      ],
      "stateMutability": "nonpayable",
      "type": "constructor"
    },
    {
      "anonymous": false,
      "inputs": [
        {
          "indexed": true,
          "internalType": "address",
          "name": "owner",
          "type": "address"
        },
        {
          "indexed": true,
          "internalType": "address",
          "name": "approved",
          "type": "address"
        },
        {
          "indexed": true,
          "internalType": "uint256",
          "name": "tokenId",
          "type": "uint256"
        }
      ],
      "name": "Approval",
      "type": "event"
    },
    {
      "anonymous": false,
      "inputs": [
        {
          "indexed": true,
          "internalType": "address",
          "name": "owner",
          "type": "address"
        },
        {
          "indexed": true,
          "internalType": "address",
          "name": "operator",
          "type": "address"
        },
        {
          "indexed": false,
          "internalType": "bool",
          "name": "approved",
          "type": "bool"
        }
      ],
      "name": "ApprovalForAll",
      "type": "event"
    },
    {
      "anonymous": false,
      "inputs": [
        {
          "indexed": false,
          "internalType": "address",
          "name": "msgSender",
          "type": "address"
        },
        {
          "indexed": false,
          "internalType": "uint256",
          "name": "fromTokenId",
          "type": "uint256"
        },
        {
          "indexed": false,
          "internalType": "uint256",
          "name": "toTokenId",
          "type": "uint256"
        }
      ],
      "name": "Mint",
      "type": "event"
    },
    {
      "anonymous": false,
      "inputs": [
        {
          "indexed": true,
          "internalType": "address",
          "name": "previousOwner",
          "type": "address"
        },
        {
          "indexed": true,
          "internalType": "address",
          "name": "newOwner",
          "type": "address"
        }
      ],
      "name": "OwnershipTransferred",
      "type": "event"
    },
    {
      "anonymous": false,
      "inputs": [
        {
          "indexed": true,
          "internalType": "address",
          "name": "from",
          "type": "address"
        },
        {
          "indexed": true,
          "internalType": "address",
          "name": "to",
          "type": "address"
        },
        {
          "indexed": true,
          "internalType": "uint256",
          "name": "tokenId",
          "type": "uint256"
        }
      ],
      "name": "Transfer",
      "type": "event"
    },
    {
      "inputs": [
        {
          "internalType": "address",
          "name": "to",
          "type": "address"
        },
        {
          "internalType": "uint256",
          "name": "tokenId",
          "type": "uint256"
        }
      ],
      "name": "approve",
      "outputs": [],
      "stateMutability": "nonpayable",
      "type": "function"
    },
    {
      "inputs": [
        {
          "internalType": "string",
          "name": "",
          "type": "string"
        },
        {
          "internalType": "address",
          "name": "",
          "type": "address"
        }
      ],
      "name": "balanceByIdentifier",
      "outputs": [
        {
          "internalType": "uint256",
          "name": "",
          "type": "uint256"
        }
      ],
      "stateMutability": "view",
      "type": "function"
    },
    {
      "inputs": [
        {
          "internalType": "address",
          "name": "owner",
          "type": "address"
        }
      ],
      "name": "balanceOf",
      "outputs": [
        {
          "internalType": "uint256",
          "name": "",
          "type": "uint256"
        }
      ],
      "stateMutability": "view",
      "type": "function"
    },
    {
      "inputs": [],
      "name": "baseURI",
      "outputs": [
        {
          "internalType": "string",
          "name": "",
          "type": "string"
        }
      ],
      "stateMutability": "view",
      "type": "function"
    },
    {
      "inputs": [],
      "name": "contractURI",
      "outputs": [
        {
          "internalType": "string",
          "name": "",
          "type": "string"
        }
      ],
      "stateMutability": "view",
      "type": "function"
    },
    {
      "inputs": [],
      "name": "emptyRoot",
      "outputs": [
        {
          "internalType": "bytes32",
          "name": "",
          "type": "bytes32"
        }
      ],
      "stateMutability": "view",
      "type": "function"
    },
    {
      "inputs": [],
      "name": "feeDestination",
      "outputs": [
        {
          "internalType": "address",
          "name": "",
          "type": "address"
        }
      ],
      "stateMutability": "view",
      "type": "function"
    },
    {
      "inputs": [
        {
          "internalType": "uint256",
          "name": "tokenId",
          "type": "uint256"
        }
      ],
      "name": "getApproved",
      "outputs": [
        {
          "internalType": "address",
          "name": "",
          "type": "address"
        }
      ],
      "stateMutability": "view",
      "type": "function"
    },
    {
      "inputs": [
        {
          "components": [
            {
              "internalType": "string",
              "name": "saleIdentifier",
              "type": "string"
            },
            {
              "internalType": "bool",
              "name": "enabled",
              "type": "bool"
            },
            {
              "internalType": "uint256",
              "name": "startTime",
              "type": "uint256"
            },
            {
              "internalType": "uint256",
              "name": "endTime",
              "type": "uint256"
            },
            {
              "internalType": "uint256",
              "name": "mintCharge",
              "type": "uint256"
            },
            {
              "internalType": "bytes32",
              "name": "whitelistRoot",
              "type": "bytes32"
            },
            {
              "internalType": "uint256",
              "name": "maxMintPerWallet",
              "type": "uint256"
            },
            {
              "internalType": "uint256",
              "name": "maxMintInSale",
              "type": "uint256"
            }
          ],
          "internalType": "struct Collection721.SaleConfig",
          "name": "config",
          "type": "tuple"
        }
      ],
      "name": "getSaleConfigLeaf",
      "outputs": [
        {
          "internalType": "bytes32",
          "name": "",
          "type": "bytes32"
        }
      ],
      "stateMutability": "pure",
      "type": "function"
    },
    {
      "inputs": [
        {
          "internalType": "address",
          "name": "owner",
          "type": "address"
        },
        {
          "internalType": "address",
          "name": "operator",
          "type": "address"
        }
      ],
      "name": "isApprovedForAll",
      "outputs": [
        {
          "internalType": "bool",
          "name": "",
          "type": "bool"
        }
      ],
      "stateMutability": "view",
      "type": "function"
    },
    {
      "inputs": [
        {
          "internalType": "bytes",
          "name": "",
          "type": "bytes"
        }
      ],
      "name": "isSignatureRedeemed",
      "outputs": [
        {
          "internalType": "bool",
          "name": "",
          "type": "bool"
        }
      ],
      "stateMutability": "view",
      "type": "function"
    },
    {
      "inputs": [],
      "name": "maxMintInTotalPerWallet",
      "outputs": [
        {
          "internalType": "uint256",
          "name": "",
          "type": "uint256"
        }
      ],
      "stateMutability": "view",
      "type": "function"
    },
    {
      "inputs": [
        {
          "internalType": "bytes32[]",
          "name": "saleConfigProof",
          "type": "bytes32[]"
        },
        {
          "internalType": "bytes32[]",
          "name": "whitelistProof",
          "type": "bytes32[]"
        },
        {
          "internalType": "uint256",
          "name": "numberOfMint",
          "type": "uint256"
        },
        {
          "internalType": "string",
          "name": "message",
          "type": "string"
        },
        {
          "internalType": "bytes",
          "name": "signature",
          "type": "bytes"
        },
        {
          "components": [
            {
              "internalType": "string",
              "name": "saleIdentifier",
              "type": "string"
            },
            {
              "internalType": "bool",
              "name": "enabled",
              "type": "bool"
            },
            {
              "internalType": "uint256",
              "name": "startTime",
              "type": "uint256"
            },
            {
              "internalType": "uint256",
              "name": "endTime",
              "type": "uint256"
            },
            {
              "internalType": "uint256",
              "name": "mintCharge",
              "type": "uint256"
            },
            {
              "internalType": "bytes32",
              "name": "whitelistRoot",
              "type": "bytes32"
            },
            {
              "internalType": "uint256",
              "name": "maxMintPerWallet",
              "type": "uint256"
            },
            {
              "internalType": "uint256",
              "name": "maxMintInSale",
              "type": "uint256"
            }
          ],
          "internalType": "struct Collection721.SaleConfig",
          "name": "config",
          "type": "tuple"
        }
      ],
      "name": "mint",
      "outputs": [],
      "stateMutability": "payable",
      "type": "function"
    },
    {
      "inputs": [
        {
          "internalType": "string",
          "name": "",
          "type": "string"
        }
      ],
      "name": "mintCountByIdentifier",
      "outputs": [
        {
          "internalType": "uint256",
          "name": "",
          "type": "uint256"
        }
      ],
      "stateMutability": "view",
      "type": "function"
    },
    {
      "inputs": [],
      "name": "msgSigner",
      "outputs": [
        {
          "internalType": "address",
          "name": "",
          "type": "address"
        }
      ],
      "stateMutability": "view",
      "type": "function"
    },
    {
      "inputs": [],
      "name": "name",
      "outputs": [
        {
          "internalType": "string",
          "name": "",
          "type": "string"
        }
      ],
      "stateMutability": "view",
      "type": "function"
    },
    {
      "inputs": [],
      "name": "owner",
      "outputs": [
        {
          "internalType": "address",
          "name": "",
          "type": "address"
        }
      ],
      "stateMutability": "view",
      "type": "function"
    },
    {
      "inputs": [
        {
          "internalType": "uint256",
          "name": "tokenId",
          "type": "uint256"
        }
      ],
      "name": "ownerOf",
      "outputs": [
        {
          "internalType": "address",
          "name": "",
          "type": "address"
        }
      ],
      "stateMutability": "view",
      "type": "function"
    },
    {
      "inputs": [],
      "name": "renounceOwnership",
      "outputs": [],
      "stateMutability": "nonpayable",
      "type": "function"
    },
    {
      "inputs": [
        {
          "internalType": "address",
          "name": "from",
          "type": "address"
        },
        {
          "internalType": "address",
          "name": "to",
          "type": "address"
        },
        {
          "internalType": "uint256",
          "name": "tokenId",
          "type": "uint256"
        }
      ],
      "name": "safeTransferFrom",
      "outputs": [],
      "stateMutability": "nonpayable",
      "type": "function"
    },
    {
      "inputs": [
        {
          "internalType": "address",
          "name": "from",
          "type": "address"
        },
        {
          "internalType": "address",
          "name": "to",
          "type": "address"
        },
        {
          "internalType": "uint256",
          "name": "tokenId",
          "type": "uint256"
        },
        {
          "internalType": "bytes",
          "name": "_data",
          "type": "bytes"
        }
      ],
      "name": "safeTransferFrom",
      "outputs": [],
      "stateMutability": "nonpayable",
      "type": "function"
    },
    {
      "inputs": [],
      "name": "saleConfigsRoot",
      "outputs": [
        {
          "internalType": "bytes32",
          "name": "",
          "type": "bytes32"
        }
      ],
      "stateMutability": "view",
      "type": "function"
    },
    {
      "inputs": [
        {
          "internalType": "address",
          "name": "operator",
          "type": "address"
        },
        {
          "internalType": "bool",
          "name": "approved",
          "type": "bool"
        }
      ],
      "name": "setApprovalForAll",
      "outputs": [],
      "stateMutability": "nonpayable",
      "type": "function"
    },
    {
      "inputs": [
        {
          "internalType": "bytes4",
          "name": "interfaceId",
          "type": "bytes4"
        }
      ],
      "name": "supportsInterface",
      "outputs": [
        {
          "internalType": "bool",
          "name": "",
          "type": "bool"
        }
      ],
      "stateMutability": "view",
      "type": "function"
    },
    {
      "inputs": [],
      "name": "symbol",
      "outputs": [
        {
          "internalType": "string",
          "name": "",
          "type": "string"
        }
      ],
      "stateMutability": "view",
      "type": "function"
    },
    {
      "inputs": [],
      "name": "tokenId",
      "outputs": [
        {
          "internalType": "uint256",
          "name": "",
          "type": "uint256"
        }
      ],
      "stateMutability": "view",
      "type": "function"
    },
    {
      "inputs": [
        {
          "internalType": "uint256",
          "name": "_tokenId",
          "type": "uint256"
        }
      ],
      "name": "tokenURI",
      "outputs": [
        {
          "internalType": "string",
          "name": "",
          "type": "string"
        }
      ],
      "stateMutability": "view",
      "type": "function"
    },
    {
      "inputs": [
        {
          "internalType": "address",
          "name": "from",
          "type": "address"
        },
        {
          "internalType": "address",
          "name": "to",
          "type": "address"
        },
        {
          "internalType": "uint256",
          "name": "tokenId",
          "type": "uint256"
        }
      ],
      "name": "transferFrom",
      "outputs": [],
      "stateMutability": "nonpayable",
      "type": "function"
    },
    {
      "inputs": [
        {
          "internalType": "address",
          "name": "newOwner",
          "type": "address"
        }
      ],
      "name": "transferOwnership",
      "outputs": [],
      "stateMutability": "nonpayable",
      "type": "function"
    },
    {
      "inputs": [
        {
          "internalType": "string",
          "name": "_baseURI",
          "type": "string"
        }
      ],
      "name": "updateBaseURI",
      "outputs": [],
      "stateMutability": "nonpayable",
      "type": "function"
    },
    {
      "inputs": [
        {
          "internalType": "address",
          "name": "_feeDestination",
          "type": "address"
        }
      ],
      "name": "updateFeeToAddress",
      "outputs": [],
      "stateMutability": "nonpayable",
      "type": "function"
    },
    {
      "inputs": [
        {
          "internalType": "uint256",
          "name": "_val",
          "type": "uint256"
        }
      ],
      "name": "updateMaxMintInTotalPerWallet",
      "outputs": [],
      "stateMutability": "nonpayable",
      "type": "function"
    },
    {
      "inputs": [
        {
          "internalType": "bytes32",
          "name": "_saleConfigRoot",
          "type": "bytes32"
        }
      ],
      "name": "updateSaleConfigRoot",
      "outputs": [],
      "stateMutability": "nonpayable",
      "type": "function"
    }
  ],
  "bytecode": "0x6080604052600160075560006008553480156200001b57600080fd5b506040516200310a3803806200310a8339810160408190526200003e916200029d565b86866200004b33620000d7565b81516200006090600190602085019062000127565b5080516200007690600290602084019062000127565b5050600980546001600160a01b038089166001600160a01b031992831617909255600a869055600f805492861692909116919091179055508051620000c390601090602084019062000127565b505050600e9190915550620003b692505050565b600080546001600160a01b038381166001600160a01b0319831681178455604051919092169283917f8be0079c531659141344cd1fd0a4f28419497f9722a3daafe3b4186f6b6457e09190a35050565b828054620001359062000363565b90600052602060002090601f016020900481019282620001595760008555620001a4565b82601f106200017457805160ff1916838001178555620001a4565b82800160010185558215620001a4579182015b82811115620001a457825182559160200191906001019062000187565b50620001b2929150620001b6565b5090565b5b80821115620001b25760008155600101620001b7565b80516001600160a01b0381168114620001e557600080fd5b919050565b600082601f830112620001fb578081fd5b81516001600160401b0380821115620002185762000218620003a0565b604051601f8301601f19908116603f01168101908282118183101715620002435762000243620003a0565b816040528381526020925086838588010111156200025f578485fd5b8491505b8382101562000282578582018301518183018401529082019062000263565b838211156200029357848385830101525b9695505050505050565b600080600080600080600060e0888a031215620002b8578283fd5b87516001600160401b0380821115620002cf578485fd5b620002dd8b838c01620001ea565b985060208a0151915080821115620002f3578485fd5b620003018b838c01620001ea565b97506200031160408b01620001cd565b965060608a0151955060808a015194506200032f60a08b01620001cd565b935060c08a015191508082111562000345578283fd5b50620003548a828b01620001ea565b91505092959891949750929550565b600181811c908216806200037857607f821691505b602082108114156200039a57634e487b7160e01b600052602260045260246000fd5b50919050565b634e487b7160e01b600052604160045260246000fd5b612d4480620003c66000396000f3fe6080604052600436106101ae5760003560e01c806383699816116100ed578063ba4cc74911610090578063ba4cc749146104eb578063c87b56dd14610523578063ca73e5e914610543578063d9c79c1c14610563578063de53fcd514610576578063e8a3d48514610596578063e985e9c5146105ab578063eaf3a589146105cb578063f2fde38b146105e157600080fd5b806383699816146103e35780638da5cb5b14610403578063931688cb1461041857806395d89b41146104385780639a953ea21461044d578063a22cb46514610463578063ae5adfd214610483578063b88d4fde146104cb57600080fd5b806342842e0e1161015557806342842e0e1461030357806361b5a2a2146103235780636352211e146103435780636c0360eb1461036357806370a0823114610378578063715018a6146103985780638028b285146103ad57806380e73783146103cd57600080fd5b8063018779c7146101b357806301ffc9a71461020357806306fdde0314610223578063081812fc14610245578063095ea7b31461027d57806317d70f7c1461029f578063210112f5146102c357806323b872dd146102e3575b600080fd5b3480156101bf57600080fd5b506101ee6101ce366004612747565b8051602081830181018051600b8252928201919093012091525460ff1681565b60405190151581526020015b60405180910390f35b34801561020f57600080fd5b506101ee61021e36600461270f565b610601565b34801561022f57600080fd5b50610238610653565b6040516101fa9190612a63565b34801561025157600080fd5b506102656102603660046126f7565b6106e5565b6040516001600160a01b0390911681526020016101fa565b34801561028957600080fd5b5061029d6102983660046125fb565b610772565b005b3480156102ab57600080fd5b506102b560075481565b6040519081526020016101fa565b3480156102cf57600080fd5b5061029d6102de3660046124e6565b610883565b3480156102ef57600080fd5b5061029d6102fe366004612532565b6108d4565b34801561030f57600080fd5b5061029d61031e366004612532565b610905565b34801561032f57600080fd5b5061029d61033e3660046126f7565b610920565b34801561034f57600080fd5b5061026561035e3660046126f7565b610954565b34801561036f57600080fd5b506102386109cb565b34801561038457600080fd5b506102b56103933660046124e6565b610a59565b3480156103a457600080fd5b5061029d610ae0565b3480156103b957600080fd5b50600f54610265906001600160a01b031681565b3480156103d957600080fd5b506102b560085481565b3480156103ef57600080fd5b5061029d6103fe3660046126f7565b610b1b565b34801561040f57600080fd5b50610265610b4f565b34801561042457600080fd5b5061029d610433366004612747565b610b5e565b34801561044457600080fd5b50610238610ba4565b34801561045957600080fd5b506102b5600e5481565b34801561046f57600080fd5b5061029d61047e3660046125d2565b610bb3565b34801561048f57600080fd5b506102b561049e366004612779565b8151602081840181018051600d825292820194820194909420919093529091526000908152604090205481565b3480156104d757600080fd5b5061029d6104e636600461256d565b610bbe565b3480156104f757600080fd5b506102b5610506366004612747565b8051602081830181018051600c8252928201919093012091525481565b34801561052f57600080fd5b5061023861053e3660046126f7565b610bf6565b34801561054f57600080fd5b506102b561055e3660046127bb565b610c40565b61029d610571366004612624565b610cb5565b34801561058257600080fd5b50600954610265906001600160a01b031681565b3480156105a257600080fd5b5061023861139e565b3480156105b757600080fd5b506101ee6105c6366004612500565b6113dc565b3480156105d757600080fd5b506102b5600a5481565b3480156105ed57600080fd5b5061029d6105fc3660046124e6565b61140a565b60006001600160e01b031982166380ac58cd60e01b148061063257506001600160e01b03198216635b5e139f60e01b145b8061064d57506301ffc9a760e01b6001600160e01b03198316145b92915050565b60606001805461066290612c4c565b80601f016020809104026020016040519081016040528092919081815260200182805461068e90612c4c565b80156106db5780601f106106b0576101008083540402835291602001916106db565b820191906000526020600020905b8154815290600101906020018083116106be57829003601f168201915b5050505050905090565b60006106f0826114aa565b6107565760405162461bcd60e51b815260206004820152602c60248201527f4552433732313a20617070726f76656420717565727920666f72206e6f6e657860448201526b34b9ba32b73a103a37b5b2b760a11b60648201526084015b60405180910390fd5b506000908152600560205260409020546001600160a01b031690565b600061077d82610954565b9050806001600160a01b0316836001600160a01b031614156107eb5760405162461bcd60e51b815260206004820152602160248201527f4552433732313a20617070726f76616c20746f2063757272656e74206f776e656044820152603960f91b606482015260840161074d565b336001600160a01b0382161480610807575061080781336113dc565b6108745760405162461bcd60e51b815260206004820152603860248201527f4552433732313a20617070726f76652063616c6c6572206973206e6f74206f776044820152771b995c881b9bdc88185c1c1c9bdd995908199bdc88185b1b60421b606482015260840161074d565b61087e83836114c7565b505050565b3361088c610b4f565b6001600160a01b0316146108b25760405162461bcd60e51b815260040161074d90612ac8565b600980546001600160a01b0319166001600160a01b0392909216919091179055565b6108de3382611535565b6108fa5760405162461bcd60e51b815260040161074d90612afd565b61087e8383836115ff565b61087e83838360405180602001604052806000815250610bbe565b33610929610b4f565b6001600160a01b03161461094f5760405162461bcd60e51b815260040161074d90612ac8565b600e55565b6000818152600360205260408120546001600160a01b03168061064d5760405162461bcd60e51b815260206004820152602960248201527f4552433732313a206f776e657220717565727920666f72206e6f6e657869737460448201526832b73a103a37b5b2b760b91b606482015260840161074d565b601080546109d890612c4c565b80601f0160208091040260200160405190810160405280929190818152602001828054610a0490612c4c565b8015610a515780601f10610a2657610100808354040283529160200191610a51565b820191906000526020600020905b815481529060010190602001808311610a3457829003601f168201915b505050505081565b60006001600160a01b038216610ac45760405162461bcd60e51b815260206004820152602a60248201527f4552433732313a2062616c616e636520717565727920666f7220746865207a65604482015269726f206164647265737360b01b606482015260840161074d565b506001600160a01b031660009081526004602052604090205490565b33610ae9610b4f565b6001600160a01b031614610b0f5760405162461bcd60e51b815260040161074d90612ac8565b610b19600061179b565b565b33610b24610b4f565b6001600160a01b031614610b4a5760405162461bcd60e51b815260040161074d90612ac8565b600a55565b6000546001600160a01b031690565b33610b67610b4f565b6001600160a01b031614610b8d5760405162461bcd60e51b815260040161074d90612ac8565b8051610ba09060109060208401906122a1565b5050565b60606002805461066290612c4c565b610ba03383836117eb565b610bc83383611535565b610be45760405162461bcd60e51b815260040161074d90612afd565b610bf0848484846118b6565b50505050565b60606010610c053060146118e9565b610c0e46611ad1565b610c1785611ad1565b604051602001610c2a949392919061293e565b6040516020818303038152906040529050919050565b80516020808301516040808501516060860151608087015160a088015160c089015160e08a01519551600099610c7a9990989791016129d7565b60408051601f19818403018152828252805160209182012090830152015b604051602081830303815290604052805190602001209050919050565b85858583600854600a541415610d025760405162461bcd60e51b8152602060048201526012602482015271139bc81cd85b194818dbdb999a59dd5c995960721b604482015260640161074d565b610d1784600a54610d1284610c40565b611bea565b610d595760405162461bcd60e51b8152602060048201526013602482015272496e76616c69642053616c6520436f6e66696760681b604482015260640161074d565b8060200151610da05760405162461bcd60e51b815260206004820152601360248201527214d85b19481a5cc81b9bdd08195b98589b1959606a1b604482015260640161074d565b6040810151429015801590610db9575081604001518110155b610e005760405162461bcd60e51b815260206004820152601860248201527714d85b19481a185cc81b9bdd081cdd185c9d1959081e595d60421b604482015260640161074d565b816060015181111580610e1557506060820151155b610e525760405162461bcd60e51b815260206004820152600e60248201526d14d85b19481a185cc8195b99195960921b604482015260640161074d565b828260800151610e629190612bd3565b341015610eb15760405162461bcd60e51b815260206004820152601f60248201527f4e6f7420656e6f756768206d696e74206368617267652070726f766964656400604482015260640161074d565b8160e0015183600c8460000151604051610ecb91906128b1565b908152602001604051809103902054610ee49190612ba7565b1115610f2b5760405162461bcd60e51b81526020600482015260166024820152754d61782053616c65204c696d6974204578636565647360501b604482015260640161074d565b8160c0015183600d8460000151604051610f4591906128b1565b90815260408051602092819003830190203360009081529252902054610f6b9190612ba7565b1115610fb95760405162461bcd60e51b815260206004820181905260248201527f4d61784d696e7450657257616c6c657453616c654c696d697445786365656473604482015260640161074d565b600e541561102657600e5483610fce33610a59565b610fd89190612ba7565b11156110265760405162461bcd60e51b815260206004820152601e60248201527f4d6178546f74616c4d696e7457616c6c65744c696d6974457863656564730000604482015260640161074d565b6008548260a00151146110b55760a08201516040516001600160601b03193360601b16602082015261107291869160340160405160208183030381529060405280519060200120611bea565b6110b55760405162461bcd60e51b8152602060048201526014602482015273155cd95c881b9bdd081dda1a5d195b1a5cdd195960621b604482015260640161074d565b8787600b816040516110c791906128b1565b9081526040519081900360200190205460ff16156111245760405162461bcd60e51b815260206004820152601a60248201527914da59db985d1d5c9948185b1c9958591e481c995919595b595960321b604482015260640161074d565b600f546040516001600160a01b039091169061116f9083906111699061114e9087906020016128b1565b60405160208183030381529060405280519060200120611c00565b90611c3b565b6001600160a01b0316146111b95760405162461bcd60e51b8152602060048201526011602482015270496e76616c6964205369676e617475726560781b604482015260640161074d565b60008b116112005760405162461bcd60e51b815260206004820152601460248201527304e756d626572206f66206d696e747320697320360641b604482015260640161074d565b60005b8b81101561123257611222338260075461121d9190612ba7565b611c5f565b61122b81612c87565b9050611203565b508a6007546112419190612ba7565b60075587516040518c91600d9161125891906128b1565b9081526040805160209281900383019020336000908152925281208054909190611283908490612ba7565b909155505087516040518c91600c9161129c91906128b1565b908152602001604051809103902060008282546112b99190612ba7565b925050819055506001600b8a6040516112d291906128b1565b908152604051908190036020018120805492151560ff19909316929092179091556009546001600160a01b0316903480156108fc02916000818181858888f19350505050158015611327573d6000803e3d6000fd5b507f4c209b5fc8ad50758f13e2e1088ba56a560dff690a1c6fef26394f4c03821c4f338c6007546113589190612bf2565b60016007546113679190612bf2565b604080516001600160a01b03909416845260208401929092529082015260600160405180910390a150505050505050505050505050565b606060106113ad3060146118e9565b6113b646611ad1565b6040516020016113c8939291906128cd565b604051602081830303815290604052905090565b6001600160a01b03918216600090815260066020908152604080832093909416825291909152205460ff1690565b33611413610b4f565b6001600160a01b0316146114395760405162461bcd60e51b815260040161074d90612ac8565b6001600160a01b03811661149e5760405162461bcd60e51b815260206004820152602660248201527f4f776e61626c653a206e6577206f776e657220697320746865207a65726f206160448201526564647265737360d01b606482015260840161074d565b6114a78161179b565b50565b6000908152600360205260409020546001600160a01b0316151590565b600081815260056020526040902080546001600160a01b0319166001600160a01b03841690811790915581906114fc82610954565b6001600160a01b03167f8c5be1e5ebec7d5bd14f71427d1e84f3dd0314c0f7b2291e5b200ac8c7c3b92560405160405180910390a45050565b6000611540826114aa565b6115a15760405162461bcd60e51b815260206004820152602c60248201527f4552433732313a206f70657261746f7220717565727920666f72206e6f6e657860448201526b34b9ba32b73a103a37b5b2b760a11b606482015260840161074d565b60006115ac83610954565b9050806001600160a01b0316846001600160a01b031614806115d357506115d381856113dc565b806115f75750836001600160a01b03166115ec846106e5565b6001600160a01b0316145b949350505050565b826001600160a01b031661161282610954565b6001600160a01b0316146116765760405162461bcd60e51b815260206004820152602560248201527f4552433732313a207472616e736665722066726f6d20696e636f72726563742060448201526437bbb732b960d91b606482015260840161074d565b6001600160a01b0382166116d85760405162461bcd60e51b8152602060048201526024808201527f4552433732313a207472616e7366657220746f20746865207a65726f206164646044820152637265737360e01b606482015260840161074d565b6116e36000826114c7565b6001600160a01b038316600090815260046020526040812080546001929061170c908490612bf2565b90915550506001600160a01b038216600090815260046020526040812080546001929061173a908490612ba7565b909155505060008181526003602052604080822080546001600160a01b0319166001600160a01b0386811691821790925591518493918716917fddf252ad1be2c89b69c2b068fc378daa952ba7f163c4a11628f55a4df523b3ef91a4505050565b600080546001600160a01b038381166001600160a01b0319831681178455604051919092169283917f8be0079c531659141344cd1fd0a4f28419497f9722a3daafe3b4186f6b6457e09190a35050565b816001600160a01b0316836001600160a01b031614156118495760405162461bcd60e51b815260206004820152601960248201527822a9219b99189d1030b8383937bb32903a379031b0b63632b960391b604482015260640161074d565b6001600160a01b03838116600081815260066020908152604080832094871680845294825291829020805460ff191686151590811790915591519182527f17307eab39ab6107e8899845ad3d59bd9653f200f220920489ca2b5937696c31910160405180910390a3505050565b6118c18484846115ff565b6118cd84848484611d92565b610bf05760405162461bcd60e51b815260040161074d90612a76565b606060006118f8836002612bd3565b611903906002612ba7565b6001600160401b0381111561192857634e487b7160e01b600052604160045260246000fd5b6040519080825280601f01601f191660200182016040528015611952576020820181803683370190505b509050600360fc1b8160008151811061197b57634e487b7160e01b600052603260045260246000fd5b60200101906001600160f81b031916908160001a905350600f60fb1b816001815181106119b857634e487b7160e01b600052603260045260246000fd5b60200101906001600160f81b031916908160001a90535060006119dc846002612bd3565b6119e7906001612ba7565b90505b6001811115611a7b576f181899199a1a9b1b9c1cb0b131b232b360811b85600f1660108110611a2957634e487b7160e01b600052603260045260246000fd5b1a60f81b828281518110611a4d57634e487b7160e01b600052603260045260246000fd5b60200101906001600160f81b031916908160001a90535060049490941c93611a7481612c35565b90506119ea565b508315611aca5760405162461bcd60e51b815260206004820181905260248201527f537472696e67733a20686578206c656e67746820696e73756666696369656e74604482015260640161074d565b9392505050565b606081611af55750506040805180820190915260018152600360fc1b602082015290565b8160005b8115611b1f5780611b0981612c87565b9150611b189050600a83612bbf565b9150611af9565b6000816001600160401b03811115611b4757634e487b7160e01b600052604160045260246000fd5b6040519080825280601f01601f191660200182016040528015611b71576020820181803683370190505b5090505b84156115f757611b86600183612bf2565b9150611b93600a86612ca2565b611b9e906030612ba7565b60f81b818381518110611bc157634e487b7160e01b600052603260045260246000fd5b60200101906001600160f81b031916908160001a905350611be3600a86612bbf565b9450611b75565b600082611bf78584611e9f565b14949350505050565b6040517f19457468657265756d205369676e6564204d6573736167653a0a3332000000006020820152603c8101829052600090605c01610c98565b6000806000611c4a8585611f19565b91509150611c5781611f89565b509392505050565b6001600160a01b038216611cb55760405162461bcd60e51b815260206004820181905260248201527f4552433732313a206d696e7420746f20746865207a65726f2061646472657373604482015260640161074d565b611cbe816114aa565b15611d0b5760405162461bcd60e51b815260206004820152601c60248201527f4552433732313a20746f6b656e20616c7265616479206d696e74656400000000604482015260640161074d565b6001600160a01b0382166000908152600460205260408120805460019290611d34908490612ba7565b909155505060008181526003602052604080822080546001600160a01b0319166001600160a01b03861690811790915590518392907fddf252ad1be2c89b69c2b068fc378daa952ba7f163c4a11628f55a4df523b3ef908290a45050565b60006001600160a01b0384163b15611e9457604051630a85bd0160e11b81526001600160a01b0385169063150b7a0290611dd6903390899088908890600401612a26565b602060405180830381600087803b158015611df057600080fd5b505af1925050508015611e20575060408051601f3d908101601f19168201909252611e1d9181019061272b565b60015b611e7a573d808015611e4e576040519150601f19603f3d011682016040523d82523d6000602084013e611e53565b606091505b508051611e725760405162461bcd60e51b815260040161074d90612a76565b805181602001fd5b6001600160e01b031916630a85bd0160e11b1490506115f7565b506001949350505050565b600081815b8451811015611c57576000858281518110611ecf57634e487b7160e01b600052603260045260246000fd5b60200260200101519050808311611ef55760008381526020829052604090209250611f06565b600081815260208490526040902092505b5080611f1181612c87565b915050611ea4565b600080825160411415611f505760208301516040840151606085015160001a611f4487828585612185565b94509450505050611f82565b825160401415611f7a5760208301516040840151611f6f868383612268565b935093505050611f82565b506000905060025b9250929050565b6000816004811115611fab57634e487b7160e01b600052602160045260246000fd5b1415611fb45750565b6001816004811115611fd657634e487b7160e01b600052602160045260246000fd5b141561201f5760405162461bcd60e51b815260206004820152601860248201527745434453413a20696e76616c6964207369676e617475726560401b604482015260640161074d565b600281600481111561204157634e487b7160e01b600052602160045260246000fd5b141561208f5760405162461bcd60e51b815260206004820152601f60248201527f45434453413a20696e76616c6964207369676e6174757265206c656e67746800604482015260640161074d565b60038160048111156120b157634e487b7160e01b600052602160045260246000fd5b141561210a5760405162461bcd60e51b815260206004820152602260248201527f45434453413a20696e76616c6964207369676e6174757265202773272076616c604482015261756560f01b606482015260840161074d565b600481600481111561212c57634e487b7160e01b600052602160045260246000fd5b14156114a75760405162461bcd60e51b815260206004820152602260248201527f45434453413a20696e76616c6964207369676e6174757265202776272076616c604482015261756560f01b606482015260840161074d565b6000806fa2a8918ca85bafe22016d0b997e4df60600160ff1b038311156121b2575060009050600361225f565b8460ff16601b141580156121ca57508460ff16601c14155b156121db575060009050600461225f565b6040805160008082526020820180845289905260ff881692820192909252606081018690526080810185905260019060a0016020604051602081039080840390855afa15801561222f573d6000803e3d6000fd5b5050604051601f1901519150506001600160a01b0381166122585760006001925092505061225f565b9150600090505b94509492505050565b6000806001600160ff1b0383168161228560ff86901c601b612ba7565b905061229387828885612185565b935093505050935093915050565b8280546122ad90612c4c565b90600052602060002090601f0160209004810192826122cf5760008555612315565b82601f106122e857805160ff1916838001178555612315565b82800160010185558215612315579182015b828111156123155782518255916020019190600101906122fa565b50612321929150612325565b5090565b5b808211156123215760008155600101612326565b80356001600160a01b038116811461235157600080fd5b919050565b600082601f830112612366578081fd5b813560206001600160401b0382111561238157612381612ce2565b8160051b612390828201612b77565b8381528281019086840183880185018910156123aa578687fd5b8693505b858410156123cc5780358352600193909301929184019184016123ae565b50979650505050505050565b8035801515811461235157600080fd5b600082601f8301126123f8578081fd5b81356001600160401b0381111561241157612411612ce2565b612424601f8201601f1916602001612b77565b818152846020838601011115612438578283fd5b816020850160208301379081016020019190915292915050565b60006101008284031215612464578081fd5b61246c612b4e565b905081356001600160401b0381111561248457600080fd5b612490848285016123e8565b82525061249f602083016123d8565b602082015260408201356040820152606082013560608201526080820135608082015260a082013560a082015260c082013560c082015260e082013560e082015292915050565b6000602082840312156124f7578081fd5b611aca8261233a565b60008060408385031215612512578081fd5b61251b8361233a565b91506125296020840161233a565b90509250929050565b600080600060608486031215612546578081fd5b61254f8461233a565b925061255d6020850161233a565b9150604084013590509250925092565b60008060008060808587031215612582578081fd5b61258b8561233a565b93506125996020860161233a565b92506040850135915060608501356001600160401b038111156125ba578182fd5b6125c6878288016123e8565b91505092959194509250565b600080604083850312156125e4578182fd5b6125ed8361233a565b9150612529602084016123d8565b6000806040838503121561260d578182fd5b6126168361233a565b946020939093013593505050565b60008060008060008060c0878903121561263c578182fd5b86356001600160401b0380821115612652578384fd5b61265e8a838b01612356565b97506020890135915080821115612673578384fd5b61267f8a838b01612356565b965060408901359550606089013591508082111561269b578384fd5b6126a78a838b016123e8565b945060808901359150808211156126bc578384fd5b6126c88a838b016123e8565b935060a08901359150808211156126dd578283fd5b506126ea89828a01612452565b9150509295509295509295565b600060208284031215612708578081fd5b5035919050565b600060208284031215612720578081fd5b8135611aca81612cf8565b60006020828403121561273c578081fd5b8151611aca81612cf8565b600060208284031215612758578081fd5b81356001600160401b0381111561276d578182fd5b6115f7848285016123e8565b6000806040838503121561278b578182fd5b82356001600160401b038111156127a0578283fd5b6127ac858286016123e8565b9250506125296020840161233a565b6000602082840312156127cc578081fd5b81356001600160401b038111156127e1578182fd5b6115f784828501612452565b60008151808452612805816020860160208601612c09565b601f01601f19169290920160200192915050565b8054600090600181811c908083168061283357607f831692505b602080841082141561285357634e487b7160e01b86526022600452602486fd5b8180156128675760018114612878576128a5565b60ff198616895284890196506128a5565b60008881526020902060005b8681101561289d5781548b820152908501908301612884565b505084890196505b50505050505092915050565b600082516128c3818460208701612c09565b9190910192915050565b60006128d98286612819565b74636f6e74726163742d7572693f616464726573733d60581b81528451612907816015840160208901612c09565b68266e6574776f726b3d60b81b60159290910191820152835161293181601e840160208801612c09565b01601e0195945050505050565b600061294a8287612819565b71746f6b656e2d7572693f616464726573733d60701b81528551612975816012840160208a01612c09565b68266e6574776f726b3d60b81b60129290910191820152845161299f81601b840160208901612c09565b6826746f6b656e49643d60b81b601b929091019182015283516129c9816024840160208801612c09565b016024019695505050505050565b600089516129e9818460208e01612c09565b98151560f81b919098019081526001810196909652602186019490945260418501929092526061840152608183015260a182015260c10192915050565b6001600160a01b0385811682528416602082015260408101839052608060608201819052600090612a59908301846127ed565b9695505050505050565b602081526000611aca60208301846127ed565b60208082526032908201527f4552433732313a207472616e7366657220746f206e6f6e20455243373231526560408201527131b2b4bb32b91034b6b83632b6b2b73a32b960711b606082015260800190565b6020808252818101527f4f776e61626c653a2063616c6c6572206973206e6f7420746865206f776e6572604082015260600190565b60208082526031908201527f4552433732313a207472616e736665722063616c6c6572206973206e6f74206f6040820152701ddb995c881b9bdc88185c1c1c9bdd9959607a1b606082015260800190565b60405161010081016001600160401b0381118282101715612b7157612b71612ce2565b60405290565b604051601f8201601f191681016001600160401b0381118282101715612b9f57612b9f612ce2565b604052919050565b60008219821115612bba57612bba612cb6565b500190565b600082612bce57612bce612ccc565b500490565b6000816000190483118215151615612bed57612bed612cb6565b500290565b600082821015612c0457612c04612cb6565b500390565b60005b83811015612c24578181015183820152602001612c0c565b83811115610bf05750506000910152565b600081612c4457612c44612cb6565b506000190190565b600181811c90821680612c6057607f821691505b60208210811415612c8157634e487b7160e01b600052602260045260246000fd5b50919050565b6000600019821415612c9b57612c9b612cb6565b5060010190565b600082612cb157612cb1612ccc565b500690565b634e487b7160e01b600052601160045260246000fd5b634e487b7160e01b600052601260045260246000fd5b634e487b7160e01b600052604160045260246000fd5b6001600160e01b0319811681146114a757600080fdfea2646970667358221220d519378ddd95adef20958445ef85dcb7e3afd03476ad7d6d6db032c2760bf62f64736f6c63430008040033",
  "linkReferences": {},
  "deployedLinkReferences": {}
}