{
  "_format": "hh-sol-artifact-1",
  "contractName": "Collection721",
  "sourceName": "contracts/hydro/hydro-dev/Collection721.sol",
  "abi": [
    {
      "inputs": [
        {
          "components": [
            {
              "internalType": "string",
              "name": "_name",
              "type": "string"
            },
            {
              "internalType": "string",
              "name": "_symbol",
              "type": "string"
            },
            {
              "internalType": "address",
              "name": "_feeDestination",
              "type": "address"
            },
            {
              "internalType": "uint256",
              "name": "_maxMintInTotalPerWallet",
              "type": "uint256"
            },
            {
              "internalType": "bytes32",
              "name": "_saleConfigRoot",
              "type": "bytes32"
            },
            {
              "internalType": "address",
              "name": "_msgSigner",
              "type": "address"
            },
            {
              "internalType": "string",
              "name": "_baseURI",
              "type": "string"
            },
            {
              "internalType": "uint256",
              "name": "_revealTime",
              "type": "uint256"
            },
            {
              "internalType": "uint96",
              "name": "_royaltyBasis",
              "type": "uint96"
            },
            {
              "internalType": "address",
              "name": "_platformOwner",
              "type": "address"
            },
            {
              "internalType": "uint256",
              "name": "_maxMintCap",
              "type": "uint256"
            },
            {
              "internalType": "address",
              "name": "_priceFeedAddress",
              "type": "address"
            }
          ],
          "internalType": "struct Collection721.ConstructorArgs",
          "name": "args",
          "type": "tuple"
        }
      ],
      "stateMutability": "payable",
      "type": "constructor"
    },
    {
      "inputs": [
        {
          "internalType": "address",
          "name": "operator",
          "type": "address"
        }
      ],
      "name": "OperatorNotAllowed",
      "type": "error"
    },
    {
      "anonymous": false,
      "inputs": [
        {
          "indexed": true,
          "internalType": "address",
          "name": "owner",
          "type": "address"
        },
        {
          "indexed": true,
          "internalType": "address",
          "name": "approved",
          "type": "address"
        },
        {
          "indexed": true,
          "internalType": "uint256",
          "name": "tokenId",
          "type": "uint256"
        }
      ],
      "name": "Approval",
      "type": "event"
    },
    {
      "anonymous": false,
      "inputs": [
        {
          "indexed": true,
          "internalType": "address",
          "name": "owner",
          "type": "address"
        },
        {
          "indexed": true,
          "internalType": "address",
          "name": "operator",
          "type": "address"
        },
        {
          "indexed": false,
          "internalType": "bool",
          "name": "approved",
          "type": "bool"
        }
      ],
      "name": "ApprovalForAll",
      "type": "event"
    },
    {
      "anonymous": false,
      "inputs": [
        {
          "indexed": false,
          "internalType": "address",
          "name": "msgSender",
          "type": "address"
        },
        {
          "indexed": false,
          "internalType": "uint256",
          "name": "fromTokenId",
          "type": "uint256"
        },
        {
          "indexed": false,
          "internalType": "uint256",
          "name": "toTokenId",
          "type": "uint256"
        }
      ],
      "name": "Mint",
      "type": "event"
    },
    {
      "anonymous": false,
      "inputs": [
        {
          "indexed": true,
          "internalType": "address",
          "name": "previousOwner",
          "type": "address"
        },
        {
          "indexed": true,
          "internalType": "address",
          "name": "newOwner",
          "type": "address"
        }
      ],
      "name": "OwnershipTransferred",
      "type": "event"
    },
    {
      "anonymous": false,
      "inputs": [
        {
          "indexed": true,
          "internalType": "address",
          "name": "from",
          "type": "address"
        },
        {
          "indexed": true,
          "internalType": "address",
          "name": "to",
          "type": "address"
        },
        {
          "indexed": true,
          "internalType": "uint256",
          "name": "tokenId",
          "type": "uint256"
        }
      ],
      "name": "Transfer",
      "type": "event"
    },
    {
      "inputs": [],
      "name": "EMPTY_ROOT",
      "outputs": [
        {
          "internalType": "bytes32",
          "name": "",
          "type": "bytes32"
        }
      ],
      "stateMutability": "view",
      "type": "function"
    },
    {
      "inputs": [
        {
          "internalType": "address",
          "name": "to",
          "type": "address"
        },
        {
          "internalType": "uint256",
          "name": "tokenId",
          "type": "uint256"
        }
      ],
      "name": "approve",
      "outputs": [],
      "stateMutability": "nonpayable",
      "type": "function"
    },
    {
      "inputs": [
        {
          "internalType": "address",
          "name": "owner",
          "type": "address"
        }
      ],
      "name": "balanceOf",
      "outputs": [
        {
          "internalType": "uint256",
          "name": "",
          "type": "uint256"
        }
      ],
      "stateMutability": "view",
      "type": "function"
    },
    {
      "inputs": [],
      "name": "baseURI",
      "outputs": [
        {
          "internalType": "string",
          "name": "",
          "type": "string"
        }
      ],
      "stateMutability": "view",
      "type": "function"
    },
    {
      "inputs": [],
      "name": "contractURI",
      "outputs": [
        {
          "internalType": "string",
          "name": "",
          "type": "string"
        }
      ],
      "stateMutability": "view",
      "type": "function"
    },
    {
      "inputs": [],
      "name": "feeDestination",
      "outputs": [
        {
          "internalType": "address",
          "name": "",
          "type": "address"
        }
      ],
      "stateMutability": "view",
      "type": "function"
    },
    {
      "inputs": [
        {
          "internalType": "uint256",
          "name": "tokenId",
          "type": "uint256"
        }
      ],
      "name": "getApproved",
      "outputs": [
        {
          "internalType": "address",
          "name": "",
          "type": "address"
        }
      ],
      "stateMutability": "view",
      "type": "function"
    },
    {
      "inputs": [
        {
          "components": [
            {
              "internalType": "string",
              "name": "saleIdentifier",
              "type": "string"
            },
            {
              "internalType": "bool",
              "name": "enabled",
              "type": "bool"
            },
            {
              "internalType": "uint256",
              "name": "startTime",
              "type": "uint256"
            },
            {
              "internalType": "uint256",
              "name": "endTime",
              "type": "uint256"
            },
            {
              "internalType": "uint256",
              "name": "mintCharge",
              "type": "uint256"
            },
            {
              "internalType": "bytes32",
              "name": "whitelistRoot",
              "type": "bytes32"
            },
            {
              "internalType": "uint256",
              "name": "maxMintPerWallet",
              "type": "uint256"
            },
            {
              "internalType": "uint256",
              "name": "maxMintInSale",
              "type": "uint256"
            }
          ],
          "internalType": "struct Collection721.SaleConfig",
          "name": "config",
          "type": "tuple"
        }
      ],
      "name": "getSaleConfigLeaf",
      "outputs": [
        {
          "internalType": "bytes32",
          "name": "",
          "type": "bytes32"
        }
      ],
      "stateMutability": "pure",
      "type": "function"
    },
    {
      "inputs": [
        {
          "internalType": "address",
          "name": "owner",
          "type": "address"
        },
        {
          "internalType": "address",
          "name": "operator",
          "type": "address"
        }
      ],
      "name": "isApprovedForAll",
      "outputs": [
        {
          "internalType": "bool",
          "name": "",
          "type": "bool"
        }
      ],
      "stateMutability": "view",
      "type": "function"
    },
    {
      "inputs": [
        {
          "internalType": "bytes",
          "name": "",
          "type": "bytes"
        }
      ],
      "name": "isSignatureRedeemed",
      "outputs": [
        {
          "internalType": "bool",
          "name": "",
          "type": "bool"
        }
      ],
      "stateMutability": "view",
      "type": "function"
    },
    {
      "inputs": [],
      "name": "maxMintCap",
      "outputs": [
        {
          "internalType": "uint256",
          "name": "",
          "type": "uint256"
        }
      ],
      "stateMutability": "view",
      "type": "function"
    },
    {
      "inputs": [],
      "name": "maxMintInTotalPerWallet",
      "outputs": [
        {
          "internalType": "uint256",
          "name": "",
          "type": "uint256"
        }
      ],
      "stateMutability": "view",
      "type": "function"
    },
    {
      "inputs": [
        {
          "internalType": "bytes32[]",
          "name": "saleConfigProof",
          "type": "bytes32[]"
        },
        {
          "internalType": "bytes32[]",
          "name": "whitelistProof",
          "type": "bytes32[]"
        },
        {
          "internalType": "uint256",
          "name": "numberOfMint",
          "type": "uint256"
        },
        {
          "internalType": "string",
          "name": "message",
          "type": "string"
        },
        {
          "internalType": "bytes",
          "name": "signature",
          "type": "bytes"
        },
        {
          "components": [
            {
              "internalType": "string",
              "name": "saleIdentifier",
              "type": "string"
            },
            {
              "internalType": "bool",
              "name": "enabled",
              "type": "bool"
            },
            {
              "internalType": "uint256",
              "name": "startTime",
              "type": "uint256"
            },
            {
              "internalType": "uint256",
              "name": "endTime",
              "type": "uint256"
            },
            {
              "internalType": "uint256",
              "name": "mintCharge",
              "type": "uint256"
            },
            {
              "internalType": "bytes32",
              "name": "whitelistRoot",
              "type": "bytes32"
            },
            {
              "internalType": "uint256",
              "name": "maxMintPerWallet",
              "type": "uint256"
            },
            {
              "internalType": "uint256",
              "name": "maxMintInSale",
              "type": "uint256"
            }
          ],
          "internalType": "struct Collection721.SaleConfig",
          "name": "config",
          "type": "tuple"
        }
      ],
      "name": "mint",
      "outputs": [],
      "stateMutability": "payable",
      "type": "function"
    },
    {
      "inputs": [],
      "name": "mintCount",
      "outputs": [
        {
          "internalType": "uint256",
          "name": "",
          "type": "uint256"
        }
      ],
      "stateMutability": "view",
      "type": "function"
    },
    {
      "inputs": [
        {
          "internalType": "string",
          "name": "",
          "type": "string"
        }
      ],
      "name": "mintCountByIdentifier",
      "outputs": [
        {
          "internalType": "uint256",
          "name": "",
          "type": "uint256"
        }
      ],
      "stateMutability": "view",
      "type": "function"
    },
    {
      "inputs": [
        {
          "internalType": "string",
          "name": "",
          "type": "string"
        },
        {
          "internalType": "address",
          "name": "",
          "type": "address"
        }
      ],
      "name": "mintCountByIdentifierWallet",
      "outputs": [
        {
          "internalType": "uint256",
          "name": "",
          "type": "uint256"
        }
      ],
      "stateMutability": "view",
      "type": "function"
    },
    {
      "inputs": [],
      "name": "msgSigner",
      "outputs": [
        {
          "internalType": "address",
          "name": "",
          "type": "address"
        }
      ],
      "stateMutability": "view",
      "type": "function"
    },
    {
      "inputs": [],
      "name": "name",
      "outputs": [
        {
          "internalType": "string",
          "name": "",
          "type": "string"
        }
      ],
      "stateMutability": "view",
      "type": "function"
    },
    {
      "inputs": [],
      "name": "owner",
      "outputs": [
        {
          "internalType": "address",
          "name": "",
          "type": "address"
        }
      ],
      "stateMutability": "view",
      "type": "function"
    },
    {
      "inputs": [
        {
          "internalType": "uint256",
          "name": "tokenId",
          "type": "uint256"
        }
      ],
      "name": "ownerOf",
      "outputs": [
        {
          "internalType": "address",
          "name": "",
          "type": "address"
        }
      ],
      "stateMutability": "view",
      "type": "function"
    },
    {
      "inputs": [],
      "name": "platformOwner",
      "outputs": [
        {
          "internalType": "address",
          "name": "",
          "type": "address"
        }
      ],
      "stateMutability": "view",
      "type": "function"
    },
    {
      "inputs": [],
      "name": "priceFeedAddress",
      "outputs": [
        {
          "internalType": "address",
          "name": "",
          "type": "address"
        }
      ],
      "stateMutability": "view",
      "type": "function"
    },
    {
      "inputs": [],
      "name": "renounceOwnership",
      "outputs": [],
      "stateMutability": "nonpayable",
      "type": "function"
    },
    {
      "inputs": [],
      "name": "revealTime",
      "outputs": [
        {
          "internalType": "uint256",
          "name": "",
          "type": "uint256"
        }
      ],
      "stateMutability": "view",
      "type": "function"
    },
    {
      "inputs": [],
      "name": "royaltyBasis",
      "outputs": [
        {
          "internalType": "uint96",
          "name": "",
          "type": "uint96"
        }
      ],
      "stateMutability": "view",
      "type": "function"
    },
    {
      "inputs": [
        {
          "internalType": "uint256",
          "name": "_tokenId",
          "type": "uint256"
        },
        {
          "internalType": "uint256",
          "name": "_salePrice",
          "type": "uint256"
        }
      ],
      "name": "royaltyInfo",
      "outputs": [
        {
          "internalType": "address",
          "name": "",
          "type": "address"
        },
        {
          "internalType": "uint256",
          "name": "",
          "type": "uint256"
        }
      ],
      "stateMutability": "view",
      "type": "function"
    },
    {
      "inputs": [
        {
          "internalType": "address",
          "name": "_from",
          "type": "address"
        },
        {
          "internalType": "address",
          "name": "_to",
          "type": "address"
        },
        {
          "internalType": "uint256",
          "name": "_tokenId",
          "type": "uint256"
        }
      ],
      "name": "safeTransferFrom",
      "outputs": [],
      "stateMutability": "nonpayable",
      "type": "function"
    },
    {
      "inputs": [
        {
          "internalType": "address",
          "name": "_from",
          "type": "address"
        },
        {
          "internalType": "address",
          "name": "_to",
          "type": "address"
        },
        {
          "internalType": "uint256",
          "name": "_tokenId",
          "type": "uint256"
        },
        {
          "internalType": "bytes",
          "name": "data",
          "type": "bytes"
        }
      ],
      "name": "safeTransferFrom",
      "outputs": [],
      "stateMutability": "nonpayable",
      "type": "function"
    },
    {
      "inputs": [],
      "name": "saleConfigsRoot",
      "outputs": [
        {
          "internalType": "bytes32",
          "name": "",
          "type": "bytes32"
        }
      ],
      "stateMutability": "view",
      "type": "function"
    },
    {
      "inputs": [
        {
          "internalType": "address",
          "name": "operator",
          "type": "address"
        },
        {
          "internalType": "bool",
          "name": "approved",
          "type": "bool"
        }
      ],
      "name": "setApprovalForAll",
      "outputs": [],
      "stateMutability": "nonpayable",
      "type": "function"
    },
    {
      "inputs": [
        {
          "internalType": "bytes4",
          "name": "interfaceId",
          "type": "bytes4"
        }
      ],
      "name": "supportsInterface",
      "outputs": [
        {
          "internalType": "bool",
          "name": "",
          "type": "bool"
        }
      ],
      "stateMutability": "view",
      "type": "function"
    },
    {
      "inputs": [],
      "name": "symbol",
      "outputs": [
        {
          "internalType": "string",
          "name": "",
          "type": "string"
        }
      ],
      "stateMutability": "view",
      "type": "function"
    },
    {
      "inputs": [],
      "name": "tokenId",
      "outputs": [
        {
          "internalType": "uint256",
          "name": "",
          "type": "uint256"
        }
      ],
      "stateMutability": "view",
      "type": "function"
    },
    {
      "inputs": [
        {
          "internalType": "uint256",
          "name": "_tokenId",
          "type": "uint256"
        }
      ],
      "name": "tokenURI",
      "outputs": [
        {
          "internalType": "string",
          "name": "",
          "type": "string"
        }
      ],
      "stateMutability": "view",
      "type": "function"
    },
    {
      "inputs": [
        {
          "internalType": "address",
          "name": "_from",
          "type": "address"
        },
        {
          "internalType": "address",
          "name": "_to",
          "type": "address"
        },
        {
          "internalType": "uint256",
          "name": "_tokenId",
          "type": "uint256"
        }
      ],
      "name": "transferFrom",
      "outputs": [],
      "stateMutability": "nonpayable",
      "type": "function"
    },
    {
      "inputs": [
        {
          "internalType": "address",
          "name": "newOwner",
          "type": "address"
        }
      ],
      "name": "transferOwnership",
      "outputs": [],
      "stateMutability": "nonpayable",
      "type": "function"
    },
    {
      "inputs": [
        {
          "internalType": "string",
          "name": "_baseURI",
          "type": "string"
        }
      ],
      "name": "updateBaseURI",
      "outputs": [],
      "stateMutability": "nonpayable",
      "type": "function"
    },
    {
      "inputs": [
        {
          "internalType": "address",
          "name": "_feeDestination",
          "type": "address"
        }
      ],
      "name": "updateFeeToAddress",
      "outputs": [],
      "stateMutability": "nonpayable",
      "type": "function"
    },
    {
      "inputs": [
        {
          "internalType": "uint256",
          "name": "_val",
          "type": "uint256"
        }
      ],
      "name": "updateMaxMintInTotalPerWallet",
      "outputs": [],
      "stateMutability": "nonpayable",
      "type": "function"
    },
    {
      "inputs": [
        {
          "internalType": "address",
          "name": "_address",
          "type": "address"
        }
      ],
      "name": "updatePlatformOwner",
      "outputs": [],
      "stateMutability": "nonpayable",
      "type": "function"
    },
    {
      "inputs": [
        {
          "internalType": "uint256",
          "name": "_revealTime",
          "type": "uint256"
        }
      ],
      "name": "updateRevealTime",
      "outputs": [],
      "stateMutability": "nonpayable",
      "type": "function"
    },
    {
      "inputs": [
        {
          "internalType": "uint96",
          "name": "_val",
          "type": "uint96"
        }
      ],
      "name": "updateRoyaltyBasis",
      "outputs": [],
      "stateMutability": "nonpayable",
      "type": "function"
    },
    {
      "inputs": [
        {
          "internalType": "bytes32",
          "name": "_saleConfigRoot",
          "type": "bytes32"
        }
      ],
      "name": "updateSaleConfigRoot",
      "outputs": [],
      "stateMutability": "nonpayable",
      "type": "function"
    },
    {
      "stateMutability": "payable",
      "type": "receive"
    }
  ],
  "bytecode": "0x60806040526001600a556000600b5560405162003fc638038062003fc68339810160408190526200003091620007ac565b80516020820151733cc6cdda760b79bafa08df41ecfa224f810dceb6916001916200005b3362000476565b815162000070906001906020850190620005c7565b50805162000086906002906020840190620005c7565b50506001600955506daaeb6d7670e522a718067333cd4e3b15620001d35780156200012157604051633e9f1edf60e11b81523060048201526001600160a01b03831660248201526daaeb6d7670e522a718067333cd4e90637d3e3dbe906044015b600060405180830381600087803b1580156200010257600080fd5b505af115801562000117573d6000803e3d6000fd5b50505050620001d3565b6001600160a01b03821615620001725760405163a0af290360e01b81523060048201526001600160a01b03831660248201526daaeb6d7670e522a718067333cd4e9063a0af290390604401620000e7565b604051632210724360e11b81523060048201526daaeb6d7670e522a718067333cd4e90634420e48690602401600060405180830381600087803b158015620001b957600080fd5b505af1158015620001ce573d6000803e3d6000fd5b505050505b50506101608101516001600160a01b031615620002fe5760008161016001516001600160a01b031663feaf968c6040518163ffffffff1660e01b815260040160a060405180830381865afa15801562000230573d6000803e3d6000fd5b505050506040513d601f19601f820116820180604052508101906200025691906200091c565b5050509150506305f5e10081606462000270919062000987565b6200027c919062000a18565b610140830151620002969067d02ab486cedc000062000987565b620002a2919062000a18565b341215620002f75760405162461bcd60e51b815260206004820152601a60248201527f4e6f7420656e6f756768206368617267652070726f766964656400000000000060448201526064015b60405180910390fd5b5062000367565b610140810151620003169065886c98b7600062000a58565b341015620003675760405162461bcd60e51b815260206004820152601a60248201527f4e6f7420656e6f756768206368617267652070726f76696465640000000000006044820152606401620002ee565b6040810151600c80546001600160a01b039283166001600160a01b0319918216179091556080830151600d5560a08301516012805491909316911617905560c08101518051620003c091601391602090910190620005c7565b50606081015160115560e0810151601455610100810151620003e4903090620004c6565b6101008101516101208201516001600160a01b039081166c0100000000000000000000000081026001600160601b039093169290921760155561014083015160165561016083015160178054919092166001600160a01b03199091161790556040513480156108fc02916000818181858888f193505050501580156200046e573d6000803e3d6000fd5b505062000ab6565b600080546001600160a01b038381166001600160a01b0319831681178455604051919092169283917f8be0079c531659141344cd1fd0a4f28419497f9722a3daafe3b4186f6b6457e09190a35050565b6127106001600160601b0382161115620005365760405162461bcd60e51b815260206004820152602a60248201527f455243323938313a20726f79616c7479206665652077696c6c206578636565646044820152692073616c65507269636560b01b6064820152608401620002ee565b6001600160a01b0382166200058e5760405162461bcd60e51b815260206004820152601960248201527f455243323938313a20696e76616c6964207265636569766572000000000000006044820152606401620002ee565b604080518082019091526001600160a01b039092168083526001600160601b039091166020909201829052600160a01b90910217600755565b828054620005d59062000a7a565b90600052602060002090601f016020900481019282620005f9576000855562000644565b82601f106200061457805160ff191683800117855562000644565b8280016001018555821562000644579182015b828111156200064457825182559160200191906001019062000627565b506200065292915062000656565b5090565b5b8082111562000652576000815560010162000657565b634e487b7160e01b600052604160045260246000fd5b60405161018081016001600160401b0381118282101715620006a957620006a96200066d565b60405290565b604051601f8201601f191681016001600160401b0381118282101715620006da57620006da6200066d565b604052919050565b600082601f830112620006f457600080fd5b81516001600160401b038111156200071057620007106200066d565b602062000726601f8301601f19168201620006af565b82815285828487010111156200073b57600080fd5b60005b838110156200075b5785810183015182820184015282016200073e565b838111156200076d5760008385840101525b5095945050505050565b80516001600160a01b03811681146200078f57600080fd5b919050565b80516001600160601b03811681146200078f57600080fd5b600060208284031215620007bf57600080fd5b81516001600160401b0380821115620007d757600080fd5b908301906101808286031215620007ed57600080fd5b620007f762000683565b8251828111156200080757600080fd5b6200081587828601620006e2565b8252506020830151828111156200082b57600080fd5b6200083987828601620006e2565b6020830152506200084d6040840162000777565b604082015260608301516060820152608083015160808201526200087460a0840162000777565b60a082015260c0830151828111156200088c57600080fd5b6200089a87828601620006e2565b60c08301525060e083015160e08201526101009150620008bc82840162000794565b828201526101209150620008d282840162000777565b82820152610140915081830151828201526101609150620008f582840162000777565b91810191909152949350505050565b80516001600160501b03811681146200078f57600080fd5b600080600080600060a086880312156200093557600080fd5b620009408662000904565b9450602086015193506040860151925060608601519150620009656080870162000904565b90509295509295909350565b634e487b7160e01b600052601160045260246000fd5b60006001600160ff1b0381841382841380821686840486111615620009b057620009b062000971565b600160ff1b6000871282811687830589121615620009d257620009d262000971565b60008712925087820587128484161615620009f157620009f162000971565b8785058712818416161562000a0a5762000a0a62000971565b505050929093029392505050565b60008262000a3657634e487b7160e01b600052601260045260246000fd5b600160ff1b82146000198414161562000a535762000a5362000971565b500590565b600081600019048311821515161562000a755762000a7562000971565b500290565b600181811c9082168062000a8f57607f821691505b60208210810362000ab057634e487b7160e01b600052602260045260246000fd5b50919050565b6135008062000ac66000396000f3fe6080604052600436106102205760003560e01c80638369981611610124578063c6ec6909116100a6578063c6ec69091461074f578063c87b56dd14610787578063ca73e5e9146107a7578063d9c79c1c146107c7578063dc9f75f7146107da578063de53fcd5146107fa578063e0abca0b1461081a578063e8a3d4851461083a578063e985e9c51461084f578063eaf3a5891461086f578063f2fde38b1461088557600080fd5b806383699816146106025780638847d3d5146106225780638da5cb5b14610642578063931688cb1461066057806395d89b41146106805780639659867e146106955780639a953ea2146106ab578063a22cb465146106c1578063b88d4fde146106e1578063ba4cc74914610701578063ba829d711461073957600080fd5b80632a55205a116101ad5780632a55205a146104a75780632e411f22146104e657806342842e0e146104fb5780634df8ccb11461051b57806361b5a2a2146105425780636352211e146105625780636c0360eb1461058257806370a0823114610597578063715018a6146105b75780637feb839d146105cc5780638028b285146105e257600080fd5b8063018779c7146102fc57806301ffc9a71461034c57806306fdde031461036c578063081812fc1461038e578063095ea7b3146103bb5780630b8c1785146103db57806317d70f7c146104315780631b34f10714610447578063210112f51461046757806323b872dd1461048757600080fd5b366102f757600060646102343460026129e4565b61023e9190612a19565b601554909150600160601b90046001600160a01b03161561029b57601554604051600160601b9091046001600160a01b0316906108fc8315029083906000818181858888f19350505050158015610299573d6000803e3d6000fd5b505b600c546015546001600160a01b03918216916108fc91600160601b9004166102c357346102cd565b6102cd8334612a2d565b6040518115909202916000818181858888f193505050501580156102f5573d6000803e3d6000fd5b005b600080fd5b34801561030857600080fd5b50610337610317366004612b22565b8051602081830181018051600e8252928201919093012091525460ff1681565b60405190151581526020015b60405180910390f35b34801561035857600080fd5b50610337610367366004612b6c565b6108a5565b34801561037857600080fd5b506103816108d0565b6040516103439190612be1565b34801561039a57600080fd5b506103ae6103a9366004612bf4565b610962565b6040516103439190612c0d565b3480156103c757600080fd5b506102f56103d6366004612c3d565b610989565b3480156103e757600080fd5b506104236103f6366004612c67565b81516020818401810180516010825292820194820194909420919093529091526000908152604090205481565b604051908152602001610343565b34801561043d57600080fd5b50610423600a5481565b34801561045357600080fd5b506102f5610462366004612cb4565b610aa3565b34801561047357600080fd5b506102f5610482366004612cb4565b610b22565b34801561049357600080fd5b506102f56104a2366004612ccf565b610b4c565b3480156104b357600080fd5b506104c76104c2366004612d0b565b610c01565b604080516001600160a01b039093168352602083019190915201610343565b3480156104f257600080fd5b50610423600081565b34801561050757600080fd5b506102f5610516366004612ccf565b610caf565b34801561052757600080fd5b506015546103ae90600160601b90046001600160a01b031681565b34801561054e57600080fd5b506102f561055d366004612bf4565b610d64565b34801561056e57600080fd5b506103ae61057d366004612bf4565b610d71565b34801561058e57600080fd5b50610381610da6565b3480156105a357600080fd5b506104236105b2366004612cb4565b610e34565b3480156105c357600080fd5b506102f5610eba565b3480156105d857600080fd5b5061042360165481565b3480156105ee57600080fd5b506012546103ae906001600160a01b031681565b34801561060e57600080fd5b506102f561061d366004612bf4565b610ece565b34801561062e57600080fd5b506102f561063d366004612d2d565b610edb565b34801561064e57600080fd5b506000546001600160a01b03166103ae565b34801561066c57600080fd5b506102f561067b366004612b22565b610f0f565b34801561068c57600080fd5b50610381610f2e565b3480156106a157600080fd5b50610423600b5481565b3480156106b757600080fd5b5061042360115481565b3480156106cd57600080fd5b506102f56106dc366004612d6f565b610f3d565b3480156106ed57600080fd5b506102f56106fc366004612da6565b610f48565b34801561070d57600080fd5b5061042361071c366004612b22565b8051602081830181018051600f8252928201919093012091525481565b34801561074557600080fd5b5061042360145481565b34801561075b57600080fd5b5060155461076f906001600160601b031681565b6040516001600160601b039091168152602001610343565b34801561079357600080fd5b506103816107a2366004612bf4565b611004565b3480156107b357600080fd5b506104236107c2366004612ea2565b61109e565b6102f56107d5366004612f55565b611113565b3480156107e657600080fd5b506102f56107f5366004612bf4565b611953565b34801561080657600080fd5b50600c546103ae906001600160a01b031681565b34801561082657600080fd5b506017546103ae906001600160a01b031681565b34801561084657600080fd5b50610381611960565b34801561085b57600080fd5b5061033761086a36600461302e565b6119b4565b34801561087b57600080fd5b50610423600d5481565b34801561089157600080fd5b506102f56108a0366004612cb4565b6119e2565b60006001600160e01b0319821663152a902d60e11b14806108ca57506108ca82611a5b565b92915050565b6060600180546108df90613058565b80601f016020809104026020016040519081016040528092919081815260200182805461090b90613058565b80156109585780601f1061092d57610100808354040283529160200191610958565b820191906000526020600020905b81548152906001019060200180831161093b57829003601f168201915b5050505050905090565b600061096d82611a80565b506000908152600560205260409020546001600160a01b031690565b600061099482610d71565b9050806001600160a01b0316836001600160a01b031603610a065760405162461bcd60e51b815260206004820152602160248201527f4552433732313a20617070726f76616c20746f2063757272656e74206f776e656044820152603960f91b60648201526084015b60405180910390fd5b336001600160a01b0382161480610a225750610a2281336119b4565b610a945760405162461bcd60e51b815260206004820152603e60248201527f4552433732313a20617070726f76652063616c6c6572206973206e6f7420746f60448201527f6b656e206f776e6572206e6f7220617070726f76656420666f7220616c6c000060648201526084016109fd565b610a9e8383611aa5565b505050565b601554600160601b90046001600160a01b03163314610afa5760405162461bcd60e51b815260206004820152601360248201527227b7363c90283630ba3337b9369027bbb732b960691b60448201526064016109fd565b601580546001600160a01b03909216600160601b026001600160601b03909216919091179055565b610b2a611b13565b600c80546001600160a01b0319166001600160a01b0392909216919091179055565b6daaeb6d7670e522a718067333cd4e3b15610bf657604051633185c44d60e21b81526daaeb6d7670e522a718067333cd4e9063c617113490610b949030903390600401613092565b6020604051808303816000875af1158015610bb3573d6000803e3d6000fd5b505050506040513d601f19601f82011682018060405250810190610bd791906130ac565b610bf65733604051633b79c77360e21b81526004016109fd9190612c0d565b610a9e838383611b6d565b60008281526008602090815260408083208151808301909252546001600160a01b038116808352600160a01b9091046001600160601b0316928201929092528291610c765750604080518082019091526007546001600160a01b0381168252600160a01b90046001600160601b031660208201525b602081015160009061271090610c95906001600160601b0316876129e4565b610c9f9190612a19565b91519350909150505b9250929050565b6daaeb6d7670e522a718067333cd4e3b15610d5957604051633185c44d60e21b81526daaeb6d7670e522a718067333cd4e9063c617113490610cf79030903390600401613092565b6020604051808303816000875af1158015610d16573d6000803e3d6000fd5b505050506040513d601f19601f82011682018060405250810190610d3a91906130ac565b610d595733604051633b79c77360e21b81526004016109fd9190612c0d565b610a9e838383611b9e565b610d6c611b13565b601155565b6000818152600360205260408120546001600160a01b0316806108ca5760405162461bcd60e51b81526004016109fd906130c9565b60138054610db390613058565b80601f0160208091040260200160405190810160405280929190818152602001828054610ddf90613058565b8015610e2c5780601f10610e0157610100808354040283529160200191610e2c565b820191906000526020600020905b815481529060010190602001808311610e0f57829003601f168201915b505050505081565b60006001600160a01b038216610e9e5760405162461bcd60e51b815260206004820152602960248201527f4552433732313a2061646472657373207a65726f206973206e6f7420612076616044820152683634b21037bbb732b960b91b60648201526084016109fd565b506001600160a01b031660009081526004602052604090205490565b610ec2611b13565b610ecc6000611bb9565b565b610ed6611b13565b600d55565b610ee3611b13565b610eed3082611c09565b601580546001600160601b0319166001600160601b0392909216919091179055565b610f17611b13565b8051610f2a906013906020840190612935565b5050565b6060600280546108df90613058565b610f2a338383611d02565b6daaeb6d7670e522a718067333cd4e3b15610ff257604051633185c44d60e21b81526daaeb6d7670e522a718067333cd4e9063c617113490610f909030903390600401613092565b6020604051808303816000875af1158015610faf573d6000803e3d6000fd5b505050506040513d601f19601f82011682018060405250810190610fd391906130ac565b610ff25733604051633b79c77360e21b81526004016109fd9190612c0d565b610ffe84848484611dcc565b50505050565b6060601360145460001415801561101d57506014544211155b6110365760405180602001604052806000815250611057565b6040518060400160405280600781526020016668696464656e2d60c81b8152505b611062306014611dfe565b61106b46611fa0565b61107486611fa0565b604051602001611088959493929190613194565b6040516020818303038152906040529050919050565b80516020808301516040808501516060860151608087015160a088015160c089015160e08a015195516000996110d8999098979101613241565b60408051601f19818403018152828252805160209182012090830152015b604051602081830303815290604052805190602001209050919050565b6002600954036111655760405162461bcd60e51b815260206004820152601f60248201527f5265656e7472616e637947756172643a207265656e7472616e742063616c6c0060448201526064016109fd565b60026009819055508585858360165482600b546111829190613290565b11156111cd5760405162461bcd60e51b815260206004820152601a60248201527904d696e7420436f756e742065786365656473204d6178204361760341b60448201526064016109fd565b600d546112115760405162461bcd60e51b8152602060048201526012602482015271139bc81cd85b194818dbdb999a59dd5c995960721b60448201526064016109fd565b61122684600d546112218461109e565b6120a8565b6112685760405162461bcd60e51b8152602060048201526013602482015272496e76616c69642053616c6520436f6e66696760681b60448201526064016109fd565b80602001516112af5760405162461bcd60e51b815260206004820152601360248201527214d85b19481a5cc81b9bdd08195b98589b1959606a1b60448201526064016109fd565b60408101514290158015906112c8575081604001518110155b61130f5760405162461bcd60e51b815260206004820152601860248201527714d85b19481a185cc81b9bdd081cdd185c9d1959081e595d60421b60448201526064016109fd565b81606001518111158061132457506060820151155b6113615760405162461bcd60e51b815260206004820152600e60248201526d14d85b19481a185cc8195b99195960921b60448201526064016109fd565b82826080015161137191906129e4565b3410156113c05760405162461bcd60e51b815260206004820152601f60248201527f4e6f7420656e6f756768206d696e74206368617267652070726f76696465640060448201526064016109fd565b8160e0015183600f84600001516040516113da91906132a8565b9081526020016040518091039020546113f39190613290565b111561143a5760405162461bcd60e51b81526020600482015260166024820152754d61782053616c65204c696d6974204578636565647360501b60448201526064016109fd565b8160c00151836010846000015160405161145491906132a8565b9081526040805160209281900383019020336000908152925290205461147a9190613290565b11156114c85760405162461bcd60e51b815260206004820181905260248201527f4d61784d696e7450657257616c6c657453616c654c696d69744578636565647360448201526064016109fd565b6011541561153557601154836114dd33610e34565b6114e79190613290565b11156115355760405162461bcd60e51b815260206004820152601e60248201527f4d6178546f74616c4d696e7457616c6c65744c696d697445786365656473000060448201526064016109fd565b60a0820151156115c15760a08201516040516001600160601b03193360601b16602082015261157e918691603401604051602081830303815290604052805190602001206120a8565b6115c15760405162461bcd60e51b8152602060048201526014602482015273155cd95c881b9bdd081dda1a5d195b1a5cdd195960621b60448201526064016109fd565b8787600e816040516115d391906132a8565b9081526040519081900360200190205460ff16156116305760405162461bcd60e51b815260206004820152601a60248201527914da59db985d1d5c9948185b1c9958591e481c995919595b595960321b60448201526064016109fd565b6012546040516001600160a01b039091169061167b9083906116759061165a9087906020016132a8565b604051602081830303815290604052805190602001206120be565b906120f9565b6001600160a01b0316146116c55760405162461bcd60e51b8152602060048201526011602482015270496e76616c6964205369676e617475726560781b60448201526064016109fd565b60008b1161170c5760405162461bcd60e51b815260206004820152601460248201527304e756d626572206f66206d696e747320697320360641b60448201526064016109fd565b8a600b600082825461171e9190613290565b909155505087516040518c9160109161173791906132a8565b9081526040805160209281900383019020336000908152925281208054909190611762908490613290565b909155505087516040518c91600f9161177b91906132a8565b908152602001604051809103902060008282546117989190613290565b925050819055506001600e8a6040516117b191906132a8565b908152604051908190036020019020805491151560ff19909216919091179055600a546117de8c82613290565b600a5560006127106117f23461012c6129e4565b6117fc9190612a19565b601554909150600160601b90046001600160a01b03161561185957601554604051600160601b9091046001600160a01b0316906108fc8315029083906000818181858888f19350505050158015611857573d6000803e3d6000fd5b505b600c546015546001600160a01b03918216916108fc91600160601b900416611881573461188b565b61188b8334612a2d565b6040518115909202916000818181858888f193505050501580156118b3573d6000803e3d6000fd5b5060005b8d8110156118e2576118d2336118cd8386613290565b61211d565b6118db816132c4565b90506118b7565b507f4c209b5fc8ad50758f13e2e1088ba56a560dff690a1c6fef26394f4c03821c4f33836001600a546119159190612a2d565b604080516001600160a01b03909416845260208401929092529082015260600160405180910390a15050600160095550505050505050505050505050565b61195b611b13565b601455565b6060601361196f306014611dfe565b61197846611fa0565b60155461198d906001600160601b0316611fa0565b6040516020016119a094939291906132dd565b604051602081830303815290604052905090565b6001600160a01b03918216600090815260066020908152604080832093909416825291909152205460ff1690565b6119ea611b13565b6001600160a01b038116611a4f5760405162461bcd60e51b815260206004820152602660248201527f4f776e61626c653a206e6577206f776e657220697320746865207a65726f206160448201526564647265737360d01b60648201526084016109fd565b611a5881611bb9565b50565b60006001600160e01b0319821663152a902d60e11b14806108ca57506108ca82612250565b611a89816122a0565b611a585760405162461bcd60e51b81526004016109fd906130c9565b600081815260056020526040902080546001600160a01b0319166001600160a01b0384169081179091558190611ada82610d71565b6001600160a01b03167f8c5be1e5ebec7d5bd14f71427d1e84f3dd0314c0f7b2291e5b200ac8c7c3b92560405160405180910390a45050565b6000546001600160a01b03163314610ecc5760405162461bcd60e51b815260206004820181905260248201527f4f776e61626c653a2063616c6c6572206973206e6f7420746865206f776e657260448201526064016109fd565b611b7733826122bd565b611b935760405162461bcd60e51b81526004016109fd90613379565b610a9e83838361231b565b610a9e83838360405180602001604052806000815250610f48565b600080546001600160a01b038381166001600160a01b0319831681178455604051919092169283917f8be0079c531659141344cd1fd0a4f28419497f9722a3daafe3b4186f6b6457e09190a35050565b6127106001600160601b0382161115611c775760405162461bcd60e51b815260206004820152602a60248201527f455243323938313a20726f79616c7479206665652077696c6c206578636565646044820152692073616c65507269636560b01b60648201526084016109fd565b6001600160a01b038216611cc95760405162461bcd60e51b815260206004820152601960248201527822a921991c9c189d1034b73b30b634b2103932b1b2b4bb32b960391b60448201526064016109fd565b604080518082019091526001600160a01b039092168083526001600160601b039091166020909201829052600160a01b90910217600755565b816001600160a01b0316836001600160a01b031603611d5f5760405162461bcd60e51b815260206004820152601960248201527822a9219b99189d1030b8383937bb32903a379031b0b63632b960391b60448201526064016109fd565b6001600160a01b03838116600081815260066020908152604080832094871680845294825291829020805460ff191686151590811790915591519182527f17307eab39ab6107e8899845ad3d59bd9653f200f220920489ca2b5937696c31910160405180910390a3505050565b611dd633836122bd565b611df25760405162461bcd60e51b81526004016109fd90613379565b610ffe848484846124b7565b60606000611e0d8360026129e4565b611e18906002613290565b6001600160401b03811115611e2f57611e2f612a44565b6040519080825280601f01601f191660200182016040528015611e59576020820181803683370190505b509050600360fc1b81600081518110611e7457611e746133c7565b60200101906001600160f81b031916908160001a905350600f60fb1b81600181518110611ea357611ea36133c7565b60200101906001600160f81b031916908160001a9053506000611ec78460026129e4565b611ed2906001613290565b90505b6001811115611f4a576f181899199a1a9b1b9c1cb0b131b232b360811b85600f1660108110611f0657611f066133c7565b1a60f81b828281518110611f1c57611f1c6133c7565b60200101906001600160f81b031916908160001a90535060049490941c93611f43816133dd565b9050611ed5565b508315611f995760405162461bcd60e51b815260206004820181905260248201527f537472696e67733a20686578206c656e67746820696e73756666696369656e7460448201526064016109fd565b9392505050565b606081600003611fc75750506040805180820190915260018152600360fc1b602082015290565b8160005b8115611ff15780611fdb816132c4565b9150611fea9050600a83612a19565b9150611fcb565b6000816001600160401b0381111561200b5761200b612a44565b6040519080825280601f01601f191660200182016040528015612035576020820181803683370190505b5090505b84156120a05761204a600183612a2d565b9150612057600a866133f4565b612062906030613290565b60f81b818381518110612077576120776133c7565b60200101906001600160f81b031916908160001a905350612099600a86612a19565b9450612039565b949350505050565b6000826120b585846124ea565b14949350505050565b6040517f19457468657265756d205369676e6564204d6573736167653a0a3332000000006020820152603c8101829052600090605c016110f6565b6000806000612108858561252f565b9150915061211581612571565b509392505050565b6001600160a01b0382166121735760405162461bcd60e51b815260206004820181905260248201527f4552433732313a206d696e7420746f20746865207a65726f206164647265737360448201526064016109fd565b61217c816122a0565b156121c95760405162461bcd60e51b815260206004820152601c60248201527f4552433732313a20746f6b656e20616c7265616479206d696e7465640000000060448201526064016109fd565b6001600160a01b03821660009081526004602052604081208054600192906121f2908490613290565b909155505060008181526003602052604080822080546001600160a01b0319166001600160a01b03861690811790915590518392907fddf252ad1be2c89b69c2b068fc378daa952ba7f163c4a11628f55a4df523b3ef908290a45050565b60006001600160e01b031982166380ac58cd60e01b148061228157506001600160e01b03198216635b5e139f60e01b145b806108ca57506301ffc9a760e01b6001600160e01b03198316146108ca565b6000908152600360205260409020546001600160a01b0316151590565b6000806122c983610d71565b9050806001600160a01b0316846001600160a01b031614806122f057506122f081856119b4565b806120a05750836001600160a01b031661230984610962565b6001600160a01b031614949350505050565b826001600160a01b031661232e82610d71565b6001600160a01b0316146123925760405162461bcd60e51b815260206004820152602560248201527f4552433732313a207472616e736665722066726f6d20696e636f72726563742060448201526437bbb732b960d91b60648201526084016109fd565b6001600160a01b0382166123f45760405162461bcd60e51b8152602060048201526024808201527f4552433732313a207472616e7366657220746f20746865207a65726f206164646044820152637265737360e01b60648201526084016109fd565b6123ff600082611aa5565b6001600160a01b0383166000908152600460205260408120805460019290612428908490612a2d565b90915550506001600160a01b0382166000908152600460205260408120805460019290612456908490613290565b909155505060008181526003602052604080822080546001600160a01b0319166001600160a01b0386811691821790925591518493918716917fddf252ad1be2c89b69c2b068fc378daa952ba7f163c4a11628f55a4df523b3ef91a4505050565b6124c284848461231b565b6124ce84848484612722565b610ffe5760405162461bcd60e51b81526004016109fd90613408565b600081815b84518110156121155761251b8286838151811061250e5761250e6133c7565b6020026020010151612823565b915080612527816132c4565b9150506124ef565b60008082516041036125655760208301516040840151606085015160001a61255987828585612852565b94509450505050610ca8565b50600090506002610ca8565b60008160048111156125855761258561345a565b0361258d5750565b60018160048111156125a1576125a161345a565b036125e95760405162461bcd60e51b815260206004820152601860248201527745434453413a20696e76616c6964207369676e617475726560401b60448201526064016109fd565b60028160048111156125fd576125fd61345a565b0361264a5760405162461bcd60e51b815260206004820152601f60248201527f45434453413a20696e76616c6964207369676e6174757265206c656e6774680060448201526064016109fd565b600381600481111561265e5761265e61345a565b036126b65760405162461bcd60e51b815260206004820152602260248201527f45434453413a20696e76616c6964207369676e6174757265202773272076616c604482015261756560f01b60648201526084016109fd565b60048160048111156126ca576126ca61345a565b03611a585760405162461bcd60e51b815260206004820152602260248201527f45434453413a20696e76616c6964207369676e6174757265202776272076616c604482015261756560f01b60648201526084016109fd565b60006001600160a01b0384163b1561281857604051630a85bd0160e11b81526001600160a01b0385169063150b7a0290612766903390899088908890600401613470565b6020604051808303816000875af19250505080156127a1575060408051601f3d908101601f1916820190925261279e918101906134ad565b60015b6127fe573d8080156127cf576040519150601f19603f3d011682016040523d82523d6000602084013e6127d4565b606091505b5080516000036127f65760405162461bcd60e51b81526004016109fd90613408565b805181602001fd5b6001600160e01b031916630a85bd0160e11b1490506120a0565b506001949350505050565b600081831061283f576000828152602084905260409020611f99565b6000838152602083905260409020611f99565b6000806fa2a8918ca85bafe22016d0b997e4df60600160ff1b0383111561287f575060009050600361292c565b8460ff16601b1415801561289757508460ff16601c14155b156128a8575060009050600461292c565b6040805160008082526020820180845289905260ff881692820192909252606081018690526080810185905260019060a0016020604051602081039080840390855afa1580156128fc573d6000803e3d6000fd5b5050604051601f1901519150506001600160a01b0381166129255760006001925092505061292c565b9150600090505b94509492505050565b82805461294190613058565b90600052602060002090601f01602090048101928261296357600085556129a9565b82601f1061297c57805160ff19168380011785556129a9565b828001600101855582156129a9579182015b828111156129a957825182559160200191906001019061298e565b506129b59291506129b9565b5090565b5b808211156129b557600081556001016129ba565b634e487b7160e01b600052601160045260246000fd5b60008160001904831182151516156129fe576129fe6129ce565b500290565b634e487b7160e01b600052601260045260246000fd5b600082612a2857612a28612a03565b500490565b600082821015612a3f57612a3f6129ce565b500390565b634e487b7160e01b600052604160045260246000fd5b60405161010081016001600160401b0381118282101715612a7d57612a7d612a44565b60405290565b604051601f8201601f191681016001600160401b0381118282101715612aab57612aab612a44565b604052919050565b600082601f830112612ac457600080fd5b81356001600160401b03811115612add57612add612a44565b612af0601f8201601f1916602001612a83565b818152846020838601011115612b0557600080fd5b816020850160208301376000918101602001919091529392505050565b600060208284031215612b3457600080fd5b81356001600160401b03811115612b4a57600080fd5b6120a084828501612ab3565b6001600160e01b031981168114611a5857600080fd5b600060208284031215612b7e57600080fd5b8135611f9981612b56565b60005b83811015612ba4578181015183820152602001612b8c565b83811115610ffe5750506000910152565b60008151808452612bcd816020860160208601612b89565b601f01601f19169290920160200192915050565b602081526000611f996020830184612bb5565b600060208284031215612c0657600080fd5b5035919050565b6001600160a01b0391909116815260200190565b80356001600160a01b0381168114612c3857600080fd5b919050565b60008060408385031215612c5057600080fd5b612c5983612c21565b946020939093013593505050565b60008060408385031215612c7a57600080fd5b82356001600160401b03811115612c9057600080fd5b612c9c85828601612ab3565b925050612cab60208401612c21565b90509250929050565b600060208284031215612cc657600080fd5b611f9982612c21565b600080600060608486031215612ce457600080fd5b612ced84612c21565b9250612cfb60208501612c21565b9150604084013590509250925092565b60008060408385031215612d1e57600080fd5b50508035926020909101359150565b600060208284031215612d3f57600080fd5b81356001600160601b0381168114611f9957600080fd5b8015158114611a5857600080fd5b8035612c3881612d56565b60008060408385031215612d8257600080fd5b612d8b83612c21565b91506020830135612d9b81612d56565b809150509250929050565b60008060008060808587031215612dbc57600080fd5b612dc585612c21565b9350612dd360208601612c21565b92506040850135915060608501356001600160401b03811115612df557600080fd5b612e0187828801612ab3565b91505092959194509250565b60006101008284031215612e2057600080fd5b612e28612a5a565b905081356001600160401b03811115612e4057600080fd5b612e4c84828501612ab3565b825250612e5b60208301612d64565b602082015260408201356040820152606082013560608201526080820135608082015260a082013560a082015260c082013560c082015260e082013560e082015292915050565b600060208284031215612eb457600080fd5b81356001600160401b03811115612eca57600080fd5b6120a084828501612e0d565b600082601f830112612ee757600080fd5b813560206001600160401b03821115612f0257612f02612a44565b8160051b612f11828201612a83565b9283528481018201928281019087851115612f2b57600080fd5b83870192505b84831015612f4a57823582529183019190830190612f31565b979650505050505050565b60008060008060008060c08789031215612f6e57600080fd5b86356001600160401b0380821115612f8557600080fd5b612f918a838b01612ed6565b97506020890135915080821115612fa757600080fd5b612fb38a838b01612ed6565b9650604089013595506060890135915080821115612fd057600080fd5b612fdc8a838b01612ab3565b94506080890135915080821115612ff257600080fd5b612ffe8a838b01612ab3565b935060a089013591508082111561301457600080fd5b5061302189828a01612e0d565b9150509295509295509295565b6000806040838503121561304157600080fd5b61304a83612c21565b9150612cab60208401612c21565b600181811c9082168061306c57607f821691505b60208210810361308c57634e487b7160e01b600052602260045260246000fd5b50919050565b6001600160a01b0392831681529116602082015260400190565b6000602082840312156130be57600080fd5b8151611f9981612d56565b602080825260189082015277115490cdcc8c4e881a5b9d985b1a59081d1bdad95b88125160421b604082015260600190565b8054600090600181811c908083168061311557607f831692505b6020808410820361313657634e487b7160e01b600052602260045260246000fd5b81801561314a576001811461315b57613188565b60ff19861689528489019650613188565b60008881526020902060005b868110156131805781548b820152908501908301613167565b505084890196505b50505050505092915050565b60006131a082886130fb565b86516131b0818360208b01612b89565b71746f6b656e2d7572693f616464726573733d60701b910190815285516131de816012840160208a01612b89565b68266e6574776f726b3d60b81b60129290910191820152845161320881601b840160208901612b89565b6826746f6b656e49643d60b81b601b92909101918201528351613232816024840160208801612b89565b01602401979650505050505050565b60008951613253818460208e01612b89565b98151560f81b919098019081526001810196909652602186019490945260418501929092526061840152608183015260a182015260c10192915050565b600082198211156132a3576132a36129ce565b500190565b600082516132ba818460208701612b89565b9190910192915050565b6000600182016132d6576132d66129ce565b5060010190565b60006132e982876130fb565b74636f6e74726163742d7572693f616464726573733d60581b81528551613317816015840160208a01612b89565b68266e6574776f726b3d60b81b60159290910191820152845161334181601e840160208901612b89565b6826726f79616c74793d60b81b601e9290910191820152835161336b816027840160208801612b89565b016027019695505050505050565b6020808252602e908201527f4552433732313a2063616c6c6572206973206e6f7420746f6b656e206f776e6560408201526d1c881b9bdc88185c1c1c9bdd995960921b606082015260800190565b634e487b7160e01b600052603260045260246000fd5b6000816133ec576133ec6129ce565b506000190190565b60008261340357613403612a03565b500690565b60208082526032908201527f4552433732313a207472616e7366657220746f206e6f6e20455243373231526560408201527131b2b4bb32b91034b6b83632b6b2b73a32b960711b606082015260800190565b634e487b7160e01b600052602160045260246000fd5b6001600160a01b03858116825284166020820152604081018390526080606082018190526000906134a390830184612bb5565b9695505050505050565b6000602082840312156134bf57600080fd5b8151611f9981612b5656fea26469706673582212205f1aaf613b55f9c4f9d5964877c926c7fd0f47739d28a6b0381c067caf1ec82964736f6c634300080d0033",
  "linkReferences": {},
  "deployedLinkReferences": {}
}