{
  "_format": "hh-sol-artifact-1",
  "contractName": "Collection721",
  "sourceName": "contracts/hydro/hydro-dev/Collection721.sol",
  "abi": [
    {
      "inputs": [
        {
          "components": [
            {
              "internalType": "string",
              "name": "_name",
              "type": "string"
            },
            {
              "internalType": "string",
              "name": "_symbol",
              "type": "string"
            },
            {
              "internalType": "address",
              "name": "_feeDestination",
              "type": "address"
            },
            {
              "internalType": "uint256",
              "name": "_maxMintInTotalPerWallet",
              "type": "uint256"
            },
            {
              "internalType": "bytes32",
              "name": "_saleConfigRoot",
              "type": "bytes32"
            },
            {
              "internalType": "address",
              "name": "_msgSigner",
              "type": "address"
            },
            {
              "internalType": "string",
              "name": "_baseURI",
              "type": "string"
            },
            {
              "internalType": "uint256",
              "name": "_revealTime",
              "type": "uint256"
            },
            {
              "internalType": "uint96",
              "name": "_royaltyBasis",
              "type": "uint96"
            },
            {
              "internalType": "address",
              "name": "_platformOwner",
              "type": "address"
            },
            {
              "internalType": "uint256",
              "name": "_maxMintCap",
              "type": "uint256"
            },
            {
              "internalType": "address",
              "name": "_priceFeedAddress",
              "type": "address"
            }
          ],
          "internalType": "struct Collection721.ConstructorArgs",
          "name": "args",
          "type": "tuple"
        }
      ],
      "stateMutability": "payable",
      "type": "constructor"
    },
    {
      "inputs": [
        {
          "internalType": "address",
          "name": "operator",
          "type": "address"
        }
      ],
      "name": "OperatorNotAllowed",
      "type": "error"
    },
    {
      "anonymous": false,
      "inputs": [
        {
          "indexed": true,
          "internalType": "address",
          "name": "owner",
          "type": "address"
        },
        {
          "indexed": true,
          "internalType": "address",
          "name": "approved",
          "type": "address"
        },
        {
          "indexed": true,
          "internalType": "uint256",
          "name": "tokenId",
          "type": "uint256"
        }
      ],
      "name": "Approval",
      "type": "event"
    },
    {
      "anonymous": false,
      "inputs": [
        {
          "indexed": true,
          "internalType": "address",
          "name": "owner",
          "type": "address"
        },
        {
          "indexed": true,
          "internalType": "address",
          "name": "operator",
          "type": "address"
        },
        {
          "indexed": false,
          "internalType": "bool",
          "name": "approved",
          "type": "bool"
        }
      ],
      "name": "ApprovalForAll",
      "type": "event"
    },
    {
      "anonymous": false,
      "inputs": [
        {
          "indexed": false,
          "internalType": "address",
          "name": "msgSender",
          "type": "address"
        },
        {
          "indexed": false,
          "internalType": "uint256",
          "name": "fromTokenId",
          "type": "uint256"
        },
        {
          "indexed": false,
          "internalType": "uint256",
          "name": "toTokenId",
          "type": "uint256"
        }
      ],
      "name": "Mint",
      "type": "event"
    },
    {
      "anonymous": false,
      "inputs": [
        {
          "indexed": true,
          "internalType": "address",
          "name": "previousOwner",
          "type": "address"
        },
        {
          "indexed": true,
          "internalType": "address",
          "name": "newOwner",
          "type": "address"
        }
      ],
      "name": "OwnershipTransferred",
      "type": "event"
    },
    {
      "anonymous": false,
      "inputs": [
        {
          "indexed": true,
          "internalType": "address",
          "name": "from",
          "type": "address"
        },
        {
          "indexed": true,
          "internalType": "address",
          "name": "to",
          "type": "address"
        },
        {
          "indexed": true,
          "internalType": "uint256",
          "name": "tokenId",
          "type": "uint256"
        }
      ],
      "name": "Transfer",
      "type": "event"
    },
    {
      "inputs": [],
      "name": "EMPTY_ROOT",
      "outputs": [
        {
          "internalType": "bytes32",
          "name": "",
          "type": "bytes32"
        }
      ],
      "stateMutability": "view",
      "type": "function"
    },
    {
      "inputs": [
        {
          "internalType": "address",
          "name": "to",
          "type": "address"
        },
        {
          "internalType": "uint256",
          "name": "tokenId",
          "type": "uint256"
        }
      ],
      "name": "approve",
      "outputs": [],
      "stateMutability": "nonpayable",
      "type": "function"
    },
    {
      "inputs": [
        {
          "internalType": "address",
          "name": "owner",
          "type": "address"
        }
      ],
      "name": "balanceOf",
      "outputs": [
        {
          "internalType": "uint256",
          "name": "",
          "type": "uint256"
        }
      ],
      "stateMutability": "view",
      "type": "function"
    },
    {
      "inputs": [],
      "name": "baseURI",
      "outputs": [
        {
          "internalType": "string",
          "name": "",
          "type": "string"
        }
      ],
      "stateMutability": "view",
      "type": "function"
    },
    {
      "inputs": [],
      "name": "contractURI",
      "outputs": [
        {
          "internalType": "string",
          "name": "",
          "type": "string"
        }
      ],
      "stateMutability": "view",
      "type": "function"
    },
    {
      "inputs": [],
      "name": "feeDestination",
      "outputs": [
        {
          "internalType": "address",
          "name": "",
          "type": "address"
        }
      ],
      "stateMutability": "view",
      "type": "function"
    },
    {
      "inputs": [
        {
          "internalType": "uint256",
          "name": "tokenId",
          "type": "uint256"
        }
      ],
      "name": "getApproved",
      "outputs": [
        {
          "internalType": "address",
          "name": "",
          "type": "address"
        }
      ],
      "stateMutability": "view",
      "type": "function"
    },
    {
      "inputs": [
        {
          "components": [
            {
              "internalType": "string",
              "name": "saleIdentifier",
              "type": "string"
            },
            {
              "internalType": "bool",
              "name": "enabled",
              "type": "bool"
            },
            {
              "internalType": "uint256",
              "name": "startTime",
              "type": "uint256"
            },
            {
              "internalType": "uint256",
              "name": "endTime",
              "type": "uint256"
            },
            {
              "internalType": "uint256",
              "name": "mintCharge",
              "type": "uint256"
            },
            {
              "internalType": "bytes32",
              "name": "whitelistRoot",
              "type": "bytes32"
            },
            {
              "internalType": "uint256",
              "name": "maxMintPerWallet",
              "type": "uint256"
            },
            {
              "internalType": "uint256",
              "name": "maxMintInSale",
              "type": "uint256"
            }
          ],
          "internalType": "struct Collection721.SaleConfig",
          "name": "config",
          "type": "tuple"
        }
      ],
      "name": "getSaleConfigLeaf",
      "outputs": [
        {
          "internalType": "bytes32",
          "name": "",
          "type": "bytes32"
        }
      ],
      "stateMutability": "pure",
      "type": "function"
    },
    {
      "inputs": [
        {
          "internalType": "address",
          "name": "owner",
          "type": "address"
        },
        {
          "internalType": "address",
          "name": "operator",
          "type": "address"
        }
      ],
      "name": "isApprovedForAll",
      "outputs": [
        {
          "internalType": "bool",
          "name": "",
          "type": "bool"
        }
      ],
      "stateMutability": "view",
      "type": "function"
    },
    {
      "inputs": [
        {
          "internalType": "bytes",
          "name": "",
          "type": "bytes"
        }
      ],
      "name": "isSignatureRedeemed",
      "outputs": [
        {
          "internalType": "bool",
          "name": "",
          "type": "bool"
        }
      ],
      "stateMutability": "view",
      "type": "function"
    },
    {
      "inputs": [],
      "name": "maxMintCap",
      "outputs": [
        {
          "internalType": "uint256",
          "name": "",
          "type": "uint256"
        }
      ],
      "stateMutability": "view",
      "type": "function"
    },
    {
      "inputs": [],
      "name": "maxMintInTotalPerWallet",
      "outputs": [
        {
          "internalType": "uint256",
          "name": "",
          "type": "uint256"
        }
      ],
      "stateMutability": "view",
      "type": "function"
    },
    {
      "inputs": [
        {
          "internalType": "bytes32[]",
          "name": "saleConfigProof",
          "type": "bytes32[]"
        },
        {
          "internalType": "bytes32[]",
          "name": "whitelistProof",
          "type": "bytes32[]"
        },
        {
          "internalType": "uint256",
          "name": "numberOfMint",
          "type": "uint256"
        },
        {
          "internalType": "string",
          "name": "message",
          "type": "string"
        },
        {
          "internalType": "bytes",
          "name": "signature",
          "type": "bytes"
        },
        {
          "components": [
            {
              "internalType": "string",
              "name": "saleIdentifier",
              "type": "string"
            },
            {
              "internalType": "bool",
              "name": "enabled",
              "type": "bool"
            },
            {
              "internalType": "uint256",
              "name": "startTime",
              "type": "uint256"
            },
            {
              "internalType": "uint256",
              "name": "endTime",
              "type": "uint256"
            },
            {
              "internalType": "uint256",
              "name": "mintCharge",
              "type": "uint256"
            },
            {
              "internalType": "bytes32",
              "name": "whitelistRoot",
              "type": "bytes32"
            },
            {
              "internalType": "uint256",
              "name": "maxMintPerWallet",
              "type": "uint256"
            },
            {
              "internalType": "uint256",
              "name": "maxMintInSale",
              "type": "uint256"
            }
          ],
          "internalType": "struct Collection721.SaleConfig",
          "name": "config",
          "type": "tuple"
        }
      ],
      "name": "mint",
      "outputs": [],
      "stateMutability": "payable",
      "type": "function"
    },
    {
      "inputs": [],
      "name": "mintCount",
      "outputs": [
        {
          "internalType": "uint256",
          "name": "",
          "type": "uint256"
        }
      ],
      "stateMutability": "view",
      "type": "function"
    },
    {
      "inputs": [
        {
          "internalType": "string",
          "name": "",
          "type": "string"
        }
      ],
      "name": "mintCountByIdentifier",
      "outputs": [
        {
          "internalType": "uint256",
          "name": "",
          "type": "uint256"
        }
      ],
      "stateMutability": "view",
      "type": "function"
    },
    {
      "inputs": [
        {
          "internalType": "string",
          "name": "",
          "type": "string"
        },
        {
          "internalType": "address",
          "name": "",
          "type": "address"
        }
      ],
      "name": "mintCountByIdentifierWallet",
      "outputs": [
        {
          "internalType": "uint256",
          "name": "",
          "type": "uint256"
        }
      ],
      "stateMutability": "view",
      "type": "function"
    },
    {
      "inputs": [],
      "name": "msgSigner",
      "outputs": [
        {
          "internalType": "address",
          "name": "",
          "type": "address"
        }
      ],
      "stateMutability": "view",
      "type": "function"
    },
    {
      "inputs": [],
      "name": "name",
      "outputs": [
        {
          "internalType": "string",
          "name": "",
          "type": "string"
        }
      ],
      "stateMutability": "view",
      "type": "function"
    },
    {
      "inputs": [],
      "name": "owner",
      "outputs": [
        {
          "internalType": "address",
          "name": "",
          "type": "address"
        }
      ],
      "stateMutability": "view",
      "type": "function"
    },
    {
      "inputs": [
        {
          "internalType": "uint256",
          "name": "tokenId",
          "type": "uint256"
        }
      ],
      "name": "ownerOf",
      "outputs": [
        {
          "internalType": "address",
          "name": "",
          "type": "address"
        }
      ],
      "stateMutability": "view",
      "type": "function"
    },
    {
      "inputs": [],
      "name": "platformOwner",
      "outputs": [
        {
          "internalType": "address",
          "name": "",
          "type": "address"
        }
      ],
      "stateMutability": "view",
      "type": "function"
    },
    {
      "inputs": [],
      "name": "priceFeedAddress",
      "outputs": [
        {
          "internalType": "address",
          "name": "",
          "type": "address"
        }
      ],
      "stateMutability": "view",
      "type": "function"
    },
    {
      "inputs": [],
      "name": "renounceOwnership",
      "outputs": [],
      "stateMutability": "nonpayable",
      "type": "function"
    },
    {
      "inputs": [],
      "name": "revealTime",
      "outputs": [
        {
          "internalType": "uint256",
          "name": "",
          "type": "uint256"
        }
      ],
      "stateMutability": "view",
      "type": "function"
    },
    {
      "inputs": [],
      "name": "royaltyBasis",
      "outputs": [
        {
          "internalType": "uint96",
          "name": "",
          "type": "uint96"
        }
      ],
      "stateMutability": "view",
      "type": "function"
    },
    {
      "inputs": [
        {
          "internalType": "uint256",
          "name": "_tokenId",
          "type": "uint256"
        },
        {
          "internalType": "uint256",
          "name": "_salePrice",
          "type": "uint256"
        }
      ],
      "name": "royaltyInfo",
      "outputs": [
        {
          "internalType": "address",
          "name": "",
          "type": "address"
        },
        {
          "internalType": "uint256",
          "name": "",
          "type": "uint256"
        }
      ],
      "stateMutability": "view",
      "type": "function"
    },
    {
      "inputs": [
        {
          "internalType": "address",
          "name": "_from",
          "type": "address"
        },
        {
          "internalType": "address",
          "name": "_to",
          "type": "address"
        },
        {
          "internalType": "uint256",
          "name": "_tokenId",
          "type": "uint256"
        }
      ],
      "name": "safeTransferFrom",
      "outputs": [],
      "stateMutability": "nonpayable",
      "type": "function"
    },
    {
      "inputs": [
        {
          "internalType": "address",
          "name": "_from",
          "type": "address"
        },
        {
          "internalType": "address",
          "name": "_to",
          "type": "address"
        },
        {
          "internalType": "uint256",
          "name": "_tokenId",
          "type": "uint256"
        },
        {
          "internalType": "bytes",
          "name": "data",
          "type": "bytes"
        }
      ],
      "name": "safeTransferFrom",
      "outputs": [],
      "stateMutability": "nonpayable",
      "type": "function"
    },
    {
      "inputs": [],
      "name": "saleConfigsRoot",
      "outputs": [
        {
          "internalType": "bytes32",
          "name": "",
          "type": "bytes32"
        }
      ],
      "stateMutability": "view",
      "type": "function"
    },
    {
      "inputs": [
        {
          "internalType": "address",
          "name": "operator",
          "type": "address"
        },
        {
          "internalType": "bool",
          "name": "approved",
          "type": "bool"
        }
      ],
      "name": "setApprovalForAll",
      "outputs": [],
      "stateMutability": "nonpayable",
      "type": "function"
    },
    {
      "inputs": [
        {
          "internalType": "bytes4",
          "name": "interfaceId",
          "type": "bytes4"
        }
      ],
      "name": "supportsInterface",
      "outputs": [
        {
          "internalType": "bool",
          "name": "",
          "type": "bool"
        }
      ],
      "stateMutability": "view",
      "type": "function"
    },
    {
      "inputs": [],
      "name": "symbol",
      "outputs": [
        {
          "internalType": "string",
          "name": "",
          "type": "string"
        }
      ],
      "stateMutability": "view",
      "type": "function"
    },
    {
      "inputs": [],
      "name": "tokenId",
      "outputs": [
        {
          "internalType": "uint256",
          "name": "",
          "type": "uint256"
        }
      ],
      "stateMutability": "view",
      "type": "function"
    },
    {
      "inputs": [
        {
          "internalType": "uint256",
          "name": "_tokenId",
          "type": "uint256"
        }
      ],
      "name": "tokenURI",
      "outputs": [
        {
          "internalType": "string",
          "name": "",
          "type": "string"
        }
      ],
      "stateMutability": "view",
      "type": "function"
    },
    {
      "inputs": [
        {
          "internalType": "address",
          "name": "_from",
          "type": "address"
        },
        {
          "internalType": "address",
          "name": "_to",
          "type": "address"
        },
        {
          "internalType": "uint256",
          "name": "_tokenId",
          "type": "uint256"
        }
      ],
      "name": "transferFrom",
      "outputs": [],
      "stateMutability": "nonpayable",
      "type": "function"
    },
    {
      "inputs": [
        {
          "internalType": "address",
          "name": "newOwner",
          "type": "address"
        }
      ],
      "name": "transferOwnership",
      "outputs": [],
      "stateMutability": "nonpayable",
      "type": "function"
    },
    {
      "inputs": [
        {
          "internalType": "string",
          "name": "_baseURI",
          "type": "string"
        }
      ],
      "name": "updateBaseURI",
      "outputs": [],
      "stateMutability": "nonpayable",
      "type": "function"
    },
    {
      "inputs": [
        {
          "internalType": "address",
          "name": "_feeDestination",
          "type": "address"
        }
      ],
      "name": "updateFeeToAddress",
      "outputs": [],
      "stateMutability": "nonpayable",
      "type": "function"
    },
    {
      "inputs": [
        {
          "internalType": "uint256",
          "name": "_val",
          "type": "uint256"
        }
      ],
      "name": "updateMaxMintInTotalPerWallet",
      "outputs": [],
      "stateMutability": "nonpayable",
      "type": "function"
    },
    {
      "inputs": [
        {
          "internalType": "address",
          "name": "_address",
          "type": "address"
        }
      ],
      "name": "updatePlatformOwner",
      "outputs": [],
      "stateMutability": "nonpayable",
      "type": "function"
    },
    {
      "inputs": [
        {
          "internalType": "uint256",
          "name": "_revealTime",
          "type": "uint256"
        }
      ],
      "name": "updateRevealTime",
      "outputs": [],
      "stateMutability": "nonpayable",
      "type": "function"
    },
    {
      "inputs": [
        {
          "internalType": "uint96",
          "name": "_val",
          "type": "uint96"
        }
      ],
      "name": "updateRoyaltyBasis",
      "outputs": [],
      "stateMutability": "nonpayable",
      "type": "function"
    },
    {
      "inputs": [
        {
          "internalType": "bytes32",
          "name": "_saleConfigRoot",
          "type": "bytes32"
        }
      ],
      "name": "updateSaleConfigRoot",
      "outputs": [],
      "stateMutability": "nonpayable",
      "type": "function"
    },
    {
      "stateMutability": "payable",
      "type": "receive"
    }
  ],
  "bytecode": "0x60806040526001600a556000600b556040516200422d3803806200422d8339810160408190526200003091620007ac565b80516020820151733cc6cdda760b79bafa08df41ecfa224f810dceb6916001916200005b3362000476565b815162000070906001906020850190620005c7565b50805162000086906002906020840190620005c7565b50506001600955506daaeb6d7670e522a718067333cd4e3b15620001d35780156200012157604051633e9f1edf60e11b81523060048201526001600160a01b03831660248201526daaeb6d7670e522a718067333cd4e90637d3e3dbe906044015b600060405180830381600087803b1580156200010257600080fd5b505af115801562000117573d6000803e3d6000fd5b50505050620001d3565b6001600160a01b03821615620001725760405163a0af290360e01b81523060048201526001600160a01b03831660248201526daaeb6d7670e522a718067333cd4e9063a0af290390604401620000e7565b604051632210724360e11b81523060048201526daaeb6d7670e522a718067333cd4e90634420e48690602401600060405180830381600087803b158015620001b957600080fd5b505af1158015620001ce573d6000803e3d6000fd5b505050505b50506101608101516001600160a01b031615620002fe5760008161016001516001600160a01b031663feaf968c6040518163ffffffff1660e01b815260040160a060405180830381865afa15801562000230573d6000803e3d6000fd5b505050506040513d601f19601f820116820180604052508101906200025691906200091c565b5050509150506305f5e10081606462000270919062000987565b6200027c919062000a18565b610140830151620002969067d02ab486cedc000062000987565b620002a2919062000a18565b341215620002f75760405162461bcd60e51b815260206004820152601a60248201527f4e6f7420656e6f756768206368617267652070726f766964656400000000000060448201526064015b60405180910390fd5b5062000367565b610140810151620003169065886c98b7600062000a58565b341015620003675760405162461bcd60e51b815260206004820152601a60248201527f4e6f7420656e6f756768206368617267652070726f76696465640000000000006044820152606401620002ee565b6040810151600c80546001600160a01b039283166001600160a01b0319918216179091556080830151600d5560a08301516012805491909316911617905560c08101518051620003c091601391602090910190620005c7565b50606081015160115560e0810151601455610100810151620003e4903090620004c6565b6101008101516101208201516001600160a01b039081166c0100000000000000000000000081026001600160601b039093169290921760155561014083015160165561016083015160178054919092166001600160a01b03199091161790556040513480156108fc02916000818181858888f193505050501580156200046e573d6000803e3d6000fd5b505062000ab6565b600080546001600160a01b038381166001600160a01b0319831681178455604051919092169283917f8be0079c531659141344cd1fd0a4f28419497f9722a3daafe3b4186f6b6457e09190a35050565b6127106001600160601b0382161115620005365760405162461bcd60e51b815260206004820152602a60248201527f455243323938313a20726f79616c7479206665652077696c6c206578636565646044820152692073616c65507269636560b01b6064820152608401620002ee565b6001600160a01b0382166200058e5760405162461bcd60e51b815260206004820152601960248201527f455243323938313a20696e76616c6964207265636569766572000000000000006044820152606401620002ee565b604080518082019091526001600160a01b039092168083526001600160601b039091166020909201829052600160a01b90910217600755565b828054620005d59062000a7a565b90600052602060002090601f016020900481019282620005f9576000855562000644565b82601f106200061457805160ff191683800117855562000644565b8280016001018555821562000644579182015b828111156200064457825182559160200191906001019062000627565b506200065292915062000656565b5090565b5b8082111562000652576000815560010162000657565b634e487b7160e01b600052604160045260246000fd5b60405161018081016001600160401b0381118282101715620006a957620006a96200066d565b60405290565b604051601f8201601f191681016001600160401b0381118282101715620006da57620006da6200066d565b604052919050565b600082601f830112620006f457600080fd5b81516001600160401b038111156200071057620007106200066d565b602062000726601f8301601f19168201620006af565b82815285828487010111156200073b57600080fd5b60005b838110156200075b5785810183015182820184015282016200073e565b838111156200076d5760008385840101525b5095945050505050565b80516001600160a01b03811681146200078f57600080fd5b919050565b80516001600160601b03811681146200078f57600080fd5b600060208284031215620007bf57600080fd5b81516001600160401b0380821115620007d757600080fd5b908301906101808286031215620007ed57600080fd5b620007f762000683565b8251828111156200080757600080fd5b6200081587828601620006e2565b8252506020830151828111156200082b57600080fd5b6200083987828601620006e2565b6020830152506200084d6040840162000777565b604082015260608301516060820152608083015160808201526200087460a0840162000777565b60a082015260c0830151828111156200088c57600080fd5b6200089a87828601620006e2565b60c08301525060e083015160e08201526101009150620008bc82840162000794565b828201526101209150620008d282840162000777565b82820152610140915081830151828201526101609150620008f582840162000777565b91810191909152949350505050565b80516001600160501b03811681146200078f57600080fd5b600080600080600060a086880312156200093557600080fd5b620009408662000904565b9450602086015193506040860151925060608601519150620009656080870162000904565b90509295509295909350565b634e487b7160e01b600052601160045260246000fd5b60006001600160ff1b0381841382841380821686840486111615620009b057620009b062000971565b600160ff1b6000871282811687830589121615620009d257620009d262000971565b60008712925087820587128484161615620009f157620009f162000971565b8785058712818416161562000a0a5762000a0a62000971565b505050929093029392505050565b60008262000a3657634e487b7160e01b600052601260045260246000fd5b600160ff1b82146000198414161562000a535762000a5362000971565b500590565b600081600019048311821515161562000a755762000a7562000971565b500290565b600181811c9082168062000a8f57607f821691505b60208210810362000ab057634e487b7160e01b600052602260045260246000fd5b50919050565b6137678062000ac66000396000f3fe6080604052600436106102205760003560e01c80638369981611610124578063c6ec6909116100a6578063c6ec69091461074f578063c87b56dd14610787578063ca73e5e9146107a7578063d9c79c1c146107c7578063dc9f75f7146107da578063de53fcd5146107fa578063e0abca0b1461081a578063e8a3d4851461083a578063e985e9c51461084f578063eaf3a5891461086f578063f2fde38b1461088557600080fd5b806383699816146106025780638847d3d5146106225780638da5cb5b14610642578063931688cb1461066057806395d89b41146106805780639659867e146106955780639a953ea2146106ab578063a22cb465146106c1578063b88d4fde146106e1578063ba4cc74914610701578063ba829d711461073957600080fd5b80632a55205a116101ad5780632a55205a146104a75780632e411f22146104e657806342842e0e146104fb5780634df8ccb11461051b57806361b5a2a2146105425780636352211e146105625780636c0360eb1461058257806370a0823114610597578063715018a6146105b75780637feb839d146105cc5780638028b285146105e257600080fd5b8063018779c7146102fc57806301ffc9a71461034c57806306fdde031461036c578063081812fc1461038e578063095ea7b3146103bb5780630b8c1785146103db57806317d70f7c146104315780631b34f10714610447578063210112f51461046757806323b872dd1461048757600080fd5b366102f75760006064610234346002612bec565b61023e9190612c0b565b601554909150600160601b90046001600160a01b03161561029b57601554604051600160601b9091046001600160a01b0316906108fc8315029083906000818181858888f19350505050158015610299573d6000803e3d6000fd5b505b600c546015546001600160a01b03918216916108fc91600160601b9004166102c357346102cd565b6102cd8334612c2d565b6040518115909202916000818181858888f193505050501580156102f5573d6000803e3d6000fd5b005b600080fd5b34801561030857600080fd5b50610337610317366004612d22565b8051602081830181018051600e8252928201919093012091525460ff1681565b60405190151581526020015b60405180910390f35b34801561035857600080fd5b50610337610367366004612d6c565b6108a5565b34801561037857600080fd5b506103816108d0565b6040516103439190612de1565b34801561039a57600080fd5b506103ae6103a9366004612df4565b610962565b6040516103439190612e0d565b3480156103c757600080fd5b506102f56103d6366004612e3d565b610989565b3480156103e757600080fd5b506104236103f6366004612e67565b81516020818401810180516010825292820194820194909420919093529091526000908152604090205481565b604051908152602001610343565b34801561043d57600080fd5b50610423600a5481565b34801561045357600080fd5b506102f5610462366004612eb4565b610aa3565b34801561047357600080fd5b506102f5610482366004612eb4565b610b22565b34801561049357600080fd5b506102f56104a2366004612ecf565b610b4c565b3480156104b357600080fd5b506104c76104c2366004612f0b565b610ca1565b604080516001600160a01b039093168352602083019190915201610343565b3480156104f257600080fd5b50610423600081565b34801561050757600080fd5b506102f5610516366004612ecf565b610d4f565b34801561052757600080fd5b506015546103ae90600160601b90046001600160a01b031681565b34801561054e57600080fd5b506102f561055d366004612df4565b610e99565b34801561056e57600080fd5b506103ae61057d366004612df4565b610ea6565b34801561058e57600080fd5b50610381610eda565b3480156105a357600080fd5b506104236105b2366004612eb4565b610f68565b3480156105c357600080fd5b506102f5610fee565b3480156105d857600080fd5b5061042360165481565b3480156105ee57600080fd5b506012546103ae906001600160a01b031681565b34801561060e57600080fd5b506102f561061d366004612df4565b611002565b34801561062e57600080fd5b506102f561063d366004612f2d565b61100f565b34801561064e57600080fd5b506000546001600160a01b03166103ae565b34801561066c57600080fd5b506102f561067b366004612d22565b611043565b34801561068c57600080fd5b50610381611062565b3480156106a157600080fd5b50610423600b5481565b3480156106b757600080fd5b5061042360115481565b3480156106cd57600080fd5b506102f56106dc366004612f6f565b611071565b3480156106ed57600080fd5b506102f56106fc366004612fa6565b61107c565b34801561070d57600080fd5b5061042361071c366004612d22565b8051602081830181018051600f8252928201919093012091525481565b34801561074557600080fd5b5061042360145481565b34801561075b57600080fd5b5060155461076f906001600160601b031681565b6040516001600160601b039091168152602001610343565b34801561079357600080fd5b506103816107a2366004612df4565b6111d4565b3480156107b357600080fd5b506104236107c23660046130a2565b61126e565b6102f56107d5366004613155565b6112e3565b3480156107e657600080fd5b506102f56107f5366004612df4565b611ad6565b34801561080657600080fd5b50600c546103ae906001600160a01b031681565b34801561082657600080fd5b506017546103ae906001600160a01b031681565b34801561084657600080fd5b50610381611ae3565b34801561085b57600080fd5b5061033761086a36600461322e565b611b37565b34801561087b57600080fd5b50610423600d5481565b34801561089157600080fd5b506102f56108a0366004612eb4565b611b65565b60006001600160e01b0319821663152a902d60e11b14806108ca57506108ca82611bde565b92915050565b6060600180546108df90613258565b80601f016020809104026020016040519081016040528092919081815260200182805461090b90613258565b80156109585780601f1061092d57610100808354040283529160200191610958565b820191906000526020600020905b81548152906001019060200180831161093b57829003601f168201915b5050505050905090565b600061096d82611c03565b506000908152600560205260409020546001600160a01b031690565b600061099482610ea6565b9050806001600160a01b0316836001600160a01b031603610a065760405162461bcd60e51b815260206004820152602160248201527f4552433732313a20617070726f76616c20746f2063757272656e74206f776e656044820152603960f91b60648201526084015b60405180910390fd5b336001600160a01b0382161480610a225750610a228133611b37565b610a945760405162461bcd60e51b815260206004820152603d60248201527f4552433732313a20617070726f76652063616c6c6572206973206e6f7420746f60448201527f6b656e206f776e6572206f7220617070726f76656420666f7220616c6c00000060648201526084016109fd565b610a9e8383611c28565b505050565b601554600160601b90046001600160a01b03163314610afa5760405162461bcd60e51b815260206004820152601360248201527227b7363c90283630ba3337b9369027bbb732b960691b60448201526064016109fd565b601580546001600160a01b03909216600160601b026001600160601b03909216919091179055565b610b2a611c96565b600c80546001600160a01b0319166001600160a01b0392909216919091179055565b826daaeb6d7670e522a718067333cd4e3b15610c9057336001600160a01b03821603610b8257610b7d848484611cf0565b610c9b565b604051633185c44d60e21b81526daaeb6d7670e522a718067333cd4e9063c617113490610bb59030903390600401613292565b602060405180830381865afa158015610bd2573d6000803e3d6000fd5b505050506040513d601f19601f82011682018060405250810190610bf691906132ac565b8015610c715750604051633185c44d60e21b81526daaeb6d7670e522a718067333cd4e9063c617113490610c309030908590600401613292565b602060405180830381865afa158015610c4d573d6000803e3d6000fd5b505050506040513d601f19601f82011682018060405250810190610c7191906132ac565b610c905733604051633b79c77360e21b81526004016109fd9190612e0d565b610c9b848484611cf0565b50505050565b60008281526008602090815260408083208151808301909252546001600160a01b038116808352600160a01b9091046001600160601b0316928201929092528291610d165750604080518082019091526007546001600160a01b0381168252600160a01b90046001600160601b031660208201525b602081015160009061271090610d35906001600160601b031687612bec565b610d3f9190612c0b565b91519350909150505b9250929050565b826daaeb6d7670e522a718067333cd4e3b15610e8e57336001600160a01b03821603610d8057610b7d848484611d21565b604051633185c44d60e21b81526daaeb6d7670e522a718067333cd4e9063c617113490610db39030903390600401613292565b602060405180830381865afa158015610dd0573d6000803e3d6000fd5b505050506040513d601f19601f82011682018060405250810190610df491906132ac565b8015610e6f5750604051633185c44d60e21b81526daaeb6d7670e522a718067333cd4e9063c617113490610e2e9030908590600401613292565b602060405180830381865afa158015610e4b573d6000803e3d6000fd5b505050506040513d601f19601f82011682018060405250810190610e6f91906132ac565b610e8e5733604051633b79c77360e21b81526004016109fd9190612e0d565b610c9b848484611d21565b610ea1611c96565b601155565b600080610eb283611d3c565b90506001600160a01b0381166108ca5760405162461bcd60e51b81526004016109fd906132c9565b60138054610ee790613258565b80601f0160208091040260200160405190810160405280929190818152602001828054610f1390613258565b8015610f605780601f10610f3557610100808354040283529160200191610f60565b820191906000526020600020905b815481529060010190602001808311610f4357829003601f168201915b505050505081565b60006001600160a01b038216610fd25760405162461bcd60e51b815260206004820152602960248201527f4552433732313a2061646472657373207a65726f206973206e6f7420612076616044820152683634b21037bbb732b960b91b60648201526084016109fd565b506001600160a01b031660009081526004602052604090205490565b610ff6611c96565b6110006000611d57565b565b61100a611c96565b600d55565b611017611c96565b6110213082611da7565b601580546001600160601b0319166001600160601b0392909216919091179055565b61104b611c96565b805161105e906013906020840190612b3d565b5050565b6060600280546108df90613258565b61105e338383611ea0565b836daaeb6d7670e522a718067333cd4e3b156111c157336001600160a01b038216036110b3576110ae85858585611f6a565b6111cd565b604051633185c44d60e21b81526daaeb6d7670e522a718067333cd4e9063c6171134906110e69030903390600401613292565b602060405180830381865afa158015611103573d6000803e3d6000fd5b505050506040513d601f19601f8201168201806040525081019061112791906132ac565b80156111a25750604051633185c44d60e21b81526daaeb6d7670e522a718067333cd4e9063c6171134906111619030908590600401613292565b602060405180830381865afa15801561117e573d6000803e3d6000fd5b505050506040513d601f19601f820116820180604052508101906111a291906132ac565b6111c15733604051633b79c77360e21b81526004016109fd9190612e0d565b6111cd85858585611f6a565b5050505050565b606060136014546000141580156111ed57506014544211155b6112065760405180602001604052806000815250611227565b6040518060400160405280600781526020016668696464656e2d60c81b8152505b611232306014611f9c565b61123b4661213e565b6112448661213e565b604051602001611258959493929190613394565b6040516020818303038152906040529050919050565b80516020808301516040808501516060860151608087015160a088015160c089015160e08a015195516000996112a8999098979101613441565b60408051601f19818403018152828252805160209182012090830152015b604051602081830303815290604052805190602001209050919050565b6112eb6121d0565b8585858360165482600b546113009190613490565b111561134b5760405162461bcd60e51b815260206004820152601a60248201527904d696e7420436f756e742065786365656473204d6178204361760341b60448201526064016109fd565b600d5461138f5760405162461bcd60e51b8152602060048201526012602482015271139bc81cd85b194818dbdb999a59dd5c995960721b60448201526064016109fd565b6113a484600d5461139f8461126e565b612229565b6113e65760405162461bcd60e51b8152602060048201526013602482015272496e76616c69642053616c6520436f6e66696760681b60448201526064016109fd565b806020015161142d5760405162461bcd60e51b815260206004820152601360248201527214d85b19481a5cc81b9bdd08195b98589b1959606a1b60448201526064016109fd565b6040810151429015801590611446575081604001518110155b61148d5760405162461bcd60e51b815260206004820152601860248201527714d85b19481a185cc81b9bdd081cdd185c9d1959081e595d60421b60448201526064016109fd565b8160600151811115806114a257506060820151155b6114df5760405162461bcd60e51b815260206004820152600e60248201526d14d85b19481a185cc8195b99195960921b60448201526064016109fd565b8282608001516114ef9190612bec565b34101561153e5760405162461bcd60e51b815260206004820152601f60248201527f4e6f7420656e6f756768206d696e74206368617267652070726f76696465640060448201526064016109fd565b8160e0015183600f846000015160405161155891906134a8565b9081526020016040518091039020546115719190613490565b11156115b85760405162461bcd60e51b81526020600482015260166024820152754d61782053616c65204c696d6974204578636565647360501b60448201526064016109fd565b8160c0015183601084600001516040516115d291906134a8565b908152604080516020928190038301902033600090815292529020546115f89190613490565b11156116465760405162461bcd60e51b815260206004820181905260248201527f4d61784d696e7450657257616c6c657453616c654c696d69744578636565647360448201526064016109fd565b601154156116b3576011548361165b33610f68565b6116659190613490565b11156116b35760405162461bcd60e51b815260206004820152601e60248201527f4d6178546f74616c4d696e7457616c6c65744c696d697445786365656473000060448201526064016109fd565b60a08201511561173f5760a08201516040516001600160601b03193360601b1660208201526116fc91869160340160405160208183030381529060405280519060200120612229565b61173f5760405162461bcd60e51b8152602060048201526014602482015273155cd95c881b9bdd081dda1a5d195b1a5cdd195960621b60448201526064016109fd565b8787600e8160405161175191906134a8565b9081526040519081900360200190205460ff16156117ae5760405162461bcd60e51b815260206004820152601a60248201527914da59db985d1d5c9948185b1c9958591e481c995919595b595960321b60448201526064016109fd565b6012546040516001600160a01b03909116906117f99083906117f3906117d89087906020016134a8565b6040516020818303038152906040528051906020012061223f565b9061227a565b6001600160a01b0316146118435760405162461bcd60e51b8152602060048201526011602482015270496e76616c6964205369676e617475726560781b60448201526064016109fd565b60008b1161188a5760405162461bcd60e51b815260206004820152601460248201527304e756d626572206f66206d696e747320697320360641b60448201526064016109fd565b8a600b600082825461189c9190613490565b909155505087516040518c916010916118b591906134a8565b90815260408051602092819003830190203360009081529252812080549091906118e0908490613490565b909155505087516040518c91600f916118f991906134a8565b908152602001604051809103902060008282546119169190613490565b925050819055506001600e8a60405161192f91906134a8565b908152604051908190036020019020805491151560ff19909216919091179055600a5461195c8c82613490565b600a5560006127106119703461012c612bec565b61197a9190612c0b565b601554909150600160601b90046001600160a01b0316156119d757601554604051600160601b9091046001600160a01b0316906108fc8315029083906000818181858888f193505050501580156119d5573d6000803e3d6000fd5b505b600c546015546001600160a01b03918216916108fc91600160601b9004166119ff5734611a09565b611a098334612c2d565b6040518115909202916000818181858888f19350505050158015611a31573d6000803e3d6000fd5b5060005b8d811015611a6057611a5033611a4b8386613490565b61229e565b611a59816134c4565b9050611a35565b507f4c209b5fc8ad50758f13e2e1088ba56a560dff690a1c6fef26394f4c03821c4f33836001600a54611a939190612c2d565b604080516001600160a01b03909416845260208401929092529082015260600160405180910390a1505050505050505050611ace6001600955565b505050505050565b611ade611c96565b601455565b60606013611af2306014611f9c565b611afb4661213e565b601554611b10906001600160601b031661213e565b604051602001611b2394939291906134dd565b604051602081830303815290604052905090565b6001600160a01b03918216600090815260066020908152604080832093909416825291909152205460ff1690565b611b6d611c96565b6001600160a01b038116611bd25760405162461bcd60e51b815260206004820152602660248201527f4f776e61626c653a206e6577206f776e657220697320746865207a65726f206160448201526564647265737360d01b60648201526084016109fd565b611bdb81611d57565b50565b60006001600160e01b0319821663152a902d60e11b14806108ca57506108ca826123b9565b611c0c81612409565b611bdb5760405162461bcd60e51b81526004016109fd906132c9565b600081815260056020526040902080546001600160a01b0319166001600160a01b0384169081179091558190611c5d82610ea6565b6001600160a01b03167f8c5be1e5ebec7d5bd14f71427d1e84f3dd0314c0f7b2291e5b200ac8c7c3b92560405160405180910390a45050565b6000546001600160a01b031633146110005760405162461bcd60e51b815260206004820181905260248201527f4f776e61626c653a2063616c6c6572206973206e6f7420746865206f776e657260448201526064016109fd565b611cfa3382612426565b611d165760405162461bcd60e51b81526004016109fd90613579565b610a9e838383612485565b610a9e8383836040518060200160405280600081525061107c565b6000908152600360205260409020546001600160a01b031690565b600080546001600160a01b038381166001600160a01b0319831681178455604051919092169283917f8be0079c531659141344cd1fd0a4f28419497f9722a3daafe3b4186f6b6457e09190a35050565b6127106001600160601b0382161115611e155760405162461bcd60e51b815260206004820152602a60248201527f455243323938313a20726f79616c7479206665652077696c6c206578636565646044820152692073616c65507269636560b01b60648201526084016109fd565b6001600160a01b038216611e675760405162461bcd60e51b815260206004820152601960248201527822a921991c9c189d1034b73b30b634b2103932b1b2b4bb32b960391b60448201526064016109fd565b604080518082019091526001600160a01b039092168083526001600160601b039091166020909201829052600160a01b90910217600755565b816001600160a01b0316836001600160a01b031603611efd5760405162461bcd60e51b815260206004820152601960248201527822a9219b99189d1030b8383937bb32903a379031b0b63632b960391b60448201526064016109fd565b6001600160a01b03838116600081815260066020908152604080832094871680845294825291829020805460ff191686151590811790915591519182527f17307eab39ab6107e8899845ad3d59bd9653f200f220920489ca2b5937696c31910160405180910390a3505050565b611f743383612426565b611f905760405162461bcd60e51b81526004016109fd90613579565b610c9b848484846125f6565b60606000611fab836002612bec565b611fb6906002613490565b6001600160401b03811115611fcd57611fcd612c44565b6040519080825280601f01601f191660200182016040528015611ff7576020820181803683370190505b509050600360fc1b81600081518110612012576120126135c6565b60200101906001600160f81b031916908160001a905350600f60fb1b81600181518110612041576120416135c6565b60200101906001600160f81b031916908160001a9053506000612065846002612bec565b612070906001613490565b90505b60018111156120e8576f181899199a1a9b1b9c1cb0b131b232b360811b85600f16601081106120a4576120a46135c6565b1a60f81b8282815181106120ba576120ba6135c6565b60200101906001600160f81b031916908160001a90535060049490941c936120e1816135dc565b9050612073565b5083156121375760405162461bcd60e51b815260206004820181905260248201527f537472696e67733a20686578206c656e67746820696e73756666696369656e7460448201526064016109fd565b9392505050565b6060600061214b83612629565b60010190506000816001600160401b0381111561216a5761216a612c44565b6040519080825280601f01601f191660200182016040528015612194576020820181803683370190505b5090508181016020015b600019016f181899199a1a9b1b9c1cb0b131b232b360811b600a86061a8153600a850494508461219e57509392505050565b6002600954036122225760405162461bcd60e51b815260206004820152601f60248201527f5265656e7472616e637947756172643a207265656e7472616e742063616c6c0060448201526064016109fd565b6002600955565b60008261223685846126ff565b14949350505050565b6040517f19457468657265756d205369676e6564204d6573736167653a0a3332000000006020820152603c8101829052600090605c016112c6565b60008060006122898585612744565b9150915061229681612786565b509392505050565b6001600160a01b0382166122f45760405162461bcd60e51b815260206004820181905260248201527f4552433732313a206d696e7420746f20746865207a65726f206164647265737360448201526064016109fd565b6122fd81612409565b1561231a5760405162461bcd60e51b81526004016109fd906135f3565b6123286000838360016128cb565b61233181612409565b1561234e5760405162461bcd60e51b81526004016109fd906135f3565b6001600160a01b038216600081815260046020908152604080832080546001019055848352600390915280822080546001600160a01b0319168417905551839291907fddf252ad1be2c89b69c2b068fc378daa952ba7f163c4a11628f55a4df523b3ef908290a45050565b60006001600160e01b031982166380ac58cd60e01b14806123ea57506001600160e01b03198216635b5e139f60e01b145b806108ca57506301ffc9a760e01b6001600160e01b03198316146108ca565b60008061241583611d3c565b6001600160a01b0316141592915050565b60008061243283610ea6565b9050806001600160a01b0316846001600160a01b0316148061245957506124598185611b37565b8061247d5750836001600160a01b031661247284610962565b6001600160a01b0316145b949350505050565b826001600160a01b031661249882610ea6565b6001600160a01b0316146124be5760405162461bcd60e51b81526004016109fd9061362a565b6001600160a01b0382166125205760405162461bcd60e51b8152602060048201526024808201527f4552433732313a207472616e7366657220746f20746865207a65726f206164646044820152637265737360e01b60648201526084016109fd565b61252d83838360016128cb565b826001600160a01b031661254082610ea6565b6001600160a01b0316146125665760405162461bcd60e51b81526004016109fd9061362a565b600081815260056020908152604080832080546001600160a01b03199081169091556001600160a01b0387811680865260048552838620805460001901905590871680865283862080546001019055868652600390945282852080549092168417909155905184937fddf252ad1be2c89b69c2b068fc378daa952ba7f163c4a11628f55a4df523b3ef91a4505050565b612601848484612485565b61260d84848484612953565b610c9b5760405162461bcd60e51b81526004016109fd9061366f565b60008072184f03e93ff9f4daa797ed6e38ed64bf6a1f0160401b83106126685772184f03e93ff9f4daa797ed6e38ed64bf6a1f0160401b830492506040015b6904ee2d6d415b85acef8160201b8310612692576904ee2d6d415b85acef8160201b830492506020015b662386f26fc1000083106126b057662386f26fc10000830492506010015b6305f5e10083106126c8576305f5e100830492506008015b61271083106126dc57612710830492506004015b606483106126ee576064830492506002015b600a83106108ca5760010192915050565b600081815b84518110156122965761273082868381518110612723576127236135c6565b6020026020010151612a54565b91508061273c816134c4565b915050612704565b600080825160410361277a5760208301516040840151606085015160001a61276e87828585612a83565b94509450505050610d48565b50600090506002610d48565b600081600481111561279a5761279a6136c1565b036127a25750565b60018160048111156127b6576127b66136c1565b036127fe5760405162461bcd60e51b815260206004820152601860248201527745434453413a20696e76616c6964207369676e617475726560401b60448201526064016109fd565b6002816004811115612812576128126136c1565b0361285f5760405162461bcd60e51b815260206004820152601f60248201527f45434453413a20696e76616c6964207369676e6174757265206c656e6774680060448201526064016109fd565b6003816004811115612873576128736136c1565b03611bdb5760405162461bcd60e51b815260206004820152602260248201527f45434453413a20696e76616c6964207369676e6174757265202773272076616c604482015261756560f01b60648201526084016109fd565b6001811115610c9b576001600160a01b03841615612911576001600160a01b0384166000908152600460205260408120805483929061290b908490612c2d565b90915550505b6001600160a01b03831615610c9b576001600160a01b03831660009081526004602052604081208054839290612948908490613490565b909155505050505050565b60006001600160a01b0384163b15612a4957604051630a85bd0160e11b81526001600160a01b0385169063150b7a02906129979033908990889088906004016136d7565b6020604051808303816000875af19250505080156129d2575060408051601f3d908101601f191682019092526129cf91810190613714565b60015b612a2f573d808015612a00576040519150601f19603f3d011682016040523d82523d6000602084013e612a05565b606091505b508051600003612a275760405162461bcd60e51b81526004016109fd9061366f565b805181602001fd5b6001600160e01b031916630a85bd0160e11b14905061247d565b506001949350505050565b6000818310612a70576000828152602084905260409020612137565b6000838152602083905260409020612137565b6000806fa2a8918ca85bafe22016d0b997e4df60600160ff1b03831115612ab05750600090506003612b34565b6040805160008082526020820180845289905260ff881692820192909252606081018690526080810185905260019060a0016020604051602081039080840390855afa158015612b04573d6000803e3d6000fd5b5050604051601f1901519150506001600160a01b038116612b2d57600060019250925050612b34565b9150600090505b94509492505050565b828054612b4990613258565b90600052602060002090601f016020900481019282612b6b5760008555612bb1565b82601f10612b8457805160ff1916838001178555612bb1565b82800160010185558215612bb1579182015b82811115612bb1578251825591602001919060010190612b96565b50612bbd929150612bc1565b5090565b5b80821115612bbd5760008155600101612bc2565b634e487b7160e01b600052601160045260246000fd5b6000816000190483118215151615612c0657612c06612bd6565b500290565b600082612c2857634e487b7160e01b600052601260045260246000fd5b500490565b600082821015612c3f57612c3f612bd6565b500390565b634e487b7160e01b600052604160045260246000fd5b60405161010081016001600160401b0381118282101715612c7d57612c7d612c44565b60405290565b604051601f8201601f191681016001600160401b0381118282101715612cab57612cab612c44565b604052919050565b600082601f830112612cc457600080fd5b81356001600160401b03811115612cdd57612cdd612c44565b612cf0601f8201601f1916602001612c83565b818152846020838601011115612d0557600080fd5b816020850160208301376000918101602001919091529392505050565b600060208284031215612d3457600080fd5b81356001600160401b03811115612d4a57600080fd5b61247d84828501612cb3565b6001600160e01b031981168114611bdb57600080fd5b600060208284031215612d7e57600080fd5b813561213781612d56565b60005b83811015612da4578181015183820152602001612d8c565b83811115610c9b5750506000910152565b60008151808452612dcd816020860160208601612d89565b601f01601f19169290920160200192915050565b6020815260006121376020830184612db5565b600060208284031215612e0657600080fd5b5035919050565b6001600160a01b0391909116815260200190565b80356001600160a01b0381168114612e3857600080fd5b919050565b60008060408385031215612e5057600080fd5b612e5983612e21565b946020939093013593505050565b60008060408385031215612e7a57600080fd5b82356001600160401b03811115612e9057600080fd5b612e9c85828601612cb3565b925050612eab60208401612e21565b90509250929050565b600060208284031215612ec657600080fd5b61213782612e21565b600080600060608486031215612ee457600080fd5b612eed84612e21565b9250612efb60208501612e21565b9150604084013590509250925092565b60008060408385031215612f1e57600080fd5b50508035926020909101359150565b600060208284031215612f3f57600080fd5b81356001600160601b038116811461213757600080fd5b8015158114611bdb57600080fd5b8035612e3881612f56565b60008060408385031215612f8257600080fd5b612f8b83612e21565b91506020830135612f9b81612f56565b809150509250929050565b60008060008060808587031215612fbc57600080fd5b612fc585612e21565b9350612fd360208601612e21565b92506040850135915060608501356001600160401b03811115612ff557600080fd5b61300187828801612cb3565b91505092959194509250565b6000610100828403121561302057600080fd5b613028612c5a565b905081356001600160401b0381111561304057600080fd5b61304c84828501612cb3565b82525061305b60208301612f64565b602082015260408201356040820152606082013560608201526080820135608082015260a082013560a082015260c082013560c082015260e082013560e082015292915050565b6000602082840312156130b457600080fd5b81356001600160401b038111156130ca57600080fd5b61247d8482850161300d565b600082601f8301126130e757600080fd5b813560206001600160401b0382111561310257613102612c44565b8160051b613111828201612c83565b928352848101820192828101908785111561312b57600080fd5b83870192505b8483101561314a57823582529183019190830190613131565b979650505050505050565b60008060008060008060c0878903121561316e57600080fd5b86356001600160401b038082111561318557600080fd5b6131918a838b016130d6565b975060208901359150808211156131a757600080fd5b6131b38a838b016130d6565b96506040890135955060608901359150808211156131d057600080fd5b6131dc8a838b01612cb3565b945060808901359150808211156131f257600080fd5b6131fe8a838b01612cb3565b935060a089013591508082111561321457600080fd5b5061322189828a0161300d565b9150509295509295509295565b6000806040838503121561324157600080fd5b61324a83612e21565b9150612eab60208401612e21565b600181811c9082168061326c57607f821691505b60208210810361328c57634e487b7160e01b600052602260045260246000fd5b50919050565b6001600160a01b0392831681529116602082015260400190565b6000602082840312156132be57600080fd5b815161213781612f56565b602080825260189082015277115490cdcc8c4e881a5b9d985b1a59081d1bdad95b88125160421b604082015260600190565b8054600090600181811c908083168061331557607f831692505b6020808410820361333657634e487b7160e01b600052602260045260246000fd5b81801561334a576001811461335b57613388565b60ff19861689528489019650613388565b60008881526020902060005b868110156133805781548b820152908501908301613367565b505084890196505b50505050505092915050565b60006133a082886132fb565b86516133b0818360208b01612d89565b71746f6b656e2d7572693f616464726573733d60701b910190815285516133de816012840160208a01612d89565b68266e6574776f726b3d60b81b60129290910191820152845161340881601b840160208901612d89565b6826746f6b656e49643d60b81b601b92909101918201528351613432816024840160208801612d89565b01602401979650505050505050565b60008951613453818460208e01612d89565b98151560f81b919098019081526001810196909652602186019490945260418501929092526061840152608183015260a182015260c10192915050565b600082198211156134a3576134a3612bd6565b500190565b600082516134ba818460208701612d89565b9190910192915050565b6000600182016134d6576134d6612bd6565b5060010190565b60006134e982876132fb565b74636f6e74726163742d7572693f616464726573733d60581b81528551613517816015840160208a01612d89565b68266e6574776f726b3d60b81b60159290910191820152845161354181601e840160208901612d89565b6826726f79616c74793d60b81b601e9290910191820152835161356b816027840160208801612d89565b016027019695505050505050565b6020808252602d908201527f4552433732313a2063616c6c6572206973206e6f7420746f6b656e206f776e6560408201526c1c881bdc88185c1c1c9bdd9959609a1b606082015260800190565b634e487b7160e01b600052603260045260246000fd5b6000816135eb576135eb612bd6565b506000190190565b6020808252601c908201527f4552433732313a20746f6b656e20616c7265616479206d696e74656400000000604082015260600190565b60208082526025908201527f4552433732313a207472616e736665722066726f6d20696e636f72726563742060408201526437bbb732b960d91b606082015260800190565b60208082526032908201527f4552433732313a207472616e7366657220746f206e6f6e20455243373231526560408201527131b2b4bb32b91034b6b83632b6b2b73a32b960711b606082015260800190565b634e487b7160e01b600052602160045260246000fd5b6001600160a01b038581168252841660208201526040810183905260806060820181905260009061370a90830184612db5565b9695505050505050565b60006020828403121561372657600080fd5b815161213781612d5656fea2646970667358221220942fcb4a8bf19505080c45013c77e93f939f99fb2931497aa257f8fddc2b151764736f6c634300080d0033",
  "linkReferences": {},
  "deployedLinkReferences": {}
}