{
  "_format": "hh-sol-artifact-1",
  "contractName": "Collection721",
  "sourceName": "contracts/hydro/Collection721.sol",
  "abi": [
    {
      "inputs": [
        {
          "components": [
            {
              "internalType": "string",
              "name": "_name",
              "type": "string"
            },
            {
              "internalType": "string",
              "name": "_symbol",
              "type": "string"
            },
            {
              "internalType": "address",
              "name": "_feeDestination",
              "type": "address"
            },
            {
              "internalType": "uint256",
              "name": "_maxMintInTotalPerWallet",
              "type": "uint256"
            },
            {
              "internalType": "bytes32",
              "name": "_saleConfigRoot",
              "type": "bytes32"
            },
            {
              "internalType": "address",
              "name": "_msgSigner",
              "type": "address"
            },
            {
              "internalType": "string",
              "name": "_baseURI",
              "type": "string"
            },
            {
              "internalType": "uint256",
              "name": "_revealTime",
              "type": "uint256"
            },
            {
              "internalType": "uint96",
              "name": "_royaltyBasis",
              "type": "uint96"
            },
            {
              "internalType": "address",
              "name": "_platformOwner",
              "type": "address"
            },
            {
              "internalType": "uint256",
              "name": "_maxMintCap",
              "type": "uint256"
            },
            {
              "internalType": "address",
              "name": "_priceFeedAddress",
              "type": "address"
            }
          ],
          "internalType": "struct Collection721.ConstructorArgs",
          "name": "args",
          "type": "tuple"
        }
      ],
      "stateMutability": "payable",
      "type": "constructor"
    },
    {
      "anonymous": false,
      "inputs": [
        {
          "indexed": true,
          "internalType": "address",
          "name": "owner",
          "type": "address"
        },
        {
          "indexed": true,
          "internalType": "address",
          "name": "approved",
          "type": "address"
        },
        {
          "indexed": true,
          "internalType": "uint256",
          "name": "tokenId",
          "type": "uint256"
        }
      ],
      "name": "Approval",
      "type": "event"
    },
    {
      "anonymous": false,
      "inputs": [
        {
          "indexed": true,
          "internalType": "address",
          "name": "owner",
          "type": "address"
        },
        {
          "indexed": true,
          "internalType": "address",
          "name": "operator",
          "type": "address"
        },
        {
          "indexed": false,
          "internalType": "bool",
          "name": "approved",
          "type": "bool"
        }
      ],
      "name": "ApprovalForAll",
      "type": "event"
    },
    {
      "anonymous": false,
      "inputs": [
        {
          "indexed": false,
          "internalType": "address",
          "name": "msgSender",
          "type": "address"
        },
        {
          "indexed": false,
          "internalType": "uint256",
          "name": "fromTokenId",
          "type": "uint256"
        },
        {
          "indexed": false,
          "internalType": "uint256",
          "name": "toTokenId",
          "type": "uint256"
        }
      ],
      "name": "Mint",
      "type": "event"
    },
    {
      "anonymous": false,
      "inputs": [
        {
          "indexed": true,
          "internalType": "address",
          "name": "previousOwner",
          "type": "address"
        },
        {
          "indexed": true,
          "internalType": "address",
          "name": "newOwner",
          "type": "address"
        }
      ],
      "name": "OwnershipTransferred",
      "type": "event"
    },
    {
      "anonymous": false,
      "inputs": [
        {
          "indexed": true,
          "internalType": "address",
          "name": "from",
          "type": "address"
        },
        {
          "indexed": true,
          "internalType": "address",
          "name": "to",
          "type": "address"
        },
        {
          "indexed": true,
          "internalType": "uint256",
          "name": "tokenId",
          "type": "uint256"
        }
      ],
      "name": "Transfer",
      "type": "event"
    },
    {
      "inputs": [],
      "name": "EMPTY_ROOT",
      "outputs": [
        {
          "internalType": "bytes32",
          "name": "",
          "type": "bytes32"
        }
      ],
      "stateMutability": "view",
      "type": "function"
    },
    {
      "inputs": [
        {
          "internalType": "address",
          "name": "to",
          "type": "address"
        },
        {
          "internalType": "uint256",
          "name": "tokenId",
          "type": "uint256"
        }
      ],
      "name": "approve",
      "outputs": [],
      "stateMutability": "nonpayable",
      "type": "function"
    },
    {
      "inputs": [
        {
          "internalType": "address",
          "name": "owner",
          "type": "address"
        }
      ],
      "name": "balanceOf",
      "outputs": [
        {
          "internalType": "uint256",
          "name": "",
          "type": "uint256"
        }
      ],
      "stateMutability": "view",
      "type": "function"
    },
    {
      "inputs": [],
      "name": "baseURI",
      "outputs": [
        {
          "internalType": "string",
          "name": "",
          "type": "string"
        }
      ],
      "stateMutability": "view",
      "type": "function"
    },
    {
      "inputs": [],
      "name": "contractURI",
      "outputs": [
        {
          "internalType": "string",
          "name": "",
          "type": "string"
        }
      ],
      "stateMutability": "view",
      "type": "function"
    },
    {
      "inputs": [],
      "name": "feeDestination",
      "outputs": [
        {
          "internalType": "address",
          "name": "",
          "type": "address"
        }
      ],
      "stateMutability": "view",
      "type": "function"
    },
    {
      "inputs": [
        {
          "internalType": "uint256",
          "name": "tokenId",
          "type": "uint256"
        }
      ],
      "name": "getApproved",
      "outputs": [
        {
          "internalType": "address",
          "name": "",
          "type": "address"
        }
      ],
      "stateMutability": "view",
      "type": "function"
    },
    {
      "inputs": [
        {
          "components": [
            {
              "internalType": "string",
              "name": "saleIdentifier",
              "type": "string"
            },
            {
              "internalType": "bool",
              "name": "enabled",
              "type": "bool"
            },
            {
              "internalType": "uint256",
              "name": "startTime",
              "type": "uint256"
            },
            {
              "internalType": "uint256",
              "name": "endTime",
              "type": "uint256"
            },
            {
              "internalType": "uint256",
              "name": "mintCharge",
              "type": "uint256"
            },
            {
              "internalType": "bytes32",
              "name": "whitelistRoot",
              "type": "bytes32"
            },
            {
              "internalType": "uint256",
              "name": "maxMintPerWallet",
              "type": "uint256"
            },
            {
              "internalType": "uint256",
              "name": "maxMintInSale",
              "type": "uint256"
            }
          ],
          "internalType": "struct Collection721.SaleConfig",
          "name": "config",
          "type": "tuple"
        }
      ],
      "name": "getSaleConfigLeaf",
      "outputs": [
        {
          "internalType": "bytes32",
          "name": "",
          "type": "bytes32"
        }
      ],
      "stateMutability": "pure",
      "type": "function"
    },
    {
      "inputs": [
        {
          "internalType": "address",
          "name": "owner",
          "type": "address"
        },
        {
          "internalType": "address",
          "name": "operator",
          "type": "address"
        }
      ],
      "name": "isApprovedForAll",
      "outputs": [
        {
          "internalType": "bool",
          "name": "",
          "type": "bool"
        }
      ],
      "stateMutability": "view",
      "type": "function"
    },
    {
      "inputs": [
        {
          "internalType": "bytes",
          "name": "",
          "type": "bytes"
        }
      ],
      "name": "isSignatureRedeemed",
      "outputs": [
        {
          "internalType": "bool",
          "name": "",
          "type": "bool"
        }
      ],
      "stateMutability": "view",
      "type": "function"
    },
    {
      "inputs": [],
      "name": "maxMintCap",
      "outputs": [
        {
          "internalType": "uint256",
          "name": "",
          "type": "uint256"
        }
      ],
      "stateMutability": "view",
      "type": "function"
    },
    {
      "inputs": [],
      "name": "maxMintInTotalPerWallet",
      "outputs": [
        {
          "internalType": "uint256",
          "name": "",
          "type": "uint256"
        }
      ],
      "stateMutability": "view",
      "type": "function"
    },
    {
      "inputs": [
        {
          "internalType": "bytes32[]",
          "name": "saleConfigProof",
          "type": "bytes32[]"
        },
        {
          "internalType": "bytes32[]",
          "name": "whitelistProof",
          "type": "bytes32[]"
        },
        {
          "internalType": "uint256",
          "name": "numberOfMint",
          "type": "uint256"
        },
        {
          "internalType": "string",
          "name": "message",
          "type": "string"
        },
        {
          "internalType": "bytes",
          "name": "signature",
          "type": "bytes"
        },
        {
          "components": [
            {
              "internalType": "string",
              "name": "saleIdentifier",
              "type": "string"
            },
            {
              "internalType": "bool",
              "name": "enabled",
              "type": "bool"
            },
            {
              "internalType": "uint256",
              "name": "startTime",
              "type": "uint256"
            },
            {
              "internalType": "uint256",
              "name": "endTime",
              "type": "uint256"
            },
            {
              "internalType": "uint256",
              "name": "mintCharge",
              "type": "uint256"
            },
            {
              "internalType": "bytes32",
              "name": "whitelistRoot",
              "type": "bytes32"
            },
            {
              "internalType": "uint256",
              "name": "maxMintPerWallet",
              "type": "uint256"
            },
            {
              "internalType": "uint256",
              "name": "maxMintInSale",
              "type": "uint256"
            }
          ],
          "internalType": "struct Collection721.SaleConfig",
          "name": "config",
          "type": "tuple"
        }
      ],
      "name": "mint",
      "outputs": [],
      "stateMutability": "payable",
      "type": "function"
    },
    {
      "inputs": [
        {
          "internalType": "string",
          "name": "",
          "type": "string"
        }
      ],
      "name": "mintCountByIdentifier",
      "outputs": [
        {
          "internalType": "uint256",
          "name": "",
          "type": "uint256"
        }
      ],
      "stateMutability": "view",
      "type": "function"
    },
    {
      "inputs": [
        {
          "internalType": "string",
          "name": "",
          "type": "string"
        },
        {
          "internalType": "address",
          "name": "",
          "type": "address"
        }
      ],
      "name": "mintCountByIdentifierWallet",
      "outputs": [
        {
          "internalType": "uint256",
          "name": "",
          "type": "uint256"
        }
      ],
      "stateMutability": "view",
      "type": "function"
    },
    {
      "inputs": [],
      "name": "msgSigner",
      "outputs": [
        {
          "internalType": "address",
          "name": "",
          "type": "address"
        }
      ],
      "stateMutability": "view",
      "type": "function"
    },
    {
      "inputs": [],
      "name": "name",
      "outputs": [
        {
          "internalType": "string",
          "name": "",
          "type": "string"
        }
      ],
      "stateMutability": "view",
      "type": "function"
    },
    {
      "inputs": [],
      "name": "owner",
      "outputs": [
        {
          "internalType": "address",
          "name": "",
          "type": "address"
        }
      ],
      "stateMutability": "view",
      "type": "function"
    },
    {
      "inputs": [
        {
          "internalType": "uint256",
          "name": "tokenId",
          "type": "uint256"
        }
      ],
      "name": "ownerOf",
      "outputs": [
        {
          "internalType": "address",
          "name": "",
          "type": "address"
        }
      ],
      "stateMutability": "view",
      "type": "function"
    },
    {
      "inputs": [],
      "name": "platformOwner",
      "outputs": [
        {
          "internalType": "address",
          "name": "",
          "type": "address"
        }
      ],
      "stateMutability": "view",
      "type": "function"
    },
    {
      "inputs": [],
      "name": "priceFeedAddress",
      "outputs": [
        {
          "internalType": "address",
          "name": "",
          "type": "address"
        }
      ],
      "stateMutability": "view",
      "type": "function"
    },
    {
      "inputs": [],
      "name": "renounceOwnership",
      "outputs": [],
      "stateMutability": "nonpayable",
      "type": "function"
    },
    {
      "inputs": [],
      "name": "revealTime",
      "outputs": [
        {
          "internalType": "uint256",
          "name": "",
          "type": "uint256"
        }
      ],
      "stateMutability": "view",
      "type": "function"
    },
    {
      "inputs": [],
      "name": "royaltyBasis",
      "outputs": [
        {
          "internalType": "uint96",
          "name": "",
          "type": "uint96"
        }
      ],
      "stateMutability": "view",
      "type": "function"
    },
    {
      "inputs": [
        {
          "internalType": "uint256",
          "name": "_tokenId",
          "type": "uint256"
        },
        {
          "internalType": "uint256",
          "name": "_salePrice",
          "type": "uint256"
        }
      ],
      "name": "royaltyInfo",
      "outputs": [
        {
          "internalType": "address",
          "name": "",
          "type": "address"
        },
        {
          "internalType": "uint256",
          "name": "",
          "type": "uint256"
        }
      ],
      "stateMutability": "view",
      "type": "function"
    },
    {
      "inputs": [
        {
          "internalType": "address",
          "name": "from",
          "type": "address"
        },
        {
          "internalType": "address",
          "name": "to",
          "type": "address"
        },
        {
          "internalType": "uint256",
          "name": "tokenId",
          "type": "uint256"
        }
      ],
      "name": "safeTransferFrom",
      "outputs": [],
      "stateMutability": "nonpayable",
      "type": "function"
    },
    {
      "inputs": [
        {
          "internalType": "address",
          "name": "from",
          "type": "address"
        },
        {
          "internalType": "address",
          "name": "to",
          "type": "address"
        },
        {
          "internalType": "uint256",
          "name": "tokenId",
          "type": "uint256"
        },
        {
          "internalType": "bytes",
          "name": "data",
          "type": "bytes"
        }
      ],
      "name": "safeTransferFrom",
      "outputs": [],
      "stateMutability": "nonpayable",
      "type": "function"
    },
    {
      "inputs": [],
      "name": "saleConfigsRoot",
      "outputs": [
        {
          "internalType": "bytes32",
          "name": "",
          "type": "bytes32"
        }
      ],
      "stateMutability": "view",
      "type": "function"
    },
    {
      "inputs": [
        {
          "internalType": "address",
          "name": "operator",
          "type": "address"
        },
        {
          "internalType": "bool",
          "name": "approved",
          "type": "bool"
        }
      ],
      "name": "setApprovalForAll",
      "outputs": [],
      "stateMutability": "nonpayable",
      "type": "function"
    },
    {
      "inputs": [
        {
          "internalType": "bytes4",
          "name": "interfaceId",
          "type": "bytes4"
        }
      ],
      "name": "supportsInterface",
      "outputs": [
        {
          "internalType": "bool",
          "name": "",
          "type": "bool"
        }
      ],
      "stateMutability": "view",
      "type": "function"
    },
    {
      "inputs": [],
      "name": "symbol",
      "outputs": [
        {
          "internalType": "string",
          "name": "",
          "type": "string"
        }
      ],
      "stateMutability": "view",
      "type": "function"
    },
    {
      "inputs": [],
      "name": "tokenId",
      "outputs": [
        {
          "internalType": "uint256",
          "name": "",
          "type": "uint256"
        }
      ],
      "stateMutability": "view",
      "type": "function"
    },
    {
      "inputs": [
        {
          "internalType": "uint256",
          "name": "_tokenId",
          "type": "uint256"
        }
      ],
      "name": "tokenURI",
      "outputs": [
        {
          "internalType": "string",
          "name": "",
          "type": "string"
        }
      ],
      "stateMutability": "view",
      "type": "function"
    },
    {
      "inputs": [
        {
          "internalType": "address",
          "name": "from",
          "type": "address"
        },
        {
          "internalType": "address",
          "name": "to",
          "type": "address"
        },
        {
          "internalType": "uint256",
          "name": "tokenId",
          "type": "uint256"
        }
      ],
      "name": "transferFrom",
      "outputs": [],
      "stateMutability": "nonpayable",
      "type": "function"
    },
    {
      "inputs": [
        {
          "internalType": "address",
          "name": "newOwner",
          "type": "address"
        }
      ],
      "name": "transferOwnership",
      "outputs": [],
      "stateMutability": "nonpayable",
      "type": "function"
    },
    {
      "inputs": [
        {
          "internalType": "string",
          "name": "_baseURI",
          "type": "string"
        }
      ],
      "name": "updateBaseURI",
      "outputs": [],
      "stateMutability": "nonpayable",
      "type": "function"
    },
    {
      "inputs": [
        {
          "internalType": "address",
          "name": "_feeDestination",
          "type": "address"
        }
      ],
      "name": "updateFeeToAddress",
      "outputs": [],
      "stateMutability": "nonpayable",
      "type": "function"
    },
    {
      "inputs": [
        {
          "internalType": "uint256",
          "name": "_val",
          "type": "uint256"
        }
      ],
      "name": "updateMaxMintInTotalPerWallet",
      "outputs": [],
      "stateMutability": "nonpayable",
      "type": "function"
    },
    {
      "inputs": [
        {
          "internalType": "address",
          "name": "_address",
          "type": "address"
        }
      ],
      "name": "updatePlatformOwner",
      "outputs": [],
      "stateMutability": "nonpayable",
      "type": "function"
    },
    {
      "inputs": [
        {
          "internalType": "uint256",
          "name": "_revealTime",
          "type": "uint256"
        }
      ],
      "name": "updateRevealTime",
      "outputs": [],
      "stateMutability": "nonpayable",
      "type": "function"
    },
    {
      "inputs": [
        {
          "internalType": "uint96",
          "name": "_val",
          "type": "uint96"
        }
      ],
      "name": "updateRoyaltyBasis",
      "outputs": [],
      "stateMutability": "nonpayable",
      "type": "function"
    },
    {
      "inputs": [
        {
          "internalType": "bytes32",
          "name": "_saleConfigRoot",
          "type": "bytes32"
        }
      ],
      "name": "updateSaleConfigRoot",
      "outputs": [],
      "stateMutability": "nonpayable",
      "type": "function"
    },
    {
      "stateMutability": "payable",
      "type": "receive"
    }
  ],
  "bytecode": "0x60806040526001600a5560405162003c4b38038062003c4b8339810160408190526200002b9162000584565b805160208201516200003d33620002fc565b60016200004b83826200076b565b5060026200005a82826200076b565b50506001600955506101608101516001600160a01b0316156200018b5760008161016001516001600160a01b031663feaf968c6040518163ffffffff1660e01b815260040160a060405180830381865afa158015620000bd573d6000803e3d6000fd5b505050506040513d601f19601f82011682018060405250810190620000e391906200084f565b5050509150506305f5e100816064620000fd9190620008ba565b6200010991906200094b565b610140830151620001239067d02ab486cedc0000620008ba565b6200012f91906200094b565b341215620001845760405162461bcd60e51b815260206004820152601a60248201527f4e6f7420656e6f756768206368617267652070726f766964656400000000000060448201526064015b60405180910390fd5b50620001f4565b610140810151620001a390655af3107a40006200098b565b341015620001f45760405162461bcd60e51b815260206004820152601a60248201527f4e6f7420656e6f756768206368617267652070726f766964656400000000000060448201526064016200017b565b6040810151600b80546001600160a01b039283166001600160a01b0319918216179091556080830151600c5560a08301516011805491909316911617905560c08101516012906200024690826200076b565b50606081015160105560e08101516013556101008101516200026a9030906200034c565b6101008101516101208201516001600160a01b039081166c0100000000000000000000000081026001600160601b039093169290921760145561014083015160155561016083015160168054919092166001600160a01b03199091161790556040513480156108fc02916000818181858888f19350505050158015620002f4573d6000803e3d6000fd5b5050620009ad565b600080546001600160a01b038381166001600160a01b0319831681178455604051919092169283917f8be0079c531659141344cd1fd0a4f28419497f9722a3daafe3b4186f6b6457e09190a35050565b6127106001600160601b0382161115620003bc5760405162461bcd60e51b815260206004820152602a60248201527f455243323938313a20726f79616c7479206665652077696c6c206578636565646044820152692073616c65507269636560b01b60648201526084016200017b565b6001600160a01b038216620004145760405162461bcd60e51b815260206004820152601960248201527f455243323938313a20696e76616c69642072656365697665720000000000000060448201526064016200017b565b604080518082019091526001600160a01b039092168083526001600160601b039091166020909201829052600160a01b90910217600755565b634e487b7160e01b600052604160045260246000fd5b60405161018081016001600160401b03811182821017156200048957620004896200044d565b60405290565b604051601f8201601f191681016001600160401b0381118282101715620004ba57620004ba6200044d565b604052919050565b600082601f830112620004d457600080fd5b81516001600160401b03811115620004f057620004f06200044d565b602062000506601f8301601f191682016200048f565b82815285828487010111156200051b57600080fd5b60005b838110156200053b5785810183015182820184015282016200051e565b506000928101909101919091529392505050565b80516001600160a01b03811681146200056757600080fd5b919050565b80516001600160601b03811681146200056757600080fd5b6000602082840312156200059757600080fd5b81516001600160401b0380821115620005af57600080fd5b908301906101808286031215620005c557600080fd5b620005cf62000463565b825182811115620005df57600080fd5b620005ed87828601620004c2565b8252506020830151828111156200060357600080fd5b6200061187828601620004c2565b60208301525062000625604084016200054f565b604082015260608301516060820152608083015160808201526200064c60a084016200054f565b60a082015260c0830151828111156200066457600080fd5b6200067287828601620004c2565b60c08301525060e083015160e08201526101009150620006948284016200056c565b828201526101209150620006aa8284016200054f565b82820152610140915081830151828201526101609150620006cd8284016200054f565b91810191909152949350505050565b600181811c90821680620006f157607f821691505b6020821081036200071257634e487b7160e01b600052602260045260246000fd5b50919050565b601f8211156200076657600081815260208120601f850160051c81016020861015620007415750805b601f850160051c820191505b8181101562000762578281556001016200074d565b5050505b505050565b81516001600160401b038111156200078757620007876200044d565b6200079f81620007988454620006dc565b8462000718565b602080601f831160018114620007d75760008415620007be5750858301515b600019600386901b1c1916600185901b17855562000762565b600085815260208120601f198616915b828110156200080857888601518255948401946001909101908401620007e7565b5085821015620008275787850151600019600388901b60f8161c191681555b5050505050600190811b01905550565b80516001600160501b03811681146200056757600080fd5b600080600080600060a086880312156200086857600080fd5b620008738662000837565b9450602086015193506040860151925060608601519150620008986080870162000837565b90509295509295909350565b634e487b7160e01b600052601160045260246000fd5b60006001600160ff1b0381841382841380821686840486111615620008e357620008e3620008a4565b600160ff1b6000871282811687830589121615620009055762000905620008a4565b60008712925087820587128484161615620009245762000924620008a4565b878505871281841616156200093d576200093d620008a4565b505050929093029392505050565b6000826200096957634e487b7160e01b600052601260045260246000fd5b600160ff1b821460001984141615620009865762000986620008a4565b500590565b6000816000190483118215151615620009a857620009a8620008a4565b500290565b61328e80620009bd6000396000f3fe6080604052600436106102155760003560e01c80638369981611610119578063c6ec6909116100a6578063c6ec690914610739578063c87b56dd14610771578063ca73e5e914610791578063d9c79c1c146107b1578063dc9f75f7146107c4578063de53fcd5146107e4578063e0abca0b14610804578063e8a3d48514610824578063e985e9c514610839578063eaf3a58914610859578063f2fde38b1461086f57600080fd5b806383699816146106025780638847d3d5146106225780638da5cb5b14610642578063931688cb1461066057806395d89b41146106805780639a953ea214610695578063a22cb465146106ab578063b88d4fde146106cb578063ba4cc749146106eb578063ba829d711461072357600080fd5b80632a55205a116101a25780632a55205a146104a75780632e411f22146104e657806342842e0e146104fb5780634df8ccb11461051b57806361b5a2a2146105425780636352211e146105625780636c0360eb1461058257806370a0823114610597578063715018a6146105b75780637feb839d146105cc5780638028b285146105e257600080fd5b8063018779c7146102f157806301ffc9a71461034157806306fdde0314610361578063081812fc14610383578063095ea7b3146103bb5780630b8c1785146103db57806317d70f7c146104315780631b34f10714610447578063210112f51461046757806323b872dd1461048757600080fd5b366102ec57600060646102293460026126fd565b6102339190612732565b601454909150600160601b90046001600160a01b03161561029057601454604051600160601b9091046001600160a01b0316906108fc8315029083906000818181858888f1935050505015801561028e573d6000803e3d6000fd5b505b600b546014546001600160a01b03918216916108fc91600160601b9004166102b857346102c2565b6102c28334612746565b6040518115909202916000818181858888f193505050501580156102ea573d6000803e3d6000fd5b005b600080fd5b3480156102fd57600080fd5b5061032c61030c366004612837565b8051602081830181018051600d8252928201919093012091525460ff1681565b60405190151581526020015b60405180910390f35b34801561034d57600080fd5b5061032c61035c366004612881565b61088f565b34801561036d57600080fd5b506103766108ba565b60405161033891906128ee565b34801561038f57600080fd5b506103a361039e366004612901565b61094c565b6040516001600160a01b039091168152602001610338565b3480156103c757600080fd5b506102ea6103d6366004612936565b610973565b3480156103e757600080fd5b506104236103f6366004612960565b8151602081840181018051600f825292820194820194909420919093529091526000908152604090205481565b604051908152602001610338565b34801561043d57600080fd5b50610423600a5481565b34801561045357600080fd5b506102ea6104623660046129ad565b610a8d565b34801561047357600080fd5b506102ea6104823660046129ad565b610b0c565b34801561049357600080fd5b506102ea6104a23660046129c8565b610b36565b3480156104b357600080fd5b506104c76104c2366004612a04565b610b67565b604080516001600160a01b039093168352602083019190915201610338565b3480156104f257600080fd5b50610423600081565b34801561050757600080fd5b506102ea6105163660046129c8565b610c15565b34801561052757600080fd5b506014546103a390600160601b90046001600160a01b031681565b34801561054e57600080fd5b506102ea61055d366004612901565b610c30565b34801561056e57600080fd5b506103a361057d366004612901565b610c3d565b34801561058e57600080fd5b50610376610c72565b3480156105a357600080fd5b506104236105b23660046129ad565b610d00565b3480156105c357600080fd5b506102ea610d86565b3480156105d857600080fd5b5061042360155481565b3480156105ee57600080fd5b506011546103a3906001600160a01b031681565b34801561060e57600080fd5b506102ea61061d366004612901565b610d9a565b34801561062e57600080fd5b506102ea61063d366004612a26565b610da7565b34801561064e57600080fd5b506000546001600160a01b03166103a3565b34801561066c57600080fd5b506102ea61067b366004612837565b610ddb565b34801561068c57600080fd5b50610376610df3565b3480156106a157600080fd5b5061042360105481565b3480156106b757600080fd5b506102ea6106c6366004612a5f565b610e02565b3480156106d757600080fd5b506102ea6106e6366004612a89565b610e0d565b3480156106f757600080fd5b50610423610706366004612837565b8051602081830181018051600e8252928201919093012091525481565b34801561072f57600080fd5b5061042360135481565b34801561074557600080fd5b50601454610759906001600160601b031681565b6040516001600160601b039091168152602001610338565b34801561077d57600080fd5b5061037661078c366004612901565b610e45565b34801561079d57600080fd5b506104236107ac366004612b85565b610edf565b6102ea6107bf366004612c38565b610f54565b3480156107d057600080fd5b506102ea6107df366004612901565b61178a565b3480156107f057600080fd5b50600b546103a3906001600160a01b031681565b34801561081057600080fd5b506016546103a3906001600160a01b031681565b34801561083057600080fd5b50610376611797565b34801561084557600080fd5b5061032c610854366004612d11565b6117eb565b34801561086557600080fd5b50610423600c5481565b34801561087b57600080fd5b506102ea61088a3660046129ad565b611819565b60006001600160e01b0319821663152a902d60e11b14806108b457506108b482611892565b92915050565b6060600180546108c990612d3b565b80601f01602080910402602001604051908101604052809291908181526020018280546108f590612d3b565b80156109425780601f1061091757610100808354040283529160200191610942565b820191906000526020600020905b81548152906001019060200180831161092557829003601f168201915b5050505050905090565b6000610957826118b7565b506000908152600560205260409020546001600160a01b031690565b600061097e82610c3d565b9050806001600160a01b0316836001600160a01b0316036109f05760405162461bcd60e51b815260206004820152602160248201527f4552433732313a20617070726f76616c20746f2063757272656e74206f776e656044820152603960f91b60648201526084015b60405180910390fd5b336001600160a01b0382161480610a0c5750610a0c81336117eb565b610a7e5760405162461bcd60e51b815260206004820152603e60248201527f4552433732313a20617070726f76652063616c6c6572206973206e6f7420746f60448201527f6b656e206f776e6572206e6f7220617070726f76656420666f7220616c6c000060648201526084016109e7565b610a8883836118dc565b505050565b601454600160601b90046001600160a01b03163314610ae45760405162461bcd60e51b815260206004820152601360248201527227b7363c90283630ba3337b9369027bbb732b960691b60448201526064016109e7565b601480546001600160a01b03909216600160601b026001600160601b03909216919091179055565b610b1461194a565b600b80546001600160a01b0319166001600160a01b0392909216919091179055565b610b4033826119a4565b610b5c5760405162461bcd60e51b81526004016109e790612d75565b610a88838383611a03565b60008281526008602090815260408083208151808301909252546001600160a01b038116808352600160a01b9091046001600160601b0316928201929092528291610bdc5750604080518082019091526007546001600160a01b0381168252600160a01b90046001600160601b031660208201525b602081015160009061271090610bfb906001600160601b0316876126fd565b610c059190612732565b91519350909150505b9250929050565b610a8883838360405180602001604052806000815250610e0d565b610c3861194a565b601055565b6000818152600360205260408120546001600160a01b0316806108b45760405162461bcd60e51b81526004016109e790612dc3565b60128054610c7f90612d3b565b80601f0160208091040260200160405190810160405280929190818152602001828054610cab90612d3b565b8015610cf85780601f10610ccd57610100808354040283529160200191610cf8565b820191906000526020600020905b815481529060010190602001808311610cdb57829003601f168201915b505050505081565b60006001600160a01b038216610d6a5760405162461bcd60e51b815260206004820152602960248201527f4552433732313a2061646472657373207a65726f206973206e6f7420612076616044820152683634b21037bbb732b960b91b60648201526084016109e7565b506001600160a01b031660009081526004602052604090205490565b610d8e61194a565b610d986000611b9f565b565b610da261194a565b600c55565b610daf61194a565b610db93082611bef565b601480546001600160601b0319166001600160601b0392909216919091179055565b610de361194a565b6012610def8282612e43565b5050565b6060600280546108c990612d3b565b610def338383611ce8565b610e1733836119a4565b610e335760405162461bcd60e51b81526004016109e790612d75565b610e3f84848484611db2565b50505050565b60606012601354600014158015610e5e57506013544211155b610e775760405180602001604052806000815250610e98565b6040518060400160405280600781526020016668696464656e2d60c81b8152505b610ea3306014611de5565b610eac46611f87565b610eb586611f87565b604051602001610ec9959493929190612f75565b6040516020818303038152906040529050919050565b80516020808301516040808501516060860151608087015160a088015160c089015160e08a01519551600099610f19999098979101613022565b60408051601f19818403018152828252805160209182012090830152015b604051602081830303815290604052805190602001209050919050565b600260095403610fa65760405162461bcd60e51b815260206004820152601f60248201527f5265656e7472616e637947756172643a207265656e7472616e742063616c6c0060448201526064016109e7565b600260098190555085858583601554600183600a54610fc59190613071565b610fcf9190612746565b111561101a5760405162461bcd60e51b815260206004820152601a60248201527904d696e7420436f756e742065786365656473204d6178204361760341b60448201526064016109e7565b600c5461105e5760405162461bcd60e51b8152602060048201526012602482015271139bc81cd85b194818dbdb999a59dd5c995960721b60448201526064016109e7565b61107384600c5461106e84610edf565b612087565b6110b55760405162461bcd60e51b8152602060048201526013602482015272496e76616c69642053616c6520436f6e66696760681b60448201526064016109e7565b80602001516110fc5760405162461bcd60e51b815260206004820152601360248201527214d85b19481a5cc81b9bdd08195b98589b1959606a1b60448201526064016109e7565b6040810151429015801590611115575081604001518110155b61115c5760405162461bcd60e51b815260206004820152601860248201527714d85b19481a185cc81b9bdd081cdd185c9d1959081e595d60421b60448201526064016109e7565b81606001518111158061117157506060820151155b6111ae5760405162461bcd60e51b815260206004820152600e60248201526d14d85b19481a185cc8195b99195960921b60448201526064016109e7565b8282608001516111be91906126fd565b34101561120d5760405162461bcd60e51b815260206004820152601f60248201527f4e6f7420656e6f756768206d696e74206368617267652070726f76696465640060448201526064016109e7565b8160e0015183600e84600001516040516112279190613084565b9081526020016040518091039020546112409190613071565b11156112875760405162461bcd60e51b81526020600482015260166024820152754d61782053616c65204c696d6974204578636565647360501b60448201526064016109e7565b8160c0015183600f84600001516040516112a19190613084565b908152604080516020928190038301902033600090815292529020546112c79190613071565b11156113155760405162461bcd60e51b815260206004820181905260248201527f4d61784d696e7450657257616c6c657453616c654c696d69744578636565647360448201526064016109e7565b60105415611382576010548361132a33610d00565b6113349190613071565b11156113825760405162461bcd60e51b815260206004820152601e60248201527f4d6178546f74616c4d696e7457616c6c65744c696d697445786365656473000060448201526064016109e7565b60a08201511561140e5760a08201516040516001600160601b03193360601b1660208201526113cb91869160340160405160208183030381529060405280519060200120612087565b61140e5760405162461bcd60e51b8152602060048201526014602482015273155cd95c881b9bdd081dda1a5d195b1a5cdd195960621b60448201526064016109e7565b8787600d816040516114209190613084565b9081526040519081900360200190205460ff161561147d5760405162461bcd60e51b815260206004820152601a60248201527914da59db985d1d5c9948185b1c9958591e481c995919595b595960321b60448201526064016109e7565b6011546040516001600160a01b03909116906114c89083906114c2906114a7908790602001613084565b6040516020818303038152906040528051906020012061209d565b906120d8565b6001600160a01b0316146115125760405162461bcd60e51b8152602060048201526011602482015270496e76616c6964205369676e617475726560781b60448201526064016109e7565b60008b116115595760405162461bcd60e51b815260206004820152601460248201527304e756d626572206f66206d696e747320697320360641b60448201526064016109e7565b8a600f896000015160405161156e9190613084565b9081526040805160209281900383019020336000908152925281208054909190611599908490613071565b909155505087516040518c91600e916115b29190613084565b908152602001604051809103902060008282546115cf9190613071565b925050819055506001600d8a6040516115e89190613084565b908152604051908190036020019020805491151560ff19909216919091179055600a546116158c82613071565b600a5560006127106116293461012c6126fd565b6116339190612732565b601454909150600160601b90046001600160a01b03161561169057601454604051600160601b9091046001600160a01b0316906108fc8315029083906000818181858888f1935050505015801561168e573d6000803e3d6000fd5b505b600b546014546001600160a01b03918216916108fc91600160601b9004166116b857346116c2565b6116c28334612746565b6040518115909202916000818181858888f193505050501580156116ea573d6000803e3d6000fd5b5060005b8d81101561171957611709336117048386613071565b6120fc565b611712816130a0565b90506116ee565b507f4c209b5fc8ad50758f13e2e1088ba56a560dff690a1c6fef26394f4c03821c4f33836001600a5461174c9190612746565b604080516001600160a01b03909416845260208401929092529082015260600160405180910390a15050600160095550505050505050505050505050565b61179261194a565b601355565b606060126117a6306014611de5565b6117af46611f87565b6014546117c4906001600160601b0316611f87565b6040516020016117d794939291906130b9565b604051602081830303815290604052905090565b6001600160a01b03918216600090815260066020908152604080832093909416825291909152205460ff1690565b61182161194a565b6001600160a01b0381166118865760405162461bcd60e51b815260206004820152602660248201527f4f776e61626c653a206e6577206f776e657220697320746865207a65726f206160448201526564647265737360d01b60648201526084016109e7565b61188f81611b9f565b50565b60006001600160e01b0319821663152a902d60e11b14806108b457506108b48261222f565b6118c08161227f565b61188f5760405162461bcd60e51b81526004016109e790612dc3565b600081815260056020526040902080546001600160a01b0319166001600160a01b038416908117909155819061191182610c3d565b6001600160a01b03167f8c5be1e5ebec7d5bd14f71427d1e84f3dd0314c0f7b2291e5b200ac8c7c3b92560405160405180910390a45050565b6000546001600160a01b03163314610d985760405162461bcd60e51b815260206004820181905260248201527f4f776e61626c653a2063616c6c6572206973206e6f7420746865206f776e657260448201526064016109e7565b6000806119b083610c3d565b9050806001600160a01b0316846001600160a01b031614806119d757506119d781856117eb565b806119fb5750836001600160a01b03166119f08461094c565b6001600160a01b0316145b949350505050565b826001600160a01b0316611a1682610c3d565b6001600160a01b031614611a7a5760405162461bcd60e51b815260206004820152602560248201527f4552433732313a207472616e736665722066726f6d20696e636f72726563742060448201526437bbb732b960d91b60648201526084016109e7565b6001600160a01b038216611adc5760405162461bcd60e51b8152602060048201526024808201527f4552433732313a207472616e7366657220746f20746865207a65726f206164646044820152637265737360e01b60648201526084016109e7565b611ae76000826118dc565b6001600160a01b0383166000908152600460205260408120805460019290611b10908490612746565b90915550506001600160a01b0382166000908152600460205260408120805460019290611b3e908490613071565b909155505060008181526003602052604080822080546001600160a01b0319166001600160a01b0386811691821790925591518493918716917fddf252ad1be2c89b69c2b068fc378daa952ba7f163c4a11628f55a4df523b3ef91a4505050565b600080546001600160a01b038381166001600160a01b0319831681178455604051919092169283917f8be0079c531659141344cd1fd0a4f28419497f9722a3daafe3b4186f6b6457e09190a35050565b6127106001600160601b0382161115611c5d5760405162461bcd60e51b815260206004820152602a60248201527f455243323938313a20726f79616c7479206665652077696c6c206578636565646044820152692073616c65507269636560b01b60648201526084016109e7565b6001600160a01b038216611caf5760405162461bcd60e51b815260206004820152601960248201527822a921991c9c189d1034b73b30b634b2103932b1b2b4bb32b960391b60448201526064016109e7565b604080518082019091526001600160a01b039092168083526001600160601b039091166020909201829052600160a01b90910217600755565b816001600160a01b0316836001600160a01b031603611d455760405162461bcd60e51b815260206004820152601960248201527822a9219b99189d1030b8383937bb32903a379031b0b63632b960391b60448201526064016109e7565b6001600160a01b03838116600081815260066020908152604080832094871680845294825291829020805460ff191686151590811790915591519182527f17307eab39ab6107e8899845ad3d59bd9653f200f220920489ca2b5937696c31910160405180910390a3505050565b611dbd848484611a03565b611dc98484848461229c565b610e3f5760405162461bcd60e51b81526004016109e790613155565b60606000611df48360026126fd565b611dff906002613071565b6001600160401b03811115611e1657611e16612759565b6040519080825280601f01601f191660200182016040528015611e40576020820181803683370190505b509050600360fc1b81600081518110611e5b57611e5b6131a7565b60200101906001600160f81b031916908160001a905350600f60fb1b81600181518110611e8a57611e8a6131a7565b60200101906001600160f81b031916908160001a9053506000611eae8460026126fd565b611eb9906001613071565b90505b6001811115611f31576f181899199a1a9b1b9c1cb0b131b232b360811b85600f1660108110611eed57611eed6131a7565b1a60f81b828281518110611f0357611f036131a7565b60200101906001600160f81b031916908160001a90535060049490941c93611f2a816131bd565b9050611ebc565b508315611f805760405162461bcd60e51b815260206004820181905260248201527f537472696e67733a20686578206c656e67746820696e73756666696369656e7460448201526064016109e7565b9392505050565b606081600003611fae5750506040805180820190915260018152600360fc1b602082015290565b8160005b8115611fd85780611fc2816130a0565b9150611fd19050600a83612732565b9150611fb2565b6000816001600160401b03811115611ff257611ff2612759565b6040519080825280601f01601f19166020018201604052801561201c576020820181803683370190505b5090505b84156119fb57612031600183612746565b915061203e600a866131d4565b612049906030613071565b60f81b81838151811061205e5761205e6131a7565b60200101906001600160f81b031916908160001a905350612080600a86612732565b9450612020565b600082612094858461239d565b14949350505050565b6040517f19457468657265756d205369676e6564204d6573736167653a0a3332000000006020820152603c8101829052600090605c01610f37565b60008060006120e785856123e2565b915091506120f481612424565b509392505050565b6001600160a01b0382166121525760405162461bcd60e51b815260206004820181905260248201527f4552433732313a206d696e7420746f20746865207a65726f206164647265737360448201526064016109e7565b61215b8161227f565b156121a85760405162461bcd60e51b815260206004820152601c60248201527f4552433732313a20746f6b656e20616c7265616479206d696e7465640000000060448201526064016109e7565b6001600160a01b03821660009081526004602052604081208054600192906121d1908490613071565b909155505060008181526003602052604080822080546001600160a01b0319166001600160a01b03861690811790915590518392907fddf252ad1be2c89b69c2b068fc378daa952ba7f163c4a11628f55a4df523b3ef908290a45050565b60006001600160e01b031982166380ac58cd60e01b148061226057506001600160e01b03198216635b5e139f60e01b145b806108b457506301ffc9a760e01b6001600160e01b03198316146108b4565b6000908152600360205260409020546001600160a01b0316151590565b60006001600160a01b0384163b1561239257604051630a85bd0160e11b81526001600160a01b0385169063150b7a02906122e09033908990889088906004016131e8565b6020604051808303816000875af192505050801561231b575060408051601f3d908101601f1916820190925261231891810190613225565b60015b612378573d808015612349576040519150601f19603f3d011682016040523d82523d6000602084013e61234e565b606091505b5080516000036123705760405162461bcd60e51b81526004016109e790613155565b805181602001fd5b6001600160e01b031916630a85bd0160e11b1490506119fb565b506001949350505050565b600081815b84518110156120f4576123ce828683815181106123c1576123c16131a7565b60200260200101516125d5565b9150806123da816130a0565b9150506123a2565b60008082516041036124185760208301516040840151606085015160001a61240c87828585612604565b94509450505050610c0e565b50600090506002610c0e565b600081600481111561243857612438613242565b036124405750565b600181600481111561245457612454613242565b0361249c5760405162461bcd60e51b815260206004820152601860248201527745434453413a20696e76616c6964207369676e617475726560401b60448201526064016109e7565b60028160048111156124b0576124b0613242565b036124fd5760405162461bcd60e51b815260206004820152601f60248201527f45434453413a20696e76616c6964207369676e6174757265206c656e6774680060448201526064016109e7565b600381600481111561251157612511613242565b036125695760405162461bcd60e51b815260206004820152602260248201527f45434453413a20696e76616c6964207369676e6174757265202773272076616c604482015261756560f01b60648201526084016109e7565b600481600481111561257d5761257d613242565b0361188f5760405162461bcd60e51b815260206004820152602260248201527f45434453413a20696e76616c6964207369676e6174757265202776272076616c604482015261756560f01b60648201526084016109e7565b60008183106125f1576000828152602084905260409020611f80565b6000838152602083905260409020611f80565b6000806fa2a8918ca85bafe22016d0b997e4df60600160ff1b0383111561263157506000905060036126de565b8460ff16601b1415801561264957508460ff16601c14155b1561265a57506000905060046126de565b6040805160008082526020820180845289905260ff881692820192909252606081018690526080810185905260019060a0016020604051602081039080840390855afa1580156126ae573d6000803e3d6000fd5b5050604051601f1901519150506001600160a01b0381166126d7576000600192509250506126de565b9150600090505b94509492505050565b634e487b7160e01b600052601160045260246000fd5b6000816000190483118215151615612717576127176126e7565b500290565b634e487b7160e01b600052601260045260246000fd5b6000826127415761274161271c565b500490565b818103818111156108b4576108b46126e7565b634e487b7160e01b600052604160045260246000fd5b60405161010081016001600160401b038111828210171561279257612792612759565b60405290565b604051601f8201601f191681016001600160401b03811182821017156127c0576127c0612759565b604052919050565b600082601f8301126127d957600080fd5b81356001600160401b038111156127f2576127f2612759565b612805601f8201601f1916602001612798565b81815284602083860101111561281a57600080fd5b816020850160208301376000918101602001919091529392505050565b60006020828403121561284957600080fd5b81356001600160401b0381111561285f57600080fd5b6119fb848285016127c8565b6001600160e01b03198116811461188f57600080fd5b60006020828403121561289357600080fd5b8135611f808161286b565b60005b838110156128b95781810151838201526020016128a1565b50506000910152565b600081518084526128da81602086016020860161289e565b601f01601f19169290920160200192915050565b602081526000611f8060208301846128c2565b60006020828403121561291357600080fd5b5035919050565b80356001600160a01b038116811461293157600080fd5b919050565b6000806040838503121561294957600080fd5b6129528361291a565b946020939093013593505050565b6000806040838503121561297357600080fd5b82356001600160401b0381111561298957600080fd5b612995858286016127c8565b9250506129a46020840161291a565b90509250929050565b6000602082840312156129bf57600080fd5b611f808261291a565b6000806000606084860312156129dd57600080fd5b6129e68461291a565b92506129f46020850161291a565b9150604084013590509250925092565b60008060408385031215612a1757600080fd5b50508035926020909101359150565b600060208284031215612a3857600080fd5b81356001600160601b0381168114611f8057600080fd5b8035801515811461293157600080fd5b60008060408385031215612a7257600080fd5b612a7b8361291a565b91506129a460208401612a4f565b60008060008060808587031215612a9f57600080fd5b612aa88561291a565b9350612ab66020860161291a565b92506040850135915060608501356001600160401b03811115612ad857600080fd5b612ae4878288016127c8565b91505092959194509250565b60006101008284031215612b0357600080fd5b612b0b61276f565b905081356001600160401b03811115612b2357600080fd5b612b2f848285016127c8565b825250612b3e60208301612a4f565b602082015260408201356040820152606082013560608201526080820135608082015260a082013560a082015260c082013560c082015260e082013560e082015292915050565b600060208284031215612b9757600080fd5b81356001600160401b03811115612bad57600080fd5b6119fb84828501612af0565b600082601f830112612bca57600080fd5b813560206001600160401b03821115612be557612be5612759565b8160051b612bf4828201612798565b9283528481018201928281019087851115612c0e57600080fd5b83870192505b84831015612c2d57823582529183019190830190612c14565b979650505050505050565b60008060008060008060c08789031215612c5157600080fd5b86356001600160401b0380821115612c6857600080fd5b612c748a838b01612bb9565b97506020890135915080821115612c8a57600080fd5b612c968a838b01612bb9565b9650604089013595506060890135915080821115612cb357600080fd5b612cbf8a838b016127c8565b94506080890135915080821115612cd557600080fd5b612ce18a838b016127c8565b935060a0890135915080821115612cf757600080fd5b50612d0489828a01612af0565b9150509295509295509295565b60008060408385031215612d2457600080fd5b612d2d8361291a565b91506129a46020840161291a565b600181811c90821680612d4f57607f821691505b602082108103612d6f57634e487b7160e01b600052602260045260246000fd5b50919050565b6020808252602e908201527f4552433732313a2063616c6c6572206973206e6f7420746f6b656e206f776e6560408201526d1c881b9bdc88185c1c1c9bdd995960921b606082015260800190565b602080825260189082015277115490cdcc8c4e881a5b9d985b1a59081d1bdad95b88125160421b604082015260600190565b601f821115610a8857600081815260208120601f850160051c81016020861015612e1c5750805b601f850160051c820191505b81811015612e3b57828155600101612e28565b505050505050565b81516001600160401b03811115612e5c57612e5c612759565b612e7081612e6a8454612d3b565b84612df5565b602080601f831160018114612ea55760008415612e8d5750858301515b600019600386901b1c1916600185901b178555612e3b565b600085815260208120601f198616915b82811015612ed457888601518255948401946001909101908401612eb5565b5085821015612ef25787850151600019600388901b60f8161c191681555b5050505050600190811b01905550565b60008154612f0f81612d3b565b60018281168015612f275760018114612f3c57612f6b565b60ff1984168752821515830287019450612f6b565b8560005260208060002060005b85811015612f625781548a820152908401908201612f49565b50505082870194505b5050505092915050565b6000612f818288612f02565b8651612f91818360208b0161289e565b71746f6b656e2d7572693f616464726573733d60701b91019081528551612fbf816012840160208a0161289e565b68266e6574776f726b3d60b81b601292909101918201528451612fe981601b84016020890161289e565b6826746f6b656e49643d60b81b601b9290910191820152835161301381602484016020880161289e565b01602401979650505050505050565b60008951613034818460208e0161289e565b98151560f81b919098019081526001810196909652602186019490945260418501929092526061840152608183015260a182015260c10192915050565b808201808211156108b4576108b46126e7565b6000825161309681846020870161289e565b9190910192915050565b6000600182016130b2576130b26126e7565b5060010190565b60006130c58287612f02565b74636f6e74726163742d7572693f616464726573733d60581b815285516130f3816015840160208a0161289e565b68266e6574776f726b3d60b81b60159290910191820152845161311d81601e84016020890161289e565b6826726f79616c74793d60b81b601e9290910191820152835161314781602784016020880161289e565b016027019695505050505050565b60208082526032908201527f4552433732313a207472616e7366657220746f206e6f6e20455243373231526560408201527131b2b4bb32b91034b6b83632b6b2b73a32b960711b606082015260800190565b634e487b7160e01b600052603260045260246000fd5b6000816131cc576131cc6126e7565b506000190190565b6000826131e3576131e361271c565b500690565b6001600160a01b038581168252841660208201526040810183905260806060820181905260009061321b908301846128c2565b9695505050505050565b60006020828403121561323757600080fd5b8151611f808161286b565b634e487b7160e01b600052602160045260246000fdfea2646970667358221220a5f7c61a282994d5b83d90dc4623fb3dd4caa556011ed09f9db41584a091db6e64736f6c63430008100033",
  "linkReferences": {},
  "deployedLinkReferences": {}
}