{
  "_format": "hh-sol-artifact-1",
  "contractName": "Collection1155",
  "sourceName": "contracts/hydro/Collection1155.sol",
  "abi": [
    {
      "inputs": [
        {
          "components": [
            {
              "internalType": "string",
              "name": "_name",
              "type": "string"
            },
            {
              "internalType": "address",
              "name": "_feeDestination",
              "type": "address"
            },
            {
              "internalType": "uint256",
              "name": "_maxMintInTotalPerWallet",
              "type": "uint256"
            },
            {
              "internalType": "bytes32",
              "name": "_saleConfigRoot",
              "type": "bytes32"
            },
            {
              "internalType": "address",
              "name": "_msgSigner",
              "type": "address"
            },
            {
              "internalType": "string",
              "name": "_baseURI",
              "type": "string"
            },
            {
              "internalType": "uint256",
              "name": "_revealTime",
              "type": "uint256"
            },
            {
              "internalType": "uint96",
              "name": "_royaltyBasis",
              "type": "uint96"
            },
            {
              "internalType": "address",
              "name": "_platformOwner",
              "type": "address"
            },
            {
              "internalType": "uint256",
              "name": "_maxMintCap",
              "type": "uint256"
            },
            {
              "internalType": "address",
              "name": "_priceFeedAddress",
              "type": "address"
            }
          ],
          "internalType": "struct Collection1155.ConstructorArgs",
          "name": "args",
          "type": "tuple"
        }
      ],
      "stateMutability": "payable",
      "type": "constructor"
    },
    {
      "anonymous": false,
      "inputs": [
        {
          "indexed": true,
          "internalType": "address",
          "name": "account",
          "type": "address"
        },
        {
          "indexed": true,
          "internalType": "address",
          "name": "operator",
          "type": "address"
        },
        {
          "indexed": false,
          "internalType": "bool",
          "name": "approved",
          "type": "bool"
        }
      ],
      "name": "ApprovalForAll",
      "type": "event"
    },
    {
      "anonymous": false,
      "inputs": [
        {
          "indexed": false,
          "internalType": "address",
          "name": "msgSender",
          "type": "address"
        },
        {
          "indexed": false,
          "internalType": "uint256",
          "name": "numberOfMint",
          "type": "uint256"
        }
      ],
      "name": "Mint",
      "type": "event"
    },
    {
      "anonymous": false,
      "inputs": [
        {
          "indexed": true,
          "internalType": "address",
          "name": "previousOwner",
          "type": "address"
        },
        {
          "indexed": true,
          "internalType": "address",
          "name": "newOwner",
          "type": "address"
        }
      ],
      "name": "OwnershipTransferred",
      "type": "event"
    },
    {
      "anonymous": false,
      "inputs": [
        {
          "indexed": true,
          "internalType": "address",
          "name": "operator",
          "type": "address"
        },
        {
          "indexed": true,
          "internalType": "address",
          "name": "from",
          "type": "address"
        },
        {
          "indexed": true,
          "internalType": "address",
          "name": "to",
          "type": "address"
        },
        {
          "indexed": false,
          "internalType": "uint256[]",
          "name": "ids",
          "type": "uint256[]"
        },
        {
          "indexed": false,
          "internalType": "uint256[]",
          "name": "values",
          "type": "uint256[]"
        }
      ],
      "name": "TransferBatch",
      "type": "event"
    },
    {
      "anonymous": false,
      "inputs": [
        {
          "indexed": true,
          "internalType": "address",
          "name": "operator",
          "type": "address"
        },
        {
          "indexed": true,
          "internalType": "address",
          "name": "from",
          "type": "address"
        },
        {
          "indexed": true,
          "internalType": "address",
          "name": "to",
          "type": "address"
        },
        {
          "indexed": false,
          "internalType": "uint256",
          "name": "id",
          "type": "uint256"
        },
        {
          "indexed": false,
          "internalType": "uint256",
          "name": "value",
          "type": "uint256"
        }
      ],
      "name": "TransferSingle",
      "type": "event"
    },
    {
      "anonymous": false,
      "inputs": [
        {
          "indexed": false,
          "internalType": "string",
          "name": "value",
          "type": "string"
        },
        {
          "indexed": true,
          "internalType": "uint256",
          "name": "id",
          "type": "uint256"
        }
      ],
      "name": "URI",
      "type": "event"
    },
    {
      "inputs": [],
      "name": "EMPTY_ROOT",
      "outputs": [
        {
          "internalType": "bytes32",
          "name": "",
          "type": "bytes32"
        }
      ],
      "stateMutability": "view",
      "type": "function"
    },
    {
      "inputs": [
        {
          "internalType": "address",
          "name": "account",
          "type": "address"
        },
        {
          "internalType": "uint256",
          "name": "id",
          "type": "uint256"
        }
      ],
      "name": "balanceOf",
      "outputs": [
        {
          "internalType": "uint256",
          "name": "",
          "type": "uint256"
        }
      ],
      "stateMutability": "view",
      "type": "function"
    },
    {
      "inputs": [
        {
          "internalType": "address[]",
          "name": "accounts",
          "type": "address[]"
        },
        {
          "internalType": "uint256[]",
          "name": "ids",
          "type": "uint256[]"
        }
      ],
      "name": "balanceOfBatch",
      "outputs": [
        {
          "internalType": "uint256[]",
          "name": "",
          "type": "uint256[]"
        }
      ],
      "stateMutability": "view",
      "type": "function"
    },
    {
      "inputs": [],
      "name": "baseURI",
      "outputs": [
        {
          "internalType": "string",
          "name": "",
          "type": "string"
        }
      ],
      "stateMutability": "view",
      "type": "function"
    },
    {
      "inputs": [],
      "name": "contractURI",
      "outputs": [
        {
          "internalType": "string",
          "name": "",
          "type": "string"
        }
      ],
      "stateMutability": "view",
      "type": "function"
    },
    {
      "inputs": [],
      "name": "feeDestination",
      "outputs": [
        {
          "internalType": "address",
          "name": "",
          "type": "address"
        }
      ],
      "stateMutability": "view",
      "type": "function"
    },
    {
      "inputs": [
        {
          "components": [
            {
              "internalType": "string",
              "name": "saleIdentifier",
              "type": "string"
            },
            {
              "internalType": "bool",
              "name": "enabled",
              "type": "bool"
            },
            {
              "internalType": "uint256",
              "name": "startTime",
              "type": "uint256"
            },
            {
              "internalType": "uint256",
              "name": "endTime",
              "type": "uint256"
            },
            {
              "internalType": "uint256",
              "name": "mintCharge",
              "type": "uint256"
            },
            {
              "internalType": "bytes32",
              "name": "whitelistRoot",
              "type": "bytes32"
            },
            {
              "internalType": "uint256",
              "name": "maxMintPerWallet",
              "type": "uint256"
            },
            {
              "internalType": "uint256",
              "name": "maxMintInSale",
              "type": "uint256"
            }
          ],
          "internalType": "struct Collection1155.SaleConfig",
          "name": "config",
          "type": "tuple"
        }
      ],
      "name": "getSaleConfigLeaf",
      "outputs": [
        {
          "internalType": "bytes32",
          "name": "",
          "type": "bytes32"
        }
      ],
      "stateMutability": "pure",
      "type": "function"
    },
    {
      "inputs": [
        {
          "internalType": "address",
          "name": "account",
          "type": "address"
        },
        {
          "internalType": "address",
          "name": "operator",
          "type": "address"
        }
      ],
      "name": "isApprovedForAll",
      "outputs": [
        {
          "internalType": "bool",
          "name": "",
          "type": "bool"
        }
      ],
      "stateMutability": "view",
      "type": "function"
    },
    {
      "inputs": [
        {
          "internalType": "bytes",
          "name": "",
          "type": "bytes"
        }
      ],
      "name": "isSignatureRedeemed",
      "outputs": [
        {
          "internalType": "bool",
          "name": "",
          "type": "bool"
        }
      ],
      "stateMutability": "view",
      "type": "function"
    },
    {
      "inputs": [],
      "name": "maxMintCap",
      "outputs": [
        {
          "internalType": "uint256",
          "name": "",
          "type": "uint256"
        }
      ],
      "stateMutability": "view",
      "type": "function"
    },
    {
      "inputs": [],
      "name": "maxMintInTotalPerWallet",
      "outputs": [
        {
          "internalType": "uint256",
          "name": "",
          "type": "uint256"
        }
      ],
      "stateMutability": "view",
      "type": "function"
    },
    {
      "inputs": [
        {
          "internalType": "bytes32[]",
          "name": "saleConfigProof",
          "type": "bytes32[]"
        },
        {
          "internalType": "bytes32[]",
          "name": "whitelistProof",
          "type": "bytes32[]"
        },
        {
          "internalType": "uint256",
          "name": "numberOfMint",
          "type": "uint256"
        },
        {
          "internalType": "string",
          "name": "message",
          "type": "string"
        },
        {
          "internalType": "bytes",
          "name": "signature",
          "type": "bytes"
        },
        {
          "components": [
            {
              "internalType": "string",
              "name": "saleIdentifier",
              "type": "string"
            },
            {
              "internalType": "bool",
              "name": "enabled",
              "type": "bool"
            },
            {
              "internalType": "uint256",
              "name": "startTime",
              "type": "uint256"
            },
            {
              "internalType": "uint256",
              "name": "endTime",
              "type": "uint256"
            },
            {
              "internalType": "uint256",
              "name": "mintCharge",
              "type": "uint256"
            },
            {
              "internalType": "bytes32",
              "name": "whitelistRoot",
              "type": "bytes32"
            },
            {
              "internalType": "uint256",
              "name": "maxMintPerWallet",
              "type": "uint256"
            },
            {
              "internalType": "uint256",
              "name": "maxMintInSale",
              "type": "uint256"
            }
          ],
          "internalType": "struct Collection1155.SaleConfig",
          "name": "config",
          "type": "tuple"
        }
      ],
      "name": "mint",
      "outputs": [],
      "stateMutability": "payable",
      "type": "function"
    },
    {
      "inputs": [],
      "name": "mintCount",
      "outputs": [
        {
          "internalType": "uint256",
          "name": "",
          "type": "uint256"
        }
      ],
      "stateMutability": "view",
      "type": "function"
    },
    {
      "inputs": [
        {
          "internalType": "string",
          "name": "",
          "type": "string"
        }
      ],
      "name": "mintCountByIdentifier",
      "outputs": [
        {
          "internalType": "uint256",
          "name": "",
          "type": "uint256"
        }
      ],
      "stateMutability": "view",
      "type": "function"
    },
    {
      "inputs": [
        {
          "internalType": "string",
          "name": "",
          "type": "string"
        },
        {
          "internalType": "address",
          "name": "",
          "type": "address"
        }
      ],
      "name": "mintCountByIdentifierWallet",
      "outputs": [
        {
          "internalType": "uint256",
          "name": "",
          "type": "uint256"
        }
      ],
      "stateMutability": "view",
      "type": "function"
    },
    {
      "inputs": [],
      "name": "msgSigner",
      "outputs": [
        {
          "internalType": "address",
          "name": "",
          "type": "address"
        }
      ],
      "stateMutability": "view",
      "type": "function"
    },
    {
      "inputs": [],
      "name": "owner",
      "outputs": [
        {
          "internalType": "address",
          "name": "",
          "type": "address"
        }
      ],
      "stateMutability": "view",
      "type": "function"
    },
    {
      "inputs": [],
      "name": "platformOwner",
      "outputs": [
        {
          "internalType": "address",
          "name": "",
          "type": "address"
        }
      ],
      "stateMutability": "view",
      "type": "function"
    },
    {
      "inputs": [],
      "name": "priceFeedAddress",
      "outputs": [
        {
          "internalType": "address",
          "name": "",
          "type": "address"
        }
      ],
      "stateMutability": "view",
      "type": "function"
    },
    {
      "inputs": [],
      "name": "renounceOwnership",
      "outputs": [],
      "stateMutability": "nonpayable",
      "type": "function"
    },
    {
      "inputs": [],
      "name": "revealTime",
      "outputs": [
        {
          "internalType": "uint256",
          "name": "",
          "type": "uint256"
        }
      ],
      "stateMutability": "view",
      "type": "function"
    },
    {
      "inputs": [],
      "name": "royaltyBasis",
      "outputs": [
        {
          "internalType": "uint96",
          "name": "",
          "type": "uint96"
        }
      ],
      "stateMutability": "view",
      "type": "function"
    },
    {
      "inputs": [
        {
          "internalType": "uint256",
          "name": "_tokenId",
          "type": "uint256"
        },
        {
          "internalType": "uint256",
          "name": "_salePrice",
          "type": "uint256"
        }
      ],
      "name": "royaltyInfo",
      "outputs": [
        {
          "internalType": "address",
          "name": "",
          "type": "address"
        },
        {
          "internalType": "uint256",
          "name": "",
          "type": "uint256"
        }
      ],
      "stateMutability": "view",
      "type": "function"
    },
    {
      "inputs": [
        {
          "internalType": "address",
          "name": "from",
          "type": "address"
        },
        {
          "internalType": "address",
          "name": "to",
          "type": "address"
        },
        {
          "internalType": "uint256[]",
          "name": "ids",
          "type": "uint256[]"
        },
        {
          "internalType": "uint256[]",
          "name": "amounts",
          "type": "uint256[]"
        },
        {
          "internalType": "bytes",
          "name": "data",
          "type": "bytes"
        }
      ],
      "name": "safeBatchTransferFrom",
      "outputs": [],
      "stateMutability": "nonpayable",
      "type": "function"
    },
    {
      "inputs": [
        {
          "internalType": "address",
          "name": "from",
          "type": "address"
        },
        {
          "internalType": "address",
          "name": "to",
          "type": "address"
        },
        {
          "internalType": "uint256",
          "name": "id",
          "type": "uint256"
        },
        {
          "internalType": "uint256",
          "name": "amount",
          "type": "uint256"
        },
        {
          "internalType": "bytes",
          "name": "data",
          "type": "bytes"
        }
      ],
      "name": "safeTransferFrom",
      "outputs": [],
      "stateMutability": "nonpayable",
      "type": "function"
    },
    {
      "inputs": [],
      "name": "saleConfigsRoot",
      "outputs": [
        {
          "internalType": "bytes32",
          "name": "",
          "type": "bytes32"
        }
      ],
      "stateMutability": "view",
      "type": "function"
    },
    {
      "inputs": [
        {
          "internalType": "address",
          "name": "operator",
          "type": "address"
        },
        {
          "internalType": "bool",
          "name": "approved",
          "type": "bool"
        }
      ],
      "name": "setApprovalForAll",
      "outputs": [],
      "stateMutability": "nonpayable",
      "type": "function"
    },
    {
      "inputs": [
        {
          "internalType": "bytes4",
          "name": "interfaceId",
          "type": "bytes4"
        }
      ],
      "name": "supportsInterface",
      "outputs": [
        {
          "internalType": "bool",
          "name": "",
          "type": "bool"
        }
      ],
      "stateMutability": "view",
      "type": "function"
    },
    {
      "inputs": [
        {
          "internalType": "uint256",
          "name": "_tokenId",
          "type": "uint256"
        }
      ],
      "name": "tokenURI",
      "outputs": [
        {
          "internalType": "string",
          "name": "",
          "type": "string"
        }
      ],
      "stateMutability": "view",
      "type": "function"
    },
    {
      "inputs": [
        {
          "internalType": "address",
          "name": "newOwner",
          "type": "address"
        }
      ],
      "name": "transferOwnership",
      "outputs": [],
      "stateMutability": "nonpayable",
      "type": "function"
    },
    {
      "inputs": [
        {
          "internalType": "string",
          "name": "_baseURI",
          "type": "string"
        }
      ],
      "name": "updateBaseURI",
      "outputs": [],
      "stateMutability": "nonpayable",
      "type": "function"
    },
    {
      "inputs": [
        {
          "internalType": "address",
          "name": "_feeDestination",
          "type": "address"
        }
      ],
      "name": "updateFeeToAddress",
      "outputs": [],
      "stateMutability": "nonpayable",
      "type": "function"
    },
    {
      "inputs": [
        {
          "internalType": "uint256",
          "name": "_val",
          "type": "uint256"
        }
      ],
      "name": "updateMaxMintInTotalPerWallet",
      "outputs": [],
      "stateMutability": "nonpayable",
      "type": "function"
    },
    {
      "inputs": [
        {
          "internalType": "address",
          "name": "_address",
          "type": "address"
        }
      ],
      "name": "updatePlatformOwner",
      "outputs": [],
      "stateMutability": "nonpayable",
      "type": "function"
    },
    {
      "inputs": [
        {
          "internalType": "uint256",
          "name": "_revealTime",
          "type": "uint256"
        }
      ],
      "name": "updateRevealTime",
      "outputs": [],
      "stateMutability": "nonpayable",
      "type": "function"
    },
    {
      "inputs": [
        {
          "internalType": "uint96",
          "name": "_val",
          "type": "uint96"
        }
      ],
      "name": "updateRoyaltyBasis",
      "outputs": [],
      "stateMutability": "nonpayable",
      "type": "function"
    },
    {
      "inputs": [
        {
          "internalType": "bytes32",
          "name": "_saleConfigRoot",
          "type": "bytes32"
        }
      ],
      "name": "updateSaleConfigRoot",
      "outputs": [],
      "stateMutability": "nonpayable",
      "type": "function"
    },
    {
      "inputs": [
        {
          "internalType": "uint256",
          "name": "",
          "type": "uint256"
        }
      ],
      "name": "uri",
      "outputs": [
        {
          "internalType": "string",
          "name": "",
          "type": "string"
        }
      ],
      "stateMutability": "view",
      "type": "function"
    },
    {
      "stateMutability": "payable",
      "type": "receive"
    }
  ],
  "bytecode": "0x6080604052600060135560405162003f8938038062003f898339810160408190526200002b916200055c565b80516200003833620002c2565b620000438162000312565b5060016006556101408101516001600160a01b031615620001725760008161014001516001600160a01b031663feaf968c6040518163ffffffff1660e01b815260040160a060405180830381865afa158015620000a4573d6000803e3d6000fd5b505050506040513d601f19601f82011682018060405250810190620000ca9190620006a2565b5050509150506305f5e100816064620000e491906200070d565b620000f091906200079e565b6101208301516200010a9067d02ab486cedc00006200070d565b6200011691906200079e565b3412156200016b5760405162461bcd60e51b815260206004820152601a60248201527f4e6f7420656e6f756768206368617267652070726f766964656400000000000060448201526064015b60405180910390fd5b50620001db565b6101208101516200018a90655af3107a4000620007de565b341015620001db5760405162461bcd60e51b815260206004820152601a60248201527f4e6f7420656e6f756768206368617267652070726f7669646564000000000000604482015260640162000162565b6020810151600780546001600160a01b039283166001600160a01b03199182161790915560608301516008556080830151600d805491909316911617905560a0810151600e906200022d90826200088f565b506040810151600c5560c0810151600f5560e08101516200025090309062000324565b60e08101516101008201516001600160a01b03166c0100000000000000000000000081026001600160601b03909216919091176010556101208201516011556040513480156108fc02916000818181858888f19350505050158015620002ba573d6000803e3d6000fd5b50506200095b565b600080546001600160a01b038381166001600160a01b0319831681178455604051919092169283917f8be0079c531659141344cd1fd0a4f28419497f9722a3daafe3b4186f6b6457e09190a35050565b60036200032082826200088f565b5050565b6127106001600160601b0382161115620003945760405162461bcd60e51b815260206004820152602a60248201527f455243323938313a20726f79616c7479206665652077696c6c206578636565646044820152692073616c65507269636560b01b606482015260840162000162565b6001600160a01b038216620003ec5760405162461bcd60e51b815260206004820152601960248201527f455243323938313a20696e76616c696420726563656976657200000000000000604482015260640162000162565b604080518082019091526001600160a01b039092168083526001600160601b039091166020909201829052600160a01b90910217600455565b634e487b7160e01b600052604160045260246000fd5b60405161016081016001600160401b038111828210171562000461576200046162000425565b60405290565b604051601f8201601f191681016001600160401b038111828210171562000492576200049262000425565b604052919050565b600082601f830112620004ac57600080fd5b81516001600160401b03811115620004c857620004c862000425565b6020620004de601f8301601f1916820162000467565b8281528582848701011115620004f357600080fd5b60005b8381101562000513578581018301518282018401528201620004f6565b506000928101909101919091529392505050565b80516001600160a01b03811681146200053f57600080fd5b919050565b80516001600160601b03811681146200053f57600080fd5b6000602082840312156200056f57600080fd5b81516001600160401b03808211156200058757600080fd5b9083019061016082860312156200059d57600080fd5b620005a76200043b565b825182811115620005b757600080fd5b620005c5878286016200049a565b825250620005d66020840162000527565b60208201526040830151604082015260608301516060820152620005fd6080840162000527565b608082015260a0830151828111156200061557600080fd5b62000623878286016200049a565b60a08301525060c083015160c08201526200064160e0840162000544565b60e082015261010091506200065882840162000527565b828201526101209150818301518282015261014091506200067b82840162000527565b91810191909152949350505050565b80516001600160501b03811681146200053f57600080fd5b600080600080600060a08688031215620006bb57600080fd5b620006c6866200068a565b9450602086015193506040860151925060608601519150620006eb608087016200068a565b90509295509295909350565b634e487b7160e01b600052601160045260246000fd5b60006001600160ff1b0381841382841380821686840486111615620007365762000736620006f7565b600160ff1b6000871282811687830589121615620007585762000758620006f7565b60008712925087820587128484161615620007775762000777620006f7565b87850587128184161615620007905762000790620006f7565b505050929093029392505050565b600082620007bc57634e487b7160e01b600052601260045260246000fd5b600160ff1b821460001984141615620007d957620007d9620006f7565b500590565b6000816000190483118215151615620007fb57620007fb620006f7565b500290565b600181811c908216806200081557607f821691505b6020821081036200083657634e487b7160e01b600052602260045260246000fd5b50919050565b601f8211156200088a57600081815260208120601f850160051c81016020861015620008655750805b601f850160051c820191505b81811015620008865782815560010162000871565b5050505b505050565b81516001600160401b03811115620008ab57620008ab62000425565b620008c381620008bc845462000800565b846200083c565b602080601f831160018114620008fb5760008415620008e25750858301515b600019600386901b1c1916600185901b17855562000886565b600085815260208120601f198616915b828110156200092c578886015182559484019460019091019084016200090b565b50858210156200094b5787850151600019600388901b60f8161c191681555b5050505050600190811b01905550565b61361e806200096b6000396000f3fe6080604052600436106101e85760003560e01c80638da5cb5b11610103578063ca73e5e91161009b578063ca73e5e9146106d6578063d9c79c1c146106f6578063dc9f75f714610709578063de53fcd514610729578063e0abca0b14610749578063e8a3d48514610769578063e985e9c51461077e578063eaf3a589146107c7578063f242432a146107dd578063f2fde38b146107fd57600080fd5b80638da5cb5b146105a6578063931688cb146105c45780639659867e146105e45780639a953ea2146105fa578063a22cb46514610610578063ba4cc74914610630578063ba829d7114610668578063c6ec69091461067e578063c87b56dd146106b657600080fd5b80632eb2c2d6116101815780632eb2c2d61461045a5780634df8ccb11461047a5780634e1273f4146104b957806361b5a2a2146104e65780636c0360eb14610506578063715018a61461051b5780637feb839d146105305780638028b2851461054657806383699816146105665780638847d3d51461058657600080fd5b8062fdd58e146102c4578063018779c7146102f757806301ffc9a7146103425780630b8c1785146103625780630e89341c146103aa5780631b34f107146103d7578063210112f5146103f75780632a55205a146104175780632e411f221461044557600080fd5b366102bf57600060646101fc346002612792565b61020691906127c7565b601054909150600160601b90046001600160a01b03161561026357601054604051600160601b9091046001600160a01b0316906108fc8315029083906000818181858888f19350505050158015610261573d6000803e3d6000fd5b505b6007546010546001600160a01b03918216916108fc91600160601b90041661028b5734610295565b61029583346127db565b6040518115909202916000818181858888f193505050501580156102bd573d6000803e3d6000fd5b005b600080fd5b3480156102d057600080fd5b506102e46102df36600461280a565b61081d565b6040519081526020015b60405180910390f35b34801561030357600080fd5b50610332610312366004612912565b805160208183018101805160098252928201919093012091525460ff1681565b60405190151581526020016102ee565b34801561034e57600080fd5b5061033261035d36600461295c565b6108b8565b34801561036e57600080fd5b506102e461037d366004612979565b8151602081840181018051600b825292820194820194909420919093529091526000908152604090205481565b3480156103b657600080fd5b506103ca6103c53660046129c6565b6108dd565b6040516102ee9190612a2f565b3480156103e357600080fd5b506102bd6103f2366004612a42565b610971565b34801561040357600080fd5b506102bd610412366004612a42565b6109f0565b34801561042357600080fd5b50610437610432366004612a5d565b610a1a565b6040516102ee929190612a7f565b34801561045157600080fd5b506102e4600081565b34801561046657600080fd5b506102bd610475366004612b2c565b610ac8565b34801561048657600080fd5b506010546104a190600160601b90046001600160a01b031681565b6040516001600160a01b0390911681526020016102ee565b3480156104c557600080fd5b506104d96104d4366004612bd5565b610b14565b6040516102ee9190612cda565b3480156104f257600080fd5b506102bd6105013660046129c6565b610c3d565b34801561051257600080fd5b506103ca610c4a565b34801561052757600080fd5b506102bd610cd8565b34801561053c57600080fd5b506102e460115481565b34801561055257600080fd5b50600d546104a1906001600160a01b031681565b34801561057257600080fd5b506102bd6105813660046129c6565b610cec565b34801561059257600080fd5b506102bd6105a1366004612ced565b610cf9565b3480156105b257600080fd5b506000546001600160a01b03166104a1565b3480156105d057600080fd5b506102bd6105df366004612912565b610d2d565b3480156105f057600080fd5b506102e460135481565b34801561060657600080fd5b506102e4600c5481565b34801561061c57600080fd5b506102bd61062b366004612d26565b610d45565b34801561063c57600080fd5b506102e461064b366004612912565b8051602081830181018051600a8252928201919093012091525481565b34801561067457600080fd5b506102e4600f5481565b34801561068a57600080fd5b5060105461069e906001600160601b031681565b6040516001600160601b0390911681526020016102ee565b3480156106c257600080fd5b506103ca6106d13660046129c6565b610d50565b3480156106e257600080fd5b506102e46106f1366004612de5565b610e20565b6102bd610704366004612e19565b610e95565b34801561071557600080fd5b506102bd6107243660046129c6565b611695565b34801561073557600080fd5b506007546104a1906001600160a01b031681565b34801561075557600080fd5b506012546104a1906001600160a01b031681565b34801561077557600080fd5b506103ca6116a2565b34801561078a57600080fd5b50610332610799366004612ef2565b6001600160a01b03918216600090815260026020908152604080832093909416825291909152205460ff1690565b3480156107d357600080fd5b506102e460085481565b3480156107e957600080fd5b506102bd6107f8366004612f1c565b6116e0565b34801561080957600080fd5b506102bd610818366004612a42565b611725565b60006001600160a01b03831661088d5760405162461bcd60e51b815260206004820152602a60248201527f455243313135353a2061646472657373207a65726f206973206e6f742061207660448201526930b634b21037bbb732b960b11b60648201526084015b60405180910390fd5b5060008181526001602090815260408083206001600160a01b03861684529091529020545b92915050565b60006001600160e01b0319821663152a902d60e11b14806108b257506108b28261179e565b6060600380546108ec90612f80565b80601f016020809104026020016040519081016040528092919081815260200182805461091890612f80565b80156109655780601f1061093a57610100808354040283529160200191610965565b820191906000526020600020905b81548152906001019060200180831161094857829003601f168201915b50505050509050919050565b601054600160601b90046001600160a01b031633146109c85760405162461bcd60e51b815260206004820152601360248201527227b7363c90283630ba3337b9369027bbb732b960691b6044820152606401610884565b601080546001600160a01b03909216600160601b026001600160601b03909216919091179055565b6109f86117c3565b600780546001600160a01b0319166001600160a01b0392909216919091179055565b60008281526005602090815260408083208151808301909252546001600160a01b038116808352600160a01b9091046001600160601b0316928201929092528291610a8f5750604080518082019091526004546001600160a01b0381168252600160a01b90046001600160601b031660208201525b602081015160009061271090610aae906001600160601b031687612792565b610ab891906127c7565b91519350909150505b9250929050565b6001600160a01b038516331480610ae45750610ae48533610799565b610b005760405162461bcd60e51b815260040161088490612fba565b610b0d858585858561181d565b5050505050565b60608151835114610b795760405162461bcd60e51b815260206004820152602960248201527f455243313135353a206163636f756e747320616e6420696473206c656e677468604482015268040dad2e6dac2e8c6d60bb1b6064820152608401610884565b600083516001600160401b03811115610b9457610b94612834565b604051908082528060200260200182016040528015610bbd578160200160208202803683370190505b50905060005b8451811015610c3557610c08858281518110610be157610be1613009565b6020026020010151858381518110610bfb57610bfb613009565b602002602001015161081d565b828281518110610c1a57610c1a613009565b6020908102919091010152610c2e8161301f565b9050610bc3565b509392505050565b610c456117c3565b600c55565b600e8054610c5790612f80565b80601f0160208091040260200160405190810160405280929190818152602001828054610c8390612f80565b8015610cd05780601f10610ca557610100808354040283529160200191610cd0565b820191906000526020600020905b815481529060010190602001808311610cb357829003601f168201915b505050505081565b610ce06117c3565b610cea60006119fd565b565b610cf46117c3565b600855565b610d016117c3565b610d0b3082611a4d565b601080546001600160601b0319166001600160601b0392909216919091179055565b610d356117c3565b600e610d418282613083565b5050565b610d41338383611b46565b60608115610d925760405162461bcd60e51b815260206004820152600f60248201526e125b9d985b1a59081d1bdad95b9259608a1b6044820152606401610884565b600e600f54600014158015610da95750600f544211155b610dc25760405180602001604052806000815250610de3565b6040518060400160405280600781526020016668696464656e2d60c81b8152505b610dee306014611c26565b610df746611dc8565b604051602001610e0a94939291906131b5565b6040516020818303038152906040529050919050565b80516020808301516040808501516060860151608087015160a088015160c089015160e08a01519551600099610e5a99909897910161324e565b60408051601f19818403018152828252805160209182012090830152015b604051602081830303815290604052805190602001209050919050565b600260065403610ee75760405162461bcd60e51b815260206004820152601f60248201527f5265656e7472616e637947756172643a207265656e7472616e742063616c6c006044820152606401610884565b60026006819055508585858360115482601354610f04919061329d565b1115610f4f5760405162461bcd60e51b815260206004820152601a60248201527904d696e7420436f756e742065786365656473204d6178204361760341b6044820152606401610884565b600854610f935760405162461bcd60e51b8152602060048201526012602482015271139bc81cd85b194818dbdb999a59dd5c995960721b6044820152606401610884565b610fa884600854610fa384610e20565b611ed0565b610fea5760405162461bcd60e51b8152602060048201526013602482015272496e76616c69642053616c6520436f6e66696760681b6044820152606401610884565b80602001516110315760405162461bcd60e51b815260206004820152601360248201527214d85b19481a5cc81b9bdd08195b98589b1959606a1b6044820152606401610884565b604081015142901580159061104a575081604001518110155b6110915760405162461bcd60e51b815260206004820152601860248201527714d85b19481a185cc81b9bdd081cdd185c9d1959081e595d60421b6044820152606401610884565b8160600151811115806110a657506060820151155b6110e35760405162461bcd60e51b815260206004820152600e60248201526d14d85b19481a185cc8195b99195960921b6044820152606401610884565b8282608001516110f39190612792565b3410156111425760405162461bcd60e51b815260206004820152601f60248201527f4e6f7420656e6f756768206d696e74206368617267652070726f7669646564006044820152606401610884565b8160e0015183600a846000015160405161115c91906132b0565b908152602001604051809103902054611175919061329d565b11156111bc5760405162461bcd60e51b81526020600482015260166024820152754d61782053616c65204c696d6974204578636565647360501b6044820152606401610884565b8160c0015183600b84600001516040516111d691906132b0565b908152604080516020928190038301902033600090815292529020546111fc919061329d565b111561124a5760405162461bcd60e51b815260206004820181905260248201527f4d61784d696e7450657257616c6c657453616c654c696d6974457863656564736044820152606401610884565b600c54156112b957600c548361126133600061081d565b61126b919061329d565b11156112b95760405162461bcd60e51b815260206004820152601e60248201527f4d6178546f74616c4d696e7457616c6c65744c696d69744578636565647300006044820152606401610884565b60a0820151156113455760a08201516040516001600160601b03193360601b16602082015261130291869160340160405160208183030381529060405280519060200120611ed0565b6113455760405162461bcd60e51b8152602060048201526014602482015273155cd95c881b9bdd081dda1a5d195b1a5cdd195960621b6044820152606401610884565b878760098160405161135791906132b0565b9081526040519081900360200190205460ff16156113b45760405162461bcd60e51b815260206004820152601a60248201527914da59db985d1d5c9948185b1c9958591e481c995919595b595960321b6044820152606401610884565b600d546040516001600160a01b03909116906113ff9083906113f9906113de9087906020016132b0565b60405160208183030381529060405280519060200120611ee6565b90611f21565b6001600160a01b0316146114495760405162461bcd60e51b8152602060048201526011602482015270496e76616c6964205369676e617475726560781b6044820152606401610884565b60008b116114905760405162461bcd60e51b815260206004820152601460248201527304e756d626572206f66206d696e747320697320360641b6044820152606401610884565b8a600b89600001516040516114a591906132b0565b90815260408051602092819003830190203360009081529252812080549091906114d090849061329d565b925050819055508a601360008282546114e9919061329d565b909155505087516040518c91600a9161150291906132b0565b9081526020016040518091039020600082825461151f919061329d565b92505081905550600160098a60405161153891906132b0565b908152604051908190036020019020805491151560ff1990921691909117905560006127106115693461012c612792565b61157391906127c7565b601054909150600160601b90046001600160a01b0316156115d057601054604051600160601b9091046001600160a01b0316906108fc8315029083906000818181858888f193505050501580156115ce573d6000803e3d6000fd5b505b6007546010546001600160a01b03918216916108fc91600160601b9004166115f85734611602565b61160283346127db565b6040518115909202916000818181858888f1935050505015801561162a573d6000803e3d6000fd5b506116473360008e60405180602001604052806000815250611f3d565b7f0f6798a560793a54c3bcfe86a93cde1e73087d944c0ea20544137d4121396885338d604051611678929190612a7f565b60405180910390a150506001600655505050505050505050505050565b61169d6117c3565b600f55565b6060600e6116b1306014611c26565b6116ba46611dc8565b6040516020016116cc939291906132cc565b604051602081830303815290604052905090565b6001600160a01b0385163314806116fc57506116fc8533610799565b6117185760405162461bcd60e51b815260040161088490612fba565b610b0d8585858585612053565b61172d6117c3565b6001600160a01b0381166117925760405162461bcd60e51b815260206004820152602660248201527f4f776e61626c653a206e6577206f776e657220697320746865207a65726f206160448201526564647265737360d01b6064820152608401610884565b61179b816119fd565b50565b60006001600160e01b0319821663152a902d60e11b14806108b257506108b282612181565b6000546001600160a01b03163314610cea5760405162461bcd60e51b815260206004820181905260248201527f4f776e61626c653a2063616c6c6572206973206e6f7420746865206f776e65726044820152606401610884565b815183511461187f5760405162461bcd60e51b815260206004820152602860248201527f455243313135353a2069647320616e6420616d6f756e7473206c656e677468206044820152670dad2e6dac2e8c6d60c31b6064820152608401610884565b6001600160a01b0384166118a55760405162461bcd60e51b81526004016108849061333d565b3360005b845181101561198f5760008582815181106118c6576118c6613009565b6020026020010151905060008583815181106118e4576118e4613009565b60209081029190910181015160008481526001835260408082206001600160a01b038e1683529093529190912054909150818110156119355760405162461bcd60e51b815260040161088490613382565b60008381526001602090815260408083206001600160a01b038e8116855292528083208585039055908b1682528120805484929061197490849061329d565b92505081905550505050806119889061301f565b90506118a9565b50846001600160a01b0316866001600160a01b0316826001600160a01b03167f4a39dc06d4c0dbc64b70af90fd698a233a518aa5d07e595d983b8c0526c8f7fb87876040516119df9291906133cc565b60405180910390a46119f58187878787876121d1565b505050505050565b600080546001600160a01b038381166001600160a01b0319831681178455604051919092169283917f8be0079c531659141344cd1fd0a4f28419497f9722a3daafe3b4186f6b6457e09190a35050565b6127106001600160601b0382161115611abb5760405162461bcd60e51b815260206004820152602a60248201527f455243323938313a20726f79616c7479206665652077696c6c206578636565646044820152692073616c65507269636560b01b6064820152608401610884565b6001600160a01b038216611b0d5760405162461bcd60e51b815260206004820152601960248201527822a921991c9c189d1034b73b30b634b2103932b1b2b4bb32b960391b6044820152606401610884565b604080518082019091526001600160a01b039092168083526001600160601b039091166020909201829052600160a01b90910217600455565b816001600160a01b0316836001600160a01b031603611bb95760405162461bcd60e51b815260206004820152602960248201527f455243313135353a2073657474696e6720617070726f76616c20737461747573604482015268103337b91039b2b63360b91b6064820152608401610884565b6001600160a01b03838116600081815260026020908152604080832094871680845294825291829020805460ff191686151590811790915591519182527f17307eab39ab6107e8899845ad3d59bd9653f200f220920489ca2b5937696c31910160405180910390a3505050565b60606000611c35836002612792565b611c4090600261329d565b6001600160401b03811115611c5757611c57612834565b6040519080825280601f01601f191660200182016040528015611c81576020820181803683370190505b509050600360fc1b81600081518110611c9c57611c9c613009565b60200101906001600160f81b031916908160001a905350600f60fb1b81600181518110611ccb57611ccb613009565b60200101906001600160f81b031916908160001a9053506000611cef846002612792565b611cfa90600161329d565b90505b6001811115611d72576f181899199a1a9b1b9c1cb0b131b232b360811b85600f1660108110611d2e57611d2e613009565b1a60f81b828281518110611d4457611d44613009565b60200101906001600160f81b031916908160001a90535060049490941c93611d6b816133fa565b9050611cfd565b508315611dc15760405162461bcd60e51b815260206004820181905260248201527f537472696e67733a20686578206c656e67746820696e73756666696369656e746044820152606401610884565b9392505050565b606081600003611def5750506040805180820190915260018152600360fc1b602082015290565b8160005b8115611e195780611e038161301f565b9150611e129050600a836127c7565b9150611df3565b6000816001600160401b03811115611e3357611e33612834565b6040519080825280601f01601f191660200182016040528015611e5d576020820181803683370190505b5090505b8415611ec857611e726001836127db565b9150611e7f600a86613411565b611e8a90603061329d565b60f81b818381518110611e9f57611e9f613009565b60200101906001600160f81b031916908160001a905350611ec1600a866127c7565b9450611e61565b949350505050565b600082611edd858461232c565b14949350505050565b6040517f19457468657265756d205369676e6564204d6573736167653a0a3332000000006020820152603c8101829052600090605c01610e78565b6000806000611f308585612371565b91509150610c35816123b3565b6001600160a01b038416611f9d5760405162461bcd60e51b815260206004820152602160248201527f455243313135353a206d696e7420746f20746865207a65726f206164647265736044820152607360f81b6064820152608401610884565b336000611fa985612564565b90506000611fb685612564565b905060008681526001602090815260408083206001600160a01b038b16845290915281208054879290611fea90849061329d565b909155505060408051878152602081018790526001600160a01b03808a1692600092918716917fc3d58168c5ae7397731d063d5bbf3d657854427343f4c083240f7aacaa2d0f62910160405180910390a461204a836000898989896125af565b50505050505050565b6001600160a01b0384166120795760405162461bcd60e51b81526004016108849061333d565b33600061208585612564565b9050600061209285612564565b905060008681526001602090815260408083206001600160a01b038c168452909152902054858110156120d75760405162461bcd60e51b815260040161088490613382565b60008781526001602090815260408083206001600160a01b038d8116855292528083208985039055908a1682528120805488929061211690849061329d565b909155505060408051888152602081018890526001600160a01b03808b16928c821692918816917fc3d58168c5ae7397731d063d5bbf3d657854427343f4c083240f7aacaa2d0f62910160405180910390a4612176848a8a8a8a8a6125af565b505050505050505050565b60006001600160e01b03198216636cdb3d1360e11b14806121b257506001600160e01b031982166303a24d0760e21b145b806108b257506301ffc9a760e01b6001600160e01b03198316146108b2565b6001600160a01b0384163b156119f55760405163bc197c8160e01b81526001600160a01b0385169063bc197c81906122159089908990889088908890600401613425565b6020604051808303816000875af1925050508015612250575060408051601f3d908101601f1916820190925261224d91810190613483565b60015b6122fc5761225c6134a0565b806308c379a00361229557506122706134bc565b8061227b5750612297565b8060405162461bcd60e51b81526004016108849190612a2f565b505b60405162461bcd60e51b815260206004820152603460248201527f455243313135353a207472616e7366657220746f206e6f6e20455243313135356044820152732932b1b2b4bb32b91034b6b83632b6b2b73a32b960611b6064820152608401610884565b6001600160e01b0319811663bc197c8160e01b1461204a5760405162461bcd60e51b815260040161088490613545565b600081815b8451811015610c355761235d8286838151811061235057612350613009565b602002602001015161266a565b9150806123698161301f565b915050612331565b60008082516041036123a75760208301516040840151606085015160001a61239b87828585612699565b94509450505050610ac1565b50600090506002610ac1565b60008160048111156123c7576123c761358d565b036123cf5750565b60018160048111156123e3576123e361358d565b0361242b5760405162461bcd60e51b815260206004820152601860248201527745434453413a20696e76616c6964207369676e617475726560401b6044820152606401610884565b600281600481111561243f5761243f61358d565b0361248c5760405162461bcd60e51b815260206004820152601f60248201527f45434453413a20696e76616c6964207369676e6174757265206c656e677468006044820152606401610884565b60038160048111156124a0576124a061358d565b036124f85760405162461bcd60e51b815260206004820152602260248201527f45434453413a20696e76616c6964207369676e6174757265202773272076616c604482015261756560f01b6064820152608401610884565b600481600481111561250c5761250c61358d565b0361179b5760405162461bcd60e51b815260206004820152602260248201527f45434453413a20696e76616c6964207369676e6174757265202776272076616c604482015261756560f01b6064820152608401610884565b6040805160018082528183019092526060916000919060208083019080368337019050509050828160008151811061259e5761259e613009565b602090810291909101015292915050565b6001600160a01b0384163b156119f55760405163f23a6e6160e01b81526001600160a01b0385169063f23a6e61906125f390899089908890889088906004016135a3565b6020604051808303816000875af192505050801561262e575060408051601f3d908101601f1916820190925261262b91810190613483565b60015b61263a5761225c6134a0565b6001600160e01b0319811663f23a6e6160e01b1461204a5760405162461bcd60e51b815260040161088490613545565b6000818310612686576000828152602084905260409020611dc1565b6000838152602083905260409020611dc1565b6000806fa2a8918ca85bafe22016d0b997e4df60600160ff1b038311156126c65750600090506003612773565b8460ff16601b141580156126de57508460ff16601c14155b156126ef5750600090506004612773565b6040805160008082526020820180845289905260ff881692820192909252606081018690526080810185905260019060a0016020604051602081039080840390855afa158015612743573d6000803e3d6000fd5b5050604051601f1901519150506001600160a01b03811661276c57600060019250925050612773565b9150600090505b94509492505050565b634e487b7160e01b600052601160045260246000fd5b60008160001904831182151516156127ac576127ac61277c565b500290565b634e487b7160e01b600052601260045260246000fd5b6000826127d6576127d66127b1565b500490565b818103818111156108b2576108b261277c565b80356001600160a01b038116811461280557600080fd5b919050565b6000806040838503121561281d57600080fd5b612826836127ee565b946020939093013593505050565b634e487b7160e01b600052604160045260246000fd5b601f8201601f191681016001600160401b038111828210171561286f5761286f612834565b6040525050565b60405161010081016001600160401b038111828210171561289957612899612834565b60405290565b600082601f8301126128b057600080fd5b81356001600160401b038111156128c9576128c9612834565b6040516128e0601f8301601f19166020018261284a565b8181528460208386010111156128f557600080fd5b816020850160208301376000918101602001919091529392505050565b60006020828403121561292457600080fd5b81356001600160401b0381111561293a57600080fd5b611ec88482850161289f565b6001600160e01b03198116811461179b57600080fd5b60006020828403121561296e57600080fd5b8135611dc181612946565b6000806040838503121561298c57600080fd5b82356001600160401b038111156129a257600080fd5b6129ae8582860161289f565b9250506129bd602084016127ee565b90509250929050565b6000602082840312156129d857600080fd5b5035919050565b60005b838110156129fa5781810151838201526020016129e2565b50506000910152565b60008151808452612a1b8160208601602086016129df565b601f01601f19169290920160200192915050565b602081526000611dc16020830184612a03565b600060208284031215612a5457600080fd5b611dc1826127ee565b60008060408385031215612a7057600080fd5b50508035926020909101359150565b6001600160a01b03929092168252602082015260400190565b60006001600160401b03821115612ab157612ab1612834565b5060051b60200190565b600082601f830112612acc57600080fd5b81356020612ad982612a98565b604051612ae6828261284a565b83815260059390931b8501820192828101915086841115612b0657600080fd5b8286015b84811015612b215780358352918301918301612b0a565b509695505050505050565b600080600080600060a08688031215612b4457600080fd5b612b4d866127ee565b9450612b5b602087016127ee565b935060408601356001600160401b0380821115612b7757600080fd5b612b8389838a01612abb565b94506060880135915080821115612b9957600080fd5b612ba589838a01612abb565b93506080880135915080821115612bbb57600080fd5b50612bc88882890161289f565b9150509295509295909350565b60008060408385031215612be857600080fd5b82356001600160401b0380821115612bff57600080fd5b818501915085601f830112612c1357600080fd5b81356020612c2082612a98565b604051612c2d828261284a565b83815260059390931b8501820192828101915089841115612c4d57600080fd5b948201945b83861015612c7257612c63866127ee565b82529482019490820190612c52565b96505086013592505080821115612c8857600080fd5b50612c9585828601612abb565b9150509250929050565b600081518084526020808501945080840160005b83811015612ccf57815187529582019590820190600101612cb3565b509495945050505050565b602081526000611dc16020830184612c9f565b600060208284031215612cff57600080fd5b81356001600160601b0381168114611dc157600080fd5b8035801515811461280557600080fd5b60008060408385031215612d3957600080fd5b612d42836127ee565b91506129bd60208401612d16565b60006101008284031215612d6357600080fd5b612d6b612876565b905081356001600160401b03811115612d8357600080fd5b612d8f8482850161289f565b825250612d9e60208301612d16565b602082015260408201356040820152606082013560608201526080820135608082015260a082013560a082015260c082013560c082015260e082013560e082015292915050565b600060208284031215612df757600080fd5b81356001600160401b03811115612e0d57600080fd5b611ec884828501612d50565b60008060008060008060c08789031215612e3257600080fd5b86356001600160401b0380821115612e4957600080fd5b612e558a838b01612abb565b97506020890135915080821115612e6b57600080fd5b612e778a838b01612abb565b9650604089013595506060890135915080821115612e9457600080fd5b612ea08a838b0161289f565b94506080890135915080821115612eb657600080fd5b612ec28a838b0161289f565b935060a0890135915080821115612ed857600080fd5b50612ee589828a01612d50565b9150509295509295509295565b60008060408385031215612f0557600080fd5b612f0e836127ee565b91506129bd602084016127ee565b600080600080600060a08688031215612f3457600080fd5b612f3d866127ee565b9450612f4b602087016127ee565b9350604086013592506060860135915060808601356001600160401b03811115612f7457600080fd5b612bc88882890161289f565b600181811c90821680612f9457607f821691505b602082108103612fb457634e487b7160e01b600052602260045260246000fd5b50919050565b6020808252602f908201527f455243313135353a2063616c6c6572206973206e6f7420746f6b656e206f776e60408201526e195c881b9bdc88185c1c1c9bdd9959608a1b606082015260800190565b634e487b7160e01b600052603260045260246000fd5b6000600182016130315761303161277c565b5060010190565b601f82111561307e57600081815260208120601f850160051c8101602086101561305f5750805b601f850160051c820191505b818110156119f55782815560010161306b565b505050565b81516001600160401b0381111561309c5761309c612834565b6130b0816130aa8454612f80565b84613038565b602080601f8311600181146130e557600084156130cd5750858301515b600019600386901b1c1916600185901b1785556119f5565b600085815260208120601f198616915b82811015613114578886015182559484019460019091019084016130f5565b50858210156131325787850151600019600388901b60f8161c191681555b5050505050600190811b01905550565b6000815461314f81612f80565b60018281168015613167576001811461317c576131ab565b60ff19841687528215158302870194506131ab565b8560005260208060002060005b858110156131a25781548a820152908401908201613189565b50505082870194505b5050505092915050565b60006131c18287613142565b85516131d1818360208a016129df565b71746f6b656e2d7572693f616464726573733d60701b910190815284516131ff8160128401602089016129df565b68266e6574776f726b3d60b81b60129290910191820152835161322981601b8401602088016129df565b69026746f6b656e49643d360b41b601b92909101918201526025019695505050505050565b60008951613260818460208e016129df565b98151560f81b919098019081526001810196909652602186019490945260418501929092526061840152608183015260a182015260c10192915050565b808201808211156108b2576108b261277c565b600082516132c28184602087016129df565b9190910192915050565b60006132d88286613142565b74636f6e74726163742d7572693f616464726573733d60581b815284516133068160158401602089016129df565b68266e6574776f726b3d60b81b60159290910191820152835161333081601e8401602088016129df565b01601e0195945050505050565b60208082526025908201527f455243313135353a207472616e7366657220746f20746865207a65726f206164604082015264647265737360d81b606082015260800190565b6020808252602a908201527f455243313135353a20696e73756666696369656e742062616c616e636520666f60408201526939103a3930b739b332b960b11b606082015260800190565b6040815260006133df6040830185612c9f565b82810360208401526133f18185612c9f565b95945050505050565b6000816134095761340961277c565b506000190190565b600082613420576134206127b1565b500690565b6001600160a01b0386811682528516602082015260a06040820181905260009061345190830186612c9f565b82810360608401526134638186612c9f565b905082810360808401526134778185612a03565b98975050505050505050565b60006020828403121561349557600080fd5b8151611dc181612946565b600060033d11156134b95760046000803e5060005160e01c5b90565b600060443d10156134ca5790565b6040516003193d81016004833e81513d6001600160401b0381602484011181841117156134f957505050505090565b82850191508151818111156135115750505050505090565b843d870101602082850101111561352b5750505050505090565b61353a6020828601018761284a565b509095945050505050565b60208082526028908201527f455243313135353a204552433131353552656365697665722072656a656374656040820152676420746f6b656e7360c01b606082015260800190565b634e487b7160e01b600052602160045260246000fd5b6001600160a01b03868116825285166020820152604081018490526060810183905260a0608082018190526000906135dd90830184612a03565b97965050505050505056fea264697066735822122089eb511e15809a58f1bb0d6d4e08d5d1f9870f506d06df284d65f7c1013d804564736f6c63430008100033",
  "linkReferences": {},
  "deployedLinkReferences": {}
}