{
  "_format": "hh-sol-artifact-1",
  "contractName": "Collection1155",
  "sourceName": "contracts/Collection1155.sol",
  "abi": [
    {
      "inputs": [
        {
          "internalType": "string",
          "name": "_name",
          "type": "string"
        },
        {
          "internalType": "address",
          "name": "_feeDestination",
          "type": "address"
        },
        {
          "internalType": "uint256",
          "name": "_maxMintInTotalPerWallet",
          "type": "uint256"
        },
        {
          "internalType": "bytes32",
          "name": "_saleConfigRoot",
          "type": "bytes32"
        },
        {
          "internalType": "address",
          "name": "_msgSigner",
          "type": "address"
        },
        {
          "internalType": "string",
          "name": "_baseURI",
          "type": "string"
        }
      ],
      "stateMutability": "nonpayable",
      "type": "constructor"
    },
    {
      "anonymous": false,
      "inputs": [
        {
          "indexed": true,
          "internalType": "address",
          "name": "account",
          "type": "address"
        },
        {
          "indexed": true,
          "internalType": "address",
          "name": "operator",
          "type": "address"
        },
        {
          "indexed": false,
          "internalType": "bool",
          "name": "approved",
          "type": "bool"
        }
      ],
      "name": "ApprovalForAll",
      "type": "event"
    },
    {
      "anonymous": false,
      "inputs": [
        {
          "indexed": false,
          "internalType": "address",
          "name": "msgSender",
          "type": "address"
        },
        {
          "indexed": false,
          "internalType": "uint256",
          "name": "numberOfMint",
          "type": "uint256"
        }
      ],
      "name": "Mint",
      "type": "event"
    },
    {
      "anonymous": false,
      "inputs": [
        {
          "indexed": true,
          "internalType": "address",
          "name": "previousOwner",
          "type": "address"
        },
        {
          "indexed": true,
          "internalType": "address",
          "name": "newOwner",
          "type": "address"
        }
      ],
      "name": "OwnershipTransferred",
      "type": "event"
    },
    {
      "anonymous": false,
      "inputs": [
        {
          "indexed": true,
          "internalType": "address",
          "name": "operator",
          "type": "address"
        },
        {
          "indexed": true,
          "internalType": "address",
          "name": "from",
          "type": "address"
        },
        {
          "indexed": true,
          "internalType": "address",
          "name": "to",
          "type": "address"
        },
        {
          "indexed": false,
          "internalType": "uint256[]",
          "name": "ids",
          "type": "uint256[]"
        },
        {
          "indexed": false,
          "internalType": "uint256[]",
          "name": "values",
          "type": "uint256[]"
        }
      ],
      "name": "TransferBatch",
      "type": "event"
    },
    {
      "anonymous": false,
      "inputs": [
        {
          "indexed": true,
          "internalType": "address",
          "name": "operator",
          "type": "address"
        },
        {
          "indexed": true,
          "internalType": "address",
          "name": "from",
          "type": "address"
        },
        {
          "indexed": true,
          "internalType": "address",
          "name": "to",
          "type": "address"
        },
        {
          "indexed": false,
          "internalType": "uint256",
          "name": "id",
          "type": "uint256"
        },
        {
          "indexed": false,
          "internalType": "uint256",
          "name": "value",
          "type": "uint256"
        }
      ],
      "name": "TransferSingle",
      "type": "event"
    },
    {
      "anonymous": false,
      "inputs": [
        {
          "indexed": false,
          "internalType": "string",
          "name": "value",
          "type": "string"
        },
        {
          "indexed": true,
          "internalType": "uint256",
          "name": "id",
          "type": "uint256"
        }
      ],
      "name": "URI",
      "type": "event"
    },
    {
      "inputs": [
        {
          "internalType": "string",
          "name": "",
          "type": "string"
        },
        {
          "internalType": "address",
          "name": "",
          "type": "address"
        }
      ],
      "name": "balanceByIdentifier",
      "outputs": [
        {
          "internalType": "uint256",
          "name": "",
          "type": "uint256"
        }
      ],
      "stateMutability": "view",
      "type": "function"
    },
    {
      "inputs": [
        {
          "internalType": "address",
          "name": "account",
          "type": "address"
        },
        {
          "internalType": "uint256",
          "name": "id",
          "type": "uint256"
        }
      ],
      "name": "balanceOf",
      "outputs": [
        {
          "internalType": "uint256",
          "name": "",
          "type": "uint256"
        }
      ],
      "stateMutability": "view",
      "type": "function"
    },
    {
      "inputs": [
        {
          "internalType": "address[]",
          "name": "accounts",
          "type": "address[]"
        },
        {
          "internalType": "uint256[]",
          "name": "ids",
          "type": "uint256[]"
        }
      ],
      "name": "balanceOfBatch",
      "outputs": [
        {
          "internalType": "uint256[]",
          "name": "",
          "type": "uint256[]"
        }
      ],
      "stateMutability": "view",
      "type": "function"
    },
    {
      "inputs": [],
      "name": "baseURI",
      "outputs": [
        {
          "internalType": "string",
          "name": "",
          "type": "string"
        }
      ],
      "stateMutability": "view",
      "type": "function"
    },
    {
      "inputs": [],
      "name": "contractURI",
      "outputs": [
        {
          "internalType": "string",
          "name": "",
          "type": "string"
        }
      ],
      "stateMutability": "view",
      "type": "function"
    },
    {
      "inputs": [],
      "name": "emptyRoot",
      "outputs": [
        {
          "internalType": "bytes32",
          "name": "",
          "type": "bytes32"
        }
      ],
      "stateMutability": "view",
      "type": "function"
    },
    {
      "inputs": [],
      "name": "feeDestination",
      "outputs": [
        {
          "internalType": "address",
          "name": "",
          "type": "address"
        }
      ],
      "stateMutability": "view",
      "type": "function"
    },
    {
      "inputs": [
        {
          "components": [
            {
              "internalType": "string",
              "name": "saleIdentifier",
              "type": "string"
            },
            {
              "internalType": "bool",
              "name": "enabled",
              "type": "bool"
            },
            {
              "internalType": "uint256",
              "name": "startTime",
              "type": "uint256"
            },
            {
              "internalType": "uint256",
              "name": "endTime",
              "type": "uint256"
            },
            {
              "internalType": "uint256",
              "name": "mintCharge",
              "type": "uint256"
            },
            {
              "internalType": "bytes32",
              "name": "whitelistRoot",
              "type": "bytes32"
            },
            {
              "internalType": "uint256",
              "name": "maxMintPerWallet",
              "type": "uint256"
            },
            {
              "internalType": "uint256",
              "name": "maxMintInSale",
              "type": "uint256"
            }
          ],
          "internalType": "struct Collection1155.SaleConfig",
          "name": "config",
          "type": "tuple"
        }
      ],
      "name": "getSaleConfigLeaf",
      "outputs": [
        {
          "internalType": "bytes32",
          "name": "",
          "type": "bytes32"
        }
      ],
      "stateMutability": "pure",
      "type": "function"
    },
    {
      "inputs": [
        {
          "internalType": "address",
          "name": "account",
          "type": "address"
        },
        {
          "internalType": "address",
          "name": "operator",
          "type": "address"
        }
      ],
      "name": "isApprovedForAll",
      "outputs": [
        {
          "internalType": "bool",
          "name": "",
          "type": "bool"
        }
      ],
      "stateMutability": "view",
      "type": "function"
    },
    {
      "inputs": [
        {
          "internalType": "bytes",
          "name": "",
          "type": "bytes"
        }
      ],
      "name": "isSignatureRedeemed",
      "outputs": [
        {
          "internalType": "bool",
          "name": "",
          "type": "bool"
        }
      ],
      "stateMutability": "view",
      "type": "function"
    },
    {
      "inputs": [],
      "name": "maxMintInTotalPerWallet",
      "outputs": [
        {
          "internalType": "uint256",
          "name": "",
          "type": "uint256"
        }
      ],
      "stateMutability": "view",
      "type": "function"
    },
    {
      "inputs": [
        {
          "internalType": "bytes32[]",
          "name": "saleConfigProof",
          "type": "bytes32[]"
        },
        {
          "internalType": "bytes32[]",
          "name": "whitelistProof",
          "type": "bytes32[]"
        },
        {
          "internalType": "uint256",
          "name": "numberOfMint",
          "type": "uint256"
        },
        {
          "internalType": "string",
          "name": "message",
          "type": "string"
        },
        {
          "internalType": "bytes",
          "name": "signature",
          "type": "bytes"
        },
        {
          "components": [
            {
              "internalType": "string",
              "name": "saleIdentifier",
              "type": "string"
            },
            {
              "internalType": "bool",
              "name": "enabled",
              "type": "bool"
            },
            {
              "internalType": "uint256",
              "name": "startTime",
              "type": "uint256"
            },
            {
              "internalType": "uint256",
              "name": "endTime",
              "type": "uint256"
            },
            {
              "internalType": "uint256",
              "name": "mintCharge",
              "type": "uint256"
            },
            {
              "internalType": "bytes32",
              "name": "whitelistRoot",
              "type": "bytes32"
            },
            {
              "internalType": "uint256",
              "name": "maxMintPerWallet",
              "type": "uint256"
            },
            {
              "internalType": "uint256",
              "name": "maxMintInSale",
              "type": "uint256"
            }
          ],
          "internalType": "struct Collection1155.SaleConfig",
          "name": "config",
          "type": "tuple"
        }
      ],
      "name": "mint",
      "outputs": [],
      "stateMutability": "payable",
      "type": "function"
    },
    {
      "inputs": [
        {
          "internalType": "string",
          "name": "",
          "type": "string"
        }
      ],
      "name": "mintCountByIdentifier",
      "outputs": [
        {
          "internalType": "uint256",
          "name": "",
          "type": "uint256"
        }
      ],
      "stateMutability": "view",
      "type": "function"
    },
    {
      "inputs": [],
      "name": "msgSigner",
      "outputs": [
        {
          "internalType": "address",
          "name": "",
          "type": "address"
        }
      ],
      "stateMutability": "view",
      "type": "function"
    },
    {
      "inputs": [],
      "name": "owner",
      "outputs": [
        {
          "internalType": "address",
          "name": "",
          "type": "address"
        }
      ],
      "stateMutability": "view",
      "type": "function"
    },
    {
      "inputs": [],
      "name": "renounceOwnership",
      "outputs": [],
      "stateMutability": "nonpayable",
      "type": "function"
    },
    {
      "inputs": [
        {
          "internalType": "address",
          "name": "from",
          "type": "address"
        },
        {
          "internalType": "address",
          "name": "to",
          "type": "address"
        },
        {
          "internalType": "uint256[]",
          "name": "ids",
          "type": "uint256[]"
        },
        {
          "internalType": "uint256[]",
          "name": "amounts",
          "type": "uint256[]"
        },
        {
          "internalType": "bytes",
          "name": "data",
          "type": "bytes"
        }
      ],
      "name": "safeBatchTransferFrom",
      "outputs": [],
      "stateMutability": "nonpayable",
      "type": "function"
    },
    {
      "inputs": [
        {
          "internalType": "address",
          "name": "from",
          "type": "address"
        },
        {
          "internalType": "address",
          "name": "to",
          "type": "address"
        },
        {
          "internalType": "uint256",
          "name": "id",
          "type": "uint256"
        },
        {
          "internalType": "uint256",
          "name": "amount",
          "type": "uint256"
        },
        {
          "internalType": "bytes",
          "name": "data",
          "type": "bytes"
        }
      ],
      "name": "safeTransferFrom",
      "outputs": [],
      "stateMutability": "nonpayable",
      "type": "function"
    },
    {
      "inputs": [],
      "name": "saleConfigsRoot",
      "outputs": [
        {
          "internalType": "bytes32",
          "name": "",
          "type": "bytes32"
        }
      ],
      "stateMutability": "view",
      "type": "function"
    },
    {
      "inputs": [
        {
          "internalType": "address",
          "name": "operator",
          "type": "address"
        },
        {
          "internalType": "bool",
          "name": "approved",
          "type": "bool"
        }
      ],
      "name": "setApprovalForAll",
      "outputs": [],
      "stateMutability": "nonpayable",
      "type": "function"
    },
    {
      "inputs": [
        {
          "internalType": "bytes4",
          "name": "interfaceId",
          "type": "bytes4"
        }
      ],
      "name": "supportsInterface",
      "outputs": [
        {
          "internalType": "bool",
          "name": "",
          "type": "bool"
        }
      ],
      "stateMutability": "view",
      "type": "function"
    },
    {
      "inputs": [
        {
          "internalType": "uint256",
          "name": "_tokenId",
          "type": "uint256"
        }
      ],
      "name": "tokenURI",
      "outputs": [
        {
          "internalType": "string",
          "name": "",
          "type": "string"
        }
      ],
      "stateMutability": "view",
      "type": "function"
    },
    {
      "inputs": [
        {
          "internalType": "address",
          "name": "newOwner",
          "type": "address"
        }
      ],
      "name": "transferOwnership",
      "outputs": [],
      "stateMutability": "nonpayable",
      "type": "function"
    },
    {
      "inputs": [
        {
          "internalType": "string",
          "name": "_baseURI",
          "type": "string"
        }
      ],
      "name": "updateBaseURI",
      "outputs": [],
      "stateMutability": "nonpayable",
      "type": "function"
    },
    {
      "inputs": [
        {
          "internalType": "address",
          "name": "_feeDestination",
          "type": "address"
        }
      ],
      "name": "updateFeeToAddress",
      "outputs": [],
      "stateMutability": "nonpayable",
      "type": "function"
    },
    {
      "inputs": [
        {
          "internalType": "uint256",
          "name": "_val",
          "type": "uint256"
        }
      ],
      "name": "updateMaxMintInTotalPerWallet",
      "outputs": [],
      "stateMutability": "nonpayable",
      "type": "function"
    },
    {
      "inputs": [
        {
          "internalType": "bytes32",
          "name": "_saleConfigRoot",
          "type": "bytes32"
        }
      ],
      "name": "updateSaleConfigRoot",
      "outputs": [],
      "stateMutability": "nonpayable",
      "type": "function"
    },
    {
      "inputs": [
        {
          "internalType": "uint256",
          "name": "",
          "type": "uint256"
        }
      ],
      "name": "uri",
      "outputs": [
        {
          "internalType": "string",
          "name": "",
          "type": "string"
        }
      ],
      "stateMutability": "view",
      "type": "function"
    }
  ],
  "bytecode": "0x608060405260006004553480156200001657600080fd5b50604051620033fc380380620033fc83398101604081905262000039916200028d565b856200004533620000ae565b6200005081620000fe565b50600580546001600160a01b038088166001600160a01b0319928316179092556006859055600b80549285169290911691909117905580516200009b90600c90602084019062000117565b505050600a91909155506200037e915050565b600080546001600160a01b038381166001600160a01b0319831681178455604051919092169283917f8be0079c531659141344cd1fd0a4f28419497f9722a3daafe3b4186f6b6457e09190a35050565b80516200011390600390602084019062000117565b5050565b82805462000125906200032b565b90600052602060002090601f01602090048101928262000149576000855562000194565b82601f106200016457805160ff191683800117855562000194565b8280016001018555821562000194579182015b828111156200019457825182559160200191906001019062000177565b50620001a2929150620001a6565b5090565b5b80821115620001a25760008155600101620001a7565b80516001600160a01b0381168114620001d557600080fd5b919050565b600082601f830112620001eb578081fd5b81516001600160401b038082111562000208576200020862000368565b604051601f8301601f19908116603f0116810190828211818310171562000233576200023362000368565b816040528381526020925086838588010111156200024f578485fd5b8491505b8382101562000272578582018301518183018401529082019062000253565b838211156200028357848385830101525b9695505050505050565b60008060008060008060c08789031215620002a6578182fd5b86516001600160401b0380821115620002bd578384fd5b620002cb8a838b01620001da565b9750620002db60208a01620001bd565b96506040890151955060608901519450620002f960808a01620001bd565b935060a08901519150808211156200030f578283fd5b506200031e89828a01620001da565b9150509295509295509295565b600181811c908216806200034057607f821691505b602082108114156200036257634e487b7160e01b600052602260045260246000fd5b50919050565b634e487b7160e01b600052604160045260246000fd5b61306e806200038e6000396000f3fe6080604052600436106101565760003560e01c8063931688cb116100bc578063931688cb146103625780639a953ea214610382578063a22cb46514610398578063ae5adfd2146103b8578063ba4cc74914610400578063c87b56dd14610438578063ca73e5e914610458578063d9c79c1c14610478578063de53fcd51461048b578063e8a3d485146104ab578063e985e9c5146104c0578063eaf3a58914610509578063f242432a1461051f578063f2fde38b1461053f57600080fd5b8062fdd58e1461015b578063018779c71461018e57806301ffc9a7146101d95780630e89341c146101f9578063210112f5146102265780632eb2c2d6146102485780634e1273f41461026857806361b5a2a2146102955780636c0360eb146102b5578063715018a6146102ca5780638028b285146102df57806380e7378314610317578063836998161461032d5780638da5cb5b1461034d575b600080fd5b34801561016757600080fd5b5061017b610176366004612696565b61055f565b6040519081526020015b60405180910390f35b34801561019a57600080fd5b506101c96101a93660046128ac565b805160208183018101805160078252928201919093012091525460ff1681565b6040519015158152602001610185565b3480156101e557600080fd5b506101c96101f4366004612874565b6105f8565b34801561020557600080fd5b5061021961021436600461285c565b61064a565b6040516101859190612c95565b34801561023257600080fd5b5061024661024136600461251a565b6106de565b005b34801561025457600080fd5b50610246610263366004612566565b61072f565b34801561027457600080fd5b506102886102833660046126bf565b6107c6565b6040516101859190612c54565b3480156102a157600080fd5b506102466102b036600461285c565b610927565b3480156102c157600080fd5b5061021961095b565b3480156102d657600080fd5b506102466109e9565b3480156102eb57600080fd5b50600b546102ff906001600160a01b031681565b6040516001600160a01b039091168152602001610185565b34801561032357600080fd5b5061017b60045481565b34801561033957600080fd5b5061024661034836600461285c565b610a24565b34801561035957600080fd5b506102ff610a58565b34801561036e57600080fd5b5061024661037d3660046128ac565b610a67565b34801561038e57600080fd5b5061017b600a5481565b3480156103a457600080fd5b506102466103b336600461266d565b610aad565b3480156103c457600080fd5b5061017b6103d33660046128de565b81516020818401810180516009825292820194820194909420919093529091526000908152604090205481565b34801561040c57600080fd5b5061017b61041b3660046128ac565b805160208183018101805160088252928201919093012091525481565b34801561044457600080fd5b5061021961045336600461285c565b610ab8565b34801561046457600080fd5b5061017b610473366004612920565b610af8565b610246610486366004612789565b610b6d565b34801561049757600080fd5b506005546102ff906001600160a01b031681565b3480156104b757600080fd5b50610219611203565b3480156104cc57600080fd5b506101c96104db366004612534565b6001600160a01b03918216600090815260026020908152604080832093909416825291909152205460ff1690565b34801561051557600080fd5b5061017b60065481565b34801561052b57600080fd5b5061024661053a36600461260b565b611241565b34801561054b57600080fd5b5061024661055a36600461251a565b6112c8565b60006001600160a01b0383166105d05760405162461bcd60e51b815260206004820152602b60248201527f455243313135353a2062616c616e636520717565727920666f7220746865207a60448201526a65726f206164647265737360a81b60648201526084015b60405180910390fd5b5060009081526001602090815260408083206001600160a01b03949094168352929052205490565b60006001600160e01b03198216636cdb3d1360e11b148061062957506001600160e01b031982166303a24d0760e21b145b8061064457506301ffc9a760e01b6001600160e01b03198316145b92915050565b60606003805461065990612ea9565b80601f016020809104026020016040519081016040528092919081815260200182805461068590612ea9565b80156106d25780601f106106a7576101008083540402835291602001916106d2565b820191906000526020600020905b8154815290600101906020018083116106b557829003601f168201915b50505050509050919050565b336106e7610a58565b6001600160a01b03161461070d5760405162461bcd60e51b81526004016105c790612d7f565b600580546001600160a01b0319166001600160a01b0392909216919091179055565b6001600160a01b03851633148061074b575061074b85336104db565b6107b25760405162461bcd60e51b815260206004820152603260248201527f455243313135353a207472616e736665722063616c6c6572206973206e6f74206044820152711bdddb995c881b9bdc88185c1c1c9bdd995960721b60648201526084016105c7565b6107bf8585858585611368565b5050505050565b6060815183511461082b5760405162461bcd60e51b815260206004820152602960248201527f455243313135353a206163636f756e747320616e6420696473206c656e677468604482015268040dad2e6dac2e8c6d60bb1b60648201526084016105c7565b600083516001600160401b0381111561085457634e487b7160e01b600052604160045260246000fd5b60405190808252806020026020018201604052801561087d578160200160208202803683370190505b50905060005b845181101561091f576108e48582815181106108af57634e487b7160e01b600052603260045260246000fd5b60200260200101518583815181106108d757634e487b7160e01b600052603260045260246000fd5b602002602001015161055f565b82828151811061090457634e487b7160e01b600052603260045260246000fd5b602090810291909101015261091881612f10565b9050610883565b509392505050565b33610930610a58565b6001600160a01b0316146109565760405162461bcd60e51b81526004016105c790612d7f565b600a55565b600c805461096890612ea9565b80601f016020809104026020016040519081016040528092919081815260200182805461099490612ea9565b80156109e15780601f106109b6576101008083540402835291602001916109e1565b820191906000526020600020905b8154815290600101906020018083116109c457829003601f168201915b505050505081565b336109f2610a58565b6001600160a01b031614610a185760405162461bcd60e51b81526004016105c790612d7f565b610a226000611564565b565b33610a2d610a58565b6001600160a01b031614610a535760405162461bcd60e51b81526004016105c790612d7f565b600655565b6000546001600160a01b031690565b33610a70610a58565b6001600160a01b031614610a965760405162461bcd60e51b81526004016105c790612d7f565b8051610aa990600c9060208401906122df565b5050565b610aa93383836115b4565b6060600c610ac7306014611695565b610ad04661187d565b604051602001610ae293929190612add565b6040516020818303038152906040529050919050565b80516020808301516040808501516060860151608087015160a088015160c089015160e08a01519551600099610b32999098979101612b62565b60408051601f19818403018152828252805160209182012090830152015b604051602081830303815290604052805190602001209050919050565b858585836004546006541415610bba5760405162461bcd60e51b8152602060048201526012602482015271139bc81cd85b194818dbdb999a59dd5c995960721b60448201526064016105c7565b610bcf84600654610bca84610af8565b61199e565b610c115760405162461bcd60e51b8152602060048201526013602482015272496e76616c69642053616c6520436f6e66696760681b60448201526064016105c7565b8060200151610c585760405162461bcd60e51b815260206004820152601360248201527214d85b19481a5cc81b9bdd08195b98589b1959606a1b60448201526064016105c7565b6040810151429015801590610c71575081604001518110155b610cb85760405162461bcd60e51b815260206004820152601860248201527714d85b19481a185cc81b9bdd081cdd185c9d1959081e595d60421b60448201526064016105c7565b816060015181111580610ccd57506060820151155b610d0a5760405162461bcd60e51b815260206004820152600e60248201526d14d85b19481a185cc8195b99195960921b60448201526064016105c7565b828260800151610d1a9190612e2c565b341015610d695760405162461bcd60e51b815260206004820152601f60248201527f4e6f7420656e6f756768206d696e74206368617267652070726f76696465640060448201526064016105c7565b8160e001518360088460000151604051610d839190612a50565b908152602001604051809103902054610d9c9190612e00565b1115610de35760405162461bcd60e51b81526020600482015260166024820152754d61782053616c65204c696d6974204578636565647360501b60448201526064016105c7565b8160c001518360098460000151604051610dfd9190612a50565b90815260408051602092819003830190203360009081529252902054610e239190612e00565b1115610e715760405162461bcd60e51b815260206004820181905260248201527f4d61784d696e7450657257616c6c657453616c654c696d69744578636565647360448201526064016105c7565b600a5415610ee057600a5483610e8833600061055f565b610e929190612e00565b1115610ee05760405162461bcd60e51b815260206004820152601e60248201527f4d6178546f74616c4d696e7457616c6c65744c696d697445786365656473000060448201526064016105c7565b6004548260a0015114610f6f5760a08201516040516001600160601b03193360601b166020820152610f2c9186916034016040516020818303038152906040528051906020012061199e565b610f6f5760405162461bcd60e51b8152602060048201526014602482015273155cd95c881b9bdd081dda1a5d195b1a5cdd195960621b60448201526064016105c7565b8787600781604051610f819190612a50565b9081526040519081900360200190205460ff1615610fde5760405162461bcd60e51b815260206004820152601a60248201527914da59db985d1d5c9948185b1c9958591e481c995919595b595960321b60448201526064016105c7565b600b546040516001600160a01b039091169061102990839061102390611008908790602001612a50565b604051602081830303815290604052805190602001206119b4565b906119ef565b6001600160a01b0316146110735760405162461bcd60e51b8152602060048201526011602482015270496e76616c6964205369676e617475726560781b60448201526064016105c7565b60008b116110ba5760405162461bcd60e51b815260206004820152601460248201527304e756d626572206f66206d696e747320697320360641b60448201526064016105c7565b6110d63360008d60405180602001604052806000815250611a0b565b8a600989600001516040516110eb9190612a50565b9081526040805160209281900383019020336000908152925281208054909190611116908490612e00565b909155505087516040518c9160089161112f9190612a50565b9081526020016040518091039020600082825461114c9190612e00565b92505081905550600160078a6040516111659190612a50565b908152604051908190036020018120805492151560ff19909316929092179091556005546001600160a01b0316903480156108fc02916000818181858888f193505050501580156111ba573d6000803e3d6000fd5b5060408051338152602081018d90527f0f6798a560793a54c3bcfe86a93cde1e73087d944c0ea20544137d4121396885910160405180910390a150505050505050505050505050565b6060600c611212306014611695565b61121b4661187d565b60405160200161122d93929190612a6c565b604051602081830303815290604052905090565b6001600160a01b03851633148061125d575061125d85336104db565b6112bb5760405162461bcd60e51b815260206004820152602960248201527f455243313135353a2063616c6c6572206973206e6f74206f776e6572206e6f7260448201526808185c1c1c9bdd995960ba1b60648201526084016105c7565b6107bf8585858585611b21565b336112d1610a58565b6001600160a01b0316146112f75760405162461bcd60e51b81526004016105c790612d7f565b6001600160a01b03811661135c5760405162461bcd60e51b815260206004820152602660248201527f4f776e61626c653a206e6577206f776e657220697320746865207a65726f206160448201526564647265737360d01b60648201526084016105c7565b61136581611564565b50565b81518351146113ca5760405162461bcd60e51b815260206004820152602860248201527f455243313135353a2069647320616e6420616d6f756e7473206c656e677468206044820152670dad2e6dac2e8c6d60c31b60648201526084016105c7565b6001600160a01b0384166113f05760405162461bcd60e51b81526004016105c790612cf0565b3360005b84518110156114f657600085828151811061141f57634e487b7160e01b600052603260045260246000fd5b60200260200101519050600085838151811061144b57634e487b7160e01b600052603260045260246000fd5b60209081029190910181015160008481526001835260408082206001600160a01b038e16835290935291909120549091508181101561149c5760405162461bcd60e51b81526004016105c790612d35565b60008381526001602090815260408083206001600160a01b038e8116855292528083208585039055908b168252812080548492906114db908490612e00565b92505081905550505050806114ef90612f10565b90506113f4565b50846001600160a01b0316866001600160a01b0316826001600160a01b03167f4a39dc06d4c0dbc64b70af90fd698a233a518aa5d07e595d983b8c0526c8f7fb8787604051611546929190612c67565b60405180910390a461155c818787878787611c4f565b505050505050565b600080546001600160a01b038381166001600160a01b0319831681178455604051919092169283917f8be0079c531659141344cd1fd0a4f28419497f9722a3daafe3b4186f6b6457e09190a35050565b816001600160a01b0316836001600160a01b031614156116285760405162461bcd60e51b815260206004820152602960248201527f455243313135353a2073657474696e6720617070726f76616c20737461747573604482015268103337b91039b2b63360b91b60648201526084016105c7565b6001600160a01b03838116600081815260026020908152604080832094871680845294825291829020805460ff191686151590811790915591519182527f17307eab39ab6107e8899845ad3d59bd9653f200f220920489ca2b5937696c31910160405180910390a3505050565b606060006116a4836002612e2c565b6116af906002612e00565b6001600160401b038111156116d457634e487b7160e01b600052604160045260246000fd5b6040519080825280601f01601f1916602001820160405280156116fe576020820181803683370190505b509050600360fc1b8160008151811061172757634e487b7160e01b600052603260045260246000fd5b60200101906001600160f81b031916908160001a905350600f60fb1b8160018151811061176457634e487b7160e01b600052603260045260246000fd5b60200101906001600160f81b031916908160001a9053506000611788846002612e2c565b611793906001612e00565b90505b6001811115611827576f181899199a1a9b1b9c1cb0b131b232b360811b85600f16601081106117d557634e487b7160e01b600052603260045260246000fd5b1a60f81b8282815181106117f957634e487b7160e01b600052603260045260246000fd5b60200101906001600160f81b031916908160001a90535060049490941c9361182081612e92565b9050611796565b5083156118765760405162461bcd60e51b815260206004820181905260248201527f537472696e67733a20686578206c656e67746820696e73756666696369656e7460448201526064016105c7565b9392505050565b6060816118a15750506040805180820190915260018152600360fc1b602082015290565b8160005b81156118cb57806118b581612f10565b91506118c49050600a83612e18565b91506118a5565b6000816001600160401b038111156118f357634e487b7160e01b600052604160045260246000fd5b6040519080825280601f01601f19166020018201604052801561191d576020820181803683370190505b5090505b841561199657611932600183612e4b565b915061193f600a86612f2b565b61194a906030612e00565b60f81b81838151811061196d57634e487b7160e01b600052603260045260246000fd5b60200101906001600160f81b031916908160001a90535061198f600a86612e18565b9450611921565b949350505050565b6000826119ab8584611dba565b14949350505050565b6040517f19457468657265756d205369676e6564204d6573736167653a0a3332000000006020820152603c8101829052600090605c01610b50565b60008060006119fe8585611e34565b9150915061091f81611ea4565b6001600160a01b038416611a6b5760405162461bcd60e51b815260206004820152602160248201527f455243313135353a206d696e7420746f20746865207a65726f206164647265736044820152607360f81b60648201526084016105c7565b336000611a77856120a0565b90506000611a84856120a0565b905060008681526001602090815260408083206001600160a01b038b16845290915281208054879290611ab8908490612e00565b909155505060408051878152602081018790526001600160a01b03808a1692600092918716917fc3d58168c5ae7397731d063d5bbf3d657854427343f4c083240f7aacaa2d0f62910160405180910390a4611b18836000898989896120f9565b50505050505050565b6001600160a01b038416611b475760405162461bcd60e51b81526004016105c790612cf0565b336000611b53856120a0565b90506000611b60856120a0565b905060008681526001602090815260408083206001600160a01b038c16845290915290205485811015611ba55760405162461bcd60e51b81526004016105c790612d35565b60008781526001602090815260408083206001600160a01b038d8116855292528083208985039055908a16825281208054889290611be4908490612e00565b909155505060408051888152602081018890526001600160a01b03808b16928c821692918816917fc3d58168c5ae7397731d063d5bbf3d657854427343f4c083240f7aacaa2d0f62910160405180910390a4611c44848a8a8a8a8a6120f9565b505050505050505050565b6001600160a01b0384163b1561155c5760405163bc197c8160e01b81526001600160a01b0385169063bc197c8190611c939089908990889088908890600401612bb1565b602060405180830381600087803b158015611cad57600080fd5b505af1925050508015611cdd575060408051601f3d908101601f19168201909252611cda91810190612890565b60015b611d8a57611ce9612f81565b806308c379a01415611d235750611cfe612f99565b80611d095750611d25565b8060405162461bcd60e51b81526004016105c79190612c95565b505b60405162461bcd60e51b815260206004820152603460248201527f455243313135353a207472616e7366657220746f206e6f6e20455243313135356044820152732932b1b2b4bb32b91034b6b83632b6b2b73a32b960611b60648201526084016105c7565b6001600160e01b0319811663bc197c8160e01b14611b185760405162461bcd60e51b81526004016105c790612ca8565b600081815b845181101561091f576000858281518110611dea57634e487b7160e01b600052603260045260246000fd5b60200260200101519050808311611e105760008381526020829052604090209250611e21565b600081815260208490526040902092505b5080611e2c81612f10565b915050611dbf565b600080825160411415611e6b5760208301516040840151606085015160001a611e5f878285856121c3565b94509450505050611e9d565b825160401415611e955760208301516040840151611e8a8683836122a6565b935093505050611e9d565b506000905060025b9250929050565b6000816004811115611ec657634e487b7160e01b600052602160045260246000fd5b1415611ecf5750565b6001816004811115611ef157634e487b7160e01b600052602160045260246000fd5b1415611f3a5760405162461bcd60e51b815260206004820152601860248201527745434453413a20696e76616c6964207369676e617475726560401b60448201526064016105c7565b6002816004811115611f5c57634e487b7160e01b600052602160045260246000fd5b1415611faa5760405162461bcd60e51b815260206004820152601f60248201527f45434453413a20696e76616c6964207369676e6174757265206c656e6774680060448201526064016105c7565b6003816004811115611fcc57634e487b7160e01b600052602160045260246000fd5b14156120255760405162461bcd60e51b815260206004820152602260248201527f45434453413a20696e76616c6964207369676e6174757265202773272076616c604482015261756560f01b60648201526084016105c7565b600481600481111561204757634e487b7160e01b600052602160045260246000fd5b14156113655760405162461bcd60e51b815260206004820152602260248201527f45434453413a20696e76616c6964207369676e6174757265202776272076616c604482015261756560f01b60648201526084016105c7565b604080516001808252818301909252606091600091906020808301908036833701905050905082816000815181106120e857634e487b7160e01b600052603260045260246000fd5b602090810291909101015292915050565b6001600160a01b0384163b1561155c5760405163f23a6e6160e01b81526001600160a01b0385169063f23a6e619061213d9089908990889088908890600401612c0f565b602060405180830381600087803b15801561215757600080fd5b505af1925050508015612187575060408051601f3d908101601f1916820190925261218491810190612890565b60015b61219357611ce9612f81565b6001600160e01b0319811663f23a6e6160e01b14611b185760405162461bcd60e51b81526004016105c790612ca8565b6000806fa2a8918ca85bafe22016d0b997e4df60600160ff1b038311156121f0575060009050600361229d565b8460ff16601b1415801561220857508460ff16601c14155b15612219575060009050600461229d565b6040805160008082526020820180845289905260ff881692820192909252606081018690526080810185905260019060a0016020604051602081039080840390855afa15801561226d573d6000803e3d6000fd5b5050604051601f1901519150506001600160a01b0381166122965760006001925092505061229d565b9150600090505b94509492505050565b6000806001600160ff1b038316816122c360ff86901c601b612e00565b90506122d1878288856121c3565b935093505050935093915050565b8280546122eb90612ea9565b90600052602060002090601f01602090048101928261230d5760008555612353565b82601f1061232657805160ff1916838001178555612353565b82800160010185558215612353579182015b82811115612353578251825591602001919060010190612338565b5061235f929150612363565b5090565b5b8082111561235f5760008155600101612364565b80356001600160a01b038116811461238f57600080fd5b919050565b600082601f8301126123a4578081fd5b813560206123b182612ddd565b6040516123be8282612ee4565b8381528281019150858301600585901b870184018810156123dd578586fd5b855b858110156123fb578135845292840192908401906001016123df565b5090979650505050505050565b8035801515811461238f57600080fd5b600082601f830112612428578081fd5b81356001600160401b0381111561244157612441612f6b565b604051612458601f8301601f191660200182612ee4565b81815284602083860101111561246c578283fd5b816020850160208301379081016020019190915292915050565b60006101008284031215612498578081fd5b6124a0612db4565b905081356001600160401b038111156124b857600080fd5b6124c484828501612418565b8252506124d360208301612408565b602082015260408201356040820152606082013560608201526080820135608082015260a082013560a082015260c082013560c082015260e082013560e082015292915050565b60006020828403121561252b578081fd5b61187682612378565b60008060408385031215612546578081fd5b61254f83612378565b915061255d60208401612378565b90509250929050565b600080600080600060a0868803121561257d578081fd5b61258686612378565b945061259460208701612378565b935060408601356001600160401b03808211156125af578283fd5b6125bb89838a01612394565b945060608801359150808211156125d0578283fd5b6125dc89838a01612394565b935060808801359150808211156125f1578283fd5b506125fe88828901612418565b9150509295509295909350565b600080600080600060a08688031215612622578081fd5b61262b86612378565b945061263960208701612378565b9350604086013592506060860135915060808601356001600160401b03811115612661578182fd5b6125fe88828901612418565b6000806040838503121561267f578182fd5b61268883612378565b915061255d60208401612408565b600080604083850312156126a8578182fd5b6126b183612378565b946020939093013593505050565b600080604083850312156126d1578182fd5b82356001600160401b03808211156126e7578384fd5b818501915085601f8301126126fa578384fd5b8135602061270782612ddd565b6040516127148282612ee4565b8381528281019150858301600585901b870184018b1015612733578889fd5b8896505b8487101561275c5761274881612378565b835260019690960195918301918301612737565b5096505086013592505080821115612772578283fd5b5061277f85828601612394565b9150509250929050565b60008060008060008060c087890312156127a1578384fd5b86356001600160401b03808211156127b7578586fd5b6127c38a838b01612394565b975060208901359150808211156127d8578586fd5b6127e48a838b01612394565b9650604089013595506060890135915080821115612800578283fd5b61280c8a838b01612418565b94506080890135915080821115612821578283fd5b61282d8a838b01612418565b935060a0890135915080821115612842578283fd5b5061284f89828a01612486565b9150509295509295509295565b60006020828403121561286d578081fd5b5035919050565b600060208284031215612885578081fd5b813561187681613022565b6000602082840312156128a1578081fd5b815161187681613022565b6000602082840312156128bd578081fd5b81356001600160401b038111156128d2578182fd5b61199684828501612418565b600080604083850312156128f0578182fd5b82356001600160401b03811115612905578283fd5b61291185828601612418565b92505061255d60208401612378565b600060208284031215612931578081fd5b81356001600160401b03811115612946578182fd5b61199684828501612486565b6000815180845260208085019450808401835b8381101561298157815187529582019590820190600101612965565b509495945050505050565b600081518084526129a4816020860160208601612e62565b601f01601f19169290920160200192915050565b8054600090600181811c90808316806129d257607f831692505b60208084108214156129f257634e487b7160e01b86526022600452602486fd5b818015612a065760018114612a1757612a44565b60ff19861689528489019650612a44565b60008881526020902060005b86811015612a3c5781548b820152908501908301612a23565b505084890196505b50505050505092915050565b60008251612a62818460208701612e62565b9190910192915050565b6000612a7882866129b8565b74636f6e74726163742d7572693f616464726573733d60581b81528451612aa6816015840160208901612e62565b68266e6574776f726b3d60b81b601592909101918201528351612ad081601e840160208801612e62565b01601e0195945050505050565b6000612ae982866129b8565b71746f6b656e2d7572693f616464726573733d60701b81528451612b14816012840160208901612e62565b68266e6574776f726b3d60b81b601292909101918201528351612b3e81601b840160208801612e62565b69026746f6b656e49643d360b41b601b929091019182015260250195945050505050565b60008951612b74818460208e01612e62565b98151560f81b919098019081526001810196909652602186019490945260418501929092526061840152608183015260a182015260c10192915050565b6001600160a01b0386811682528516602082015260a060408201819052600090612bdd90830186612952565b8281036060840152612bef8186612952565b90508281036080840152612c03818561298c565b98975050505050505050565b6001600160a01b03868116825285166020820152604081018490526060810183905260a060808201819052600090612c499083018461298c565b979650505050505050565b6020815260006118766020830184612952565b604081526000612c7a6040830185612952565b8281036020840152612c8c8185612952565b95945050505050565b602081526000611876602083018461298c565b60208082526028908201527f455243313135353a204552433131353552656365697665722072656a656374656040820152676420746f6b656e7360c01b606082015260800190565b60208082526025908201527f455243313135353a207472616e7366657220746f20746865207a65726f206164604082015264647265737360d81b606082015260800190565b6020808252602a908201527f455243313135353a20696e73756666696369656e742062616c616e636520666f60408201526939103a3930b739b332b960b11b606082015260800190565b6020808252818101527f4f776e61626c653a2063616c6c6572206973206e6f7420746865206f776e6572604082015260600190565b60405161010081016001600160401b0381118282101715612dd757612dd7612f6b565b60405290565b60006001600160401b03821115612df657612df6612f6b565b5060051b60200190565b60008219821115612e1357612e13612f3f565b500190565b600082612e2757612e27612f55565b500490565b6000816000190483118215151615612e4657612e46612f3f565b500290565b600082821015612e5d57612e5d612f3f565b500390565b60005b83811015612e7d578181015183820152602001612e65565b83811115612e8c576000848401525b50505050565b600081612ea157612ea1612f3f565b506000190190565b600181811c90821680612ebd57607f821691505b60208210811415612ede57634e487b7160e01b600052602260045260246000fd5b50919050565b601f8201601f191681016001600160401b0381118282101715612f0957612f09612f6b565b6040525050565b6000600019821415612f2457612f24612f3f565b5060010190565b600082612f3a57612f3a612f55565b500690565b634e487b7160e01b600052601160045260246000fd5b634e487b7160e01b600052601260045260246000fd5b634e487b7160e01b600052604160045260246000fd5b600060033d1115612f9657600481823e5160e01c5b90565b600060443d1015612fa75790565b6040516003193d81016004833e81513d6001600160401b038160248401118184111715612fd657505050505090565b8285019150815181811115612fee5750505050505090565b843d87010160208285010111156130085750505050505090565b61301760208286010187612ee4565b509095945050505050565b6001600160e01b03198116811461136557600080fdfea2646970667358221220a633ac872f2be6304f1a889377218fcd3970ab0ebc8ec4539c1b261b5db6716864736f6c63430008040033",
  "linkReferences": {},
  "deployedLinkReferences": {}
}