{
  "_format": "hh-sol-artifact-1",
  "contractName": "Collection1155",
  "sourceName": "contracts/hydro/hydro-main/Collection1155.sol",
  "abi": [
    {
      "inputs": [
        {
          "internalType": "string",
          "name": "_name",
          "type": "string"
        },
        {
          "internalType": "address",
          "name": "_feeDestination",
          "type": "address"
        },
        {
          "internalType": "uint256",
          "name": "_maxMintInTotalPerWallet",
          "type": "uint256"
        },
        {
          "internalType": "bytes32",
          "name": "_saleConfigRoot",
          "type": "bytes32"
        },
        {
          "internalType": "address",
          "name": "_msgSigner",
          "type": "address"
        },
        {
          "internalType": "string",
          "name": "_baseURI",
          "type": "string"
        },
        {
          "internalType": "uint256",
          "name": "_revealTime",
          "type": "uint256"
        }
      ],
      "stateMutability": "nonpayable",
      "type": "constructor"
    },
    {
      "inputs": [
        {
          "internalType": "address",
          "name": "operator",
          "type": "address"
        }
      ],
      "name": "OperatorNotAllowed",
      "type": "error"
    },
    {
      "anonymous": false,
      "inputs": [
        {
          "indexed": true,
          "internalType": "address",
          "name": "account",
          "type": "address"
        },
        {
          "indexed": true,
          "internalType": "address",
          "name": "operator",
          "type": "address"
        },
        {
          "indexed": false,
          "internalType": "bool",
          "name": "approved",
          "type": "bool"
        }
      ],
      "name": "ApprovalForAll",
      "type": "event"
    },
    {
      "anonymous": false,
      "inputs": [
        {
          "indexed": false,
          "internalType": "address",
          "name": "msgSender",
          "type": "address"
        },
        {
          "indexed": false,
          "internalType": "uint256",
          "name": "numberOfMint",
          "type": "uint256"
        }
      ],
      "name": "Mint",
      "type": "event"
    },
    {
      "anonymous": false,
      "inputs": [
        {
          "indexed": true,
          "internalType": "address",
          "name": "previousOwner",
          "type": "address"
        },
        {
          "indexed": true,
          "internalType": "address",
          "name": "newOwner",
          "type": "address"
        }
      ],
      "name": "OwnershipTransferred",
      "type": "event"
    },
    {
      "anonymous": false,
      "inputs": [
        {
          "indexed": true,
          "internalType": "address",
          "name": "operator",
          "type": "address"
        },
        {
          "indexed": true,
          "internalType": "address",
          "name": "from",
          "type": "address"
        },
        {
          "indexed": true,
          "internalType": "address",
          "name": "to",
          "type": "address"
        },
        {
          "indexed": false,
          "internalType": "uint256[]",
          "name": "ids",
          "type": "uint256[]"
        },
        {
          "indexed": false,
          "internalType": "uint256[]",
          "name": "values",
          "type": "uint256[]"
        }
      ],
      "name": "TransferBatch",
      "type": "event"
    },
    {
      "anonymous": false,
      "inputs": [
        {
          "indexed": true,
          "internalType": "address",
          "name": "operator",
          "type": "address"
        },
        {
          "indexed": true,
          "internalType": "address",
          "name": "from",
          "type": "address"
        },
        {
          "indexed": true,
          "internalType": "address",
          "name": "to",
          "type": "address"
        },
        {
          "indexed": false,
          "internalType": "uint256",
          "name": "id",
          "type": "uint256"
        },
        {
          "indexed": false,
          "internalType": "uint256",
          "name": "value",
          "type": "uint256"
        }
      ],
      "name": "TransferSingle",
      "type": "event"
    },
    {
      "anonymous": false,
      "inputs": [
        {
          "indexed": false,
          "internalType": "string",
          "name": "value",
          "type": "string"
        },
        {
          "indexed": true,
          "internalType": "uint256",
          "name": "id",
          "type": "uint256"
        }
      ],
      "name": "URI",
      "type": "event"
    },
    {
      "inputs": [
        {
          "internalType": "string",
          "name": "",
          "type": "string"
        },
        {
          "internalType": "address",
          "name": "",
          "type": "address"
        }
      ],
      "name": "balanceByIdentifier",
      "outputs": [
        {
          "internalType": "uint256",
          "name": "",
          "type": "uint256"
        }
      ],
      "stateMutability": "view",
      "type": "function"
    },
    {
      "inputs": [
        {
          "internalType": "address",
          "name": "account",
          "type": "address"
        },
        {
          "internalType": "uint256",
          "name": "id",
          "type": "uint256"
        }
      ],
      "name": "balanceOf",
      "outputs": [
        {
          "internalType": "uint256",
          "name": "",
          "type": "uint256"
        }
      ],
      "stateMutability": "view",
      "type": "function"
    },
    {
      "inputs": [
        {
          "internalType": "address[]",
          "name": "accounts",
          "type": "address[]"
        },
        {
          "internalType": "uint256[]",
          "name": "ids",
          "type": "uint256[]"
        }
      ],
      "name": "balanceOfBatch",
      "outputs": [
        {
          "internalType": "uint256[]",
          "name": "",
          "type": "uint256[]"
        }
      ],
      "stateMutability": "view",
      "type": "function"
    },
    {
      "inputs": [],
      "name": "baseURI",
      "outputs": [
        {
          "internalType": "string",
          "name": "",
          "type": "string"
        }
      ],
      "stateMutability": "view",
      "type": "function"
    },
    {
      "inputs": [],
      "name": "contractURI",
      "outputs": [
        {
          "internalType": "string",
          "name": "",
          "type": "string"
        }
      ],
      "stateMutability": "view",
      "type": "function"
    },
    {
      "inputs": [],
      "name": "emptyRoot",
      "outputs": [
        {
          "internalType": "bytes32",
          "name": "",
          "type": "bytes32"
        }
      ],
      "stateMutability": "view",
      "type": "function"
    },
    {
      "inputs": [],
      "name": "feeDestination",
      "outputs": [
        {
          "internalType": "address",
          "name": "",
          "type": "address"
        }
      ],
      "stateMutability": "view",
      "type": "function"
    },
    {
      "inputs": [
        {
          "components": [
            {
              "internalType": "string",
              "name": "saleIdentifier",
              "type": "string"
            },
            {
              "internalType": "bool",
              "name": "enabled",
              "type": "bool"
            },
            {
              "internalType": "uint256",
              "name": "startTime",
              "type": "uint256"
            },
            {
              "internalType": "uint256",
              "name": "endTime",
              "type": "uint256"
            },
            {
              "internalType": "uint256",
              "name": "mintCharge",
              "type": "uint256"
            },
            {
              "internalType": "bytes32",
              "name": "whitelistRoot",
              "type": "bytes32"
            },
            {
              "internalType": "uint256",
              "name": "maxMintPerWallet",
              "type": "uint256"
            },
            {
              "internalType": "uint256",
              "name": "maxMintInSale",
              "type": "uint256"
            }
          ],
          "internalType": "struct Collection1155.SaleConfig",
          "name": "config",
          "type": "tuple"
        }
      ],
      "name": "getSaleConfigLeaf",
      "outputs": [
        {
          "internalType": "bytes32",
          "name": "",
          "type": "bytes32"
        }
      ],
      "stateMutability": "pure",
      "type": "function"
    },
    {
      "inputs": [
        {
          "internalType": "address",
          "name": "account",
          "type": "address"
        },
        {
          "internalType": "address",
          "name": "operator",
          "type": "address"
        }
      ],
      "name": "isApprovedForAll",
      "outputs": [
        {
          "internalType": "bool",
          "name": "",
          "type": "bool"
        }
      ],
      "stateMutability": "view",
      "type": "function"
    },
    {
      "inputs": [
        {
          "internalType": "bytes",
          "name": "",
          "type": "bytes"
        }
      ],
      "name": "isSignatureRedeemed",
      "outputs": [
        {
          "internalType": "bool",
          "name": "",
          "type": "bool"
        }
      ],
      "stateMutability": "view",
      "type": "function"
    },
    {
      "inputs": [],
      "name": "maxMintInTotalPerWallet",
      "outputs": [
        {
          "internalType": "uint256",
          "name": "",
          "type": "uint256"
        }
      ],
      "stateMutability": "view",
      "type": "function"
    },
    {
      "inputs": [
        {
          "internalType": "bytes32[]",
          "name": "saleConfigProof",
          "type": "bytes32[]"
        },
        {
          "internalType": "bytes32[]",
          "name": "whitelistProof",
          "type": "bytes32[]"
        },
        {
          "internalType": "uint256",
          "name": "numberOfMint",
          "type": "uint256"
        },
        {
          "internalType": "string",
          "name": "message",
          "type": "string"
        },
        {
          "internalType": "bytes",
          "name": "signature",
          "type": "bytes"
        },
        {
          "components": [
            {
              "internalType": "string",
              "name": "saleIdentifier",
              "type": "string"
            },
            {
              "internalType": "bool",
              "name": "enabled",
              "type": "bool"
            },
            {
              "internalType": "uint256",
              "name": "startTime",
              "type": "uint256"
            },
            {
              "internalType": "uint256",
              "name": "endTime",
              "type": "uint256"
            },
            {
              "internalType": "uint256",
              "name": "mintCharge",
              "type": "uint256"
            },
            {
              "internalType": "bytes32",
              "name": "whitelistRoot",
              "type": "bytes32"
            },
            {
              "internalType": "uint256",
              "name": "maxMintPerWallet",
              "type": "uint256"
            },
            {
              "internalType": "uint256",
              "name": "maxMintInSale",
              "type": "uint256"
            }
          ],
          "internalType": "struct Collection1155.SaleConfig",
          "name": "config",
          "type": "tuple"
        }
      ],
      "name": "mint",
      "outputs": [],
      "stateMutability": "payable",
      "type": "function"
    },
    {
      "inputs": [
        {
          "internalType": "string",
          "name": "",
          "type": "string"
        }
      ],
      "name": "mintCountByIdentifier",
      "outputs": [
        {
          "internalType": "uint256",
          "name": "",
          "type": "uint256"
        }
      ],
      "stateMutability": "view",
      "type": "function"
    },
    {
      "inputs": [],
      "name": "msgSigner",
      "outputs": [
        {
          "internalType": "address",
          "name": "",
          "type": "address"
        }
      ],
      "stateMutability": "view",
      "type": "function"
    },
    {
      "inputs": [],
      "name": "owner",
      "outputs": [
        {
          "internalType": "address",
          "name": "",
          "type": "address"
        }
      ],
      "stateMutability": "view",
      "type": "function"
    },
    {
      "inputs": [],
      "name": "renounceOwnership",
      "outputs": [],
      "stateMutability": "nonpayable",
      "type": "function"
    },
    {
      "inputs": [],
      "name": "revealTime",
      "outputs": [
        {
          "internalType": "uint256",
          "name": "",
          "type": "uint256"
        }
      ],
      "stateMutability": "view",
      "type": "function"
    },
    {
      "inputs": [
        {
          "internalType": "address",
          "name": "from",
          "type": "address"
        },
        {
          "internalType": "address",
          "name": "to",
          "type": "address"
        },
        {
          "internalType": "uint256[]",
          "name": "ids",
          "type": "uint256[]"
        },
        {
          "internalType": "uint256[]",
          "name": "amounts",
          "type": "uint256[]"
        },
        {
          "internalType": "bytes",
          "name": "data",
          "type": "bytes"
        }
      ],
      "name": "safeBatchTransferFrom",
      "outputs": [],
      "stateMutability": "nonpayable",
      "type": "function"
    },
    {
      "inputs": [
        {
          "internalType": "address",
          "name": "from",
          "type": "address"
        },
        {
          "internalType": "address",
          "name": "to",
          "type": "address"
        },
        {
          "internalType": "uint256",
          "name": "id",
          "type": "uint256"
        },
        {
          "internalType": "uint256",
          "name": "amount",
          "type": "uint256"
        },
        {
          "internalType": "bytes",
          "name": "data",
          "type": "bytes"
        }
      ],
      "name": "safeTransferFrom",
      "outputs": [],
      "stateMutability": "nonpayable",
      "type": "function"
    },
    {
      "inputs": [],
      "name": "saleConfigsRoot",
      "outputs": [
        {
          "internalType": "bytes32",
          "name": "",
          "type": "bytes32"
        }
      ],
      "stateMutability": "view",
      "type": "function"
    },
    {
      "inputs": [
        {
          "internalType": "address",
          "name": "operator",
          "type": "address"
        },
        {
          "internalType": "bool",
          "name": "approved",
          "type": "bool"
        }
      ],
      "name": "setApprovalForAll",
      "outputs": [],
      "stateMutability": "nonpayable",
      "type": "function"
    },
    {
      "inputs": [
        {
          "internalType": "bytes4",
          "name": "interfaceId",
          "type": "bytes4"
        }
      ],
      "name": "supportsInterface",
      "outputs": [
        {
          "internalType": "bool",
          "name": "",
          "type": "bool"
        }
      ],
      "stateMutability": "view",
      "type": "function"
    },
    {
      "inputs": [
        {
          "internalType": "uint256",
          "name": "_tokenId",
          "type": "uint256"
        }
      ],
      "name": "tokenURI",
      "outputs": [
        {
          "internalType": "string",
          "name": "",
          "type": "string"
        }
      ],
      "stateMutability": "view",
      "type": "function"
    },
    {
      "inputs": [
        {
          "internalType": "address",
          "name": "newOwner",
          "type": "address"
        }
      ],
      "name": "transferOwnership",
      "outputs": [],
      "stateMutability": "nonpayable",
      "type": "function"
    },
    {
      "inputs": [
        {
          "internalType": "string",
          "name": "_baseURI",
          "type": "string"
        }
      ],
      "name": "updateBaseURI",
      "outputs": [],
      "stateMutability": "nonpayable",
      "type": "function"
    },
    {
      "inputs": [
        {
          "internalType": "address",
          "name": "_feeDestination",
          "type": "address"
        }
      ],
      "name": "updateFeeToAddress",
      "outputs": [],
      "stateMutability": "nonpayable",
      "type": "function"
    },
    {
      "inputs": [
        {
          "internalType": "uint256",
          "name": "_val",
          "type": "uint256"
        }
      ],
      "name": "updateMaxMintInTotalPerWallet",
      "outputs": [],
      "stateMutability": "nonpayable",
      "type": "function"
    },
    {
      "inputs": [
        {
          "internalType": "uint256",
          "name": "_revealTime",
          "type": "uint256"
        }
      ],
      "name": "updateRevealTime",
      "outputs": [],
      "stateMutability": "nonpayable",
      "type": "function"
    },
    {
      "inputs": [
        {
          "internalType": "bytes32",
          "name": "_saleConfigRoot",
          "type": "bytes32"
        }
      ],
      "name": "updateSaleConfigRoot",
      "outputs": [],
      "stateMutability": "nonpayable",
      "type": "function"
    },
    {
      "inputs": [
        {
          "internalType": "uint256",
          "name": "",
          "type": "uint256"
        }
      ],
      "name": "uri",
      "outputs": [
        {
          "internalType": "string",
          "name": "",
          "type": "string"
        }
      ],
      "stateMutability": "view",
      "type": "function"
    }
  ],
  "bytecode": "0x608060405260006004553480156200001657600080fd5b506040516200362a3803806200362a833981016040819052620000399162000408565b733cc6cdda760b79bafa08df41ecfa224f810dceb66001886200005c336200020f565b62000067816200025f565b506daaeb6d7670e522a718067333cd4e3b15620001ad578015620000fb57604051633e9f1edf60e11b81523060048201526001600160a01b03831660248201526daaeb6d7670e522a718067333cd4e90637d3e3dbe906044015b600060405180830381600087803b158015620000dc57600080fd5b505af1158015620000f1573d6000803e3d6000fd5b50505050620001ad565b6001600160a01b038216156200014c5760405163a0af290360e01b81523060048201526001600160a01b03831660248201526daaeb6d7670e522a718067333cd4e9063a0af290390604401620000c1565b604051632210724360e11b81523060048201526daaeb6d7670e522a718067333cd4e90634420e48690602401600060405180830381600087803b1580156200019357600080fd5b505af1158015620001a8573d6000803e3d6000fd5b505050505b5050600580546001600160a01b038089166001600160a01b0319928316179092556006869055600b8054928616929091169190911790558151620001f990600c90602085019062000278565b50600a94909455505050600d5550620004f09050565b600080546001600160a01b038381166001600160a01b0319831681178455604051919092169283917f8be0079c531659141344cd1fd0a4f28419497f9722a3daafe3b4186f6b6457e09190a35050565b80516200027490600390602084019062000278565b5050565b8280546200028690620004b4565b90600052602060002090601f016020900481019282620002aa5760008555620002f5565b82601f10620002c557805160ff1916838001178555620002f5565b82800160010185558215620002f5579182015b82811115620002f5578251825591602001919060010190620002d8565b506200030392915062000307565b5090565b5b8082111562000303576000815560010162000308565b634e487b7160e01b600052604160045260246000fd5b600082601f8301126200034657600080fd5b81516001600160401b03808211156200036357620003636200031e565b604051601f8301601f19908116603f011681019082821181831017156200038e576200038e6200031e565b81604052838152602092508683858801011115620003ab57600080fd5b600091505b83821015620003cf5785820183015181830184015290820190620003b0565b83821115620003e15760008385830101525b9695505050505050565b80516001600160a01b03811681146200040357600080fd5b919050565b600080600080600080600060e0888a0312156200042457600080fd5b87516001600160401b03808211156200043c57600080fd5b6200044a8b838c0162000334565b98506200045a60208b01620003eb565b975060408a0151965060608a015195506200047860808b01620003eb565b945060a08a01519150808211156200048f57600080fd5b506200049e8a828b0162000334565b92505060c0880151905092959891949750929550565b600181811c90821680620004c957607f821691505b602082108103620004ea57634e487b7160e01b600052602260045260246000fd5b50919050565b61312a80620005006000396000f3fe60806040526004361061016c5760003560e01c80639a953ea2116100c75780639a953ea214610396578063a22cb465146103ac578063ae5adfd2146103cc578063ba4cc74914610414578063ba829d711461044c578063c87b56dd14610462578063ca73e5e914610482578063d9c79c1c146104a2578063dc9f75f7146104b5578063de53fcd5146104d5578063e8a3d485146104f5578063e985e9c51461050a578063eaf3a58914610553578063f242432a14610569578063f2fde38b1461058957600080fd5b8062fdd58e14610171578063018779c7146101a457806301ffc9a7146101ef5780630e89341c1461020f578063210112f51461023c5780632eb2c2d61461025e5780634e1273f41461027e57806361b5a2a2146102ab5780636c0360eb146102cb578063715018a6146102e05780638028b285146102f557806380e737831461032257806383699816146103385780638da5cb5b14610358578063931688cb14610376575b600080fd5b34801561017d57600080fd5b5061019161018c366004612315565b6105a9565b6040519081526020015b60405180910390f35b3480156101b057600080fd5b506101df6101bf36600461241d565b805160208183018101805160078252928201919093012091525460ff1681565b604051901515815260200161019b565b3480156101fb57600080fd5b506101df61020a366004612467565b610641565b34801561021b57600080fd5b5061022f61022a366004612484565b610693565b60405161019b91906124f9565b34801561024857600080fd5b5061025c61025736600461250c565b610727565b005b34801561026a57600080fd5b5061025c6102793660046125bb565b610751565b34801561028a57600080fd5b5061029e610299366004612664565b61080f565b60405161019b9190612769565b3480156102b757600080fd5b5061025c6102c6366004612484565b610938565b3480156102d757600080fd5b5061022f610945565b3480156102ec57600080fd5b5061025c6109d3565b34801561030157600080fd5b50600b54610315906001600160a01b031681565b60405161019b919061277c565b34801561032e57600080fd5b5061019160045481565b34801561034457600080fd5b5061025c610353366004612484565b6109e7565b34801561036457600080fd5b506000546001600160a01b0316610315565b34801561038257600080fd5b5061025c61039136600461241d565b6109f4565b3480156103a257600080fd5b50610191600a5481565b3480156103b857600080fd5b5061025c6103c73660046127a9565b610a13565b3480156103d857600080fd5b506101916103e73660046127e0565b81516020818401810180516009825292820194820194909420919093529091526000908152604090205481565b34801561042057600080fd5b5061019161042f36600461241d565b805160208183018101805160088252928201919093012091525481565b34801561045857600080fd5b50610191600d5481565b34801561046e57600080fd5b5061022f61047d366004612484565b610a1e565b34801561048e57600080fd5b5061019161049d3660046128c2565b610ade565b61025c6104b03660046128f6565b610b53565b3480156104c157600080fd5b5061025c6104d0366004612484565b6111e8565b3480156104e157600080fd5b50600554610315906001600160a01b031681565b34801561050157600080fd5b5061022f6111f5565b34801561051657600080fd5b506101df6105253660046129cf565b6001600160a01b03918216600090815260026020908152604080832093909416825291909152205460ff1690565b34801561055f57600080fd5b5061019160065481565b34801561057557600080fd5b5061025c6105843660046129f9565b611233565b34801561059557600080fd5b5061025c6105a436600461250c565b6112ea565b60006001600160a01b0383166106195760405162461bcd60e51b815260206004820152602a60248201527f455243313135353a2061646472657373207a65726f206973206e6f742061207660448201526930b634b21037bbb732b960b11b60648201526084015b60405180910390fd5b5060009081526001602090815260408083206001600160a01b03949094168352929052205490565b60006001600160e01b03198216636cdb3d1360e11b148061067257506001600160e01b031982166303a24d0760e21b145b8061068d57506301ffc9a760e01b6001600160e01b03198316145b92915050565b6060600380546106a290612a5d565b80601f01602080910402602001604051908101604052809291908181526020018280546106ce90612a5d565b801561071b5780601f106106f05761010080835404028352916020019161071b565b820191906000526020600020905b8154815290600101906020018083116106fe57829003601f168201915b50505050509050919050565b61072f611363565b600580546001600160a01b0319166001600160a01b0392909216919091179055565b6daaeb6d7670e522a718067333cd4e3b156107fb57604051633185c44d60e21b81526daaeb6d7670e522a718067333cd4e9063c6171134906107999030903390600401612a97565b6020604051808303816000875af11580156107b8573d6000803e3d6000fd5b505050506040513d601f19601f820116820180604052508101906107dc9190612ab1565b6107fb5733604051633b79c77360e21b8152600401610610919061277c565b61080885858585856113bd565b5050505050565b606081518351146108745760405162461bcd60e51b815260206004820152602960248201527f455243313135353a206163636f756e747320616e6420696473206c656e677468604482015268040dad2e6dac2e8c6d60bb1b6064820152608401610610565b600083516001600160401b0381111561088f5761088f61233f565b6040519080825280602002602001820160405280156108b8578160200160208202803683370190505b50905060005b8451811015610930576109038582815181106108dc576108dc612ace565b60200260200101518583815181106108f6576108f6612ace565b60200260200101516105a9565b82828151811061091557610915612ace565b602090810291909101015261092981612afa565b90506108be565b509392505050565b610940611363565b600a55565b600c805461095290612a5d565b80601f016020809104026020016040519081016040528092919081815260200182805461097e90612a5d565b80156109cb5780601f106109a0576101008083540402835291602001916109cb565b820191906000526020600020905b8154815290600101906020018083116109ae57829003601f168201915b505050505081565b6109db611363565b6109e56000611402565b565b6109ef611363565b600655565b6109fc611363565b8051610a0f90600c906020840190612260565b5050565b610a0f338383611452565b60608115610a605760405162461bcd60e51b815260206004820152600f60248201526e125b9d985b1a5908151bdad95b9259608a1b6044820152606401610610565b600d5415801590610a735750600d544211155b15610ab657600c610a85306014611532565b610a8e466116d4565b604051602001610aa093929190612bac565b6040516020818303038152906040529050919050565b600c610ac3306014611532565b610acc466116d4565b604051602001610aa093929190612c21565b80516020808301516040808501516060860151608087015160a088015160c089015160e08a01519551600099610b18999098979101612ca6565b60408051601f19818403018152828252805160209182012090830152015b604051602081830303815290604052805190602001209050919050565b8585858360045460065403610b9f5760405162461bcd60e51b8152602060048201526012602482015271139bc81cd85b194818dbdb999a59dd5c995960721b6044820152606401610610565b610bb484600654610baf84610ade565b6117dc565b610bf65760405162461bcd60e51b8152602060048201526013602482015272496e76616c69642053616c6520436f6e66696760681b6044820152606401610610565b8060200151610c3d5760405162461bcd60e51b815260206004820152601360248201527214d85b19481a5cc81b9bdd08195b98589b1959606a1b6044820152606401610610565b6040810151429015801590610c56575081604001518110155b610c9d5760405162461bcd60e51b815260206004820152601860248201527714d85b19481a185cc81b9bdd081cdd185c9d1959081e595d60421b6044820152606401610610565b816060015181111580610cb257506060820151155b610cef5760405162461bcd60e51b815260206004820152600e60248201526d14d85b19481a185cc8195b99195960921b6044820152606401610610565b828260800151610cff9190612cf5565b341015610d4e5760405162461bcd60e51b815260206004820152601f60248201527f4e6f7420656e6f756768206d696e74206368617267652070726f7669646564006044820152606401610610565b8160e001518360088460000151604051610d689190612d14565b908152602001604051809103902054610d819190612d30565b1115610dc85760405162461bcd60e51b81526020600482015260166024820152754d61782053616c65204c696d6974204578636565647360501b6044820152606401610610565b8160c001518360098460000151604051610de29190612d14565b90815260408051602092819003830190203360009081529252902054610e089190612d30565b1115610e565760405162461bcd60e51b815260206004820181905260248201527f4d61784d696e7450657257616c6c657453616c654c696d6974457863656564736044820152606401610610565b600a5415610ec557600a5483610e6d3360006105a9565b610e779190612d30565b1115610ec55760405162461bcd60e51b815260206004820152601e60248201527f4d6178546f74616c4d696e7457616c6c65744c696d69744578636565647300006044820152606401610610565b6004548260a0015114610f545760a08201516040516001600160601b03193360601b166020820152610f11918691603401604051602081830303815290604052805190602001206117dc565b610f545760405162461bcd60e51b8152602060048201526014602482015273155cd95c881b9bdd081dda1a5d195b1a5cdd195960621b6044820152606401610610565b8787600781604051610f669190612d14565b9081526040519081900360200190205460ff1615610fc35760405162461bcd60e51b815260206004820152601a60248201527914da59db985d1d5c9948185b1c9958591e481c995919595b595960321b6044820152606401610610565b600b546040516001600160a01b039091169061100e90839061100890610fed908790602001612d14565b604051602081830303815290604052805190602001206117f2565b9061182d565b6001600160a01b0316146110585760405162461bcd60e51b8152602060048201526011602482015270496e76616c6964205369676e617475726560781b6044820152606401610610565b60008b1161109f5760405162461bcd60e51b815260206004820152601460248201527304e756d626572206f66206d696e747320697320360641b6044820152606401610610565b6110bb3360008d60405180602001604052806000815250611849565b8a600989600001516040516110d09190612d14565b90815260408051602092819003830190203360009081529252812080549091906110fb908490612d30565b909155505087516040518c916008916111149190612d14565b908152602001604051809103902060008282546111319190612d30565b92505081905550600160078a60405161114a9190612d14565b908152604051908190036020018120805492151560ff19909316929092179091556005546001600160a01b0316903480156108fc02916000818181858888f1935050505015801561119f573d6000803e3d6000fd5b5060408051338152602081018d90527f0f6798a560793a54c3bcfe86a93cde1e73087d944c0ea20544137d4121396885910160405180910390a150505050505050505050505050565b6111f0611363565b600d55565b6060600c611204306014611532565b61120d466116d4565b60405160200161121f93929190612d48565b604051602081830303815290604052905090565b6daaeb6d7670e522a718067333cd4e3b156112dd57604051633185c44d60e21b81526daaeb6d7670e522a718067333cd4e9063c61711349061127b9030903390600401612a97565b6020604051808303816000875af115801561129a573d6000803e3d6000fd5b505050506040513d601f19601f820116820180604052508101906112be9190612ab1565b6112dd5733604051633b79c77360e21b8152600401610610919061277c565b610808858585858561195f565b6112f2611363565b6001600160a01b0381166113575760405162461bcd60e51b815260206004820152602660248201527f4f776e61626c653a206e6577206f776e657220697320746865207a65726f206160448201526564647265737360d01b6064820152608401610610565b61136081611402565b50565b6000546001600160a01b031633146109e55760405162461bcd60e51b815260206004820181905260248201527f4f776e61626c653a2063616c6c6572206973206e6f7420746865206f776e65726044820152606401610610565b6001600160a01b0385163314806113d957506113d98533610525565b6113f55760405162461bcd60e51b815260040161061090612db9565b61080885858585856119a4565b600080546001600160a01b038381166001600160a01b0319831681178455604051919092169283917f8be0079c531659141344cd1fd0a4f28419497f9722a3daafe3b4186f6b6457e09190a35050565b816001600160a01b0316836001600160a01b0316036114c55760405162461bcd60e51b815260206004820152602960248201527f455243313135353a2073657474696e6720617070726f76616c20737461747573604482015268103337b91039b2b63360b91b6064820152608401610610565b6001600160a01b03838116600081815260026020908152604080832094871680845294825291829020805460ff191686151590811790915591519182527f17307eab39ab6107e8899845ad3d59bd9653f200f220920489ca2b5937696c31910160405180910390a3505050565b60606000611541836002612cf5565b61154c906002612d30565b6001600160401b038111156115635761156361233f565b6040519080825280601f01601f19166020018201604052801561158d576020820181803683370190505b509050600360fc1b816000815181106115a8576115a8612ace565b60200101906001600160f81b031916908160001a905350600f60fb1b816001815181106115d7576115d7612ace565b60200101906001600160f81b031916908160001a90535060006115fb846002612cf5565b611606906001612d30565b90505b600181111561167e576f181899199a1a9b1b9c1cb0b131b232b360811b85600f166010811061163a5761163a612ace565b1a60f81b82828151811061165057611650612ace565b60200101906001600160f81b031916908160001a90535060049490941c9361167781612e08565b9050611609565b5083156116cd5760405162461bcd60e51b815260206004820181905260248201527f537472696e67733a20686578206c656e67746820696e73756666696369656e746044820152606401610610565b9392505050565b6060816000036116fb5750506040805180820190915260018152600360fc1b602082015290565b8160005b8115611725578061170f81612afa565b915061171e9050600a83612e35565b91506116ff565b6000816001600160401b0381111561173f5761173f61233f565b6040519080825280601f01601f191660200182016040528015611769576020820181803683370190505b5090505b84156117d45761177e600183612e49565b915061178b600a86612e60565b611796906030612d30565b60f81b8183815181106117ab576117ab612ace565b60200101906001600160f81b031916908160001a9053506117cd600a86612e35565b945061176d565b949350505050565b6000826117e98584611b84565b14949350505050565b6040517f19457468657265756d205369676e6564204d6573736167653a0a3332000000006020820152603c8101829052600090605c01610b36565b600080600061183c8585611bc9565b9150915061093081611c0e565b6001600160a01b0384166118a95760405162461bcd60e51b815260206004820152602160248201527f455243313135353a206d696e7420746f20746865207a65726f206164647265736044820152607360f81b6064820152608401610610565b3360006118b585611dbf565b905060006118c285611dbf565b905060008681526001602090815260408083206001600160a01b038b168452909152812080548792906118f6908490612d30565b909155505060408051878152602081018790526001600160a01b03808a1692600092918716917fc3d58168c5ae7397731d063d5bbf3d657854427343f4c083240f7aacaa2d0f62910160405180910390a461195683600089898989611e0a565b50505050505050565b6001600160a01b03851633148061197b575061197b8533610525565b6119975760405162461bcd60e51b815260040161061090612db9565b6108088585858585611f65565b8151835114611a065760405162461bcd60e51b815260206004820152602860248201527f455243313135353a2069647320616e6420616d6f756e7473206c656e677468206044820152670dad2e6dac2e8c6d60c31b6064820152608401610610565b6001600160a01b038416611a2c5760405162461bcd60e51b815260040161061090612e74565b3360005b8451811015611b16576000858281518110611a4d57611a4d612ace565b602002602001015190506000858381518110611a6b57611a6b612ace565b60209081029190910181015160008481526001835260408082206001600160a01b038e168352909352919091205490915081811015611abc5760405162461bcd60e51b815260040161061090612eb9565b60008381526001602090815260408083206001600160a01b038e8116855292528083208585039055908b16825281208054849290611afb908490612d30565b9250508190555050505080611b0f90612afa565b9050611a30565b50846001600160a01b0316866001600160a01b0316826001600160a01b03167f4a39dc06d4c0dbc64b70af90fd698a233a518aa5d07e595d983b8c0526c8f7fb8787604051611b66929190612f03565b60405180910390a4611b7c818787878787612093565b505050505050565b600081815b845181101561093057611bb582868381518110611ba857611ba8612ace565b602002602001015161214e565b915080611bc181612afa565b915050611b89565b6000808251604103611bff5760208301516040840151606085015160001a611bf38782858561217d565b94509450505050611c07565b506000905060025b9250929050565b6000816004811115611c2257611c22612f31565b03611c2a5750565b6001816004811115611c3e57611c3e612f31565b03611c865760405162461bcd60e51b815260206004820152601860248201527745434453413a20696e76616c6964207369676e617475726560401b6044820152606401610610565b6002816004811115611c9a57611c9a612f31565b03611ce75760405162461bcd60e51b815260206004820152601f60248201527f45434453413a20696e76616c6964207369676e6174757265206c656e677468006044820152606401610610565b6003816004811115611cfb57611cfb612f31565b03611d535760405162461bcd60e51b815260206004820152602260248201527f45434453413a20696e76616c6964207369676e6174757265202773272076616c604482015261756560f01b6064820152608401610610565b6004816004811115611d6757611d67612f31565b036113605760405162461bcd60e51b815260206004820152602260248201527f45434453413a20696e76616c6964207369676e6174757265202776272076616c604482015261756560f01b6064820152608401610610565b60408051600180825281830190925260609160009190602080830190803683370190505090508281600081518110611df957611df9612ace565b602090810291909101015292915050565b6001600160a01b0384163b15611b7c5760405163f23a6e6160e01b81526001600160a01b0385169063f23a6e6190611e4e9089908990889088908890600401612f47565b6020604051808303816000875af1925050508015611e89575060408051601f3d908101601f19168201909252611e8691810190612f8c565b60015b611f3557611e95612fa9565b806308c379a003611ece5750611ea9612fc5565b80611eb45750611ed0565b8060405162461bcd60e51b815260040161061091906124f9565b505b60405162461bcd60e51b815260206004820152603460248201527f455243313135353a207472616e7366657220746f206e6f6e20455243313135356044820152732932b1b2b4bb32b91034b6b83632b6b2b73a32b960611b6064820152608401610610565b6001600160e01b0319811663f23a6e6160e01b146119565760405162461bcd60e51b81526004016106109061304e565b6001600160a01b038416611f8b5760405162461bcd60e51b815260040161061090612e74565b336000611f9785611dbf565b90506000611fa485611dbf565b905060008681526001602090815260408083206001600160a01b038c16845290915290205485811015611fe95760405162461bcd60e51b815260040161061090612eb9565b60008781526001602090815260408083206001600160a01b038d8116855292528083208985039055908a16825281208054889290612028908490612d30565b909155505060408051888152602081018890526001600160a01b03808b16928c821692918816917fc3d58168c5ae7397731d063d5bbf3d657854427343f4c083240f7aacaa2d0f62910160405180910390a4612088848a8a8a8a8a611e0a565b505050505050505050565b6001600160a01b0384163b15611b7c5760405163bc197c8160e01b81526001600160a01b0385169063bc197c81906120d79089908990889088908890600401613096565b6020604051808303816000875af1925050508015612112575060408051601f3d908101601f1916820190925261210f91810190612f8c565b60015b61211e57611e95612fa9565b6001600160e01b0319811663bc197c8160e01b146119565760405162461bcd60e51b81526004016106109061304e565b600081831061216a5760008281526020849052604090206116cd565b60008381526020839052604090206116cd565b6000806fa2a8918ca85bafe22016d0b997e4df60600160ff1b038311156121aa5750600090506003612257565b8460ff16601b141580156121c257508460ff16601c14155b156121d35750600090506004612257565b6040805160008082526020820180845289905260ff881692820192909252606081018690526080810185905260019060a0016020604051602081039080840390855afa158015612227573d6000803e3d6000fd5b5050604051601f1901519150506001600160a01b03811661225057600060019250925050612257565b9150600090505b94509492505050565b82805461226c90612a5d565b90600052602060002090601f01602090048101928261228e57600085556122d4565b82601f106122a757805160ff19168380011785556122d4565b828001600101855582156122d4579182015b828111156122d45782518255916020019190600101906122b9565b506122e09291506122e4565b5090565b5b808211156122e057600081556001016122e5565b80356001600160a01b038116811461231057600080fd5b919050565b6000806040838503121561232857600080fd5b612331836122f9565b946020939093013593505050565b634e487b7160e01b600052604160045260246000fd5b601f8201601f191681016001600160401b038111828210171561237a5761237a61233f565b6040525050565b60405161010081016001600160401b03811182821017156123a4576123a461233f565b60405290565b600082601f8301126123bb57600080fd5b81356001600160401b038111156123d4576123d461233f565b6040516123eb601f8301601f191660200182612355565b81815284602083860101111561240057600080fd5b816020850160208301376000918101602001919091529392505050565b60006020828403121561242f57600080fd5b81356001600160401b0381111561244557600080fd5b6117d4848285016123aa565b6001600160e01b03198116811461136057600080fd5b60006020828403121561247957600080fd5b81356116cd81612451565b60006020828403121561249657600080fd5b5035919050565b60005b838110156124b85781810151838201526020016124a0565b838111156124c7576000848401525b50505050565b600081518084526124e581602086016020860161249d565b601f01601f19169290920160200192915050565b6020815260006116cd60208301846124cd565b60006020828403121561251e57600080fd5b6116cd826122f9565b60006001600160401b038211156125405761254061233f565b5060051b60200190565b600082601f83011261255b57600080fd5b8135602061256882612527565b6040516125758282612355565b83815260059390931b850182019282810191508684111561259557600080fd5b8286015b848110156125b05780358352918301918301612599565b509695505050505050565b600080600080600060a086880312156125d357600080fd5b6125dc866122f9565b94506125ea602087016122f9565b935060408601356001600160401b038082111561260657600080fd5b61261289838a0161254a565b9450606088013591508082111561262857600080fd5b61263489838a0161254a565b9350608088013591508082111561264a57600080fd5b50612657888289016123aa565b9150509295509295909350565b6000806040838503121561267757600080fd5b82356001600160401b038082111561268e57600080fd5b818501915085601f8301126126a257600080fd5b813560206126af82612527565b6040516126bc8282612355565b83815260059390931b85018201928281019150898411156126dc57600080fd5b948201945b83861015612701576126f2866122f9565b825294820194908201906126e1565b9650508601359250508082111561271757600080fd5b506127248582860161254a565b9150509250929050565b600081518084526020808501945080840160005b8381101561275e57815187529582019590820190600101612742565b509495945050505050565b6020815260006116cd602083018461272e565b6001600160a01b0391909116815260200190565b801515811461136057600080fd5b803561231081612790565b600080604083850312156127bc57600080fd5b6127c5836122f9565b915060208301356127d581612790565b809150509250929050565b600080604083850312156127f357600080fd5b82356001600160401b0381111561280957600080fd5b612815858286016123aa565b925050612824602084016122f9565b90509250929050565b6000610100828403121561284057600080fd5b612848612381565b905081356001600160401b0381111561286057600080fd5b61286c848285016123aa565b82525061287b6020830161279e565b602082015260408201356040820152606082013560608201526080820135608082015260a082013560a082015260c082013560c082015260e082013560e082015292915050565b6000602082840312156128d457600080fd5b81356001600160401b038111156128ea57600080fd5b6117d48482850161282d565b60008060008060008060c0878903121561290f57600080fd5b86356001600160401b038082111561292657600080fd5b6129328a838b0161254a565b9750602089013591508082111561294857600080fd5b6129548a838b0161254a565b965060408901359550606089013591508082111561297157600080fd5b61297d8a838b016123aa565b9450608089013591508082111561299357600080fd5b61299f8a838b016123aa565b935060a08901359150808211156129b557600080fd5b506129c289828a0161282d565b9150509295509295509295565b600080604083850312156129e257600080fd5b6129eb836122f9565b9150612824602084016122f9565b600080600080600060a08688031215612a1157600080fd5b612a1a866122f9565b9450612a28602087016122f9565b9350604086013592506060860135915060808601356001600160401b03811115612a5157600080fd5b612657888289016123aa565b600181811c90821680612a7157607f821691505b602082108103612a9157634e487b7160e01b600052602260045260246000fd5b50919050565b6001600160a01b0392831681529116602082015260400190565b600060208284031215612ac357600080fd5b81516116cd81612790565b634e487b7160e01b600052603260045260246000fd5b634e487b7160e01b600052601160045260246000fd5b600060018201612b0c57612b0c612ae4565b5060010190565b8054600090600181811c9080831680612b2d57607f831692505b60208084108203612b4e57634e487b7160e01b600052602260045260246000fd5b818015612b625760018114612b7357612ba0565b60ff19861689528489019650612ba0565b60008881526020902060005b86811015612b985781548b820152908501908301612b7f565b505084890196505b50505050505092915050565b6000612bb88286612b13565b7868696464656e2d746f6b656e2d7572693f616464726573733d60381b81528451612bea81601984016020890161249d565b68266e6574776f726b3d60b81b601992909101918201528351612c1481602284016020880161249d565b0160220195945050505050565b6000612c2d8286612b13565b71746f6b656e2d7572693f616464726573733d60701b81528451612c5881601284016020890161249d565b68266e6574776f726b3d60b81b601292909101918201528351612c8281601b84016020880161249d565b69026746f6b656e49643d360b41b601b929091019182015260250195945050505050565b60008951612cb8818460208e0161249d565b98151560f81b919098019081526001810196909652602186019490945260418501929092526061840152608183015260a182015260c10192915050565b6000816000190483118215151615612d0f57612d0f612ae4565b500290565b60008251612d2681846020870161249d565b9190910192915050565b60008219821115612d4357612d43612ae4565b500190565b6000612d548286612b13565b74636f6e74726163742d7572693f616464726573733d60581b81528451612d8281601584016020890161249d565b68266e6574776f726b3d60b81b601592909101918201528351612dac81601e84016020880161249d565b01601e0195945050505050565b6020808252602f908201527f455243313135353a2063616c6c6572206973206e6f7420746f6b656e206f776e60408201526e195c881b9bdc88185c1c1c9bdd9959608a1b606082015260800190565b600081612e1757612e17612ae4565b506000190190565b634e487b7160e01b600052601260045260246000fd5b600082612e4457612e44612e1f565b500490565b600082821015612e5b57612e5b612ae4565b500390565b600082612e6f57612e6f612e1f565b500690565b60208082526025908201527f455243313135353a207472616e7366657220746f20746865207a65726f206164604082015264647265737360d81b606082015260800190565b6020808252602a908201527f455243313135353a20696e73756666696369656e742062616c616e636520666f60408201526939103a3930b739b332b960b11b606082015260800190565b604081526000612f16604083018561272e565b8281036020840152612f28818561272e565b95945050505050565b634e487b7160e01b600052602160045260246000fd5b6001600160a01b03868116825285166020820152604081018490526060810183905260a060808201819052600090612f81908301846124cd565b979650505050505050565b600060208284031215612f9e57600080fd5b81516116cd81612451565b600060033d1115612fc25760046000803e5060005160e01c5b90565b600060443d1015612fd35790565b6040516003193d81016004833e81513d6001600160401b03816024840111818411171561300257505050505090565b828501915081518181111561301a5750505050505090565b843d87010160208285010111156130345750505050505090565b61304360208286010187612355565b509095945050505050565b60208082526028908201527f455243313135353a204552433131353552656365697665722072656a656374656040820152676420746f6b656e7360c01b606082015260800190565b6001600160a01b0386811682528516602082015260a0604082018190526000906130c29083018661272e565b82810360608401526130d4818661272e565b905082810360808401526130e881856124cd565b9897505050505050505056fea264697066735822122046798b95324e37af01ccc3683bb76876aee51e2e428ab792d7db1a0542b9aa2064736f6c634300080d0033",
  "linkReferences": {},
  "deployedLinkReferences": {}
}