{
  "_format": "hh-sol-artifact-1",
  "contractName": "Collection1155",
  "sourceName": "contracts/hydro/hydro-main/Collection1155.sol",
  "abi": [
    {
      "inputs": [
        {
          "internalType": "string",
          "name": "_name",
          "type": "string"
        },
        {
          "internalType": "address",
          "name": "_feeDestination",
          "type": "address"
        },
        {
          "internalType": "uint256",
          "name": "_maxMintInTotalPerWallet",
          "type": "uint256"
        },
        {
          "internalType": "bytes32",
          "name": "_saleConfigRoot",
          "type": "bytes32"
        },
        {
          "internalType": "address",
          "name": "_msgSigner",
          "type": "address"
        },
        {
          "internalType": "string",
          "name": "_baseURI",
          "type": "string"
        },
        {
          "internalType": "uint256",
          "name": "_revealTime",
          "type": "uint256"
        }
      ],
      "stateMutability": "nonpayable",
      "type": "constructor"
    },
    {
      "inputs": [
        {
          "internalType": "address",
          "name": "operator",
          "type": "address"
        }
      ],
      "name": "OperatorNotAllowed",
      "type": "error"
    },
    {
      "anonymous": false,
      "inputs": [
        {
          "indexed": true,
          "internalType": "address",
          "name": "account",
          "type": "address"
        },
        {
          "indexed": true,
          "internalType": "address",
          "name": "operator",
          "type": "address"
        },
        {
          "indexed": false,
          "internalType": "bool",
          "name": "approved",
          "type": "bool"
        }
      ],
      "name": "ApprovalForAll",
      "type": "event"
    },
    {
      "anonymous": false,
      "inputs": [
        {
          "indexed": false,
          "internalType": "address",
          "name": "msgSender",
          "type": "address"
        },
        {
          "indexed": false,
          "internalType": "uint256",
          "name": "numberOfMint",
          "type": "uint256"
        }
      ],
      "name": "Mint",
      "type": "event"
    },
    {
      "anonymous": false,
      "inputs": [
        {
          "indexed": true,
          "internalType": "address",
          "name": "previousOwner",
          "type": "address"
        },
        {
          "indexed": true,
          "internalType": "address",
          "name": "newOwner",
          "type": "address"
        }
      ],
      "name": "OwnershipTransferred",
      "type": "event"
    },
    {
      "anonymous": false,
      "inputs": [
        {
          "indexed": true,
          "internalType": "address",
          "name": "operator",
          "type": "address"
        },
        {
          "indexed": true,
          "internalType": "address",
          "name": "from",
          "type": "address"
        },
        {
          "indexed": true,
          "internalType": "address",
          "name": "to",
          "type": "address"
        },
        {
          "indexed": false,
          "internalType": "uint256[]",
          "name": "ids",
          "type": "uint256[]"
        },
        {
          "indexed": false,
          "internalType": "uint256[]",
          "name": "values",
          "type": "uint256[]"
        }
      ],
      "name": "TransferBatch",
      "type": "event"
    },
    {
      "anonymous": false,
      "inputs": [
        {
          "indexed": true,
          "internalType": "address",
          "name": "operator",
          "type": "address"
        },
        {
          "indexed": true,
          "internalType": "address",
          "name": "from",
          "type": "address"
        },
        {
          "indexed": true,
          "internalType": "address",
          "name": "to",
          "type": "address"
        },
        {
          "indexed": false,
          "internalType": "uint256",
          "name": "id",
          "type": "uint256"
        },
        {
          "indexed": false,
          "internalType": "uint256",
          "name": "value",
          "type": "uint256"
        }
      ],
      "name": "TransferSingle",
      "type": "event"
    },
    {
      "anonymous": false,
      "inputs": [
        {
          "indexed": false,
          "internalType": "string",
          "name": "value",
          "type": "string"
        },
        {
          "indexed": true,
          "internalType": "uint256",
          "name": "id",
          "type": "uint256"
        }
      ],
      "name": "URI",
      "type": "event"
    },
    {
      "inputs": [
        {
          "internalType": "string",
          "name": "",
          "type": "string"
        },
        {
          "internalType": "address",
          "name": "",
          "type": "address"
        }
      ],
      "name": "balanceByIdentifier",
      "outputs": [
        {
          "internalType": "uint256",
          "name": "",
          "type": "uint256"
        }
      ],
      "stateMutability": "view",
      "type": "function"
    },
    {
      "inputs": [
        {
          "internalType": "address",
          "name": "account",
          "type": "address"
        },
        {
          "internalType": "uint256",
          "name": "id",
          "type": "uint256"
        }
      ],
      "name": "balanceOf",
      "outputs": [
        {
          "internalType": "uint256",
          "name": "",
          "type": "uint256"
        }
      ],
      "stateMutability": "view",
      "type": "function"
    },
    {
      "inputs": [
        {
          "internalType": "address[]",
          "name": "accounts",
          "type": "address[]"
        },
        {
          "internalType": "uint256[]",
          "name": "ids",
          "type": "uint256[]"
        }
      ],
      "name": "balanceOfBatch",
      "outputs": [
        {
          "internalType": "uint256[]",
          "name": "",
          "type": "uint256[]"
        }
      ],
      "stateMutability": "view",
      "type": "function"
    },
    {
      "inputs": [],
      "name": "baseURI",
      "outputs": [
        {
          "internalType": "string",
          "name": "",
          "type": "string"
        }
      ],
      "stateMutability": "view",
      "type": "function"
    },
    {
      "inputs": [],
      "name": "contractURI",
      "outputs": [
        {
          "internalType": "string",
          "name": "",
          "type": "string"
        }
      ],
      "stateMutability": "view",
      "type": "function"
    },
    {
      "inputs": [],
      "name": "emptyRoot",
      "outputs": [
        {
          "internalType": "bytes32",
          "name": "",
          "type": "bytes32"
        }
      ],
      "stateMutability": "view",
      "type": "function"
    },
    {
      "inputs": [],
      "name": "feeDestination",
      "outputs": [
        {
          "internalType": "address",
          "name": "",
          "type": "address"
        }
      ],
      "stateMutability": "view",
      "type": "function"
    },
    {
      "inputs": [
        {
          "components": [
            {
              "internalType": "string",
              "name": "saleIdentifier",
              "type": "string"
            },
            {
              "internalType": "bool",
              "name": "enabled",
              "type": "bool"
            },
            {
              "internalType": "uint256",
              "name": "startTime",
              "type": "uint256"
            },
            {
              "internalType": "uint256",
              "name": "endTime",
              "type": "uint256"
            },
            {
              "internalType": "uint256",
              "name": "mintCharge",
              "type": "uint256"
            },
            {
              "internalType": "bytes32",
              "name": "whitelistRoot",
              "type": "bytes32"
            },
            {
              "internalType": "uint256",
              "name": "maxMintPerWallet",
              "type": "uint256"
            },
            {
              "internalType": "uint256",
              "name": "maxMintInSale",
              "type": "uint256"
            }
          ],
          "internalType": "struct Collection1155.SaleConfig",
          "name": "config",
          "type": "tuple"
        }
      ],
      "name": "getSaleConfigLeaf",
      "outputs": [
        {
          "internalType": "bytes32",
          "name": "",
          "type": "bytes32"
        }
      ],
      "stateMutability": "pure",
      "type": "function"
    },
    {
      "inputs": [
        {
          "internalType": "address",
          "name": "account",
          "type": "address"
        },
        {
          "internalType": "address",
          "name": "operator",
          "type": "address"
        }
      ],
      "name": "isApprovedForAll",
      "outputs": [
        {
          "internalType": "bool",
          "name": "",
          "type": "bool"
        }
      ],
      "stateMutability": "view",
      "type": "function"
    },
    {
      "inputs": [
        {
          "internalType": "bytes",
          "name": "",
          "type": "bytes"
        }
      ],
      "name": "isSignatureRedeemed",
      "outputs": [
        {
          "internalType": "bool",
          "name": "",
          "type": "bool"
        }
      ],
      "stateMutability": "view",
      "type": "function"
    },
    {
      "inputs": [],
      "name": "maxMintInTotalPerWallet",
      "outputs": [
        {
          "internalType": "uint256",
          "name": "",
          "type": "uint256"
        }
      ],
      "stateMutability": "view",
      "type": "function"
    },
    {
      "inputs": [
        {
          "internalType": "bytes32[]",
          "name": "saleConfigProof",
          "type": "bytes32[]"
        },
        {
          "internalType": "bytes32[]",
          "name": "whitelistProof",
          "type": "bytes32[]"
        },
        {
          "internalType": "uint256",
          "name": "numberOfMint",
          "type": "uint256"
        },
        {
          "internalType": "string",
          "name": "message",
          "type": "string"
        },
        {
          "internalType": "bytes",
          "name": "signature",
          "type": "bytes"
        },
        {
          "components": [
            {
              "internalType": "string",
              "name": "saleIdentifier",
              "type": "string"
            },
            {
              "internalType": "bool",
              "name": "enabled",
              "type": "bool"
            },
            {
              "internalType": "uint256",
              "name": "startTime",
              "type": "uint256"
            },
            {
              "internalType": "uint256",
              "name": "endTime",
              "type": "uint256"
            },
            {
              "internalType": "uint256",
              "name": "mintCharge",
              "type": "uint256"
            },
            {
              "internalType": "bytes32",
              "name": "whitelistRoot",
              "type": "bytes32"
            },
            {
              "internalType": "uint256",
              "name": "maxMintPerWallet",
              "type": "uint256"
            },
            {
              "internalType": "uint256",
              "name": "maxMintInSale",
              "type": "uint256"
            }
          ],
          "internalType": "struct Collection1155.SaleConfig",
          "name": "config",
          "type": "tuple"
        }
      ],
      "name": "mint",
      "outputs": [],
      "stateMutability": "payable",
      "type": "function"
    },
    {
      "inputs": [
        {
          "internalType": "string",
          "name": "",
          "type": "string"
        }
      ],
      "name": "mintCountByIdentifier",
      "outputs": [
        {
          "internalType": "uint256",
          "name": "",
          "type": "uint256"
        }
      ],
      "stateMutability": "view",
      "type": "function"
    },
    {
      "inputs": [],
      "name": "msgSigner",
      "outputs": [
        {
          "internalType": "address",
          "name": "",
          "type": "address"
        }
      ],
      "stateMutability": "view",
      "type": "function"
    },
    {
      "inputs": [],
      "name": "owner",
      "outputs": [
        {
          "internalType": "address",
          "name": "",
          "type": "address"
        }
      ],
      "stateMutability": "view",
      "type": "function"
    },
    {
      "inputs": [],
      "name": "renounceOwnership",
      "outputs": [],
      "stateMutability": "nonpayable",
      "type": "function"
    },
    {
      "inputs": [],
      "name": "revealTime",
      "outputs": [
        {
          "internalType": "uint256",
          "name": "",
          "type": "uint256"
        }
      ],
      "stateMutability": "view",
      "type": "function"
    },
    {
      "inputs": [
        {
          "internalType": "address",
          "name": "from",
          "type": "address"
        },
        {
          "internalType": "address",
          "name": "to",
          "type": "address"
        },
        {
          "internalType": "uint256[]",
          "name": "ids",
          "type": "uint256[]"
        },
        {
          "internalType": "uint256[]",
          "name": "amounts",
          "type": "uint256[]"
        },
        {
          "internalType": "bytes",
          "name": "data",
          "type": "bytes"
        }
      ],
      "name": "safeBatchTransferFrom",
      "outputs": [],
      "stateMutability": "nonpayable",
      "type": "function"
    },
    {
      "inputs": [
        {
          "internalType": "address",
          "name": "from",
          "type": "address"
        },
        {
          "internalType": "address",
          "name": "to",
          "type": "address"
        },
        {
          "internalType": "uint256",
          "name": "id",
          "type": "uint256"
        },
        {
          "internalType": "uint256",
          "name": "amount",
          "type": "uint256"
        },
        {
          "internalType": "bytes",
          "name": "data",
          "type": "bytes"
        }
      ],
      "name": "safeTransferFrom",
      "outputs": [],
      "stateMutability": "nonpayable",
      "type": "function"
    },
    {
      "inputs": [],
      "name": "saleConfigsRoot",
      "outputs": [
        {
          "internalType": "bytes32",
          "name": "",
          "type": "bytes32"
        }
      ],
      "stateMutability": "view",
      "type": "function"
    },
    {
      "inputs": [
        {
          "internalType": "address",
          "name": "operator",
          "type": "address"
        },
        {
          "internalType": "bool",
          "name": "approved",
          "type": "bool"
        }
      ],
      "name": "setApprovalForAll",
      "outputs": [],
      "stateMutability": "nonpayable",
      "type": "function"
    },
    {
      "inputs": [
        {
          "internalType": "bytes4",
          "name": "interfaceId",
          "type": "bytes4"
        }
      ],
      "name": "supportsInterface",
      "outputs": [
        {
          "internalType": "bool",
          "name": "",
          "type": "bool"
        }
      ],
      "stateMutability": "view",
      "type": "function"
    },
    {
      "inputs": [
        {
          "internalType": "uint256",
          "name": "_tokenId",
          "type": "uint256"
        }
      ],
      "name": "tokenURI",
      "outputs": [
        {
          "internalType": "string",
          "name": "",
          "type": "string"
        }
      ],
      "stateMutability": "view",
      "type": "function"
    },
    {
      "inputs": [
        {
          "internalType": "address",
          "name": "newOwner",
          "type": "address"
        }
      ],
      "name": "transferOwnership",
      "outputs": [],
      "stateMutability": "nonpayable",
      "type": "function"
    },
    {
      "inputs": [
        {
          "internalType": "string",
          "name": "_baseURI",
          "type": "string"
        }
      ],
      "name": "updateBaseURI",
      "outputs": [],
      "stateMutability": "nonpayable",
      "type": "function"
    },
    {
      "inputs": [
        {
          "internalType": "address",
          "name": "_feeDestination",
          "type": "address"
        }
      ],
      "name": "updateFeeToAddress",
      "outputs": [],
      "stateMutability": "nonpayable",
      "type": "function"
    },
    {
      "inputs": [
        {
          "internalType": "uint256",
          "name": "_val",
          "type": "uint256"
        }
      ],
      "name": "updateMaxMintInTotalPerWallet",
      "outputs": [],
      "stateMutability": "nonpayable",
      "type": "function"
    },
    {
      "inputs": [
        {
          "internalType": "uint256",
          "name": "_revealTime",
          "type": "uint256"
        }
      ],
      "name": "updateRevealTime",
      "outputs": [],
      "stateMutability": "nonpayable",
      "type": "function"
    },
    {
      "inputs": [
        {
          "internalType": "bytes32",
          "name": "_saleConfigRoot",
          "type": "bytes32"
        }
      ],
      "name": "updateSaleConfigRoot",
      "outputs": [],
      "stateMutability": "nonpayable",
      "type": "function"
    },
    {
      "inputs": [
        {
          "internalType": "uint256",
          "name": "",
          "type": "uint256"
        }
      ],
      "name": "uri",
      "outputs": [
        {
          "internalType": "string",
          "name": "",
          "type": "string"
        }
      ],
      "stateMutability": "view",
      "type": "function"
    }
  ],
  "bytecode": "0x608060405260006004553480156200001657600080fd5b50604051620036da380380620036da833981016040819052620000399162000408565b733cc6cdda760b79bafa08df41ecfa224f810dceb66001886200005c336200020f565b62000067816200025f565b506daaeb6d7670e522a718067333cd4e3b15620001ad578015620000fb57604051633e9f1edf60e11b81523060048201526001600160a01b03831660248201526daaeb6d7670e522a718067333cd4e90637d3e3dbe906044015b600060405180830381600087803b158015620000dc57600080fd5b505af1158015620000f1573d6000803e3d6000fd5b50505050620001ad565b6001600160a01b038216156200014c5760405163a0af290360e01b81523060048201526001600160a01b03831660248201526daaeb6d7670e522a718067333cd4e9063a0af290390604401620000c1565b604051632210724360e11b81523060048201526daaeb6d7670e522a718067333cd4e90634420e48690602401600060405180830381600087803b1580156200019357600080fd5b505af1158015620001a8573d6000803e3d6000fd5b505050505b5050600580546001600160a01b038089166001600160a01b0319928316179092556006869055600b8054928616929091169190911790558151620001f990600c90602085019062000278565b50600a94909455505050600d5550620004f09050565b600080546001600160a01b038381166001600160a01b0319831681178455604051919092169283917f8be0079c531659141344cd1fd0a4f28419497f9722a3daafe3b4186f6b6457e09190a35050565b80516200027490600390602084019062000278565b5050565b8280546200028690620004b4565b90600052602060002090601f016020900481019282620002aa5760008555620002f5565b82601f10620002c557805160ff1916838001178555620002f5565b82800160010185558215620002f5579182015b82811115620002f5578251825591602001919060010190620002d8565b506200030392915062000307565b5090565b5b8082111562000303576000815560010162000308565b634e487b7160e01b600052604160045260246000fd5b600082601f8301126200034657600080fd5b81516001600160401b03808211156200036357620003636200031e565b604051601f8301601f19908116603f011681019082821181831017156200038e576200038e6200031e565b81604052838152602092508683858801011115620003ab57600080fd5b600091505b83821015620003cf5785820183015181830184015290820190620003b0565b83821115620003e15760008385830101525b9695505050505050565b80516001600160a01b03811681146200040357600080fd5b919050565b600080600080600080600060e0888a0312156200042457600080fd5b87516001600160401b03808211156200043c57600080fd5b6200044a8b838c0162000334565b98506200045a60208b01620003eb565b975060408a0151965060608a015195506200047860808b01620003eb565b945060a08a01519150808211156200048f57600080fd5b506200049e8a828b0162000334565b92505060c0880151905092959891949750929550565b600181811c90821680620004c957607f821691505b602082108103620004ea57634e487b7160e01b600052602260045260246000fd5b50919050565b6131da80620005006000396000f3fe60806040526004361061016c5760003560e01c80639a953ea2116100c75780639a953ea214610396578063a22cb465146103ac578063ae5adfd2146103cc578063ba4cc74914610414578063ba829d711461044c578063c87b56dd14610462578063ca73e5e914610482578063d9c79c1c146104a2578063dc9f75f7146104b5578063de53fcd5146104d5578063e8a3d485146104f5578063e985e9c51461050a578063eaf3a58914610553578063f242432a14610569578063f2fde38b1461058957600080fd5b8062fdd58e14610171578063018779c7146101a457806301ffc9a7146101ef5780630e89341c1461020f578063210112f51461023c5780632eb2c2d61461025e5780634e1273f41461027e57806361b5a2a2146102ab5780636c0360eb146102cb578063715018a6146102e05780638028b285146102f557806380e737831461032257806383699816146103385780638da5cb5b14610358578063931688cb14610376575b600080fd5b34801561017d57600080fd5b5061019161018c366004612413565b6105a9565b6040519081526020015b60405180910390f35b3480156101b057600080fd5b506101df6101bf36600461251b565b805160208183018101805160078252928201919093012091525460ff1681565b604051901515815260200161019b565b3480156101fb57600080fd5b506101df61020a36600461256d565b610641565b34801561021b57600080fd5b5061022f61022a36600461258a565b610693565b60405161019b91906125ff565b34801561024857600080fd5b5061025c610257366004612612565b610727565b005b34801561026a57600080fd5b5061025c6102793660046126c1565b610751565b34801561028a57600080fd5b5061029e61029936600461276a565b6108ac565b60405161019b919061286f565b3480156102b757600080fd5b5061025c6102c636600461258a565b6109d5565b3480156102d757600080fd5b5061022f6109e2565b3480156102ec57600080fd5b5061025c610a70565b34801561030157600080fd5b50600b54610315906001600160a01b031681565b60405161019b9190612882565b34801561032e57600080fd5b5061019160045481565b34801561034457600080fd5b5061025c61035336600461258a565b610a84565b34801561036457600080fd5b506000546001600160a01b0316610315565b34801561038257600080fd5b5061025c61039136600461251b565b610a91565b3480156103a257600080fd5b50610191600a5481565b3480156103b857600080fd5b5061025c6103c73660046128af565b610ab0565b3480156103d857600080fd5b506101916103e73660046128e6565b81516020818401810180516009825292820194820194909420919093529091526000908152604090205481565b34801561042057600080fd5b5061019161042f36600461251b565b805160208183018101805160088252928201919093012091525481565b34801561045857600080fd5b50610191600d5481565b34801561046e57600080fd5b5061022f61047d36600461258a565b610abb565b34801561048e57600080fd5b5061019161049d3660046129c8565b610b7b565b61025c6104b03660046129fc565b610bf0565b3480156104c157600080fd5b5061025c6104d036600461258a565b611285565b3480156104e157600080fd5b50600554610315906001600160a01b031681565b34801561050157600080fd5b5061022f611292565b34801561051657600080fd5b506101df610525366004612ad5565b6001600160a01b03918216600090815260026020908152604080832093909416825291909152205460ff1690565b34801561055f57600080fd5b5061019160065481565b34801561057557600080fd5b5061025c610584366004612aff565b6112d0565b34801561059557600080fd5b5061025c6105a4366004612612565b61141e565b60006001600160a01b0383166106195760405162461bcd60e51b815260206004820152602a60248201527f455243313135353a2061646472657373207a65726f206973206e6f742061207660448201526930b634b21037bbb732b960b11b60648201526084015b60405180910390fd5b5060009081526001602090815260408083206001600160a01b03949094168352929052205490565b60006001600160e01b03198216636cdb3d1360e11b148061067257506001600160e01b031982166303a24d0760e21b145b8061068d57506301ffc9a760e01b6001600160e01b03198316145b92915050565b6060600380546106a290612b63565b80601f01602080910402602001604051908101604052809291908181526020018280546106ce90612b63565b801561071b5780601f106106f05761010080835404028352916020019161071b565b820191906000526020600020905b8154815290600101906020018083116106fe57829003601f168201915b50505050509050919050565b61072f611497565b600580546001600160a01b0319166001600160a01b0392909216919091179055565b846daaeb6d7670e522a718067333cd4e3b1561089757336001600160a01b038216036107895761078486868686866114f1565b6108a4565b604051633185c44d60e21b81526daaeb6d7670e522a718067333cd4e9063c6171134906107bc9030903390600401612b9d565b602060405180830381865afa1580156107d9573d6000803e3d6000fd5b505050506040513d601f19601f820116820180604052508101906107fd9190612bb7565b80156108785750604051633185c44d60e21b81526daaeb6d7670e522a718067333cd4e9063c6171134906108379030908590600401612b9d565b602060405180830381865afa158015610854573d6000803e3d6000fd5b505050506040513d601f19601f820116820180604052508101906108789190612bb7565b6108975733604051633b79c77360e21b81526004016106109190612882565b6108a486868686866114f1565b505050505050565b606081518351146109115760405162461bcd60e51b815260206004820152602960248201527f455243313135353a206163636f756e747320616e6420696473206c656e677468604482015268040dad2e6dac2e8c6d60bb1b6064820152608401610610565b600083516001600160401b0381111561092c5761092c61243d565b604051908082528060200260200182016040528015610955578160200160208202803683370190505b50905060005b84518110156109cd576109a085828151811061097957610979612bd4565b602002602001015185838151811061099357610993612bd4565b60200260200101516105a9565b8282815181106109b2576109b2612bd4565b60209081029190910101526109c681612c00565b905061095b565b509392505050565b6109dd611497565b600a55565b600c80546109ef90612b63565b80601f0160208091040260200160405190810160405280929190818152602001828054610a1b90612b63565b8015610a685780601f10610a3d57610100808354040283529160200191610a68565b820191906000526020600020905b815481529060010190602001808311610a4b57829003601f168201915b505050505081565b610a78611497565b610a82600061153d565b565b610a8c611497565b600655565b610a99611497565b8051610aac90600c90602084019061235e565b5050565b610aac33838361158d565b60608115610afd5760405162461bcd60e51b815260206004820152600f60248201526e125b9d985b1a5908151bdad95b9259608a1b6044820152606401610610565b600d5415801590610b105750600d544211155b15610b5357600c610b2230601461166d565b610b2b4661180f565b604051602001610b3d93929190612cb2565b6040516020818303038152906040529050919050565b600c610b6030601461166d565b610b694661180f565b604051602001610b3d93929190612d27565b80516020808301516040808501516060860151608087015160a088015160c089015160e08a01519551600099610bb5999098979101612dac565b60408051601f19818403018152828252805160209182012090830152015b604051602081830303815290604052805190602001209050919050565b8585858360045460065403610c3c5760405162461bcd60e51b8152602060048201526012602482015271139bc81cd85b194818dbdb999a59dd5c995960721b6044820152606401610610565b610c5184600654610c4c84610b7b565b6118a1565b610c935760405162461bcd60e51b8152602060048201526013602482015272496e76616c69642053616c6520436f6e66696760681b6044820152606401610610565b8060200151610cda5760405162461bcd60e51b815260206004820152601360248201527214d85b19481a5cc81b9bdd08195b98589b1959606a1b6044820152606401610610565b6040810151429015801590610cf3575081604001518110155b610d3a5760405162461bcd60e51b815260206004820152601860248201527714d85b19481a185cc81b9bdd081cdd185c9d1959081e595d60421b6044820152606401610610565b816060015181111580610d4f57506060820151155b610d8c5760405162461bcd60e51b815260206004820152600e60248201526d14d85b19481a185cc8195b99195960921b6044820152606401610610565b828260800151610d9c9190612dfb565b341015610deb5760405162461bcd60e51b815260206004820152601f60248201527f4e6f7420656e6f756768206d696e74206368617267652070726f7669646564006044820152606401610610565b8160e001518360088460000151604051610e059190612e1a565b908152602001604051809103902054610e1e9190612e36565b1115610e655760405162461bcd60e51b81526020600482015260166024820152754d61782053616c65204c696d6974204578636565647360501b6044820152606401610610565b8160c001518360098460000151604051610e7f9190612e1a565b90815260408051602092819003830190203360009081529252902054610ea59190612e36565b1115610ef35760405162461bcd60e51b815260206004820181905260248201527f4d61784d696e7450657257616c6c657453616c654c696d6974457863656564736044820152606401610610565b600a5415610f6257600a5483610f0a3360006105a9565b610f149190612e36565b1115610f625760405162461bcd60e51b815260206004820152601e60248201527f4d6178546f74616c4d696e7457616c6c65744c696d69744578636565647300006044820152606401610610565b6004548260a0015114610ff15760a08201516040516001600160601b03193360601b166020820152610fae918691603401604051602081830303815290604052805190602001206118a1565b610ff15760405162461bcd60e51b8152602060048201526014602482015273155cd95c881b9bdd081dda1a5d195b1a5cdd195960621b6044820152606401610610565b87876007816040516110039190612e1a565b9081526040519081900360200190205460ff16156110605760405162461bcd60e51b815260206004820152601a60248201527914da59db985d1d5c9948185b1c9958591e481c995919595b595960321b6044820152606401610610565b600b546040516001600160a01b03909116906110ab9083906110a59061108a908790602001612e1a565b604051602081830303815290604052805190602001206118b7565b906118f2565b6001600160a01b0316146110f55760405162461bcd60e51b8152602060048201526011602482015270496e76616c6964205369676e617475726560781b6044820152606401610610565b60008b1161113c5760405162461bcd60e51b815260206004820152601460248201527304e756d626572206f66206d696e747320697320360641b6044820152606401610610565b6111583360008d6040518060200160405280600081525061190e565b8a6009896000015160405161116d9190612e1a565b9081526040805160209281900383019020336000908152925281208054909190611198908490612e36565b909155505087516040518c916008916111b19190612e1a565b908152602001604051809103902060008282546111ce9190612e36565b92505081905550600160078a6040516111e79190612e1a565b908152604051908190036020018120805492151560ff19909316929092179091556005546001600160a01b0316903480156108fc02916000818181858888f1935050505015801561123c573d6000803e3d6000fd5b5060408051338152602081018d90527f0f6798a560793a54c3bcfe86a93cde1e73087d944c0ea20544137d4121396885910160405180910390a150505050505050505050505050565b61128d611497565b600d55565b6060600c6112a130601461166d565b6112aa4661180f565b6040516020016112bc93929190612e4e565b604051602081830303815290604052905090565b846daaeb6d7670e522a718067333cd4e3b1561141157336001600160a01b03821603611303576107848686868686611a24565b604051633185c44d60e21b81526daaeb6d7670e522a718067333cd4e9063c6171134906113369030903390600401612b9d565b602060405180830381865afa158015611353573d6000803e3d6000fd5b505050506040513d601f19601f820116820180604052508101906113779190612bb7565b80156113f25750604051633185c44d60e21b81526daaeb6d7670e522a718067333cd4e9063c6171134906113b19030908590600401612b9d565b602060405180830381865afa1580156113ce573d6000803e3d6000fd5b505050506040513d601f19601f820116820180604052508101906113f29190612bb7565b6114115733604051633b79c77360e21b81526004016106109190612882565b6108a48686868686611a24565b611426611497565b6001600160a01b03811661148b5760405162461bcd60e51b815260206004820152602660248201527f4f776e61626c653a206e6577206f776e657220697320746865207a65726f206160448201526564647265737360d01b6064820152608401610610565b6114948161153d565b50565b6000546001600160a01b03163314610a825760405162461bcd60e51b815260206004820181905260248201527f4f776e61626c653a2063616c6c6572206973206e6f7420746865206f776e65726044820152606401610610565b6001600160a01b03851633148061150d575061150d8533610525565b6115295760405162461bcd60e51b815260040161061090612ebf565b6115368585858585611a69565b5050505050565b600080546001600160a01b038381166001600160a01b0319831681178455604051919092169283917f8be0079c531659141344cd1fd0a4f28419497f9722a3daafe3b4186f6b6457e09190a35050565b816001600160a01b0316836001600160a01b0316036116005760405162461bcd60e51b815260206004820152602960248201527f455243313135353a2073657474696e6720617070726f76616c20737461747573604482015268103337b91039b2b63360b91b6064820152608401610610565b6001600160a01b03838116600081815260026020908152604080832094871680845294825291829020805460ff191686151590811790915591519182527f17307eab39ab6107e8899845ad3d59bd9653f200f220920489ca2b5937696c31910160405180910390a3505050565b6060600061167c836002612dfb565b611687906002612e36565b6001600160401b0381111561169e5761169e61243d565b6040519080825280601f01601f1916602001820160405280156116c8576020820181803683370190505b509050600360fc1b816000815181106116e3576116e3612bd4565b60200101906001600160f81b031916908160001a905350600f60fb1b8160018151811061171257611712612bd4565b60200101906001600160f81b031916908160001a9053506000611736846002612dfb565b611741906001612e36565b90505b60018111156117b9576f181899199a1a9b1b9c1cb0b131b232b360811b85600f166010811061177557611775612bd4565b1a60f81b82828151811061178b5761178b612bd4565b60200101906001600160f81b031916908160001a90535060049490941c936117b281612f0d565b9050611744565b5083156118085760405162461bcd60e51b815260206004820181905260248201527f537472696e67733a20686578206c656e67746820696e73756666696369656e746044820152606401610610565b9392505050565b6060600061181c83611c41565b60010190506000816001600160401b0381111561183b5761183b61243d565b6040519080825280601f01601f191660200182016040528015611865576020820181803683370190505b5090508181016020015b600019016f181899199a1a9b1b9c1cb0b131b232b360811b600a86061a8153600a850494508461186f57509392505050565b6000826118ae8584611d17565b14949350505050565b6040517f19457468657265756d205369676e6564204d6573736167653a0a3332000000006020820152603c8101829052600090605c01610bd3565b60008060006119018585611d5c565b915091506109cd81611da1565b6001600160a01b03841661196e5760405162461bcd60e51b815260206004820152602160248201527f455243313135353a206d696e7420746f20746865207a65726f206164647265736044820152607360f81b6064820152608401610610565b33600061197a85611ee6565b9050600061198785611ee6565b905060008681526001602090815260408083206001600160a01b038b168452909152812080548792906119bb908490612e36565b909155505060408051878152602081018790526001600160a01b03808a1692600092918716917fc3d58168c5ae7397731d063d5bbf3d657854427343f4c083240f7aacaa2d0f62910160405180910390a4611a1b83600089898989611f31565b50505050505050565b6001600160a01b038516331480611a405750611a408533610525565b611a5c5760405162461bcd60e51b815260040161061090612ebf565b611536858585858561208c565b8151835114611acb5760405162461bcd60e51b815260206004820152602860248201527f455243313135353a2069647320616e6420616d6f756e7473206c656e677468206044820152670dad2e6dac2e8c6d60c31b6064820152608401610610565b6001600160a01b038416611af15760405162461bcd60e51b815260040161061090612f24565b3360005b8451811015611bdb576000858281518110611b1257611b12612bd4565b602002602001015190506000858381518110611b3057611b30612bd4565b60209081029190910181015160008481526001835260408082206001600160a01b038e168352909352919091205490915081811015611b815760405162461bcd60e51b815260040161061090612f69565b60008381526001602090815260408083206001600160a01b038e8116855292528083208585039055908b16825281208054849290611bc0908490612e36565b9250508190555050505080611bd490612c00565b9050611af5565b50846001600160a01b0316866001600160a01b0316826001600160a01b03167f4a39dc06d4c0dbc64b70af90fd698a233a518aa5d07e595d983b8c0526c8f7fb8787604051611c2b929190612fb3565b60405180910390a46108a48187878787876121ba565b60008072184f03e93ff9f4daa797ed6e38ed64bf6a1f0160401b8310611c805772184f03e93ff9f4daa797ed6e38ed64bf6a1f0160401b830492506040015b6904ee2d6d415b85acef8160201b8310611caa576904ee2d6d415b85acef8160201b830492506020015b662386f26fc100008310611cc857662386f26fc10000830492506010015b6305f5e1008310611ce0576305f5e100830492506008015b6127108310611cf457612710830492506004015b60648310611d06576064830492506002015b600a831061068d5760010192915050565b600081815b84518110156109cd57611d4882868381518110611d3b57611d3b612bd4565b6020026020010151612275565b915080611d5481612c00565b915050611d1c565b6000808251604103611d925760208301516040840151606085015160001a611d86878285856122a4565b94509450505050611d9a565b506000905060025b9250929050565b6000816004811115611db557611db5612fe1565b03611dbd5750565b6001816004811115611dd157611dd1612fe1565b03611e195760405162461bcd60e51b815260206004820152601860248201527745434453413a20696e76616c6964207369676e617475726560401b6044820152606401610610565b6002816004811115611e2d57611e2d612fe1565b03611e7a5760405162461bcd60e51b815260206004820152601f60248201527f45434453413a20696e76616c6964207369676e6174757265206c656e677468006044820152606401610610565b6003816004811115611e8e57611e8e612fe1565b036114945760405162461bcd60e51b815260206004820152602260248201527f45434453413a20696e76616c6964207369676e6174757265202773272076616c604482015261756560f01b6064820152608401610610565b60408051600180825281830190925260609160009190602080830190803683370190505090508281600081518110611f2057611f20612bd4565b602090810291909101015292915050565b6001600160a01b0384163b156108a45760405163f23a6e6160e01b81526001600160a01b0385169063f23a6e6190611f759089908990889088908890600401612ff7565b6020604051808303816000875af1925050508015611fb0575060408051601f3d908101601f19168201909252611fad9181019061303c565b60015b61205c57611fbc613059565b806308c379a003611ff55750611fd0613075565b80611fdb5750611ff7565b8060405162461bcd60e51b815260040161061091906125ff565b505b60405162461bcd60e51b815260206004820152603460248201527f455243313135353a207472616e7366657220746f206e6f6e2d455243313135356044820152732932b1b2b4bb32b91034b6b83632b6b2b73a32b960611b6064820152608401610610565b6001600160e01b0319811663f23a6e6160e01b14611a1b5760405162461bcd60e51b8152600401610610906130fe565b6001600160a01b0384166120b25760405162461bcd60e51b815260040161061090612f24565b3360006120be85611ee6565b905060006120cb85611ee6565b905060008681526001602090815260408083206001600160a01b038c168452909152902054858110156121105760405162461bcd60e51b815260040161061090612f69565b60008781526001602090815260408083206001600160a01b038d8116855292528083208985039055908a1682528120805488929061214f908490612e36565b909155505060408051888152602081018890526001600160a01b03808b16928c821692918816917fc3d58168c5ae7397731d063d5bbf3d657854427343f4c083240f7aacaa2d0f62910160405180910390a46121af848a8a8a8a8a611f31565b505050505050505050565b6001600160a01b0384163b156108a45760405163bc197c8160e01b81526001600160a01b0385169063bc197c81906121fe9089908990889088908890600401613146565b6020604051808303816000875af1925050508015612239575060408051601f3d908101601f191682019092526122369181019061303c565b60015b61224557611fbc613059565b6001600160e01b0319811663bc197c8160e01b14611a1b5760405162461bcd60e51b8152600401610610906130fe565b6000818310612291576000828152602084905260409020611808565b6000838152602083905260409020611808565b6000806fa2a8918ca85bafe22016d0b997e4df60600160ff1b038311156122d15750600090506003612355565b6040805160008082526020820180845289905260ff881692820192909252606081018690526080810185905260019060a0016020604051602081039080840390855afa158015612325573d6000803e3d6000fd5b5050604051601f1901519150506001600160a01b03811661234e57600060019250925050612355565b9150600090505b94509492505050565b82805461236a90612b63565b90600052602060002090601f01602090048101928261238c57600085556123d2565b82601f106123a557805160ff19168380011785556123d2565b828001600101855582156123d2579182015b828111156123d25782518255916020019190600101906123b7565b506123de9291506123e2565b5090565b5b808211156123de57600081556001016123e3565b80356001600160a01b038116811461240e57600080fd5b919050565b6000806040838503121561242657600080fd5b61242f836123f7565b946020939093013593505050565b634e487b7160e01b600052604160045260246000fd5b601f8201601f191681016001600160401b03811182821017156124785761247861243d565b6040525050565b60405161010081016001600160401b03811182821017156124a2576124a261243d565b60405290565b600082601f8301126124b957600080fd5b81356001600160401b038111156124d2576124d261243d565b6040516124e9601f8301601f191660200182612453565b8181528460208386010111156124fe57600080fd5b816020850160208301376000918101602001919091529392505050565b60006020828403121561252d57600080fd5b81356001600160401b0381111561254357600080fd5b61254f848285016124a8565b949350505050565b6001600160e01b03198116811461149457600080fd5b60006020828403121561257f57600080fd5b813561180881612557565b60006020828403121561259c57600080fd5b5035919050565b60005b838110156125be5781810151838201526020016125a6565b838111156125cd576000848401525b50505050565b600081518084526125eb8160208601602086016125a3565b601f01601f19169290920160200192915050565b60208152600061180860208301846125d3565b60006020828403121561262457600080fd5b611808826123f7565b60006001600160401b038211156126465761264661243d565b5060051b60200190565b600082601f83011261266157600080fd5b8135602061266e8261262d565b60405161267b8282612453565b83815260059390931b850182019282810191508684111561269b57600080fd5b8286015b848110156126b6578035835291830191830161269f565b509695505050505050565b600080600080600060a086880312156126d957600080fd5b6126e2866123f7565b94506126f0602087016123f7565b935060408601356001600160401b038082111561270c57600080fd5b61271889838a01612650565b9450606088013591508082111561272e57600080fd5b61273a89838a01612650565b9350608088013591508082111561275057600080fd5b5061275d888289016124a8565b9150509295509295909350565b6000806040838503121561277d57600080fd5b82356001600160401b038082111561279457600080fd5b818501915085601f8301126127a857600080fd5b813560206127b58261262d565b6040516127c28282612453565b83815260059390931b85018201928281019150898411156127e257600080fd5b948201945b83861015612807576127f8866123f7565b825294820194908201906127e7565b9650508601359250508082111561281d57600080fd5b5061282a85828601612650565b9150509250929050565b600081518084526020808501945080840160005b8381101561286457815187529582019590820190600101612848565b509495945050505050565b6020815260006118086020830184612834565b6001600160a01b0391909116815260200190565b801515811461149457600080fd5b803561240e81612896565b600080604083850312156128c257600080fd5b6128cb836123f7565b915060208301356128db81612896565b809150509250929050565b600080604083850312156128f957600080fd5b82356001600160401b0381111561290f57600080fd5b61291b858286016124a8565b92505061292a602084016123f7565b90509250929050565b6000610100828403121561294657600080fd5b61294e61247f565b905081356001600160401b0381111561296657600080fd5b612972848285016124a8565b825250612981602083016128a4565b602082015260408201356040820152606082013560608201526080820135608082015260a082013560a082015260c082013560c082015260e082013560e082015292915050565b6000602082840312156129da57600080fd5b81356001600160401b038111156129f057600080fd5b61254f84828501612933565b60008060008060008060c08789031215612a1557600080fd5b86356001600160401b0380821115612a2c57600080fd5b612a388a838b01612650565b97506020890135915080821115612a4e57600080fd5b612a5a8a838b01612650565b9650604089013595506060890135915080821115612a7757600080fd5b612a838a838b016124a8565b94506080890135915080821115612a9957600080fd5b612aa58a838b016124a8565b935060a0890135915080821115612abb57600080fd5b50612ac889828a01612933565b9150509295509295509295565b60008060408385031215612ae857600080fd5b612af1836123f7565b915061292a602084016123f7565b600080600080600060a08688031215612b1757600080fd5b612b20866123f7565b9450612b2e602087016123f7565b9350604086013592506060860135915060808601356001600160401b03811115612b5757600080fd5b61275d888289016124a8565b600181811c90821680612b7757607f821691505b602082108103612b9757634e487b7160e01b600052602260045260246000fd5b50919050565b6001600160a01b0392831681529116602082015260400190565b600060208284031215612bc957600080fd5b815161180881612896565b634e487b7160e01b600052603260045260246000fd5b634e487b7160e01b600052601160045260246000fd5b600060018201612c1257612c12612bea565b5060010190565b8054600090600181811c9080831680612c3357607f831692505b60208084108203612c5457634e487b7160e01b600052602260045260246000fd5b818015612c685760018114612c7957612ca6565b60ff19861689528489019650612ca6565b60008881526020902060005b86811015612c9e5781548b820152908501908301612c85565b505084890196505b50505050505092915050565b6000612cbe8286612c19565b7868696464656e2d746f6b656e2d7572693f616464726573733d60381b81528451612cf08160198401602089016125a3565b68266e6574776f726b3d60b81b601992909101918201528351612d1a8160228401602088016125a3565b0160220195945050505050565b6000612d338286612c19565b71746f6b656e2d7572693f616464726573733d60701b81528451612d5e8160128401602089016125a3565b68266e6574776f726b3d60b81b601292909101918201528351612d8881601b8401602088016125a3565b69026746f6b656e49643d360b41b601b929091019182015260250195945050505050565b60008951612dbe818460208e016125a3565b98151560f81b919098019081526001810196909652602186019490945260418501929092526061840152608183015260a182015260c10192915050565b6000816000190483118215151615612e1557612e15612bea565b500290565b60008251612e2c8184602087016125a3565b9190910192915050565b60008219821115612e4957612e49612bea565b500190565b6000612e5a8286612c19565b74636f6e74726163742d7572693f616464726573733d60581b81528451612e888160158401602089016125a3565b68266e6574776f726b3d60b81b601592909101918201528351612eb281601e8401602088016125a3565b01601e0195945050505050565b6020808252602e908201527f455243313135353a2063616c6c6572206973206e6f7420746f6b656e206f776e60408201526d195c881bdc88185c1c1c9bdd995960921b606082015260800190565b600081612f1c57612f1c612bea565b506000190190565b60208082526025908201527f455243313135353a207472616e7366657220746f20746865207a65726f206164604082015264647265737360d81b606082015260800190565b6020808252602a908201527f455243313135353a20696e73756666696369656e742062616c616e636520666f60408201526939103a3930b739b332b960b11b606082015260800190565b604081526000612fc66040830185612834565b8281036020840152612fd88185612834565b95945050505050565b634e487b7160e01b600052602160045260246000fd5b6001600160a01b03868116825285166020820152604081018490526060810183905260a060808201819052600090613031908301846125d3565b979650505050505050565b60006020828403121561304e57600080fd5b815161180881612557565b600060033d11156130725760046000803e5060005160e01c5b90565b600060443d10156130835790565b6040516003193d81016004833e81513d6001600160401b0381602484011181841117156130b257505050505090565b82850191508151818111156130ca5750505050505090565b843d87010160208285010111156130e45750505050505090565b6130f360208286010187612453565b509095945050505050565b60208082526028908201527f455243313135353a204552433131353552656365697665722072656a656374656040820152676420746f6b656e7360c01b606082015260800190565b6001600160a01b0386811682528516602082015260a06040820181905260009061317290830186612834565b82810360608401526131848186612834565b9050828103608084015261319881856125d3565b9897505050505050505056fea2646970667358221220594c490e59640dd1323200435a6933b5cbfb413513126a4b1312ebd2d735829364736f6c634300080d0033",
  "linkReferences": {},
  "deployedLinkReferences": {}
}