{
  "_format": "hh-sol-artifact-1",
  "contractName": "Collection1155",
  "sourceName": "contracts/hydro/Collection1155.sol",
  "abi": [
    {
      "inputs": [
        {
          "components": [
            {
              "internalType": "string",
              "name": "_name",
              "type": "string"
            },
            {
              "internalType": "address",
              "name": "_feeDestination",
              "type": "address"
            },
            {
              "internalType": "uint256",
              "name": "_maxMintInTotalPerWallet",
              "type": "uint256"
            },
            {
              "internalType": "bytes32",
              "name": "_saleConfigRoot",
              "type": "bytes32"
            },
            {
              "internalType": "address",
              "name": "_msgSigner",
              "type": "address"
            },
            {
              "internalType": "string",
              "name": "_baseURI",
              "type": "string"
            },
            {
              "internalType": "uint256",
              "name": "_revealTime",
              "type": "uint256"
            },
            {
              "internalType": "uint96",
              "name": "_royaltyBasis",
              "type": "uint96"
            },
            {
              "internalType": "address",
              "name": "_platformOwner",
              "type": "address"
            },
            {
              "internalType": "uint256",
              "name": "_maxMintCap",
              "type": "uint256"
            },
            {
              "internalType": "address",
              "name": "_priceFeedAddress",
              "type": "address"
            }
          ],
          "internalType": "struct Collection1155.ConstructorArgs",
          "name": "args",
          "type": "tuple"
        }
      ],
      "stateMutability": "payable",
      "type": "constructor"
    },
    {
      "anonymous": false,
      "inputs": [
        {
          "indexed": true,
          "internalType": "address",
          "name": "account",
          "type": "address"
        },
        {
          "indexed": true,
          "internalType": "address",
          "name": "operator",
          "type": "address"
        },
        {
          "indexed": false,
          "internalType": "bool",
          "name": "approved",
          "type": "bool"
        }
      ],
      "name": "ApprovalForAll",
      "type": "event"
    },
    {
      "anonymous": false,
      "inputs": [
        {
          "indexed": false,
          "internalType": "address",
          "name": "msgSender",
          "type": "address"
        },
        {
          "indexed": false,
          "internalType": "uint256",
          "name": "numberOfMint",
          "type": "uint256"
        }
      ],
      "name": "Mint",
      "type": "event"
    },
    {
      "anonymous": false,
      "inputs": [
        {
          "indexed": true,
          "internalType": "address",
          "name": "previousOwner",
          "type": "address"
        },
        {
          "indexed": true,
          "internalType": "address",
          "name": "newOwner",
          "type": "address"
        }
      ],
      "name": "OwnershipTransferred",
      "type": "event"
    },
    {
      "anonymous": false,
      "inputs": [
        {
          "indexed": true,
          "internalType": "address",
          "name": "operator",
          "type": "address"
        },
        {
          "indexed": true,
          "internalType": "address",
          "name": "from",
          "type": "address"
        },
        {
          "indexed": true,
          "internalType": "address",
          "name": "to",
          "type": "address"
        },
        {
          "indexed": false,
          "internalType": "uint256[]",
          "name": "ids",
          "type": "uint256[]"
        },
        {
          "indexed": false,
          "internalType": "uint256[]",
          "name": "values",
          "type": "uint256[]"
        }
      ],
      "name": "TransferBatch",
      "type": "event"
    },
    {
      "anonymous": false,
      "inputs": [
        {
          "indexed": true,
          "internalType": "address",
          "name": "operator",
          "type": "address"
        },
        {
          "indexed": true,
          "internalType": "address",
          "name": "from",
          "type": "address"
        },
        {
          "indexed": true,
          "internalType": "address",
          "name": "to",
          "type": "address"
        },
        {
          "indexed": false,
          "internalType": "uint256",
          "name": "id",
          "type": "uint256"
        },
        {
          "indexed": false,
          "internalType": "uint256",
          "name": "value",
          "type": "uint256"
        }
      ],
      "name": "TransferSingle",
      "type": "event"
    },
    {
      "anonymous": false,
      "inputs": [
        {
          "indexed": false,
          "internalType": "string",
          "name": "value",
          "type": "string"
        },
        {
          "indexed": true,
          "internalType": "uint256",
          "name": "id",
          "type": "uint256"
        }
      ],
      "name": "URI",
      "type": "event"
    },
    {
      "inputs": [],
      "name": "EMPTY_ROOT",
      "outputs": [
        {
          "internalType": "bytes32",
          "name": "",
          "type": "bytes32"
        }
      ],
      "stateMutability": "view",
      "type": "function"
    },
    {
      "inputs": [
        {
          "internalType": "address",
          "name": "account",
          "type": "address"
        },
        {
          "internalType": "uint256",
          "name": "id",
          "type": "uint256"
        }
      ],
      "name": "balanceOf",
      "outputs": [
        {
          "internalType": "uint256",
          "name": "",
          "type": "uint256"
        }
      ],
      "stateMutability": "view",
      "type": "function"
    },
    {
      "inputs": [
        {
          "internalType": "address[]",
          "name": "accounts",
          "type": "address[]"
        },
        {
          "internalType": "uint256[]",
          "name": "ids",
          "type": "uint256[]"
        }
      ],
      "name": "balanceOfBatch",
      "outputs": [
        {
          "internalType": "uint256[]",
          "name": "",
          "type": "uint256[]"
        }
      ],
      "stateMutability": "view",
      "type": "function"
    },
    {
      "inputs": [],
      "name": "baseURI",
      "outputs": [
        {
          "internalType": "string",
          "name": "",
          "type": "string"
        }
      ],
      "stateMutability": "view",
      "type": "function"
    },
    {
      "inputs": [],
      "name": "contractURI",
      "outputs": [
        {
          "internalType": "string",
          "name": "",
          "type": "string"
        }
      ],
      "stateMutability": "view",
      "type": "function"
    },
    {
      "inputs": [],
      "name": "feeDestination",
      "outputs": [
        {
          "internalType": "address",
          "name": "",
          "type": "address"
        }
      ],
      "stateMutability": "view",
      "type": "function"
    },
    {
      "inputs": [
        {
          "components": [
            {
              "internalType": "string",
              "name": "saleIdentifier",
              "type": "string"
            },
            {
              "internalType": "bool",
              "name": "enabled",
              "type": "bool"
            },
            {
              "internalType": "uint256",
              "name": "startTime",
              "type": "uint256"
            },
            {
              "internalType": "uint256",
              "name": "endTime",
              "type": "uint256"
            },
            {
              "internalType": "uint256",
              "name": "mintCharge",
              "type": "uint256"
            },
            {
              "internalType": "bytes32",
              "name": "whitelistRoot",
              "type": "bytes32"
            },
            {
              "internalType": "uint256",
              "name": "maxMintPerWallet",
              "type": "uint256"
            },
            {
              "internalType": "uint256",
              "name": "maxMintInSale",
              "type": "uint256"
            }
          ],
          "internalType": "struct Collection1155.SaleConfig",
          "name": "config",
          "type": "tuple"
        }
      ],
      "name": "getSaleConfigLeaf",
      "outputs": [
        {
          "internalType": "bytes32",
          "name": "",
          "type": "bytes32"
        }
      ],
      "stateMutability": "pure",
      "type": "function"
    },
    {
      "inputs": [
        {
          "internalType": "address",
          "name": "account",
          "type": "address"
        },
        {
          "internalType": "address",
          "name": "operator",
          "type": "address"
        }
      ],
      "name": "isApprovedForAll",
      "outputs": [
        {
          "internalType": "bool",
          "name": "",
          "type": "bool"
        }
      ],
      "stateMutability": "view",
      "type": "function"
    },
    {
      "inputs": [
        {
          "internalType": "bytes",
          "name": "",
          "type": "bytes"
        }
      ],
      "name": "isSignatureRedeemed",
      "outputs": [
        {
          "internalType": "bool",
          "name": "",
          "type": "bool"
        }
      ],
      "stateMutability": "view",
      "type": "function"
    },
    {
      "inputs": [],
      "name": "maxMintCap",
      "outputs": [
        {
          "internalType": "uint256",
          "name": "",
          "type": "uint256"
        }
      ],
      "stateMutability": "view",
      "type": "function"
    },
    {
      "inputs": [],
      "name": "maxMintInTotalPerWallet",
      "outputs": [
        {
          "internalType": "uint256",
          "name": "",
          "type": "uint256"
        }
      ],
      "stateMutability": "view",
      "type": "function"
    },
    {
      "inputs": [
        {
          "internalType": "bytes32[]",
          "name": "saleConfigProof",
          "type": "bytes32[]"
        },
        {
          "internalType": "bytes32[]",
          "name": "whitelistProof",
          "type": "bytes32[]"
        },
        {
          "internalType": "uint256",
          "name": "numberOfMint",
          "type": "uint256"
        },
        {
          "internalType": "string",
          "name": "message",
          "type": "string"
        },
        {
          "internalType": "bytes",
          "name": "signature",
          "type": "bytes"
        },
        {
          "components": [
            {
              "internalType": "string",
              "name": "saleIdentifier",
              "type": "string"
            },
            {
              "internalType": "bool",
              "name": "enabled",
              "type": "bool"
            },
            {
              "internalType": "uint256",
              "name": "startTime",
              "type": "uint256"
            },
            {
              "internalType": "uint256",
              "name": "endTime",
              "type": "uint256"
            },
            {
              "internalType": "uint256",
              "name": "mintCharge",
              "type": "uint256"
            },
            {
              "internalType": "bytes32",
              "name": "whitelistRoot",
              "type": "bytes32"
            },
            {
              "internalType": "uint256",
              "name": "maxMintPerWallet",
              "type": "uint256"
            },
            {
              "internalType": "uint256",
              "name": "maxMintInSale",
              "type": "uint256"
            }
          ],
          "internalType": "struct Collection1155.SaleConfig",
          "name": "config",
          "type": "tuple"
        }
      ],
      "name": "mint",
      "outputs": [],
      "stateMutability": "payable",
      "type": "function"
    },
    {
      "inputs": [],
      "name": "mintCount",
      "outputs": [
        {
          "internalType": "uint256",
          "name": "",
          "type": "uint256"
        }
      ],
      "stateMutability": "view",
      "type": "function"
    },
    {
      "inputs": [
        {
          "internalType": "string",
          "name": "",
          "type": "string"
        }
      ],
      "name": "mintCountByIdentifier",
      "outputs": [
        {
          "internalType": "uint256",
          "name": "",
          "type": "uint256"
        }
      ],
      "stateMutability": "view",
      "type": "function"
    },
    {
      "inputs": [
        {
          "internalType": "string",
          "name": "",
          "type": "string"
        },
        {
          "internalType": "address",
          "name": "",
          "type": "address"
        }
      ],
      "name": "mintCountByIdentifierWallet",
      "outputs": [
        {
          "internalType": "uint256",
          "name": "",
          "type": "uint256"
        }
      ],
      "stateMutability": "view",
      "type": "function"
    },
    {
      "inputs": [],
      "name": "msgSigner",
      "outputs": [
        {
          "internalType": "address",
          "name": "",
          "type": "address"
        }
      ],
      "stateMutability": "view",
      "type": "function"
    },
    {
      "inputs": [],
      "name": "owner",
      "outputs": [
        {
          "internalType": "address",
          "name": "",
          "type": "address"
        }
      ],
      "stateMutability": "view",
      "type": "function"
    },
    {
      "inputs": [],
      "name": "platformOwner",
      "outputs": [
        {
          "internalType": "address",
          "name": "",
          "type": "address"
        }
      ],
      "stateMutability": "view",
      "type": "function"
    },
    {
      "inputs": [],
      "name": "priceFeedAddress",
      "outputs": [
        {
          "internalType": "address",
          "name": "",
          "type": "address"
        }
      ],
      "stateMutability": "view",
      "type": "function"
    },
    {
      "inputs": [],
      "name": "renounceOwnership",
      "outputs": [],
      "stateMutability": "nonpayable",
      "type": "function"
    },
    {
      "inputs": [],
      "name": "revealTime",
      "outputs": [
        {
          "internalType": "uint256",
          "name": "",
          "type": "uint256"
        }
      ],
      "stateMutability": "view",
      "type": "function"
    },
    {
      "inputs": [],
      "name": "royaltyBasis",
      "outputs": [
        {
          "internalType": "uint96",
          "name": "",
          "type": "uint96"
        }
      ],
      "stateMutability": "view",
      "type": "function"
    },
    {
      "inputs": [
        {
          "internalType": "uint256",
          "name": "_tokenId",
          "type": "uint256"
        },
        {
          "internalType": "uint256",
          "name": "_salePrice",
          "type": "uint256"
        }
      ],
      "name": "royaltyInfo",
      "outputs": [
        {
          "internalType": "address",
          "name": "",
          "type": "address"
        },
        {
          "internalType": "uint256",
          "name": "",
          "type": "uint256"
        }
      ],
      "stateMutability": "view",
      "type": "function"
    },
    {
      "inputs": [
        {
          "internalType": "address",
          "name": "from",
          "type": "address"
        },
        {
          "internalType": "address",
          "name": "to",
          "type": "address"
        },
        {
          "internalType": "uint256[]",
          "name": "ids",
          "type": "uint256[]"
        },
        {
          "internalType": "uint256[]",
          "name": "amounts",
          "type": "uint256[]"
        },
        {
          "internalType": "bytes",
          "name": "data",
          "type": "bytes"
        }
      ],
      "name": "safeBatchTransferFrom",
      "outputs": [],
      "stateMutability": "nonpayable",
      "type": "function"
    },
    {
      "inputs": [
        {
          "internalType": "address",
          "name": "from",
          "type": "address"
        },
        {
          "internalType": "address",
          "name": "to",
          "type": "address"
        },
        {
          "internalType": "uint256",
          "name": "id",
          "type": "uint256"
        },
        {
          "internalType": "uint256",
          "name": "amount",
          "type": "uint256"
        },
        {
          "internalType": "bytes",
          "name": "data",
          "type": "bytes"
        }
      ],
      "name": "safeTransferFrom",
      "outputs": [],
      "stateMutability": "nonpayable",
      "type": "function"
    },
    {
      "inputs": [],
      "name": "saleConfigsRoot",
      "outputs": [
        {
          "internalType": "bytes32",
          "name": "",
          "type": "bytes32"
        }
      ],
      "stateMutability": "view",
      "type": "function"
    },
    {
      "inputs": [
        {
          "internalType": "address",
          "name": "operator",
          "type": "address"
        },
        {
          "internalType": "bool",
          "name": "approved",
          "type": "bool"
        }
      ],
      "name": "setApprovalForAll",
      "outputs": [],
      "stateMutability": "nonpayable",
      "type": "function"
    },
    {
      "inputs": [
        {
          "internalType": "bytes4",
          "name": "interfaceId",
          "type": "bytes4"
        }
      ],
      "name": "supportsInterface",
      "outputs": [
        {
          "internalType": "bool",
          "name": "",
          "type": "bool"
        }
      ],
      "stateMutability": "view",
      "type": "function"
    },
    {
      "inputs": [
        {
          "internalType": "uint256",
          "name": "_tokenId",
          "type": "uint256"
        }
      ],
      "name": "tokenURI",
      "outputs": [
        {
          "internalType": "string",
          "name": "",
          "type": "string"
        }
      ],
      "stateMutability": "view",
      "type": "function"
    },
    {
      "inputs": [
        {
          "internalType": "address",
          "name": "newOwner",
          "type": "address"
        }
      ],
      "name": "transferOwnership",
      "outputs": [],
      "stateMutability": "nonpayable",
      "type": "function"
    },
    {
      "inputs": [
        {
          "internalType": "string",
          "name": "_baseURI",
          "type": "string"
        }
      ],
      "name": "updateBaseURI",
      "outputs": [],
      "stateMutability": "nonpayable",
      "type": "function"
    },
    {
      "inputs": [
        {
          "internalType": "address",
          "name": "_feeDestination",
          "type": "address"
        }
      ],
      "name": "updateFeeToAddress",
      "outputs": [],
      "stateMutability": "nonpayable",
      "type": "function"
    },
    {
      "inputs": [
        {
          "internalType": "uint256",
          "name": "_val",
          "type": "uint256"
        }
      ],
      "name": "updateMaxMintInTotalPerWallet",
      "outputs": [],
      "stateMutability": "nonpayable",
      "type": "function"
    },
    {
      "inputs": [
        {
          "internalType": "address",
          "name": "_address",
          "type": "address"
        }
      ],
      "name": "updatePlatformOwner",
      "outputs": [],
      "stateMutability": "nonpayable",
      "type": "function"
    },
    {
      "inputs": [
        {
          "internalType": "uint256",
          "name": "_revealTime",
          "type": "uint256"
        }
      ],
      "name": "updateRevealTime",
      "outputs": [],
      "stateMutability": "nonpayable",
      "type": "function"
    },
    {
      "inputs": [
        {
          "internalType": "uint96",
          "name": "_val",
          "type": "uint96"
        }
      ],
      "name": "updateRoyaltyBasis",
      "outputs": [],
      "stateMutability": "nonpayable",
      "type": "function"
    },
    {
      "inputs": [
        {
          "internalType": "bytes32",
          "name": "_saleConfigRoot",
          "type": "bytes32"
        }
      ],
      "name": "updateSaleConfigRoot",
      "outputs": [],
      "stateMutability": "nonpayable",
      "type": "function"
    },
    {
      "inputs": [
        {
          "internalType": "uint256",
          "name": "",
          "type": "uint256"
        }
      ],
      "name": "uri",
      "outputs": [
        {
          "internalType": "string",
          "name": "",
          "type": "string"
        }
      ],
      "stateMutability": "view",
      "type": "function"
    },
    {
      "stateMutability": "payable",
      "type": "receive"
    }
  ],
  "bytecode": "0x6080604052600060135560405162003fca38038062003fca8339810160408190526200002b916200055c565b80516200003833620002c2565b620000438162000312565b5060016006556101408101516001600160a01b031615620001725760008161014001516001600160a01b031663feaf968c6040518163ffffffff1660e01b815260040160a060405180830381865afa158015620000a4573d6000803e3d6000fd5b505050506040513d601f19601f82011682018060405250810190620000ca9190620006a2565b5050509150506305f5e100816064620000e491906200070d565b620000f091906200079e565b6101208301516200010a9067d02ab486cedc00006200070d565b6200011691906200079e565b3412156200016b5760405162461bcd60e51b815260206004820152601a60248201527f4e6f7420656e6f756768206368617267652070726f766964656400000000000060448201526064015b60405180910390fd5b50620001db565b6101208101516200018a90655af3107a4000620007de565b341015620001db5760405162461bcd60e51b815260206004820152601a60248201527f4e6f7420656e6f756768206368617267652070726f7669646564000000000000604482015260640162000162565b6020810151600780546001600160a01b039283166001600160a01b03199182161790915560608301516008556080830151600d805491909316911617905560a0810151600e906200022d90826200088f565b506040810151600c5560c0810151600f5560e08101516200025090309062000324565b60e08101516101008201516001600160a01b03166c0100000000000000000000000081026001600160601b03909216919091176010556101208201516011556040513480156108fc02916000818181858888f19350505050158015620002ba573d6000803e3d6000fd5b50506200095b565b600080546001600160a01b038381166001600160a01b0319831681178455604051919092169283917f8be0079c531659141344cd1fd0a4f28419497f9722a3daafe3b4186f6b6457e09190a35050565b60036200032082826200088f565b5050565b6127106001600160601b0382161115620003945760405162461bcd60e51b815260206004820152602a60248201527f455243323938313a20726f79616c7479206665652077696c6c206578636565646044820152692073616c65507269636560b01b606482015260840162000162565b6001600160a01b038216620003ec5760405162461bcd60e51b815260206004820152601960248201527f455243323938313a20696e76616c696420726563656976657200000000000000604482015260640162000162565b604080518082019091526001600160a01b039092168083526001600160601b039091166020909201829052600160a01b90910217600455565b634e487b7160e01b600052604160045260246000fd5b60405161016081016001600160401b038111828210171562000461576200046162000425565b60405290565b604051601f8201601f191681016001600160401b038111828210171562000492576200049262000425565b604052919050565b600082601f830112620004ac57600080fd5b81516001600160401b03811115620004c857620004c862000425565b6020620004de601f8301601f1916820162000467565b8281528582848701011115620004f357600080fd5b60005b8381101562000513578581018301518282018401528201620004f6565b506000928101909101919091529392505050565b80516001600160a01b03811681146200053f57600080fd5b919050565b80516001600160601b03811681146200053f57600080fd5b6000602082840312156200056f57600080fd5b81516001600160401b03808211156200058757600080fd5b9083019061016082860312156200059d57600080fd5b620005a76200043b565b825182811115620005b757600080fd5b620005c5878286016200049a565b825250620005d66020840162000527565b60208201526040830151604082015260608301516060820152620005fd6080840162000527565b608082015260a0830151828111156200061557600080fd5b62000623878286016200049a565b60a08301525060c083015160c08201526200064160e0840162000544565b60e082015261010091506200065882840162000527565b828201526101209150818301518282015261014091506200067b82840162000527565b91810191909152949350505050565b80516001600160501b03811681146200053f57600080fd5b600080600080600060a08688031215620006bb57600080fd5b620006c6866200068a565b9450602086015193506040860151925060608601519150620006eb608087016200068a565b90509295509295909350565b634e487b7160e01b600052601160045260246000fd5b60006001600160ff1b0381841382841380821686840486111615620007365762000736620006f7565b600160ff1b6000871282811687830589121615620007585762000758620006f7565b60008712925087820587128484161615620007775762000777620006f7565b87850587128184161615620007905762000790620006f7565b505050929093029392505050565b600082620007bc57634e487b7160e01b600052601260045260246000fd5b600160ff1b821460001984141615620007d957620007d9620006f7565b500590565b6000816000190483118215151615620007fb57620007fb620006f7565b500290565b600181811c908216806200081557607f821691505b6020821081036200083657634e487b7160e01b600052602260045260246000fd5b50919050565b601f8211156200088a57600081815260208120601f850160051c81016020861015620008655750805b601f850160051c820191505b81811015620008865782815560010162000871565b5050505b505050565b81516001600160401b03811115620008ab57620008ab62000425565b620008c381620008bc845462000800565b846200083c565b602080601f831160018114620008fb5760008415620008e25750858301515b600019600386901b1c1916600185901b17855562000886565b600085815260208120601f198616915b828110156200092c578886015182559484019460019091019084016200090b565b50858210156200094b5787850151600019600388901b60f8161c191681555b5050505050600190811b01905550565b61365f806200096b6000396000f3fe6080604052600436106101e85760003560e01c80638da5cb5b11610103578063ca73e5e91161009b578063ca73e5e9146106d6578063d9c79c1c146106f6578063dc9f75f714610709578063de53fcd514610729578063e0abca0b14610749578063e8a3d48514610769578063e985e9c51461077e578063eaf3a589146107c7578063f242432a146107dd578063f2fde38b146107fd57600080fd5b80638da5cb5b146105a6578063931688cb146105c45780639659867e146105e45780639a953ea2146105fa578063a22cb46514610610578063ba4cc74914610630578063ba829d7114610668578063c6ec69091461067e578063c87b56dd146106b657600080fd5b80632eb2c2d6116101815780632eb2c2d61461045a5780634df8ccb11461047a5780634e1273f4146104b957806361b5a2a2146104e65780636c0360eb14610506578063715018a61461051b5780637feb839d146105305780638028b2851461054657806383699816146105665780638847d3d51461058657600080fd5b8062fdd58e146102c4578063018779c7146102f757806301ffc9a7146103425780630b8c1785146103625780630e89341c146103aa5780631b34f107146103d7578063210112f5146103f75780632a55205a146104175780632e411f221461044557600080fd5b366102bf57600060646101fc3460026127a8565b61020691906127dd565b601054909150600160601b90046001600160a01b03161561026357601054604051600160601b9091046001600160a01b0316906108fc8315029083906000818181858888f19350505050158015610261573d6000803e3d6000fd5b505b6007546010546001600160a01b03918216916108fc91600160601b90041661028b5734610295565b61029583346127f1565b6040518115909202916000818181858888f193505050501580156102bd573d6000803e3d6000fd5b005b600080fd5b3480156102d057600080fd5b506102e46102df366004612820565b61081d565b6040519081526020015b60405180910390f35b34801561030357600080fd5b50610332610312366004612928565b805160208183018101805160098252928201919093012091525460ff1681565b60405190151581526020016102ee565b34801561034e57600080fd5b5061033261035d366004612972565b6108b8565b34801561036e57600080fd5b506102e461037d36600461298f565b8151602081840181018051600b825292820194820194909420919093529091526000908152604090205481565b3480156103b657600080fd5b506103ca6103c53660046129dc565b6108dd565b6040516102ee9190612a45565b3480156103e357600080fd5b506102bd6103f2366004612a58565b610971565b34801561040357600080fd5b506102bd610412366004612a58565b6109f0565b34801561042357600080fd5b50610437610432366004612a73565b610a1a565b6040516102ee929190612a95565b34801561045157600080fd5b506102e4600081565b34801561046657600080fd5b506102bd610475366004612b42565b610ac8565b34801561048657600080fd5b506010546104a190600160601b90046001600160a01b031681565b6040516001600160a01b0390911681526020016102ee565b3480156104c557600080fd5b506104d96104d4366004612beb565b610b14565b6040516102ee9190612cf0565b3480156104f257600080fd5b506102bd6105013660046129dc565b610c3d565b34801561051257600080fd5b506103ca610c4a565b34801561052757600080fd5b506102bd610cd8565b34801561053c57600080fd5b506102e460115481565b34801561055257600080fd5b50600d546104a1906001600160a01b031681565b34801561057257600080fd5b506102bd6105813660046129dc565b610cec565b34801561059257600080fd5b506102bd6105a1366004612d03565b610cf9565b3480156105b257600080fd5b506000546001600160a01b03166104a1565b3480156105d057600080fd5b506102bd6105df366004612928565b610d2d565b3480156105f057600080fd5b506102e460135481565b34801561060657600080fd5b506102e4600c5481565b34801561061c57600080fd5b506102bd61062b366004612d3c565b610d45565b34801561063c57600080fd5b506102e461064b366004612928565b8051602081830181018051600a8252928201919093012091525481565b34801561067457600080fd5b506102e4600f5481565b34801561068a57600080fd5b5060105461069e906001600160601b031681565b6040516001600160601b0390911681526020016102ee565b3480156106c257600080fd5b506103ca6106d13660046129dc565b610d50565b3480156106e257600080fd5b506102e46106f1366004612dfb565b610e20565b6102bd610704366004612e2f565b610e95565b34801561071557600080fd5b506102bd6107243660046129dc565b611695565b34801561073557600080fd5b506007546104a1906001600160a01b031681565b34801561075557600080fd5b506012546104a1906001600160a01b031681565b34801561077557600080fd5b506103ca6116a2565b34801561078a57600080fd5b50610332610799366004612f08565b6001600160a01b03918216600090815260026020908152604080832093909416825291909152205460ff1690565b3480156107d357600080fd5b506102e460085481565b3480156107e957600080fd5b506102bd6107f8366004612f32565b6116f6565b34801561080957600080fd5b506102bd610818366004612a58565b61173b565b60006001600160a01b03831661088d5760405162461bcd60e51b815260206004820152602a60248201527f455243313135353a2061646472657373207a65726f206973206e6f742061207660448201526930b634b21037bbb732b960b11b60648201526084015b60405180910390fd5b5060008181526001602090815260408083206001600160a01b03861684529091529020545b92915050565b60006001600160e01b0319821663152a902d60e11b14806108b257506108b2826117b4565b6060600380546108ec90612f96565b80601f016020809104026020016040519081016040528092919081815260200182805461091890612f96565b80156109655780601f1061093a57610100808354040283529160200191610965565b820191906000526020600020905b81548152906001019060200180831161094857829003601f168201915b50505050509050919050565b601054600160601b90046001600160a01b031633146109c85760405162461bcd60e51b815260206004820152601360248201527227b7363c90283630ba3337b9369027bbb732b960691b6044820152606401610884565b601080546001600160a01b03909216600160601b026001600160601b03909216919091179055565b6109f86117d9565b600780546001600160a01b0319166001600160a01b0392909216919091179055565b60008281526005602090815260408083208151808301909252546001600160a01b038116808352600160a01b9091046001600160601b0316928201929092528291610a8f5750604080518082019091526004546001600160a01b0381168252600160a01b90046001600160601b031660208201525b602081015160009061271090610aae906001600160601b0316876127a8565b610ab891906127dd565b91519350909150505b9250929050565b6001600160a01b038516331480610ae45750610ae48533610799565b610b005760405162461bcd60e51b815260040161088490612fd0565b610b0d8585858585611833565b5050505050565b60608151835114610b795760405162461bcd60e51b815260206004820152602960248201527f455243313135353a206163636f756e747320616e6420696473206c656e677468604482015268040dad2e6dac2e8c6d60bb1b6064820152608401610884565b600083516001600160401b03811115610b9457610b9461284a565b604051908082528060200260200182016040528015610bbd578160200160208202803683370190505b50905060005b8451811015610c3557610c08858281518110610be157610be161301f565b6020026020010151858381518110610bfb57610bfb61301f565b602002602001015161081d565b828281518110610c1a57610c1a61301f565b6020908102919091010152610c2e81613035565b9050610bc3565b509392505050565b610c456117d9565b600c55565b600e8054610c5790612f96565b80601f0160208091040260200160405190810160405280929190818152602001828054610c8390612f96565b8015610cd05780601f10610ca557610100808354040283529160200191610cd0565b820191906000526020600020905b815481529060010190602001808311610cb357829003601f168201915b505050505081565b610ce06117d9565b610cea6000611a13565b565b610cf46117d9565b600855565b610d016117d9565b610d0b3082611a63565b601080546001600160601b0319166001600160601b0392909216919091179055565b610d356117d9565b600e610d418282613099565b5050565b610d41338383611b5c565b60608115610d925760405162461bcd60e51b815260206004820152600f60248201526e125b9d985b1a59081d1bdad95b9259608a1b6044820152606401610884565b600e600f54600014158015610da95750600f544211155b610dc25760405180602001604052806000815250610de3565b6040518060400160405280600781526020016668696464656e2d60c81b8152505b610dee306014611c3c565b610df746611dde565b604051602001610e0a94939291906131cb565b6040516020818303038152906040529050919050565b80516020808301516040808501516060860151608087015160a088015160c089015160e08a01519551600099610e5a999098979101613264565b60408051601f19818403018152828252805160209182012090830152015b604051602081830303815290604052805190602001209050919050565b600260065403610ee75760405162461bcd60e51b815260206004820152601f60248201527f5265656e7472616e637947756172643a207265656e7472616e742063616c6c006044820152606401610884565b60026006819055508585858360115482601354610f0491906132b3565b1115610f4f5760405162461bcd60e51b815260206004820152601a60248201527904d696e7420436f756e742065786365656473204d6178204361760341b6044820152606401610884565b600854610f935760405162461bcd60e51b8152602060048201526012602482015271139bc81cd85b194818dbdb999a59dd5c995960721b6044820152606401610884565b610fa884600854610fa384610e20565b611ee6565b610fea5760405162461bcd60e51b8152602060048201526013602482015272496e76616c69642053616c6520436f6e66696760681b6044820152606401610884565b80602001516110315760405162461bcd60e51b815260206004820152601360248201527214d85b19481a5cc81b9bdd08195b98589b1959606a1b6044820152606401610884565b604081015142901580159061104a575081604001518110155b6110915760405162461bcd60e51b815260206004820152601860248201527714d85b19481a185cc81b9bdd081cdd185c9d1959081e595d60421b6044820152606401610884565b8160600151811115806110a657506060820151155b6110e35760405162461bcd60e51b815260206004820152600e60248201526d14d85b19481a185cc8195b99195960921b6044820152606401610884565b8282608001516110f391906127a8565b3410156111425760405162461bcd60e51b815260206004820152601f60248201527f4e6f7420656e6f756768206d696e74206368617267652070726f7669646564006044820152606401610884565b8160e0015183600a846000015160405161115c91906132c6565b90815260200160405180910390205461117591906132b3565b11156111bc5760405162461bcd60e51b81526020600482015260166024820152754d61782053616c65204c696d6974204578636565647360501b6044820152606401610884565b8160c0015183600b84600001516040516111d691906132c6565b908152604080516020928190038301902033600090815292529020546111fc91906132b3565b111561124a5760405162461bcd60e51b815260206004820181905260248201527f4d61784d696e7450657257616c6c657453616c654c696d6974457863656564736044820152606401610884565b600c54156112b957600c548361126133600061081d565b61126b91906132b3565b11156112b95760405162461bcd60e51b815260206004820152601e60248201527f4d6178546f74616c4d696e7457616c6c65744c696d69744578636565647300006044820152606401610884565b60a0820151156113455760a08201516040516001600160601b03193360601b16602082015261130291869160340160405160208183030381529060405280519060200120611ee6565b6113455760405162461bcd60e51b8152602060048201526014602482015273155cd95c881b9bdd081dda1a5d195b1a5cdd195960621b6044820152606401610884565b878760098160405161135791906132c6565b9081526040519081900360200190205460ff16156113b45760405162461bcd60e51b815260206004820152601a60248201527914da59db985d1d5c9948185b1c9958591e481c995919595b595960321b6044820152606401610884565b600d546040516001600160a01b03909116906113ff9083906113f9906113de9087906020016132c6565b60405160208183030381529060405280519060200120611efc565b90611f37565b6001600160a01b0316146114495760405162461bcd60e51b8152602060048201526011602482015270496e76616c6964205369676e617475726560781b6044820152606401610884565b60008b116114905760405162461bcd60e51b815260206004820152601460248201527304e756d626572206f66206d696e747320697320360641b6044820152606401610884565b8a600b89600001516040516114a591906132c6565b90815260408051602092819003830190203360009081529252812080549091906114d09084906132b3565b925050819055508a601360008282546114e991906132b3565b909155505087516040518c91600a9161150291906132c6565b9081526020016040518091039020600082825461151f91906132b3565b92505081905550600160098a60405161153891906132c6565b908152604051908190036020019020805491151560ff1990921691909117905560006127106115693461012c6127a8565b61157391906127dd565b601054909150600160601b90046001600160a01b0316156115d057601054604051600160601b9091046001600160a01b0316906108fc8315029083906000818181858888f193505050501580156115ce573d6000803e3d6000fd5b505b6007546010546001600160a01b03918216916108fc91600160601b9004166115f85734611602565b61160283346127f1565b6040518115909202916000818181858888f1935050505015801561162a573d6000803e3d6000fd5b506116473360008e60405180602001604052806000815250611f53565b7f0f6798a560793a54c3bcfe86a93cde1e73087d944c0ea20544137d4121396885338d604051611678929190612a95565b60405180910390a150506001600655505050505050505050505050565b61169d6117d9565b600f55565b6060600e6116b1306014611c3c565b6116ba46611dde565b6010546116cf906001600160601b0316611dde565b6040516020016116e294939291906132e2565b604051602081830303815290604052905090565b6001600160a01b03851633148061171257506117128533610799565b61172e5760405162461bcd60e51b815260040161088490612fd0565b610b0d8585858585612069565b6117436117d9565b6001600160a01b0381166117a85760405162461bcd60e51b815260206004820152602660248201527f4f776e61626c653a206e6577206f776e657220697320746865207a65726f206160448201526564647265737360d01b6064820152608401610884565b6117b181611a13565b50565b60006001600160e01b0319821663152a902d60e11b14806108b257506108b282612197565b6000546001600160a01b03163314610cea5760405162461bcd60e51b815260206004820181905260248201527f4f776e61626c653a2063616c6c6572206973206e6f7420746865206f776e65726044820152606401610884565b81518351146118955760405162461bcd60e51b815260206004820152602860248201527f455243313135353a2069647320616e6420616d6f756e7473206c656e677468206044820152670dad2e6dac2e8c6d60c31b6064820152608401610884565b6001600160a01b0384166118bb5760405162461bcd60e51b81526004016108849061337e565b3360005b84518110156119a55760008582815181106118dc576118dc61301f565b6020026020010151905060008583815181106118fa576118fa61301f565b60209081029190910181015160008481526001835260408082206001600160a01b038e16835290935291909120549091508181101561194b5760405162461bcd60e51b8152600401610884906133c3565b60008381526001602090815260408083206001600160a01b038e8116855292528083208585039055908b1682528120805484929061198a9084906132b3565b925050819055505050508061199e90613035565b90506118bf565b50846001600160a01b0316866001600160a01b0316826001600160a01b03167f4a39dc06d4c0dbc64b70af90fd698a233a518aa5d07e595d983b8c0526c8f7fb87876040516119f592919061340d565b60405180910390a4611a0b8187878787876121e7565b505050505050565b600080546001600160a01b038381166001600160a01b0319831681178455604051919092169283917f8be0079c531659141344cd1fd0a4f28419497f9722a3daafe3b4186f6b6457e09190a35050565b6127106001600160601b0382161115611ad15760405162461bcd60e51b815260206004820152602a60248201527f455243323938313a20726f79616c7479206665652077696c6c206578636565646044820152692073616c65507269636560b01b6064820152608401610884565b6001600160a01b038216611b235760405162461bcd60e51b815260206004820152601960248201527822a921991c9c189d1034b73b30b634b2103932b1b2b4bb32b960391b6044820152606401610884565b604080518082019091526001600160a01b039092168083526001600160601b039091166020909201829052600160a01b90910217600455565b816001600160a01b0316836001600160a01b031603611bcf5760405162461bcd60e51b815260206004820152602960248201527f455243313135353a2073657474696e6720617070726f76616c20737461747573604482015268103337b91039b2b63360b91b6064820152608401610884565b6001600160a01b03838116600081815260026020908152604080832094871680845294825291829020805460ff191686151590811790915591519182527f17307eab39ab6107e8899845ad3d59bd9653f200f220920489ca2b5937696c31910160405180910390a3505050565b60606000611c4b8360026127a8565b611c569060026132b3565b6001600160401b03811115611c6d57611c6d61284a565b6040519080825280601f01601f191660200182016040528015611c97576020820181803683370190505b509050600360fc1b81600081518110611cb257611cb261301f565b60200101906001600160f81b031916908160001a905350600f60fb1b81600181518110611ce157611ce161301f565b60200101906001600160f81b031916908160001a9053506000611d058460026127a8565b611d109060016132b3565b90505b6001811115611d88576f181899199a1a9b1b9c1cb0b131b232b360811b85600f1660108110611d4457611d4461301f565b1a60f81b828281518110611d5a57611d5a61301f565b60200101906001600160f81b031916908160001a90535060049490941c93611d818161343b565b9050611d13565b508315611dd75760405162461bcd60e51b815260206004820181905260248201527f537472696e67733a20686578206c656e67746820696e73756666696369656e746044820152606401610884565b9392505050565b606081600003611e055750506040805180820190915260018152600360fc1b602082015290565b8160005b8115611e2f5780611e1981613035565b9150611e289050600a836127dd565b9150611e09565b6000816001600160401b03811115611e4957611e4961284a565b6040519080825280601f01601f191660200182016040528015611e73576020820181803683370190505b5090505b8415611ede57611e886001836127f1565b9150611e95600a86613452565b611ea09060306132b3565b60f81b818381518110611eb557611eb561301f565b60200101906001600160f81b031916908160001a905350611ed7600a866127dd565b9450611e77565b949350505050565b600082611ef38584612342565b14949350505050565b6040517f19457468657265756d205369676e6564204d6573736167653a0a3332000000006020820152603c8101829052600090605c01610e78565b6000806000611f468585612387565b91509150610c35816123c9565b6001600160a01b038416611fb35760405162461bcd60e51b815260206004820152602160248201527f455243313135353a206d696e7420746f20746865207a65726f206164647265736044820152607360f81b6064820152608401610884565b336000611fbf8561257a565b90506000611fcc8561257a565b905060008681526001602090815260408083206001600160a01b038b168452909152812080548792906120009084906132b3565b909155505060408051878152602081018790526001600160a01b03808a1692600092918716917fc3d58168c5ae7397731d063d5bbf3d657854427343f4c083240f7aacaa2d0f62910160405180910390a4612060836000898989896125c5565b50505050505050565b6001600160a01b03841661208f5760405162461bcd60e51b81526004016108849061337e565b33600061209b8561257a565b905060006120a88561257a565b905060008681526001602090815260408083206001600160a01b038c168452909152902054858110156120ed5760405162461bcd60e51b8152600401610884906133c3565b60008781526001602090815260408083206001600160a01b038d8116855292528083208985039055908a1682528120805488929061212c9084906132b3565b909155505060408051888152602081018890526001600160a01b03808b16928c821692918816917fc3d58168c5ae7397731d063d5bbf3d657854427343f4c083240f7aacaa2d0f62910160405180910390a461218c848a8a8a8a8a6125c5565b505050505050505050565b60006001600160e01b03198216636cdb3d1360e11b14806121c857506001600160e01b031982166303a24d0760e21b145b806108b257506301ffc9a760e01b6001600160e01b03198316146108b2565b6001600160a01b0384163b15611a0b5760405163bc197c8160e01b81526001600160a01b0385169063bc197c819061222b9089908990889088908890600401613466565b6020604051808303816000875af1925050508015612266575060408051601f3d908101601f19168201909252612263918101906134c4565b60015b612312576122726134e1565b806308c379a0036122ab57506122866134fd565b8061229157506122ad565b8060405162461bcd60e51b81526004016108849190612a45565b505b60405162461bcd60e51b815260206004820152603460248201527f455243313135353a207472616e7366657220746f206e6f6e20455243313135356044820152732932b1b2b4bb32b91034b6b83632b6b2b73a32b960611b6064820152608401610884565b6001600160e01b0319811663bc197c8160e01b146120605760405162461bcd60e51b815260040161088490613586565b600081815b8451811015610c3557612373828683815181106123665761236661301f565b6020026020010151612680565b91508061237f81613035565b915050612347565b60008082516041036123bd5760208301516040840151606085015160001a6123b1878285856126af565b94509450505050610ac1565b50600090506002610ac1565b60008160048111156123dd576123dd6135ce565b036123e55750565b60018160048111156123f9576123f96135ce565b036124415760405162461bcd60e51b815260206004820152601860248201527745434453413a20696e76616c6964207369676e617475726560401b6044820152606401610884565b6002816004811115612455576124556135ce565b036124a25760405162461bcd60e51b815260206004820152601f60248201527f45434453413a20696e76616c6964207369676e6174757265206c656e677468006044820152606401610884565b60038160048111156124b6576124b66135ce565b0361250e5760405162461bcd60e51b815260206004820152602260248201527f45434453413a20696e76616c6964207369676e6174757265202773272076616c604482015261756560f01b6064820152608401610884565b6004816004811115612522576125226135ce565b036117b15760405162461bcd60e51b815260206004820152602260248201527f45434453413a20696e76616c6964207369676e6174757265202776272076616c604482015261756560f01b6064820152608401610884565b604080516001808252818301909252606091600091906020808301908036833701905050905082816000815181106125b4576125b461301f565b602090810291909101015292915050565b6001600160a01b0384163b15611a0b5760405163f23a6e6160e01b81526001600160a01b0385169063f23a6e619061260990899089908890889088906004016135e4565b6020604051808303816000875af1925050508015612644575060408051601f3d908101601f19168201909252612641918101906134c4565b60015b612650576122726134e1565b6001600160e01b0319811663f23a6e6160e01b146120605760405162461bcd60e51b815260040161088490613586565b600081831061269c576000828152602084905260409020611dd7565b6000838152602083905260409020611dd7565b6000806fa2a8918ca85bafe22016d0b997e4df60600160ff1b038311156126dc5750600090506003612789565b8460ff16601b141580156126f457508460ff16601c14155b156127055750600090506004612789565b6040805160008082526020820180845289905260ff881692820192909252606081018690526080810185905260019060a0016020604051602081039080840390855afa158015612759573d6000803e3d6000fd5b5050604051601f1901519150506001600160a01b03811661278257600060019250925050612789565b9150600090505b94509492505050565b634e487b7160e01b600052601160045260246000fd5b60008160001904831182151516156127c2576127c2612792565b500290565b634e487b7160e01b600052601260045260246000fd5b6000826127ec576127ec6127c7565b500490565b818103818111156108b2576108b2612792565b80356001600160a01b038116811461281b57600080fd5b919050565b6000806040838503121561283357600080fd5b61283c83612804565b946020939093013593505050565b634e487b7160e01b600052604160045260246000fd5b601f8201601f191681016001600160401b03811182821017156128855761288561284a565b6040525050565b60405161010081016001600160401b03811182821017156128af576128af61284a565b60405290565b600082601f8301126128c657600080fd5b81356001600160401b038111156128df576128df61284a565b6040516128f6601f8301601f191660200182612860565b81815284602083860101111561290b57600080fd5b816020850160208301376000918101602001919091529392505050565b60006020828403121561293a57600080fd5b81356001600160401b0381111561295057600080fd5b611ede848285016128b5565b6001600160e01b0319811681146117b157600080fd5b60006020828403121561298457600080fd5b8135611dd78161295c565b600080604083850312156129a257600080fd5b82356001600160401b038111156129b857600080fd5b6129c4858286016128b5565b9250506129d360208401612804565b90509250929050565b6000602082840312156129ee57600080fd5b5035919050565b60005b83811015612a105781810151838201526020016129f8565b50506000910152565b60008151808452612a318160208601602086016129f5565b601f01601f19169290920160200192915050565b602081526000611dd76020830184612a19565b600060208284031215612a6a57600080fd5b611dd782612804565b60008060408385031215612a8657600080fd5b50508035926020909101359150565b6001600160a01b03929092168252602082015260400190565b60006001600160401b03821115612ac757612ac761284a565b5060051b60200190565b600082601f830112612ae257600080fd5b81356020612aef82612aae565b604051612afc8282612860565b83815260059390931b8501820192828101915086841115612b1c57600080fd5b8286015b84811015612b375780358352918301918301612b20565b509695505050505050565b600080600080600060a08688031215612b5a57600080fd5b612b6386612804565b9450612b7160208701612804565b935060408601356001600160401b0380821115612b8d57600080fd5b612b9989838a01612ad1565b94506060880135915080821115612baf57600080fd5b612bbb89838a01612ad1565b93506080880135915080821115612bd157600080fd5b50612bde888289016128b5565b9150509295509295909350565b60008060408385031215612bfe57600080fd5b82356001600160401b0380821115612c1557600080fd5b818501915085601f830112612c2957600080fd5b81356020612c3682612aae565b604051612c438282612860565b83815260059390931b8501820192828101915089841115612c6357600080fd5b948201945b83861015612c8857612c7986612804565b82529482019490820190612c68565b96505086013592505080821115612c9e57600080fd5b50612cab85828601612ad1565b9150509250929050565b600081518084526020808501945080840160005b83811015612ce557815187529582019590820190600101612cc9565b509495945050505050565b602081526000611dd76020830184612cb5565b600060208284031215612d1557600080fd5b81356001600160601b0381168114611dd757600080fd5b8035801515811461281b57600080fd5b60008060408385031215612d4f57600080fd5b612d5883612804565b91506129d360208401612d2c565b60006101008284031215612d7957600080fd5b612d8161288c565b905081356001600160401b03811115612d9957600080fd5b612da5848285016128b5565b825250612db460208301612d2c565b602082015260408201356040820152606082013560608201526080820135608082015260a082013560a082015260c082013560c082015260e082013560e082015292915050565b600060208284031215612e0d57600080fd5b81356001600160401b03811115612e2357600080fd5b611ede84828501612d66565b60008060008060008060c08789031215612e4857600080fd5b86356001600160401b0380821115612e5f57600080fd5b612e6b8a838b01612ad1565b97506020890135915080821115612e8157600080fd5b612e8d8a838b01612ad1565b9650604089013595506060890135915080821115612eaa57600080fd5b612eb68a838b016128b5565b94506080890135915080821115612ecc57600080fd5b612ed88a838b016128b5565b935060a0890135915080821115612eee57600080fd5b50612efb89828a01612d66565b9150509295509295509295565b60008060408385031215612f1b57600080fd5b612f2483612804565b91506129d360208401612804565b600080600080600060a08688031215612f4a57600080fd5b612f5386612804565b9450612f6160208701612804565b9350604086013592506060860135915060808601356001600160401b03811115612f8a57600080fd5b612bde888289016128b5565b600181811c90821680612faa57607f821691505b602082108103612fca57634e487b7160e01b600052602260045260246000fd5b50919050565b6020808252602f908201527f455243313135353a2063616c6c6572206973206e6f7420746f6b656e206f776e60408201526e195c881b9bdc88185c1c1c9bdd9959608a1b606082015260800190565b634e487b7160e01b600052603260045260246000fd5b60006001820161304757613047612792565b5060010190565b601f82111561309457600081815260208120601f850160051c810160208610156130755750805b601f850160051c820191505b81811015611a0b57828155600101613081565b505050565b81516001600160401b038111156130b2576130b261284a565b6130c6816130c08454612f96565b8461304e565b602080601f8311600181146130fb57600084156130e35750858301515b600019600386901b1c1916600185901b178555611a0b565b600085815260208120601f198616915b8281101561312a5788860151825594840194600190910190840161310b565b50858210156131485787850151600019600388901b60f8161c191681555b5050505050600190811b01905550565b6000815461316581612f96565b6001828116801561317d5760018114613192576131c1565b60ff19841687528215158302870194506131c1565b8560005260208060002060005b858110156131b85781548a82015290840190820161319f565b50505082870194505b5050505092915050565b60006131d78287613158565b85516131e7818360208a016129f5565b71746f6b656e2d7572693f616464726573733d60701b910190815284516132158160128401602089016129f5565b68266e6574776f726b3d60b81b60129290910191820152835161323f81601b8401602088016129f5565b69026746f6b656e49643d360b41b601b92909101918201526025019695505050505050565b60008951613276818460208e016129f5565b98151560f81b919098019081526001810196909652602186019490945260418501929092526061840152608183015260a182015260c10192915050565b808201808211156108b2576108b2612792565b600082516132d88184602087016129f5565b9190910192915050565b60006132ee8287613158565b74636f6e74726163742d7572693f616464726573733d60581b8152855161331c816015840160208a016129f5565b68266e6574776f726b3d60b81b60159290910191820152845161334681601e8401602089016129f5565b6826726f79616c74793d60b81b601e929091019182015283516133708160278401602088016129f5565b016027019695505050505050565b60208082526025908201527f455243313135353a207472616e7366657220746f20746865207a65726f206164604082015264647265737360d81b606082015260800190565b6020808252602a908201527f455243313135353a20696e73756666696369656e742062616c616e636520666f60408201526939103a3930b739b332b960b11b606082015260800190565b6040815260006134206040830185612cb5565b82810360208401526134328185612cb5565b95945050505050565b60008161344a5761344a612792565b506000190190565b600082613461576134616127c7565b500690565b6001600160a01b0386811682528516602082015260a06040820181905260009061349290830186612cb5565b82810360608401526134a48186612cb5565b905082810360808401526134b88185612a19565b98975050505050505050565b6000602082840312156134d657600080fd5b8151611dd78161295c565b600060033d11156134fa5760046000803e5060005160e01c5b90565b600060443d101561350b5790565b6040516003193d81016004833e81513d6001600160401b03816024840111818411171561353a57505050505090565b82850191508151818111156135525750505050505090565b843d870101602082850101111561356c5750505050505090565b61357b60208286010187612860565b509095945050505050565b60208082526028908201527f455243313135353a204552433131353552656365697665722072656a656374656040820152676420746f6b656e7360c01b606082015260800190565b634e487b7160e01b600052602160045260246000fd5b6001600160a01b03868116825285166020820152604081018490526060810183905260a06080820181905260009061361e90830184612a19565b97965050505050505056fea2646970667358221220dfd55fc61bc793dfe927d0365dcaf08df4aaa2a28b61131dc2783baf82c1ad7264736f6c63430008100033",
  "linkReferences": {},
  "deployedLinkReferences": {}
}