{
  "_format": "hh-sol-artifact-1",
  "contractName": "Collection1155",
  "sourceName": "contracts/hydro/hydro-dev/Collection1155.sol",
  "abi": [
    {
      "inputs": [
        {
          "components": [
            {
              "internalType": "string",
              "name": "_name",
              "type": "string"
            },
            {
              "internalType": "address",
              "name": "_feeDestination",
              "type": "address"
            },
            {
              "internalType": "uint256",
              "name": "_maxMintInTotalPerWallet",
              "type": "uint256"
            },
            {
              "internalType": "bytes32",
              "name": "_saleConfigRoot",
              "type": "bytes32"
            },
            {
              "internalType": "address",
              "name": "_msgSigner",
              "type": "address"
            },
            {
              "internalType": "string",
              "name": "_baseURI",
              "type": "string"
            },
            {
              "internalType": "uint256",
              "name": "_revealTime",
              "type": "uint256"
            },
            {
              "internalType": "uint96",
              "name": "_royaltyBasis",
              "type": "uint96"
            },
            {
              "internalType": "address",
              "name": "_platformOwner",
              "type": "address"
            },
            {
              "internalType": "uint256",
              "name": "_maxMintCap",
              "type": "uint256"
            },
            {
              "internalType": "address",
              "name": "_priceFeedAddress",
              "type": "address"
            }
          ],
          "internalType": "struct Collection1155.ConstructorArgs",
          "name": "args",
          "type": "tuple"
        }
      ],
      "stateMutability": "payable",
      "type": "constructor"
    },
    {
      "inputs": [
        {
          "internalType": "address",
          "name": "operator",
          "type": "address"
        }
      ],
      "name": "OperatorNotAllowed",
      "type": "error"
    },
    {
      "anonymous": false,
      "inputs": [
        {
          "indexed": true,
          "internalType": "address",
          "name": "account",
          "type": "address"
        },
        {
          "indexed": true,
          "internalType": "address",
          "name": "operator",
          "type": "address"
        },
        {
          "indexed": false,
          "internalType": "bool",
          "name": "approved",
          "type": "bool"
        }
      ],
      "name": "ApprovalForAll",
      "type": "event"
    },
    {
      "anonymous": false,
      "inputs": [
        {
          "indexed": false,
          "internalType": "address",
          "name": "msgSender",
          "type": "address"
        },
        {
          "indexed": false,
          "internalType": "uint256",
          "name": "numberOfMint",
          "type": "uint256"
        }
      ],
      "name": "Mint",
      "type": "event"
    },
    {
      "anonymous": false,
      "inputs": [
        {
          "indexed": true,
          "internalType": "address",
          "name": "previousOwner",
          "type": "address"
        },
        {
          "indexed": true,
          "internalType": "address",
          "name": "newOwner",
          "type": "address"
        }
      ],
      "name": "OwnershipTransferred",
      "type": "event"
    },
    {
      "anonymous": false,
      "inputs": [
        {
          "indexed": true,
          "internalType": "address",
          "name": "operator",
          "type": "address"
        },
        {
          "indexed": true,
          "internalType": "address",
          "name": "from",
          "type": "address"
        },
        {
          "indexed": true,
          "internalType": "address",
          "name": "to",
          "type": "address"
        },
        {
          "indexed": false,
          "internalType": "uint256[]",
          "name": "ids",
          "type": "uint256[]"
        },
        {
          "indexed": false,
          "internalType": "uint256[]",
          "name": "values",
          "type": "uint256[]"
        }
      ],
      "name": "TransferBatch",
      "type": "event"
    },
    {
      "anonymous": false,
      "inputs": [
        {
          "indexed": true,
          "internalType": "address",
          "name": "operator",
          "type": "address"
        },
        {
          "indexed": true,
          "internalType": "address",
          "name": "from",
          "type": "address"
        },
        {
          "indexed": true,
          "internalType": "address",
          "name": "to",
          "type": "address"
        },
        {
          "indexed": false,
          "internalType": "uint256",
          "name": "id",
          "type": "uint256"
        },
        {
          "indexed": false,
          "internalType": "uint256",
          "name": "value",
          "type": "uint256"
        }
      ],
      "name": "TransferSingle",
      "type": "event"
    },
    {
      "anonymous": false,
      "inputs": [
        {
          "indexed": false,
          "internalType": "string",
          "name": "value",
          "type": "string"
        },
        {
          "indexed": true,
          "internalType": "uint256",
          "name": "id",
          "type": "uint256"
        }
      ],
      "name": "URI",
      "type": "event"
    },
    {
      "inputs": [],
      "name": "EMPTY_ROOT",
      "outputs": [
        {
          "internalType": "bytes32",
          "name": "",
          "type": "bytes32"
        }
      ],
      "stateMutability": "view",
      "type": "function"
    },
    {
      "inputs": [
        {
          "internalType": "address",
          "name": "account",
          "type": "address"
        },
        {
          "internalType": "uint256",
          "name": "id",
          "type": "uint256"
        }
      ],
      "name": "balanceOf",
      "outputs": [
        {
          "internalType": "uint256",
          "name": "",
          "type": "uint256"
        }
      ],
      "stateMutability": "view",
      "type": "function"
    },
    {
      "inputs": [
        {
          "internalType": "address[]",
          "name": "accounts",
          "type": "address[]"
        },
        {
          "internalType": "uint256[]",
          "name": "ids",
          "type": "uint256[]"
        }
      ],
      "name": "balanceOfBatch",
      "outputs": [
        {
          "internalType": "uint256[]",
          "name": "",
          "type": "uint256[]"
        }
      ],
      "stateMutability": "view",
      "type": "function"
    },
    {
      "inputs": [],
      "name": "contractURI",
      "outputs": [
        {
          "internalType": "string",
          "name": "",
          "type": "string"
        }
      ],
      "stateMutability": "view",
      "type": "function"
    },
    {
      "inputs": [
        {
          "components": [
            {
              "internalType": "string",
              "name": "saleIdentifier",
              "type": "string"
            },
            {
              "internalType": "bool",
              "name": "enabled",
              "type": "bool"
            },
            {
              "internalType": "uint256",
              "name": "startTime",
              "type": "uint256"
            },
            {
              "internalType": "uint256",
              "name": "endTime",
              "type": "uint256"
            },
            {
              "internalType": "uint256",
              "name": "mintCharge",
              "type": "uint256"
            },
            {
              "internalType": "bytes32",
              "name": "whitelistRoot",
              "type": "bytes32"
            },
            {
              "internalType": "uint256",
              "name": "maxMintPerWallet",
              "type": "uint256"
            },
            {
              "internalType": "uint256",
              "name": "maxMintInSale",
              "type": "uint256"
            },
            {
              "internalType": "address",
              "name": "tokenGatedAddress",
              "type": "address"
            }
          ],
          "internalType": "struct Collection1155.SaleConfig",
          "name": "config",
          "type": "tuple"
        }
      ],
      "name": "getSaleConfigLeaf",
      "outputs": [
        {
          "internalType": "bytes32",
          "name": "",
          "type": "bytes32"
        }
      ],
      "stateMutability": "pure",
      "type": "function"
    },
    {
      "inputs": [
        {
          "internalType": "address",
          "name": "account",
          "type": "address"
        },
        {
          "internalType": "address",
          "name": "operator",
          "type": "address"
        }
      ],
      "name": "isApprovedForAll",
      "outputs": [
        {
          "internalType": "bool",
          "name": "",
          "type": "bool"
        }
      ],
      "stateMutability": "view",
      "type": "function"
    },
    {
      "inputs": [
        {
          "internalType": "bytes",
          "name": "",
          "type": "bytes"
        }
      ],
      "name": "isSignatureRedeemed",
      "outputs": [
        {
          "internalType": "bool",
          "name": "",
          "type": "bool"
        }
      ],
      "stateMutability": "view",
      "type": "function"
    },
    {
      "inputs": [
        {
          "internalType": "bytes32[]",
          "name": "saleConfigProof",
          "type": "bytes32[]"
        },
        {
          "internalType": "bytes32[]",
          "name": "whitelistProof",
          "type": "bytes32[]"
        },
        {
          "internalType": "uint256",
          "name": "numberOfMint",
          "type": "uint256"
        },
        {
          "internalType": "string",
          "name": "message",
          "type": "string"
        },
        {
          "internalType": "bytes",
          "name": "signature",
          "type": "bytes"
        },
        {
          "components": [
            {
              "internalType": "string",
              "name": "saleIdentifier",
              "type": "string"
            },
            {
              "internalType": "bool",
              "name": "enabled",
              "type": "bool"
            },
            {
              "internalType": "uint256",
              "name": "startTime",
              "type": "uint256"
            },
            {
              "internalType": "uint256",
              "name": "endTime",
              "type": "uint256"
            },
            {
              "internalType": "uint256",
              "name": "mintCharge",
              "type": "uint256"
            },
            {
              "internalType": "bytes32",
              "name": "whitelistRoot",
              "type": "bytes32"
            },
            {
              "internalType": "uint256",
              "name": "maxMintPerWallet",
              "type": "uint256"
            },
            {
              "internalType": "uint256",
              "name": "maxMintInSale",
              "type": "uint256"
            },
            {
              "internalType": "address",
              "name": "tokenGatedAddress",
              "type": "address"
            }
          ],
          "internalType": "struct Collection1155.SaleConfig",
          "name": "config",
          "type": "tuple"
        }
      ],
      "name": "mint",
      "outputs": [],
      "stateMutability": "payable",
      "type": "function"
    },
    {
      "inputs": [],
      "name": "mintCount",
      "outputs": [
        {
          "internalType": "uint256",
          "name": "",
          "type": "uint256"
        }
      ],
      "stateMutability": "view",
      "type": "function"
    },
    {
      "inputs": [
        {
          "internalType": "string",
          "name": "",
          "type": "string"
        }
      ],
      "name": "mintCountByIdentifier",
      "outputs": [
        {
          "internalType": "uint256",
          "name": "",
          "type": "uint256"
        }
      ],
      "stateMutability": "view",
      "type": "function"
    },
    {
      "inputs": [
        {
          "internalType": "string",
          "name": "",
          "type": "string"
        },
        {
          "internalType": "address",
          "name": "",
          "type": "address"
        }
      ],
      "name": "mintCountByIdentifierWallet",
      "outputs": [
        {
          "internalType": "uint256",
          "name": "",
          "type": "uint256"
        }
      ],
      "stateMutability": "view",
      "type": "function"
    },
    {
      "inputs": [
        {
          "internalType": "address",
          "name": "",
          "type": "address"
        }
      ],
      "name": "mintCountByWallet",
      "outputs": [
        {
          "internalType": "uint256",
          "name": "",
          "type": "uint256"
        }
      ],
      "stateMutability": "view",
      "type": "function"
    },
    {
      "inputs": [],
      "name": "owner",
      "outputs": [
        {
          "internalType": "address",
          "name": "",
          "type": "address"
        }
      ],
      "stateMutability": "view",
      "type": "function"
    },
    {
      "inputs": [],
      "name": "renounceOwnership",
      "outputs": [],
      "stateMutability": "nonpayable",
      "type": "function"
    },
    {
      "inputs": [
        {
          "internalType": "uint256",
          "name": "_tokenId",
          "type": "uint256"
        },
        {
          "internalType": "uint256",
          "name": "_salePrice",
          "type": "uint256"
        }
      ],
      "name": "royaltyInfo",
      "outputs": [
        {
          "internalType": "address",
          "name": "",
          "type": "address"
        },
        {
          "internalType": "uint256",
          "name": "",
          "type": "uint256"
        }
      ],
      "stateMutability": "view",
      "type": "function"
    },
    {
      "inputs": [
        {
          "internalType": "address",
          "name": "from",
          "type": "address"
        },
        {
          "internalType": "address",
          "name": "to",
          "type": "address"
        },
        {
          "internalType": "uint256[]",
          "name": "ids",
          "type": "uint256[]"
        },
        {
          "internalType": "uint256[]",
          "name": "amounts",
          "type": "uint256[]"
        },
        {
          "internalType": "bytes",
          "name": "data",
          "type": "bytes"
        }
      ],
      "name": "safeBatchTransferFrom",
      "outputs": [],
      "stateMutability": "nonpayable",
      "type": "function"
    },
    {
      "inputs": [
        {
          "internalType": "address",
          "name": "from",
          "type": "address"
        },
        {
          "internalType": "address",
          "name": "to",
          "type": "address"
        },
        {
          "internalType": "uint256",
          "name": "id",
          "type": "uint256"
        },
        {
          "internalType": "uint256",
          "name": "amount",
          "type": "uint256"
        },
        {
          "internalType": "bytes",
          "name": "data",
          "type": "bytes"
        }
      ],
      "name": "safeTransferFrom",
      "outputs": [],
      "stateMutability": "nonpayable",
      "type": "function"
    },
    {
      "inputs": [
        {
          "internalType": "address",
          "name": "operator",
          "type": "address"
        },
        {
          "internalType": "bool",
          "name": "approved",
          "type": "bool"
        }
      ],
      "name": "setApprovalForAll",
      "outputs": [],
      "stateMutability": "nonpayable",
      "type": "function"
    },
    {
      "inputs": [],
      "name": "state",
      "outputs": [
        {
          "internalType": "address",
          "name": "feeDestination",
          "type": "address"
        },
        {
          "internalType": "uint256",
          "name": "maxMintInTotalPerWallet",
          "type": "uint256"
        },
        {
          "internalType": "bytes32",
          "name": "saleConfigRoot",
          "type": "bytes32"
        },
        {
          "internalType": "address",
          "name": "msgSigner",
          "type": "address"
        },
        {
          "internalType": "string",
          "name": "baseURI",
          "type": "string"
        },
        {
          "internalType": "uint256",
          "name": "revealTime",
          "type": "uint256"
        },
        {
          "internalType": "uint96",
          "name": "royaltyBasis",
          "type": "uint96"
        },
        {
          "internalType": "address",
          "name": "platformOwner",
          "type": "address"
        },
        {
          "internalType": "uint256",
          "name": "maxMintCap",
          "type": "uint256"
        },
        {
          "internalType": "address",
          "name": "priceFeedAddress",
          "type": "address"
        }
      ],
      "stateMutability": "view",
      "type": "function"
    },
    {
      "inputs": [
        {
          "internalType": "bytes4",
          "name": "interfaceId",
          "type": "bytes4"
        }
      ],
      "name": "supportsInterface",
      "outputs": [
        {
          "internalType": "bool",
          "name": "",
          "type": "bool"
        }
      ],
      "stateMutability": "view",
      "type": "function"
    },
    {
      "inputs": [
        {
          "internalType": "uint256",
          "name": "_tokenId",
          "type": "uint256"
        }
      ],
      "name": "tokenURI",
      "outputs": [
        {
          "internalType": "string",
          "name": "",
          "type": "string"
        }
      ],
      "stateMutability": "view",
      "type": "function"
    },
    {
      "inputs": [
        {
          "internalType": "address",
          "name": "newOwner",
          "type": "address"
        }
      ],
      "name": "transferOwnership",
      "outputs": [],
      "stateMutability": "nonpayable",
      "type": "function"
    },
    {
      "inputs": [
        {
          "internalType": "string",
          "name": "_baseURI",
          "type": "string"
        }
      ],
      "name": "updateBaseURI",
      "outputs": [],
      "stateMutability": "nonpayable",
      "type": "function"
    },
    {
      "inputs": [
        {
          "internalType": "address",
          "name": "_feeDestination",
          "type": "address"
        }
      ],
      "name": "updateFeeToAddress",
      "outputs": [],
      "stateMutability": "nonpayable",
      "type": "function"
    },
    {
      "inputs": [
        {
          "internalType": "uint256",
          "name": "_val",
          "type": "uint256"
        }
      ],
      "name": "updateMaxMintInTotalPerWallet",
      "outputs": [],
      "stateMutability": "nonpayable",
      "type": "function"
    },
    {
      "inputs": [
        {
          "internalType": "address",
          "name": "_address",
          "type": "address"
        }
      ],
      "name": "updatePlatformOwner",
      "outputs": [],
      "stateMutability": "nonpayable",
      "type": "function"
    },
    {
      "inputs": [
        {
          "internalType": "uint256",
          "name": "_revealTime",
          "type": "uint256"
        }
      ],
      "name": "updateRevealTime",
      "outputs": [],
      "stateMutability": "nonpayable",
      "type": "function"
    },
    {
      "inputs": [
        {
          "internalType": "uint96",
          "name": "_val",
          "type": "uint96"
        }
      ],
      "name": "updateRoyaltyBasis",
      "outputs": [],
      "stateMutability": "nonpayable",
      "type": "function"
    },
    {
      "inputs": [
        {
          "internalType": "bytes32",
          "name": "_saleConfigRoot",
          "type": "bytes32"
        }
      ],
      "name": "updateSaleConfigRoot",
      "outputs": [],
      "stateMutability": "nonpayable",
      "type": "function"
    },
    {
      "inputs": [
        {
          "internalType": "uint256",
          "name": "",
          "type": "uint256"
        }
      ],
      "name": "uri",
      "outputs": [
        {
          "internalType": "string",
          "name": "",
          "type": "string"
        }
      ],
      "stateMutability": "view",
      "type": "function"
    },
    {
      "stateMutability": "payable",
      "type": "receive"
    }
  ],
  "bytecode": "0x6080604052600060145560405162004349380380620043498339810160408190526200002b9162000775565b8051733cc6cdda760b79bafa08df41ecfa224f810dceb690600190620000513362000426565b6200005c8162000476565b5060016006556daaeb6d7670e522a718067333cd4e3b15620001a7578015620000f557604051633e9f1edf60e11b81523060048201526001600160a01b03831660248201526daaeb6d7670e522a718067333cd4e90637d3e3dbe906044015b600060405180830381600087803b158015620000d657600080fd5b505af1158015620000eb573d6000803e3d6000fd5b50505050620001a7565b6001600160a01b03821615620001465760405163a0af290360e01b81523060048201526001600160a01b03831660248201526daaeb6d7670e522a718067333cd4e9063a0af290390604401620000bb565b604051632210724360e11b81523060048201526daaeb6d7670e522a718067333cd4e90634420e48690602401600060405180830381600087803b1580156200018d57600080fd5b505af1158015620001a2573d6000803e3d6000fd5b505050505b50506101408101516001600160a01b031615620002d25760008161014001516001600160a01b031663feaf968c6040518163ffffffff1660e01b815260040160a060405180830381865afa15801562000204573d6000803e3d6000fd5b505050506040513d601f19601f820116820180604052508101906200022a9190620008bb565b5050509150506305f5e10081606462000244919062000926565b620002509190620009b7565b6101208301516200026a9067d02ab486cedc000062000926565b620002769190620009b7565b341215620002cb5760405162461bcd60e51b815260206004820152601a60248201527f4e6f7420656e6f756768206368617267652070726f766964656400000000000060448201526064015b60405180910390fd5b506200033b565b610120810151620002ea9065886c98b76000620009f7565b3410156200033b5760405162461bcd60e51b815260206004820152601a60248201527f4e6f7420656e6f756768206368617267652070726f76696465640000000000006044820152606401620002c2565b602080820151600780546001600160a01b039283166001600160a01b03199182161790915560608401516009556080840151600a805491909316911617905560a082015180516200039192600b92019062000590565b50604081015160085560c0810151600c5560e0810151620003b49030906200048f565b60e08101516101008201516001600160a01b03166c0100000000000000000000000081026001600160601b0390921691909117600d55610120820151600e556040513480156108fc02916000818181858888f193505050501580156200041e573d6000803e3d6000fd5b505062000a55565b600080546001600160a01b038381166001600160a01b0319831681178455604051919092169283917f8be0079c531659141344cd1fd0a4f28419497f9722a3daafe3b4186f6b6457e09190a35050565b80516200048b90600390602084019062000590565b5050565b6127106001600160601b0382161115620004ff5760405162461bcd60e51b815260206004820152602a60248201527f455243323938313a20726f79616c7479206665652077696c6c206578636565646044820152692073616c65507269636560b01b6064820152608401620002c2565b6001600160a01b038216620005575760405162461bcd60e51b815260206004820152601960248201527f455243323938313a20696e76616c6964207265636569766572000000000000006044820152606401620002c2565b604080518082019091526001600160a01b039092168083526001600160601b039091166020909201829052600160a01b90910217600455565b8280546200059e9062000a19565b90600052602060002090601f016020900481019282620005c257600085556200060d565b82601f10620005dd57805160ff19168380011785556200060d565b828001600101855582156200060d579182015b828111156200060d578251825591602001919060010190620005f0565b506200061b9291506200061f565b5090565b5b808211156200061b576000815560010162000620565b634e487b7160e01b600052604160045260246000fd5b60405161016081016001600160401b038111828210171562000672576200067262000636565b60405290565b604051601f8201601f191681016001600160401b0381118282101715620006a357620006a362000636565b604052919050565b600082601f830112620006bd57600080fd5b81516001600160401b03811115620006d957620006d962000636565b6020620006ef601f8301601f1916820162000678565b82815285828487010111156200070457600080fd5b60005b838110156200072457858101830151828201840152820162000707565b83811115620007365760008385840101525b5095945050505050565b80516001600160a01b03811681146200075857600080fd5b919050565b80516001600160601b03811681146200075857600080fd5b6000602082840312156200078857600080fd5b81516001600160401b0380821115620007a057600080fd5b908301906101608286031215620007b657600080fd5b620007c06200064c565b825182811115620007d057600080fd5b620007de87828601620006ab565b825250620007ef6020840162000740565b60208201526040830151604082015260608301516060820152620008166080840162000740565b608082015260a0830151828111156200082e57600080fd5b6200083c87828601620006ab565b60a08301525060c083015160c08201526200085a60e084016200075d565b60e082015261010091506200087182840162000740565b828201526101209150818301518282015261014091506200089482840162000740565b91810191909152949350505050565b80516001600160501b03811681146200075857600080fd5b600080600080600060a08688031215620008d457600080fd5b620008df86620008a3565b94506020860151935060408601519250606086015191506200090460808701620008a3565b90509295509295909350565b634e487b7160e01b600052601160045260246000fd5b60006001600160ff1b03818413828413808216868404861116156200094f576200094f62000910565b600160ff1b600087128281168783058912161562000971576200097162000910565b6000871292508782058712848416161562000990576200099062000910565b87850587128184161615620009a957620009a962000910565b505050929093029392505050565b600082620009d557634e487b7160e01b600052601260045260246000fd5b600160ff1b821460001984141615620009f257620009f262000910565b500590565b600081600019048311821515161562000a145762000a1462000910565b500290565b600181811c9082168062000a2e57607f821691505b60208210810362000a4f57634e487b7160e01b600052602260045260246000fd5b50919050565b6138e48062000a656000396000f3fe6080604052600436106101705760003560e01c806383699816116100c757806383699816146104b15780638847d3d5146104d15780638da5cb5b146104f1578063931688cb146105175780639659867e14610537578063a22cb4651461054d578063ba4cc7491461056d578063c19d93fb146105a5578063c87b56dd146105d0578063dc9f75f7146105f0578063e110ec8314610610578063e8a3d48514610623578063e985e9c514610638578063f242432a14610681578063f2fde38b146106a157600080fd5b8062fdd58e1461024c578063018779c71461027f57806301ffc9a7146102ca5780630b8c1785146102ea5780630e89341c146103325780631b34f1071461035f578063210112f51461037f5780632a55205a1461039f5780632e411f22146103cd5780632eb2c2d6146103e25780634e1273f41461040257806361b5a2a21461042f578063655f07691461044f578063715018a61461046f57806371a8f1941461048457600080fd5b366102475760006064610184346002612a13565b61018e9190612a32565b600d54909150600160601b90046001600160a01b0316156101eb57600d54604051600160601b9091046001600160a01b0316906108fc8315029083906000818181858888f193505050501580156101e9573d6000803e3d6000fd5b505b600754600d546001600160a01b03918216916108fc91600160601b900416610213573461021d565b61021d8334612a54565b6040518115909202916000818181858888f19350505050158015610245573d6000803e3d6000fd5b005b600080fd5b34801561025857600080fd5b5061026c610267366004612a87565b6106c1565b6040519081526020015b60405180910390f35b34801561028b57600080fd5b506102ba61029a366004612b8f565b805160208183018101805160108252928201919093012091525460ff1681565b6040519015158152602001610276565b3480156102d657600080fd5b506102ba6102e5366004612be1565b610759565b3480156102f657600080fd5b5061026c610305366004612bfe565b81516020818401810180516012825292820194820194909420919093529091526000908152604090205481565b34801561033e57600080fd5b5061035261034d366004612c4b565b610784565b6040516102769190612cc0565b34801561036b57600080fd5b5061024561037a366004612cd3565b610818565b34801561038b57600080fd5b5061024561039a366004612cd3565b610897565b3480156103ab57600080fd5b506103bf6103ba366004612cee565b6108c1565b604051610276929190612d10565b3480156103d957600080fd5b5061026c600081565b3480156103ee57600080fd5b506102456103fd366004612dbd565b61096f565b34801561040e57600080fd5b5061042261041d366004612e66565b610aca565b6040516102769190612f6b565b34801561043b57600080fd5b5061024561044a366004612c4b565b610bf3565b34801561045b57600080fd5b5061026c61046a36600461303e565b610c00565b34801561047b57600080fd5b50610245610c7b565b34801561049057600080fd5b5061026c61049f366004612cd3565b60136020526000908152604090205481565b3480156104bd57600080fd5b506102456104cc366004612c4b565b610c8f565b3480156104dd57600080fd5b506102456104ec366004613072565b610c9c565b3480156104fd57600080fd5b506000546001600160a01b0316604051610276919061309b565b34801561052357600080fd5b50610245610532366004612b8f565b610cd0565b34801561054357600080fd5b5061026c60145481565b34801561055957600080fd5b506102456105683660046130af565b610cef565b34801561057957600080fd5b5061026c610588366004612b8f565b805160208183018101805160118252928201919093012091525481565b3480156105b157600080fd5b506105ba610cfa565b6040516102769a999897969594939291906130e6565b3480156105dc57600080fd5b506103526105eb366004612c4b565b610de2565b3480156105fc57600080fd5b5061024561060b366004612c4b565b610eb1565b61024561061e36600461315c565b610ebe565b34801561062f57600080fd5b506103526116be565b34801561064457600080fd5b506102ba610653366004613235565b6001600160a01b03918216600090815260026020908152604080832093909416825291909152205460ff1690565b34801561068d57600080fd5b5061024561069c36600461325f565b611712565b3480156106ad57600080fd5b506102456106bc366004612cd3565b611860565b60006001600160a01b0383166107315760405162461bcd60e51b815260206004820152602a60248201527f455243313135353a2061646472657373207a65726f206973206e6f742061207660448201526930b634b21037bbb732b960b11b60648201526084015b60405180910390fd5b5060009081526001602090815260408083206001600160a01b03949094168352929052205490565b60006001600160e01b0319821663152a902d60e11b148061077e575061077e826118d9565b92915050565b606060038054610793906132c3565b80601f01602080910402602001604051908101604052809291908181526020018280546107bf906132c3565b801561080c5780601f106107e15761010080835404028352916020019161080c565b820191906000526020600020905b8154815290600101906020018083116107ef57829003601f168201915b50505050509050919050565b600d54600160601b90046001600160a01b0316331461086f5760405162461bcd60e51b815260206004820152601360248201527227b7363c90283630ba3337b9369027bbb732b960691b6044820152606401610728565b600d80546001600160a01b03909216600160601b026001600160601b03909216919091179055565b61089f6118fe565b600780546001600160a01b0319166001600160a01b0392909216919091179055565b60008281526005602090815260408083208151808301909252546001600160a01b038116808352600160a01b9091046001600160601b03169282019290925282916109365750604080518082019091526004546001600160a01b0381168252600160a01b90046001600160601b031660208201525b602081015160009061271090610955906001600160601b031687612a13565b61095f9190612a32565b91519350909150505b9250929050565b846daaeb6d7670e522a718067333cd4e3b15610ab557336001600160a01b038216036109a7576109a28686868686611958565b610ac2565b604051633185c44d60e21b81526daaeb6d7670e522a718067333cd4e9063c6171134906109da90309033906004016132fd565b602060405180830381865afa1580156109f7573d6000803e3d6000fd5b505050506040513d601f19601f82011682018060405250810190610a1b9190613317565b8015610a965750604051633185c44d60e21b81526daaeb6d7670e522a718067333cd4e9063c617113490610a5590309085906004016132fd565b602060405180830381865afa158015610a72573d6000803e3d6000fd5b505050506040513d601f19601f82011682018060405250810190610a969190613317565b610ab55733604051633b79c77360e21b8152600401610728919061309b565b610ac28686868686611958565b505050505050565b60608151835114610b2f5760405162461bcd60e51b815260206004820152602960248201527f455243313135353a206163636f756e747320616e6420696473206c656e677468604482015268040dad2e6dac2e8c6d60bb1b6064820152608401610728565b600083516001600160401b03811115610b4a57610b4a612ab1565b604051908082528060200260200182016040528015610b73578160200160208202803683370190505b50905060005b8451811015610beb57610bbe858281518110610b9757610b97613334565b6020026020010151858381518110610bb157610bb1613334565b60200260200101516106c1565b828281518110610bd057610bd0613334565b6020908102919091010152610be48161334a565b9050610b79565b509392505050565b610bfb6118fe565b600855565b80516020808301516040808501516060860151608087015160a088015160c089015160e08a01516101008b0151965160009a610c409a9099989101613363565b60408051601f19818403018152828252805160209182012090830152015b604051602081830303815290604052805190602001209050919050565b610c836118fe565b610c8d60006119a4565b565b610c976118fe565b600955565b610ca46118fe565b610cae30826119f4565b600d80546001600160601b0319166001600160601b0392909216919091179055565b610cd86118fe565b8051610ceb90600b906020840190612964565b5050565b610ceb338383611aed565b60078054600854600954600a54600b80546001600160a01b0395861696949593949290931692610d29906132c3565b80601f0160208091040260200160405190810160405280929190818152602001828054610d55906132c3565b8015610da25780601f10610d7757610100808354040283529160200191610da2565b820191906000526020600020905b815481529060010190602001808311610d8557829003601f168201915b505050600584015460068501546007860154600890960154949591946001600160601b03821694506001600160a01b03600160601b90920482169350168a565b60608115610e245760405162461bcd60e51b815260206004820152600f60248201526e125b9d985b1a59081d1bdad95b9259608a1b6044820152606401610728565b600c54600b9015801590610e3a5750600c544211155b610e535760405180602001604052806000815250610e74565b6040518060400160405280600781526020016668696464656e2d60c81b8152505b610e7f306014611bcd565b610e8846611d6f565b604051602001610e9b9493929190613460565b6040516020818303038152906040529050919050565b610eb96118fe565b600c55565b610ec6611e01565b85858583600780015482601454610edd91906134f9565b1115610f285760405162461bcd60e51b815260206004820152601a60248201527904d696e7420436f756e742065786365656473204d6178204361760341b6044820152606401610728565b600954610f6c5760405162461bcd60e51b8152602060048201526012602482015271139bc81cd85b194818dbdb999a59dd5c995960721b6044820152606401610728565b610f8484600760020154610f7f84610c00565b611e5a565b610fc65760405162461bcd60e51b8152602060048201526013602482015272496e76616c69642053616c6520436f6e66696760681b6044820152606401610728565b806020015161100d5760405162461bcd60e51b815260206004820152601360248201527214d85b19481a5cc81b9bdd08195b98589b1959606a1b6044820152606401610728565b6040810151429015801590611026575081604001518110155b61106d5760405162461bcd60e51b815260206004820152601860248201527714d85b19481a185cc81b9bdd081cdd185c9d1959081e595d60421b6044820152606401610728565b81606001518111158061108257506060820151155b6110bf5760405162461bcd60e51b815260206004820152600e60248201526d14d85b19481a185cc8195b99195960921b6044820152606401610728565b8282608001516110cf9190612a13565b34101561111e5760405162461bcd60e51b815260206004820152601f60248201527f4e6f7420656e6f756768206d696e74206368617267652070726f7669646564006044820152606401610728565b8160e0015183601184600001516040516111389190613511565b90815260200160405180910390205461115191906134f9565b11156111985760405162461bcd60e51b81526020600482015260166024820152754d61782053616c65204c696d6974204578636565647360501b6044820152606401610728565b8160c0015183601284600001516040516111b29190613511565b908152604080516020928190038301902033600090815292529020546111d891906134f9565b11156112395760405162461bcd60e51b815260206004820152602a60248201527f4d6178204d696e74205065722057616c6c6574205065722053616c65204c696d6044820152696974204578636565647360b01b6064820152608401610728565b600854156112bd576008543360009081526013602052604090205461125f9085906134f9565b11156112bd5760405162461bcd60e51b815260206004820152602760248201527f4d617820546f74616c204d696e74207065722057616c6c6574204c696d6974206044820152664578636565647360c81b6064820152608401610728565b60a08201511561134c5760a08201516040516001600160601b03193360601b16602082015261130691869160340160405160208183030381529060405280519060200120611e5a565b61134c5760405162461bcd60e51b8152602060048201526017602482015276165bdd48185c99481b9bdd081dda1a5d195b1a5cdd1959604a1b6044820152606401610728565b878760108160405161135e9190613511565b9081526040519081900360200190205460ff16156113bb5760405162461bcd60e51b815260206004820152601a60248201527914da59db985d1d5c9948185b1c9958591e481c995919595b595960321b6044820152606401610728565b600a546040516001600160a01b0390911690611406908390611400906113e5908790602001613511565b60405160208183030381529060405280519060200120611e70565b90611eab565b6001600160a01b0316146114505760405162461bcd60e51b8152602060048201526011602482015270496e76616c6964205369676e617475726560781b6044820152606401610728565b60008b116114975760405162461bcd60e51b815260206004820152601460248201527304e756d626572206f66206d696e747320697320360641b6044820152606401610728565b8a601289600001516040516114ac9190613511565b90815260408051602092819003830190203360009081529252812080549091906114d79084906134f9565b925050819055508a601460008282546114f091906134f9565b909155505087516040518c916011916115099190613511565b9081526020016040518091039020600082825461152691906134f9565b909155505033600090815260136020526040812080546001929061154b9084906134f9565b92505081905550600160108a6040516115649190613511565b908152604051908190036020019020805491151560ff1990921691909117905560006127106115953461012c612a13565b61159f9190612a32565b600d54909150600160601b90046001600160a01b0316156115fc57600d54604051600160601b9091046001600160a01b0316906108fc8315029083906000818181858888f193505050501580156115fa573d6000803e3d6000fd5b505b600754600d546001600160a01b03918216916108fc91600160601b900416611624573461162e565b61162e8334612a54565b6040518115909202916000818181858888f19350505050158015611656573d6000803e3d6000fd5b506116733360008e60405180602001604052806000815250611ec7565b7f0f6798a560793a54c3bcfe86a93cde1e73087d944c0ea20544137d4121396885338d6040516116a4929190612d10565b60405180910390a15050505050505050610ac26001600655565b6060600b6116cd306014611bcd565b6116d646611d6f565b600d546116eb906001600160601b0316611d6f565b6040516020016116fe949392919061352d565b604051602081830303815290604052905090565b846daaeb6d7670e522a718067333cd4e3b1561185357336001600160a01b03821603611745576109a28686868686611fdd565b604051633185c44d60e21b81526daaeb6d7670e522a718067333cd4e9063c61711349061177890309033906004016132fd565b602060405180830381865afa158015611795573d6000803e3d6000fd5b505050506040513d601f19601f820116820180604052508101906117b99190613317565b80156118345750604051633185c44d60e21b81526daaeb6d7670e522a718067333cd4e9063c6171134906117f390309085906004016132fd565b602060405180830381865afa158015611810573d6000803e3d6000fd5b505050506040513d601f19601f820116820180604052508101906118349190613317565b6118535733604051633b79c77360e21b8152600401610728919061309b565b610ac28686868686611fdd565b6118686118fe565b6001600160a01b0381166118cd5760405162461bcd60e51b815260206004820152602660248201527f4f776e61626c653a206e6577206f776e657220697320746865207a65726f206160448201526564647265737360d01b6064820152608401610728565b6118d6816119a4565b50565b60006001600160e01b0319821663152a902d60e11b148061077e575061077e82612022565b6000546001600160a01b03163314610c8d5760405162461bcd60e51b815260206004820181905260248201527f4f776e61626c653a2063616c6c6572206973206e6f7420746865206f776e65726044820152606401610728565b6001600160a01b03851633148061197457506119748533610653565b6119905760405162461bcd60e51b8152600401610728906135c9565b61199d8585858585612072565b5050505050565b600080546001600160a01b038381166001600160a01b0319831681178455604051919092169283917f8be0079c531659141344cd1fd0a4f28419497f9722a3daafe3b4186f6b6457e09190a35050565b6127106001600160601b0382161115611a625760405162461bcd60e51b815260206004820152602a60248201527f455243323938313a20726f79616c7479206665652077696c6c206578636565646044820152692073616c65507269636560b01b6064820152608401610728565b6001600160a01b038216611ab45760405162461bcd60e51b815260206004820152601960248201527822a921991c9c189d1034b73b30b634b2103932b1b2b4bb32b960391b6044820152606401610728565b604080518082019091526001600160a01b039092168083526001600160601b039091166020909201829052600160a01b90910217600455565b816001600160a01b0316836001600160a01b031603611b605760405162461bcd60e51b815260206004820152602960248201527f455243313135353a2073657474696e6720617070726f76616c20737461747573604482015268103337b91039b2b63360b91b6064820152608401610728565b6001600160a01b03838116600081815260026020908152604080832094871680845294825291829020805460ff191686151590811790915591519182527f17307eab39ab6107e8899845ad3d59bd9653f200f220920489ca2b5937696c31910160405180910390a3505050565b60606000611bdc836002612a13565b611be79060026134f9565b6001600160401b03811115611bfe57611bfe612ab1565b6040519080825280601f01601f191660200182016040528015611c28576020820181803683370190505b509050600360fc1b81600081518110611c4357611c43613334565b60200101906001600160f81b031916908160001a905350600f60fb1b81600181518110611c7257611c72613334565b60200101906001600160f81b031916908160001a9053506000611c96846002612a13565b611ca19060016134f9565b90505b6001811115611d19576f181899199a1a9b1b9c1cb0b131b232b360811b85600f1660108110611cd557611cd5613334565b1a60f81b828281518110611ceb57611ceb613334565b60200101906001600160f81b031916908160001a90535060049490941c93611d1281613617565b9050611ca4565b508315611d685760405162461bcd60e51b815260206004820181905260248201527f537472696e67733a20686578206c656e67746820696e73756666696369656e746044820152606401610728565b9392505050565b60606000611d7c8361224a565b60010190506000816001600160401b03811115611d9b57611d9b612ab1565b6040519080825280601f01601f191660200182016040528015611dc5576020820181803683370190505b5090508181016020015b600019016f181899199a1a9b1b9c1cb0b131b232b360811b600a86061a8153600a8504945084611dcf57509392505050565b600260065403611e535760405162461bcd60e51b815260206004820152601f60248201527f5265656e7472616e637947756172643a207265656e7472616e742063616c6c006044820152606401610728565b6002600655565b600082611e678584612320565b14949350505050565b6040517f19457468657265756d205369676e6564204d6573736167653a0a3332000000006020820152603c8101829052600090605c01610c5e565b6000806000611eba8585612365565b91509150610beb816123a7565b6001600160a01b038416611f275760405162461bcd60e51b815260206004820152602160248201527f455243313135353a206d696e7420746f20746865207a65726f206164647265736044820152607360f81b6064820152608401610728565b336000611f33856124ec565b90506000611f40856124ec565b905060008681526001602090815260408083206001600160a01b038b16845290915281208054879290611f749084906134f9565b909155505060408051878152602081018790526001600160a01b03808a1692600092918716917fc3d58168c5ae7397731d063d5bbf3d657854427343f4c083240f7aacaa2d0f62910160405180910390a4611fd483600089898989612537565b50505050505050565b6001600160a01b038516331480611ff95750611ff98533610653565b6120155760405162461bcd60e51b8152600401610728906135c9565b61199d8585858585612692565b60006001600160e01b03198216636cdb3d1360e11b148061205357506001600160e01b031982166303a24d0760e21b145b8061077e57506301ffc9a760e01b6001600160e01b031983161461077e565b81518351146120d45760405162461bcd60e51b815260206004820152602860248201527f455243313135353a2069647320616e6420616d6f756e7473206c656e677468206044820152670dad2e6dac2e8c6d60c31b6064820152608401610728565b6001600160a01b0384166120fa5760405162461bcd60e51b81526004016107289061362e565b3360005b84518110156121e457600085828151811061211b5761211b613334565b60200260200101519050600085838151811061213957612139613334565b60209081029190910181015160008481526001835260408082206001600160a01b038e16835290935291909120549091508181101561218a5760405162461bcd60e51b815260040161072890613673565b60008381526001602090815260408083206001600160a01b038e8116855292528083208585039055908b168252812080548492906121c99084906134f9565b92505081905550505050806121dd9061334a565b90506120fe565b50846001600160a01b0316866001600160a01b0316826001600160a01b03167f4a39dc06d4c0dbc64b70af90fd698a233a518aa5d07e595d983b8c0526c8f7fb87876040516122349291906136bd565b60405180910390a4610ac28187878787876127c0565b60008072184f03e93ff9f4daa797ed6e38ed64bf6a1f0160401b83106122895772184f03e93ff9f4daa797ed6e38ed64bf6a1f0160401b830492506040015b6904ee2d6d415b85acef8160201b83106122b3576904ee2d6d415b85acef8160201b830492506020015b662386f26fc1000083106122d157662386f26fc10000830492506010015b6305f5e10083106122e9576305f5e100830492506008015b61271083106122fd57612710830492506004015b6064831061230f576064830492506002015b600a831061077e5760010192915050565b600081815b8451811015610beb576123518286838151811061234457612344613334565b602002602001015161287b565b91508061235d8161334a565b915050612325565b600080825160410361239b5760208301516040840151606085015160001a61238f878285856128aa565b94509450505050610968565b50600090506002610968565b60008160048111156123bb576123bb6136eb565b036123c35750565b60018160048111156123d7576123d76136eb565b0361241f5760405162461bcd60e51b815260206004820152601860248201527745434453413a20696e76616c6964207369676e617475726560401b6044820152606401610728565b6002816004811115612433576124336136eb565b036124805760405162461bcd60e51b815260206004820152601f60248201527f45434453413a20696e76616c6964207369676e6174757265206c656e677468006044820152606401610728565b6003816004811115612494576124946136eb565b036118d65760405162461bcd60e51b815260206004820152602260248201527f45434453413a20696e76616c6964207369676e6174757265202773272076616c604482015261756560f01b6064820152608401610728565b6040805160018082528183019092526060916000919060208083019080368337019050509050828160008151811061252657612526613334565b602090810291909101015292915050565b6001600160a01b0384163b15610ac25760405163f23a6e6160e01b81526001600160a01b0385169063f23a6e619061257b9089908990889088908890600401613701565b6020604051808303816000875af19250505080156125b6575060408051601f3d908101601f191682019092526125b391810190613746565b60015b612662576125c2613763565b806308c379a0036125fb57506125d661377f565b806125e157506125fd565b8060405162461bcd60e51b81526004016107289190612cc0565b505b60405162461bcd60e51b815260206004820152603460248201527f455243313135353a207472616e7366657220746f206e6f6e2d455243313135356044820152732932b1b2b4bb32b91034b6b83632b6b2b73a32b960611b6064820152608401610728565b6001600160e01b0319811663f23a6e6160e01b14611fd45760405162461bcd60e51b815260040161072890613808565b6001600160a01b0384166126b85760405162461bcd60e51b81526004016107289061362e565b3360006126c4856124ec565b905060006126d1856124ec565b905060008681526001602090815260408083206001600160a01b038c168452909152902054858110156127165760405162461bcd60e51b815260040161072890613673565b60008781526001602090815260408083206001600160a01b038d8116855292528083208985039055908a168252812080548892906127559084906134f9565b909155505060408051888152602081018890526001600160a01b03808b16928c821692918816917fc3d58168c5ae7397731d063d5bbf3d657854427343f4c083240f7aacaa2d0f62910160405180910390a46127b5848a8a8a8a8a612537565b505050505050505050565b6001600160a01b0384163b15610ac25760405163bc197c8160e01b81526001600160a01b0385169063bc197c81906128049089908990889088908890600401613850565b6020604051808303816000875af192505050801561283f575060408051601f3d908101601f1916820190925261283c91810190613746565b60015b61284b576125c2613763565b6001600160e01b0319811663bc197c8160e01b14611fd45760405162461bcd60e51b815260040161072890613808565b6000818310612897576000828152602084905260409020611d68565b6000838152602083905260409020611d68565b6000806fa2a8918ca85bafe22016d0b997e4df60600160ff1b038311156128d7575060009050600361295b565b6040805160008082526020820180845289905260ff881692820192909252606081018690526080810185905260019060a0016020604051602081039080840390855afa15801561292b573d6000803e3d6000fd5b5050604051601f1901519150506001600160a01b0381166129545760006001925092505061295b565b9150600090505b94509492505050565b828054612970906132c3565b90600052602060002090601f01602090048101928261299257600085556129d8565b82601f106129ab57805160ff19168380011785556129d8565b828001600101855582156129d8579182015b828111156129d85782518255916020019190600101906129bd565b506129e49291506129e8565b5090565b5b808211156129e457600081556001016129e9565b634e487b7160e01b600052601160045260246000fd5b6000816000190483118215151615612a2d57612a2d6129fd565b500290565b600082612a4f57634e487b7160e01b600052601260045260246000fd5b500490565b600082821015612a6657612a666129fd565b500390565b80356001600160a01b0381168114612a8257600080fd5b919050565b60008060408385031215612a9a57600080fd5b612aa383612a6b565b946020939093013593505050565b634e487b7160e01b600052604160045260246000fd5b601f8201601f191681016001600160401b0381118282101715612aec57612aec612ab1565b6040525050565b60405161012081016001600160401b0381118282101715612b1657612b16612ab1565b60405290565b600082601f830112612b2d57600080fd5b81356001600160401b03811115612b4657612b46612ab1565b604051612b5d601f8301601f191660200182612ac7565b818152846020838601011115612b7257600080fd5b816020850160208301376000918101602001919091529392505050565b600060208284031215612ba157600080fd5b81356001600160401b03811115612bb757600080fd5b612bc384828501612b1c565b949350505050565b6001600160e01b0319811681146118d657600080fd5b600060208284031215612bf357600080fd5b8135611d6881612bcb565b60008060408385031215612c1157600080fd5b82356001600160401b03811115612c2757600080fd5b612c3385828601612b1c565b925050612c4260208401612a6b565b90509250929050565b600060208284031215612c5d57600080fd5b5035919050565b60005b83811015612c7f578181015183820152602001612c67565b83811115612c8e576000848401525b50505050565b60008151808452612cac816020860160208601612c64565b601f01601f19169290920160200192915050565b602081526000611d686020830184612c94565b600060208284031215612ce557600080fd5b611d6882612a6b565b60008060408385031215612d0157600080fd5b50508035926020909101359150565b6001600160a01b03929092168252602082015260400190565b60006001600160401b03821115612d4257612d42612ab1565b5060051b60200190565b600082601f830112612d5d57600080fd5b81356020612d6a82612d29565b604051612d778282612ac7565b83815260059390931b8501820192828101915086841115612d9757600080fd5b8286015b84811015612db25780358352918301918301612d9b565b509695505050505050565b600080600080600060a08688031215612dd557600080fd5b612dde86612a6b565b9450612dec60208701612a6b565b935060408601356001600160401b0380821115612e0857600080fd5b612e1489838a01612d4c565b94506060880135915080821115612e2a57600080fd5b612e3689838a01612d4c565b93506080880135915080821115612e4c57600080fd5b50612e5988828901612b1c565b9150509295509295909350565b60008060408385031215612e7957600080fd5b82356001600160401b0380821115612e9057600080fd5b818501915085601f830112612ea457600080fd5b81356020612eb182612d29565b604051612ebe8282612ac7565b83815260059390931b8501820192828101915089841115612ede57600080fd5b948201945b83861015612f0357612ef486612a6b565b82529482019490820190612ee3565b96505086013592505080821115612f1957600080fd5b50612f2685828601612d4c565b9150509250929050565b600081518084526020808501945080840160005b83811015612f6057815187529582019590820190600101612f44565b509495945050505050565b602081526000611d686020830184612f30565b80151581146118d657600080fd5b8035612a8281612f7e565b60006101208284031215612faa57600080fd5b612fb2612af3565b905081356001600160401b03811115612fca57600080fd5b612fd684828501612b1c565b825250612fe560208301612f8c565b602082015260408201356040820152606082013560608201526080820135608082015260a082013560a082015260c082013560c082015260e082013560e0820152610100613034818401612a6b565b9082015292915050565b60006020828403121561305057600080fd5b81356001600160401b0381111561306657600080fd5b612bc384828501612f97565b60006020828403121561308457600080fd5b81356001600160601b0381168114611d6857600080fd5b6001600160a01b0391909116815260200190565b600080604083850312156130c257600080fd5b6130cb83612a6b565b915060208301356130db81612f7e565b809150509250929050565b600061014060018060a01b03808e1684528c60208501528b6040850152808b16606085015281608085015261311d8285018b612c94565b60a08501999099526001600160601b039790971660c0840152505092841660e08401526101008301919091529091166101209091015295945050505050565b60008060008060008060c0878903121561317557600080fd5b86356001600160401b038082111561318c57600080fd5b6131988a838b01612d4c565b975060208901359150808211156131ae57600080fd5b6131ba8a838b01612d4c565b96506040890135955060608901359150808211156131d757600080fd5b6131e38a838b01612b1c565b945060808901359150808211156131f957600080fd5b6132058a838b01612b1c565b935060a089013591508082111561321b57600080fd5b5061322889828a01612f97565b9150509295509295509295565b6000806040838503121561324857600080fd5b61325183612a6b565b9150612c4260208401612a6b565b600080600080600060a0868803121561327757600080fd5b61328086612a6b565b945061328e60208701612a6b565b9350604086013592506060860135915060808601356001600160401b038111156132b757600080fd5b612e5988828901612b1c565b600181811c908216806132d757607f821691505b6020821081036132f757634e487b7160e01b600052602260045260246000fd5b50919050565b6001600160a01b0392831681529116602082015260400190565b60006020828403121561332957600080fd5b8151611d6881612f7e565b634e487b7160e01b600052603260045260246000fd5b60006001820161335c5761335c6129fd565b5060010190565b60008a51613375818460208f01612c64565b99151560f81b919099019081526001810197909752602187019590955260418601939093526061850191909152608184015260a183015260601b6001600160601b03191660c182015260d50192915050565b8054600090600181811c90808316806133e157607f831692505b6020808410820361340257634e487b7160e01b600052602260045260246000fd5b818015613416576001811461342757613454565b60ff19861689528489019650613454565b60008881526020902060005b8681101561344c5781548b820152908501908301613433565b505084890196505b50505050505092915050565b600061346c82876133c7565b855161347c818360208a01612c64565b71746f6b656e2d7572693f616464726573733d60701b910190815284516134aa816012840160208901612c64565b68266e6574776f726b3d60b81b6012929091019182015283516134d481601b840160208801612c64565b69026746f6b656e49643d360b41b601b92909101918201526025019695505050505050565b6000821982111561350c5761350c6129fd565b500190565b60008251613523818460208701612c64565b9190910192915050565b600061353982876133c7565b74636f6e74726163742d7572693f616464726573733d60581b81528551613567816015840160208a01612c64565b68266e6574776f726b3d60b81b60159290910191820152845161359181601e840160208901612c64565b6826726f79616c74793d60b81b601e929091019182015283516135bb816027840160208801612c64565b016027019695505050505050565b6020808252602e908201527f455243313135353a2063616c6c6572206973206e6f7420746f6b656e206f776e60408201526d195c881bdc88185c1c1c9bdd995960921b606082015260800190565b600081613626576136266129fd565b506000190190565b60208082526025908201527f455243313135353a207472616e7366657220746f20746865207a65726f206164604082015264647265737360d81b606082015260800190565b6020808252602a908201527f455243313135353a20696e73756666696369656e742062616c616e636520666f60408201526939103a3930b739b332b960b11b606082015260800190565b6040815260006136d06040830185612f30565b82810360208401526136e28185612f30565b95945050505050565b634e487b7160e01b600052602160045260246000fd5b6001600160a01b03868116825285166020820152604081018490526060810183905260a06080820181905260009061373b90830184612c94565b979650505050505050565b60006020828403121561375857600080fd5b8151611d6881612bcb565b600060033d111561377c5760046000803e5060005160e01c5b90565b600060443d101561378d5790565b6040516003193d81016004833e81513d6001600160401b0381602484011181841117156137bc57505050505090565b82850191508151818111156137d45750505050505090565b843d87010160208285010111156137ee5750505050505090565b6137fd60208286010187612ac7565b509095945050505050565b60208082526028908201527f455243313135353a204552433131353552656365697665722072656a656374656040820152676420746f6b656e7360c01b606082015260800190565b6001600160a01b0386811682528516602082015260a06040820181905260009061387c90830186612f30565b828103606084015261388e8186612f30565b905082810360808401526138a28185612c94565b9897505050505050505056fea2646970667358221220fef6cc8ecf966aceb2e923e527565d5e4381c8fa958c595b41333d3342e908e164736f6c634300080d0033",
  "linkReferences": {},
  "deployedLinkReferences": {}
}