{
  "_format": "hh-sol-artifact-1",
  "contractName": "Collection721",
  "sourceName": "contracts/hydro/hydro-dftsw/Collection721.sol",
  "abi": [
    {
      "inputs": [
        {
          "components": [
            {
              "internalType": "string",
              "name": "_name",
              "type": "string"
            },
            {
              "internalType": "string",
              "name": "_symbol",
              "type": "string"
            },
            {
              "internalType": "address",
              "name": "_feeDestination",
              "type": "address"
            },
            {
              "internalType": "uint256",
              "name": "_maxMintInTotalPerWallet",
              "type": "uint256"
            },
            {
              "internalType": "bytes32",
              "name": "_saleConfigRoot",
              "type": "bytes32"
            },
            {
              "internalType": "address",
              "name": "_msgSigner",
              "type": "address"
            },
            {
              "internalType": "string",
              "name": "_baseURI",
              "type": "string"
            },
            {
              "internalType": "uint256",
              "name": "_revealTime",
              "type": "uint256"
            },
            {
              "internalType": "uint96",
              "name": "_royaltyBasis",
              "type": "uint96"
            },
            {
              "internalType": "address",
              "name": "_platformOwner",
              "type": "address"
            },
            {
              "internalType": "uint256",
              "name": "_maxMintCap",
              "type": "uint256"
            },
            {
              "internalType": "address",
              "name": "_priceFeedAddress",
              "type": "address"
            }
          ],
          "internalType": "struct Collection721.ConstructorArgs",
          "name": "args",
          "type": "tuple"
        }
      ],
      "stateMutability": "payable",
      "type": "constructor"
    },
    {
      "inputs": [
        {
          "internalType": "address",
          "name": "operator",
          "type": "address"
        }
      ],
      "name": "OperatorNotAllowed",
      "type": "error"
    },
    {
      "anonymous": false,
      "inputs": [
        {
          "indexed": true,
          "internalType": "address",
          "name": "owner",
          "type": "address"
        },
        {
          "indexed": true,
          "internalType": "address",
          "name": "approved",
          "type": "address"
        },
        {
          "indexed": true,
          "internalType": "uint256",
          "name": "tokenId",
          "type": "uint256"
        }
      ],
      "name": "Approval",
      "type": "event"
    },
    {
      "anonymous": false,
      "inputs": [
        {
          "indexed": true,
          "internalType": "address",
          "name": "owner",
          "type": "address"
        },
        {
          "indexed": true,
          "internalType": "address",
          "name": "operator",
          "type": "address"
        },
        {
          "indexed": false,
          "internalType": "bool",
          "name": "approved",
          "type": "bool"
        }
      ],
      "name": "ApprovalForAll",
      "type": "event"
    },
    {
      "anonymous": false,
      "inputs": [
        {
          "indexed": false,
          "internalType": "address",
          "name": "msgSender",
          "type": "address"
        },
        {
          "indexed": false,
          "internalType": "uint256",
          "name": "fromTokenId",
          "type": "uint256"
        },
        {
          "indexed": false,
          "internalType": "uint256",
          "name": "toTokenId",
          "type": "uint256"
        }
      ],
      "name": "Mint",
      "type": "event"
    },
    {
      "anonymous": false,
      "inputs": [
        {
          "indexed": true,
          "internalType": "address",
          "name": "previousOwner",
          "type": "address"
        },
        {
          "indexed": true,
          "internalType": "address",
          "name": "newOwner",
          "type": "address"
        }
      ],
      "name": "OwnershipTransferred",
      "type": "event"
    },
    {
      "anonymous": false,
      "inputs": [
        {
          "indexed": true,
          "internalType": "address",
          "name": "from",
          "type": "address"
        },
        {
          "indexed": true,
          "internalType": "address",
          "name": "to",
          "type": "address"
        },
        {
          "indexed": true,
          "internalType": "uint256",
          "name": "tokenId",
          "type": "uint256"
        }
      ],
      "name": "Transfer",
      "type": "event"
    },
    {
      "inputs": [],
      "name": "EMPTY_ROOT",
      "outputs": [
        {
          "internalType": "bytes32",
          "name": "",
          "type": "bytes32"
        }
      ],
      "stateMutability": "view",
      "type": "function"
    },
    {
      "inputs": [
        {
          "internalType": "address",
          "name": "to",
          "type": "address"
        },
        {
          "internalType": "uint256",
          "name": "tokenId",
          "type": "uint256"
        }
      ],
      "name": "approve",
      "outputs": [],
      "stateMutability": "nonpayable",
      "type": "function"
    },
    {
      "inputs": [
        {
          "internalType": "address",
          "name": "owner",
          "type": "address"
        }
      ],
      "name": "balanceOf",
      "outputs": [
        {
          "internalType": "uint256",
          "name": "",
          "type": "uint256"
        }
      ],
      "stateMutability": "view",
      "type": "function"
    },
    {
      "inputs": [],
      "name": "contractURI",
      "outputs": [
        {
          "internalType": "string",
          "name": "",
          "type": "string"
        }
      ],
      "stateMutability": "view",
      "type": "function"
    },
    {
      "inputs": [
        {
          "internalType": "uint256",
          "name": "tokenId",
          "type": "uint256"
        }
      ],
      "name": "getApproved",
      "outputs": [
        {
          "internalType": "address",
          "name": "",
          "type": "address"
        }
      ],
      "stateMutability": "view",
      "type": "function"
    },
    {
      "inputs": [
        {
          "components": [
            {
              "internalType": "string",
              "name": "saleIdentifier",
              "type": "string"
            },
            {
              "internalType": "bool",
              "name": "enabled",
              "type": "bool"
            },
            {
              "internalType": "uint256",
              "name": "startTime",
              "type": "uint256"
            },
            {
              "internalType": "uint256",
              "name": "endTime",
              "type": "uint256"
            },
            {
              "internalType": "uint256",
              "name": "mintCharge",
              "type": "uint256"
            },
            {
              "internalType": "bytes32",
              "name": "whitelistRoot",
              "type": "bytes32"
            },
            {
              "internalType": "uint256",
              "name": "maxMintPerWallet",
              "type": "uint256"
            },
            {
              "internalType": "uint256",
              "name": "maxMintInSale",
              "type": "uint256"
            },
            {
              "internalType": "address",
              "name": "tokenGatedAddress",
              "type": "address"
            }
          ],
          "internalType": "struct Collection721.SaleConfig",
          "name": "config",
          "type": "tuple"
        }
      ],
      "name": "getSaleConfigLeaf",
      "outputs": [
        {
          "internalType": "bytes32",
          "name": "",
          "type": "bytes32"
        }
      ],
      "stateMutability": "pure",
      "type": "function"
    },
    {
      "inputs": [
        {
          "internalType": "address",
          "name": "owner",
          "type": "address"
        },
        {
          "internalType": "address",
          "name": "operator",
          "type": "address"
        }
      ],
      "name": "isApprovedForAll",
      "outputs": [
        {
          "internalType": "bool",
          "name": "",
          "type": "bool"
        }
      ],
      "stateMutability": "view",
      "type": "function"
    },
    {
      "inputs": [
        {
          "internalType": "bytes",
          "name": "",
          "type": "bytes"
        }
      ],
      "name": "isSignatureRedeemed",
      "outputs": [
        {
          "internalType": "bool",
          "name": "",
          "type": "bool"
        }
      ],
      "stateMutability": "view",
      "type": "function"
    },
    {
      "inputs": [
        {
          "components": [
            {
              "internalType": "bytes32[]",
              "name": "saleConfigProof",
              "type": "bytes32[]"
            },
            {
              "internalType": "bytes32[]",
              "name": "whitelistProof",
              "type": "bytes32[]"
            },
            {
              "internalType": "uint256",
              "name": "numberOfMint",
              "type": "uint256"
            },
            {
              "internalType": "string",
              "name": "message",
              "type": "string"
            },
            {
              "internalType": "bytes",
              "name": "signature",
              "type": "bytes"
            },
            {
              "components": [
                {
                  "internalType": "string",
                  "name": "saleIdentifier",
                  "type": "string"
                },
                {
                  "internalType": "bool",
                  "name": "enabled",
                  "type": "bool"
                },
                {
                  "internalType": "uint256",
                  "name": "startTime",
                  "type": "uint256"
                },
                {
                  "internalType": "uint256",
                  "name": "endTime",
                  "type": "uint256"
                },
                {
                  "internalType": "uint256",
                  "name": "mintCharge",
                  "type": "uint256"
                },
                {
                  "internalType": "bytes32",
                  "name": "whitelistRoot",
                  "type": "bytes32"
                },
                {
                  "internalType": "uint256",
                  "name": "maxMintPerWallet",
                  "type": "uint256"
                },
                {
                  "internalType": "uint256",
                  "name": "maxMintInSale",
                  "type": "uint256"
                },
                {
                  "internalType": "address",
                  "name": "tokenGatedAddress",
                  "type": "address"
                }
              ],
              "internalType": "struct Collection721.SaleConfig",
              "name": "config",
              "type": "tuple"
            },
            {
              "internalType": "uint256",
              "name": "whitelistMintLimit",
              "type": "uint256"
            },
            {
              "internalType": "uint256",
              "name": "sigGenTime",
              "type": "uint256"
            }
          ],
          "internalType": "struct Collection721.MintArgs",
          "name": "args",
          "type": "tuple"
        }
      ],
      "name": "mint",
      "outputs": [],
      "stateMutability": "payable",
      "type": "function"
    },
    {
      "inputs": [],
      "name": "mintCount",
      "outputs": [
        {
          "internalType": "uint256",
          "name": "",
          "type": "uint256"
        }
      ],
      "stateMutability": "view",
      "type": "function"
    },
    {
      "inputs": [
        {
          "internalType": "string",
          "name": "",
          "type": "string"
        }
      ],
      "name": "mintCountByIdentifier",
      "outputs": [
        {
          "internalType": "uint256",
          "name": "",
          "type": "uint256"
        }
      ],
      "stateMutability": "view",
      "type": "function"
    },
    {
      "inputs": [
        {
          "internalType": "string",
          "name": "",
          "type": "string"
        },
        {
          "internalType": "address",
          "name": "",
          "type": "address"
        }
      ],
      "name": "mintCountByIdentifierWallet",
      "outputs": [
        {
          "internalType": "uint256",
          "name": "",
          "type": "uint256"
        }
      ],
      "stateMutability": "view",
      "type": "function"
    },
    {
      "inputs": [
        {
          "internalType": "address",
          "name": "",
          "type": "address"
        }
      ],
      "name": "mintCountByWallet",
      "outputs": [
        {
          "internalType": "uint256",
          "name": "",
          "type": "uint256"
        }
      ],
      "stateMutability": "view",
      "type": "function"
    },
    {
      "inputs": [],
      "name": "name",
      "outputs": [
        {
          "internalType": "string",
          "name": "",
          "type": "string"
        }
      ],
      "stateMutability": "view",
      "type": "function"
    },
    {
      "inputs": [],
      "name": "owner",
      "outputs": [
        {
          "internalType": "address",
          "name": "",
          "type": "address"
        }
      ],
      "stateMutability": "view",
      "type": "function"
    },
    {
      "inputs": [
        {
          "internalType": "uint256",
          "name": "tokenId",
          "type": "uint256"
        }
      ],
      "name": "ownerOf",
      "outputs": [
        {
          "internalType": "address",
          "name": "",
          "type": "address"
        }
      ],
      "stateMutability": "view",
      "type": "function"
    },
    {
      "inputs": [],
      "name": "renounceOwnership",
      "outputs": [],
      "stateMutability": "nonpayable",
      "type": "function"
    },
    {
      "inputs": [
        {
          "internalType": "uint256",
          "name": "_tokenId",
          "type": "uint256"
        },
        {
          "internalType": "uint256",
          "name": "_salePrice",
          "type": "uint256"
        }
      ],
      "name": "royaltyInfo",
      "outputs": [
        {
          "internalType": "address",
          "name": "",
          "type": "address"
        },
        {
          "internalType": "uint256",
          "name": "",
          "type": "uint256"
        }
      ],
      "stateMutability": "view",
      "type": "function"
    },
    {
      "inputs": [
        {
          "internalType": "address",
          "name": "_from",
          "type": "address"
        },
        {
          "internalType": "address",
          "name": "_to",
          "type": "address"
        },
        {
          "internalType": "uint256",
          "name": "_tokenId",
          "type": "uint256"
        }
      ],
      "name": "safeTransferFrom",
      "outputs": [],
      "stateMutability": "nonpayable",
      "type": "function"
    },
    {
      "inputs": [
        {
          "internalType": "address",
          "name": "_from",
          "type": "address"
        },
        {
          "internalType": "address",
          "name": "_to",
          "type": "address"
        },
        {
          "internalType": "uint256",
          "name": "_tokenId",
          "type": "uint256"
        },
        {
          "internalType": "bytes",
          "name": "data",
          "type": "bytes"
        }
      ],
      "name": "safeTransferFrom",
      "outputs": [],
      "stateMutability": "nonpayable",
      "type": "function"
    },
    {
      "inputs": [
        {
          "internalType": "address",
          "name": "operator",
          "type": "address"
        },
        {
          "internalType": "bool",
          "name": "approved",
          "type": "bool"
        }
      ],
      "name": "setApprovalForAll",
      "outputs": [],
      "stateMutability": "nonpayable",
      "type": "function"
    },
    {
      "inputs": [],
      "name": "state",
      "outputs": [
        {
          "internalType": "address",
          "name": "feeDestination",
          "type": "address"
        },
        {
          "internalType": "uint256",
          "name": "maxMintInTotalPerWallet",
          "type": "uint256"
        },
        {
          "internalType": "bytes32",
          "name": "saleConfigRoot",
          "type": "bytes32"
        },
        {
          "internalType": "address",
          "name": "msgSigner",
          "type": "address"
        },
        {
          "internalType": "string",
          "name": "baseURI",
          "type": "string"
        },
        {
          "internalType": "uint256",
          "name": "revealTime",
          "type": "uint256"
        },
        {
          "internalType": "uint96",
          "name": "royaltyBasis",
          "type": "uint96"
        },
        {
          "internalType": "address",
          "name": "platformOwner",
          "type": "address"
        },
        {
          "internalType": "uint256",
          "name": "maxMintCap",
          "type": "uint256"
        },
        {
          "internalType": "address",
          "name": "priceFeedAddress",
          "type": "address"
        }
      ],
      "stateMutability": "view",
      "type": "function"
    },
    {
      "inputs": [
        {
          "internalType": "bytes4",
          "name": "interfaceId",
          "type": "bytes4"
        }
      ],
      "name": "supportsInterface",
      "outputs": [
        {
          "internalType": "bool",
          "name": "",
          "type": "bool"
        }
      ],
      "stateMutability": "view",
      "type": "function"
    },
    {
      "inputs": [],
      "name": "symbol",
      "outputs": [
        {
          "internalType": "string",
          "name": "",
          "type": "string"
        }
      ],
      "stateMutability": "view",
      "type": "function"
    },
    {
      "inputs": [],
      "name": "tokenId",
      "outputs": [
        {
          "internalType": "uint256",
          "name": "",
          "type": "uint256"
        }
      ],
      "stateMutability": "view",
      "type": "function"
    },
    {
      "inputs": [
        {
          "internalType": "uint256",
          "name": "_tokenId",
          "type": "uint256"
        }
      ],
      "name": "tokenURI",
      "outputs": [
        {
          "internalType": "string",
          "name": "",
          "type": "string"
        }
      ],
      "stateMutability": "view",
      "type": "function"
    },
    {
      "inputs": [
        {
          "internalType": "address",
          "name": "_from",
          "type": "address"
        },
        {
          "internalType": "address",
          "name": "_to",
          "type": "address"
        },
        {
          "internalType": "uint256",
          "name": "_tokenId",
          "type": "uint256"
        }
      ],
      "name": "transferFrom",
      "outputs": [],
      "stateMutability": "nonpayable",
      "type": "function"
    },
    {
      "inputs": [
        {
          "internalType": "address",
          "name": "newOwner",
          "type": "address"
        }
      ],
      "name": "transferOwnership",
      "outputs": [],
      "stateMutability": "nonpayable",
      "type": "function"
    },
    {
      "inputs": [
        {
          "internalType": "string",
          "name": "_baseURI",
          "type": "string"
        }
      ],
      "name": "updateBaseURI",
      "outputs": [],
      "stateMutability": "nonpayable",
      "type": "function"
    },
    {
      "inputs": [
        {
          "internalType": "address",
          "name": "_feeDestination",
          "type": "address"
        }
      ],
      "name": "updateFeeToAddress",
      "outputs": [],
      "stateMutability": "nonpayable",
      "type": "function"
    },
    {
      "inputs": [
        {
          "internalType": "uint256",
          "name": "_val",
          "type": "uint256"
        }
      ],
      "name": "updateMaxMintInTotalPerWallet",
      "outputs": [],
      "stateMutability": "nonpayable",
      "type": "function"
    },
    {
      "inputs": [
        {
          "internalType": "address",
          "name": "_address",
          "type": "address"
        }
      ],
      "name": "updatePlatformOwner",
      "outputs": [],
      "stateMutability": "nonpayable",
      "type": "function"
    },
    {
      "inputs": [
        {
          "internalType": "uint256",
          "name": "_revealTime",
          "type": "uint256"
        }
      ],
      "name": "updateRevealTime",
      "outputs": [],
      "stateMutability": "nonpayable",
      "type": "function"
    },
    {
      "inputs": [
        {
          "internalType": "uint96",
          "name": "_val",
          "type": "uint96"
        }
      ],
      "name": "updateRoyaltyBasis",
      "outputs": [],
      "stateMutability": "nonpayable",
      "type": "function"
    },
    {
      "inputs": [
        {
          "internalType": "bytes32",
          "name": "_saleConfigRoot",
          "type": "bytes32"
        }
      ],
      "name": "updateSaleConfigRoot",
      "outputs": [],
      "stateMutability": "nonpayable",
      "type": "function"
    },
    {
      "stateMutability": "payable",
      "type": "receive"
    }
  ],
  "bytecode": "0x6080604052600160135560006014556040516200455f3803806200455f8339810160408190526200003091620006e9565b80516020820151733cc6cdda760b79bafa08df41ecfa224f810dceb6916001916200005b3362000461565b6001620000698382620008d0565b506002620000788282620008d0565b50506001600955506daaeb6d7670e522a718067333cd4e3b15620001c55780156200011357604051633e9f1edf60e11b81523060048201526001600160a01b03831660248201526daaeb6d7670e522a718067333cd4e90637d3e3dbe906044015b600060405180830381600087803b158015620000f457600080fd5b505af115801562000109573d6000803e3d6000fd5b50505050620001c5565b6001600160a01b03821615620001645760405163a0af290360e01b81523060048201526001600160a01b03831660248201526daaeb6d7670e522a718067333cd4e9063a0af290390604401620000d9565b604051632210724360e11b81523060048201526daaeb6d7670e522a718067333cd4e90634420e48690602401600060405180830381600087803b158015620001ab57600080fd5b505af1158015620001c0573d6000803e3d6000fd5b505050505b50506101608101516001600160a01b031615620002f05760008161016001516001600160a01b031663feaf968c6040518163ffffffff1660e01b815260040160a060405180830381865afa15801562000222573d6000803e3d6000fd5b505050506040513d601f19601f82011682018060405250810190620002489190620009b4565b5050509150506305f5e10081606462000262919062000a1f565b6200026e919062000a5b565b610140830151620002889067d02ab486cedc000062000a1f565b62000294919062000a5b565b341215620002e95760405162461bcd60e51b815260206004820152601a60248201527f4e6f7420656e6f756768206368617267652070726f766964656400000000000060448201526064015b60405180910390fd5b5062000359565b610140810151620003089065886c98b7600062000a9b565b341015620003595760405162461bcd60e51b815260206004820152601a60248201527f4e6f7420656e6f756768206368617267652070726f76696465640000000000006044820152606401620002e0565b6040810151600a80546001600160a01b039283166001600160a01b0319918216179091556080830151600c5560a0830151600d805491909316911617905560c0810151600e90620003ab9082620008d0565b506060810151600b5560e0810151600f55610100810151620003cf903090620004b1565b6101008101516101208201516001600160a01b039081166c0100000000000000000000000081026001600160601b039093169290921760105561014083015160115561016083015160128054919092166001600160a01b03199091161790556040513480156108fc02916000818181858888f1935050505015801562000459573d6000803e3d6000fd5b505062000ab5565b600080546001600160a01b038381166001600160a01b0319831681178455604051919092169283917f8be0079c531659141344cd1fd0a4f28419497f9722a3daafe3b4186f6b6457e09190a35050565b6127106001600160601b0382161115620005215760405162461bcd60e51b815260206004820152602a60248201527f455243323938313a20726f79616c7479206665652077696c6c206578636565646044820152692073616c65507269636560b01b6064820152608401620002e0565b6001600160a01b038216620005795760405162461bcd60e51b815260206004820152601960248201527f455243323938313a20696e76616c6964207265636569766572000000000000006044820152606401620002e0565b604080518082019091526001600160a01b039092168083526001600160601b039091166020909201829052600160a01b90910217600755565b634e487b7160e01b600052604160045260246000fd5b60405161018081016001600160401b0381118282101715620005ee57620005ee620005b2565b60405290565b604051601f8201601f191681016001600160401b03811182821017156200061f576200061f620005b2565b604052919050565b600082601f8301126200063957600080fd5b81516001600160401b03811115620006555762000655620005b2565b60206200066b601f8301601f19168201620005f4565b82815285828487010111156200068057600080fd5b60005b83811015620006a057858101830151828201840152820162000683565b506000928101909101919091529392505050565b80516001600160a01b0381168114620006cc57600080fd5b919050565b80516001600160601b0381168114620006cc57600080fd5b600060208284031215620006fc57600080fd5b81516001600160401b03808211156200071457600080fd5b9083019061018082860312156200072a57600080fd5b62000734620005c8565b8251828111156200074457600080fd5b620007528782860162000627565b8252506020830151828111156200076857600080fd5b620007768782860162000627565b6020830152506200078a60408401620006b4565b60408201526060830151606082015260808301516080820152620007b160a08401620006b4565b60a082015260c083015182811115620007c957600080fd5b620007d78782860162000627565b60c08301525060e083015160e08201526101009150620007f9828401620006d1565b8282015261012091506200080f828401620006b4565b8282015261014091508183015182820152610160915062000832828401620006b4565b91810191909152949350505050565b600181811c908216806200085657607f821691505b6020821081036200087757634e487b7160e01b600052602260045260246000fd5b50919050565b601f821115620008cb57600081815260208120601f850160051c81016020861015620008a65750805b601f850160051c820191505b81811015620008c757828155600101620008b2565b5050505b505050565b81516001600160401b03811115620008ec57620008ec620005b2565b6200090481620008fd845462000841565b846200087d565b602080601f8311600181146200093c5760008415620009235750858301515b600019600386901b1c1916600185901b178555620008c7565b600085815260208120601f198616915b828110156200096d578886015182559484019460019091019084016200094c565b50858210156200098c5787850151600019600388901b60f8161c191681555b5050505050600190811b01905550565b80516001600160501b0381168114620006cc57600080fd5b600080600080600060a08688031215620009cd57600080fd5b620009d8866200099c565b9450602086015193506040860151925060608601519150620009fd608087016200099c565b90509295509295909350565b634e487b7160e01b600052601160045260246000fd5b80820260008212600160ff1b8414161562000a3e5762000a3e62000a09565b818105831482151762000a555762000a5562000a09565b92915050565b60008262000a7957634e487b7160e01b600052601260045260246000fd5b600160ff1b82146000198414161562000a965762000a9662000a09565b500590565b808202811582820484141762000a555762000a5562000a09565b613a9a8062000ac56000396000f3fe6080604052600436106101c85760003560e01c8063715018a6116100f8578063b88d4fde11610090578063b88d4fde1461064e578063ba4cc7491461066e578063be458016146106a6578063c19d93fb146106b9578063c87b56dd146106e4578063dc9f75f714610704578063e8a3d48514610724578063e985e9c514610739578063f2fde38b1461075957600080fd5b8063715018a61461054357806371a8f1941461055857806383699816146105855780638847d3d5146105a55780638da5cb5b146105c5578063931688cb146105e357806395d89b41146106035780639659867e14610618578063a22cb4651461062e57600080fd5b8063210112f51161016b578063210112f51461040f57806323b872dd1461042f5780632a55205a1461044f5780632e411f221461048e57806342842e0e146104a357806361b5a2a2146104c35780636352211e146104e3578063655f07691461050357806370a082311461052357600080fd5b8063018779c7146102a457806301ffc9a7146102f457806306fdde0314610314578063081812fc14610336578063095ea7b3146103635780630b8c17851461038357806317d70f7c146103d95780631b34f107146103ef57600080fd5b3661029f57600060646101dc346002612d08565b6101e69190612d1f565b601054909150600160601b90046001600160a01b03161561024357601054604051600160601b9091046001600160a01b0316906108fc8315029083906000818181858888f19350505050158015610241573d6000803e3d6000fd5b505b600a546010546001600160a01b03918216916108fc91600160601b90041661026b5734610275565b6102758334612d41565b6040518115909202916000818181858888f1935050505015801561029d573d6000803e3d6000fd5b005b600080fd5b3480156102b057600080fd5b506102df6102bf366004612e55565b805160208183018101805160158252928201919093012091525460ff1681565b60405190151581526020015b60405180910390f35b34801561030057600080fd5b506102df61030f366004612e9f565b610779565b34801561032057600080fd5b506103296107a4565b6040516102eb9190612f0c565b34801561034257600080fd5b50610356610351366004612f1f565b610836565b6040516102eb9190612f38565b34801561036f57600080fd5b5061029d61037e366004612f68565b61085d565b34801561038f57600080fd5b506103cb61039e366004612f92565b81516020818401810180516017825292820194820194909420919093529091526000908152604090205481565b6040519081526020016102eb565b3480156103e557600080fd5b506103cb60135481565b3480156103fb57600080fd5b5061029d61040a366004612fdf565b610977565b34801561041b57600080fd5b5061029d61042a366004612fdf565b6109f6565b34801561043b57600080fd5b5061029d61044a366004612ffa565b610a20565b34801561045b57600080fd5b5061046f61046a366004613036565b610b75565b604080516001600160a01b0390931683526020830191909152016102eb565b34801561049a57600080fd5b506103cb600081565b3480156104af57600080fd5b5061029d6104be366004612ffa565b610c23565b3480156104cf57600080fd5b5061029d6104de366004612f1f565b610d6d565b3480156104ef57600080fd5b506103566104fe366004612f1f565b610d7a565b34801561050f57600080fd5b506103cb61051e366004613118565b610dae565b34801561052f57600080fd5b506103cb61053e366004612fdf565b610e29565b34801561054f57600080fd5b5061029d610eaf565b34801561056457600080fd5b506103cb610573366004612fdf565b60186020526000908152604090205481565b34801561059157600080fd5b5061029d6105a0366004612f1f565b610ec3565b3480156105b157600080fd5b5061029d6105c036600461314c565b610ed0565b3480156105d157600080fd5b506000546001600160a01b0316610356565b3480156105ef57600080fd5b5061029d6105fe366004612e55565b610f04565b34801561060f57600080fd5b50610329610f1c565b34801561062457600080fd5b506103cb60145481565b34801561063a57600080fd5b5061029d610649366004613175565b610f2b565b34801561065a57600080fd5b5061029d6106693660046131ac565b610f36565b34801561067a57600080fd5b506103cb610689366004612e55565b805160208183018101805160168252928201919093012091525481565b61029d6106b4366004613292565b61108e565b3480156106c557600080fd5b506106ce611b0c565b6040516102eb9a999897969594939291906133b0565b3480156106f057600080fd5b506103296106ff366004612f1f565b611bf4565b34801561071057600080fd5b5061029d61071f366004612f1f565b611c8e565b34801561073057600080fd5b50610329611c9b565b34801561074557600080fd5b506102df610754366004613426565b611cef565b34801561076557600080fd5b5061029d610774366004612fdf565b611d1d565b60006001600160e01b0319821663152a902d60e11b148061079e575061079e82611d93565b92915050565b6060600180546107b390613450565b80601f01602080910402602001604051908101604052809291908181526020018280546107df90613450565b801561082c5780601f106108015761010080835404028352916020019161082c565b820191906000526020600020905b81548152906001019060200180831161080f57829003601f168201915b5050505050905090565b600061084182611db8565b506000908152600560205260409020546001600160a01b031690565b600061086882610d7a565b9050806001600160a01b0316836001600160a01b0316036108da5760405162461bcd60e51b815260206004820152602160248201527f4552433732313a20617070726f76616c20746f2063757272656e74206f776e656044820152603960f91b60648201526084015b60405180910390fd5b336001600160a01b03821614806108f657506108f68133611cef565b6109685760405162461bcd60e51b815260206004820152603d60248201527f4552433732313a20617070726f76652063616c6c6572206973206e6f7420746f60448201527f6b656e206f776e6572206f7220617070726f76656420666f7220616c6c00000060648201526084016108d1565b6109728383611ddd565b505050565b601054600160601b90046001600160a01b031633146109ce5760405162461bcd60e51b815260206004820152601360248201527227b7363c90283630ba3337b9369027bbb732b960691b60448201526064016108d1565b601080546001600160a01b03909216600160601b026001600160601b03909216919091179055565b6109fe611e4b565b600a80546001600160a01b0319166001600160a01b0392909216919091179055565b826daaeb6d7670e522a718067333cd4e3b15610b6457336001600160a01b03821603610a5657610a51848484611ea5565b610b6f565b604051633185c44d60e21b81526daaeb6d7670e522a718067333cd4e9063c617113490610a89903090339060040161348a565b602060405180830381865afa158015610aa6573d6000803e3d6000fd5b505050506040513d601f19601f82011682018060405250810190610aca91906134a4565b8015610b455750604051633185c44d60e21b81526daaeb6d7670e522a718067333cd4e9063c617113490610b04903090859060040161348a565b602060405180830381865afa158015610b21573d6000803e3d6000fd5b505050506040513d601f19601f82011682018060405250810190610b4591906134a4565b610b645733604051633b79c77360e21b81526004016108d19190612f38565b610b6f848484611ea5565b50505050565b60008281526008602090815260408083208151808301909252546001600160a01b038116808352600160a01b9091046001600160601b0316928201929092528291610bea5750604080518082019091526007546001600160a01b0381168252600160a01b90046001600160601b031660208201525b602081015160009061271090610c09906001600160601b031687612d08565b610c139190612d1f565b91519350909150505b9250929050565b826daaeb6d7670e522a718067333cd4e3b15610d6257336001600160a01b03821603610c5457610a51848484611ed6565b604051633185c44d60e21b81526daaeb6d7670e522a718067333cd4e9063c617113490610c87903090339060040161348a565b602060405180830381865afa158015610ca4573d6000803e3d6000fd5b505050506040513d601f19601f82011682018060405250810190610cc891906134a4565b8015610d435750604051633185c44d60e21b81526daaeb6d7670e522a718067333cd4e9063c617113490610d02903090859060040161348a565b602060405180830381865afa158015610d1f573d6000803e3d6000fd5b505050506040513d601f19601f82011682018060405250810190610d4391906134a4565b610d625733604051633b79c77360e21b81526004016108d19190612f38565b610b6f848484611ed6565b610d75611e4b565b600b55565b600080610d8683611ef1565b90506001600160a01b03811661079e5760405162461bcd60e51b81526004016108d1906134c1565b80516020808301516040808501516060860151608087015160a088015160c089015160e08a01516101008b0151965160009a610dee9a90999891016134f3565b60408051601f19818403018152828252805160209182012090830152015b604051602081830303815290604052805190602001209050919050565b60006001600160a01b038216610e935760405162461bcd60e51b815260206004820152602960248201527f4552433732313a2061646472657373207a65726f206973206e6f7420612076616044820152683634b21037bbb732b960b91b60648201526084016108d1565b506001600160a01b031660009081526004602052604090205490565b610eb7611e4b565b610ec16000611f0c565b565b610ecb611e4b565b600c55565b610ed8611e4b565b610ee23082611f5c565b601080546001600160601b0319166001600160601b0392909216919091179055565b610f0c611e4b565b600e610f1882826135a5565b5050565b6060600280546107b390613450565b610f18338383612055565b836daaeb6d7670e522a718067333cd4e3b1561107b57336001600160a01b03821603610f6d57610f688585858561211f565b611087565b604051633185c44d60e21b81526daaeb6d7670e522a718067333cd4e9063c617113490610fa0903090339060040161348a565b602060405180830381865afa158015610fbd573d6000803e3d6000fd5b505050506040513d601f19601f82011682018060405250810190610fe191906134a4565b801561105c5750604051633185c44d60e21b81526daaeb6d7670e522a718067333cd4e9063c61711349061101b903090859060040161348a565b602060405180830381865afa158015611038573d6000803e3d6000fd5b505050506040513d601f19601f8201168201806040525081019061105c91906134a4565b61107b5733604051633b79c77360e21b81526004016108d19190612f38565b6110878585858561211f565b5050505050565b611096612151565b80516020820151604083015160a084015160c08501516011546014546110bd908590613664565b11156111085760405162461bcd60e51b815260206004820152601a60248201527904d696e7420436f756e742065786365656473204d6178204361760341b60448201526064016108d1565b600c5461114c5760405162461bcd60e51b8152602060048201526012602482015271139bc81cd85b194818dbdb999a59dd5c995960721b60448201526064016108d1565b61116485600a6002015461115f85610dae565b6121aa565b6111a65760405162461bcd60e51b8152602060048201526013602482015272496e76616c69642053616c6520436f6e66696760681b60448201526064016108d1565b81602001516111ed5760405162461bcd60e51b815260206004820152601360248201527214d85b19481a5cc81b9bdd08195b98589b1959606a1b60448201526064016108d1565b6040820151429015801590611206575082604001518110155b61124d5760405162461bcd60e51b815260206004820152601860248201527714d85b19481a185cc81b9bdd081cdd185c9d1959081e595d60421b60448201526064016108d1565b82606001518111158061126257506060830151155b61129f5760405162461bcd60e51b815260206004820152600e60248201526d14d85b19481a185cc8195b99195960921b60448201526064016108d1565b8260e0015184601685600001516040516112b99190613677565b9081526020016040518091039020546112d29190613664565b11156113205760405162461bcd60e51b815260206004820152601e60248201527f4d6178204d696e7420696e2053616c65204c696d69742045786365656473000060448201526064016108d1565b6101008301516001600160a01b031615801590611341575060008360800151115b15611402576001846017856000015160405161135d9190613677565b908152604080516020928190038301902033600090815292529020546113839190613664565b11156114025760405162461bcd60e51b815260206004820152604260248201527f546f6b656e2047617465642050616964204d696e74203a204d6178204d696e7460448201527f205065722057616c6c65742053616c65204c696d697420283129204578636565606482015261647360f01b608482015260a4016108d1565b6101008301516001600160a01b03166114b2578260c00151846017856000015160405161142f9190613677565b908152604080516020928190038301902033600090815292529020546114559190613664565b11156114b25760405162461bcd60e51b815260206004820152602660248201527f4d6178204d696e74205065722057616c6c65742053616c65204c696d6974204560448201526578636565647360d01b60648201526084016108d1565b600b541561153957600b54336000908152601860205260409020546114d8908690613664565b11156115395760405162461bcd60e51b815260206004820152602a60248201527f4d6178204d696e74207065722057616c6c657420696e20746f74616c204c696d6044820152696974204578636565647360b01b60648201526084016108d1565b60a08301511580159061155857506101008301516001600160a01b0316155b156116a95760a08301516040516001600160601b03193360601b166020820152603481018490526115c091879160540160408051601f1981840301815282825280516020918201209083015201604051602081830303815290604052805190602001206121aa565b6116065760405162461bcd60e51b8152602060048201526017602482015276165bdd48185c99481b9bdd081dda1a5d195b1a5cdd1959604a1b60448201526064016108d1565b81846017856000015160405161161c9190613677565b908152604080516020928190038301902033600090815292529020546116429190613664565b11156116a95760405162461bcd60e51b815260206004820152603060248201527f4d6178204d696e74205065722057616c6c65742053616c652057686974656c6960448201526f73742d4c696d6974204578636565647360801b60648201526084016108d1565b8383608001516116b99190612d08565b3410156117085760405162461bcd60e51b815260206004820152601f60248201527f4e6f7420656e6f756768206d696e74206368617267652070726f76696465640060448201526064016108d1565b8660400151876080015188606001518960e0015160158360405161172c9190613677565b9081526040519081900360200190205460ff16156117895760405162461bcd60e51b815260206004820152601a60248201527914da59db985d1d5c9948185b1c9958591e481c995919595b595960321b60448201526064016108d1565b600d546040516001600160a01b03909116906117da9085906117d4906117b9903390879089908c90602001613693565b604051602081830303815290604052805190602001206121c0565b906121fb565b6001600160a01b0316146118295760405162461bcd60e51b8152602060048201526016602482015275496e76616c6964204d696e74205369676e617475726560501b60448201526064016108d1565b60008b60400151116118745760405162461bcd60e51b815260206004820152601460248201527304e756d626572206f66206d696e747320697320360641b60448201526064016108d1565b8a604001516014600082825461188a9190613664565b925050819055508a6040015160178c60a00151600001516040516118ae9190613677565b90815260408051602092819003830190203360009081529252812080549091906118d9908490613664565b925050819055508a6040015160168c60a00151600001516040516118fd9190613677565b9081526020016040518091039020600082825461191a9190613664565b909155505033600090815260186020526040812080546001929061193f908490613664565b92505081905550600160158c6080015160405161195c9190613677565b9081526040805191829003602001909120805492151560ff1990931692909217909155601354908c01516119909082613664565b60135560006127106119a43461012c612d08565b6119ae9190612d1f565b601054909150600160601b90046001600160a01b031615611a0b57601054604051600160601b9091046001600160a01b0316906108fc8315029083906000818181858888f19350505050158015611a09573d6000803e3d6000fd5b505b600a546010546001600160a01b03918216916108fc91600160601b900416611a335734611a3d565b611a3d8334612d41565b6040518115909202916000818181858888f19350505050158015611a65573d6000803e3d6000fd5b5060005b8d60400151811015611a9857611a8833611a838386613664565b61221f565b611a91816136d7565b9050611a69565b507f4c209b5fc8ad50758f13e2e1088ba56a560dff690a1c6fef26394f4c03821c4f33836001601354611acb9190612d41565b604080516001600160a01b03909416845260208401929092529082015260600160405180910390a1505050505050505050505050611b096001600955565b50565b600a8054600b54600c54600d54600e80546001600160a01b0395861696949593949290931692611b3b90613450565b80601f0160208091040260200160405190810160405280929190818152602001828054611b6790613450565b8015611bb45780601f10611b8957610100808354040283529160200191611bb4565b820191906000526020600020905b815481529060010190602001808311611b9757829003601f168201915b505050600584015460068501546007860154600890960154949591946001600160601b03821694506001600160a01b03600160601b90920482169350168a565b600f54606090600e9015801590611c0d5750600f544211155b611c265760405180602001604052806000815250611c47565b6040518060400160405280600781526020016668696464656e2d60c81b8152505b611c5230601461233a565b611c5b466124dc565b611c64866124dc565b604051602001611c78959493929190613763565b6040516020818303038152906040529050919050565b611c96611e4b565b600f55565b6060600e611caa30601461233a565b611cb3466124dc565b601054611cc8906001600160601b03166124dc565b604051602001611cdb9493929190613810565b604051602081830303815290604052905090565b6001600160a01b03918216600090815260066020908152604080832093909416825291909152205460ff1690565b611d25611e4b565b6001600160a01b038116611d8a5760405162461bcd60e51b815260206004820152602660248201527f4f776e61626c653a206e6577206f776e657220697320746865207a65726f206160448201526564647265737360d01b60648201526084016108d1565b611b0981611f0c565b60006001600160e01b0319821663152a902d60e11b148061079e575061079e8261256e565b611dc1816125be565b611b095760405162461bcd60e51b81526004016108d1906134c1565b600081815260056020526040902080546001600160a01b0319166001600160a01b0384169081179091558190611e1282610d7a565b6001600160a01b03167f8c5be1e5ebec7d5bd14f71427d1e84f3dd0314c0f7b2291e5b200ac8c7c3b92560405160405180910390a45050565b6000546001600160a01b03163314610ec15760405162461bcd60e51b815260206004820181905260248201527f4f776e61626c653a2063616c6c6572206973206e6f7420746865206f776e657260448201526064016108d1565b611eaf33826125db565b611ecb5760405162461bcd60e51b81526004016108d1906138ac565b61097283838361263a565b61097283838360405180602001604052806000815250610f36565b6000908152600360205260409020546001600160a01b031690565b600080546001600160a01b038381166001600160a01b0319831681178455604051919092169283917f8be0079c531659141344cd1fd0a4f28419497f9722a3daafe3b4186f6b6457e09190a35050565b6127106001600160601b0382161115611fca5760405162461bcd60e51b815260206004820152602a60248201527f455243323938313a20726f79616c7479206665652077696c6c206578636565646044820152692073616c65507269636560b01b60648201526084016108d1565b6001600160a01b03821661201c5760405162461bcd60e51b815260206004820152601960248201527822a921991c9c189d1034b73b30b634b2103932b1b2b4bb32b960391b60448201526064016108d1565b604080518082019091526001600160a01b039092168083526001600160601b039091166020909201829052600160a01b90910217600755565b816001600160a01b0316836001600160a01b0316036120b25760405162461bcd60e51b815260206004820152601960248201527822a9219b99189d1030b8383937bb32903a379031b0b63632b960391b60448201526064016108d1565b6001600160a01b03838116600081815260066020908152604080832094871680845294825291829020805460ff191686151590811790915591519182527f17307eab39ab6107e8899845ad3d59bd9653f200f220920489ca2b5937696c31910160405180910390a3505050565b61212933836125db565b6121455760405162461bcd60e51b81526004016108d1906138ac565b610b6f848484846127ab565b6002600954036121a35760405162461bcd60e51b815260206004820152601f60248201527f5265656e7472616e637947756172643a207265656e7472616e742063616c6c0060448201526064016108d1565b6002600955565b6000826121b785846127de565b14949350505050565b6040517f19457468657265756d205369676e6564204d6573736167653a0a3332000000006020820152603c8101829052600090605c01610e0c565b600080600061220a8585612823565b9150915061221781612865565b509392505050565b6001600160a01b0382166122755760405162461bcd60e51b815260206004820181905260248201527f4552433732313a206d696e7420746f20746865207a65726f206164647265737360448201526064016108d1565b61227e816125be565b1561229b5760405162461bcd60e51b81526004016108d1906138f9565b6122a96000838360016129aa565b6122b2816125be565b156122cf5760405162461bcd60e51b81526004016108d1906138f9565b6001600160a01b038216600081815260046020908152604080832080546001019055848352600390915280822080546001600160a01b0319168417905551839291907fddf252ad1be2c89b69c2b068fc378daa952ba7f163c4a11628f55a4df523b3ef908290a45050565b60606000612349836002612d08565b612354906002613664565b6001600160401b0381111561236b5761236b612d54565b6040519080825280601f01601f191660200182016040528015612395576020820181803683370190505b509050600360fc1b816000815181106123b0576123b0613930565b60200101906001600160f81b031916908160001a905350600f60fb1b816001815181106123df576123df613930565b60200101906001600160f81b031916908160001a9053506000612403846002612d08565b61240e906001613664565b90505b6001811115612486576f181899199a1a9b1b9c1cb0b131b232b360811b85600f166010811061244257612442613930565b1a60f81b82828151811061245857612458613930565b60200101906001600160f81b031916908160001a90535060049490941c9361247f81613946565b9050612411565b5083156124d55760405162461bcd60e51b815260206004820181905260248201527f537472696e67733a20686578206c656e67746820696e73756666696369656e7460448201526064016108d1565b9392505050565b606060006124e983612a32565b60010190506000816001600160401b0381111561250857612508612d54565b6040519080825280601f01601f191660200182016040528015612532576020820181803683370190505b5090508181016020015b600019016f181899199a1a9b1b9c1cb0b131b232b360811b600a86061a8153600a850494508461253c57509392505050565b60006001600160e01b031982166380ac58cd60e01b148061259f57506001600160e01b03198216635b5e139f60e01b145b8061079e57506301ffc9a760e01b6001600160e01b031983161461079e565b6000806125ca83611ef1565b6001600160a01b0316141592915050565b6000806125e783610d7a565b9050806001600160a01b0316846001600160a01b0316148061260e575061260e8185611cef565b806126325750836001600160a01b031661262784610836565b6001600160a01b0316145b949350505050565b826001600160a01b031661264d82610d7a565b6001600160a01b0316146126735760405162461bcd60e51b81526004016108d19061395d565b6001600160a01b0382166126d55760405162461bcd60e51b8152602060048201526024808201527f4552433732313a207472616e7366657220746f20746865207a65726f206164646044820152637265737360e01b60648201526084016108d1565b6126e283838360016129aa565b826001600160a01b03166126f582610d7a565b6001600160a01b03161461271b5760405162461bcd60e51b81526004016108d19061395d565b600081815260056020908152604080832080546001600160a01b03199081169091556001600160a01b0387811680865260048552838620805460001901905590871680865283862080546001019055868652600390945282852080549092168417909155905184937fddf252ad1be2c89b69c2b068fc378daa952ba7f163c4a11628f55a4df523b3ef91a4505050565b6127b684848461263a565b6127c284848484612b08565b610b6f5760405162461bcd60e51b81526004016108d1906139a2565b600081815b84518110156122175761280f8286838151811061280257612802613930565b6020026020010151612c09565b91508061281b816136d7565b9150506127e3565b60008082516041036128595760208301516040840151606085015160001a61284d87828585612c38565b94509450505050610c1c565b50600090506002610c1c565b6000816004811115612879576128796139f4565b036128815750565b6001816004811115612895576128956139f4565b036128dd5760405162461bcd60e51b815260206004820152601860248201527745434453413a20696e76616c6964207369676e617475726560401b60448201526064016108d1565b60028160048111156128f1576128f16139f4565b0361293e5760405162461bcd60e51b815260206004820152601f60248201527f45434453413a20696e76616c6964207369676e6174757265206c656e6774680060448201526064016108d1565b6003816004811115612952576129526139f4565b03611b095760405162461bcd60e51b815260206004820152602260248201527f45434453413a20696e76616c6964207369676e6174757265202773272076616c604482015261756560f01b60648201526084016108d1565b6001811115610b6f576001600160a01b038416156129f0576001600160a01b038416600090815260046020526040812080548392906129ea908490612d41565b90915550505b6001600160a01b03831615610b6f576001600160a01b03831660009081526004602052604081208054839290612a27908490613664565b909155505050505050565b60008072184f03e93ff9f4daa797ed6e38ed64bf6a1f0160401b8310612a715772184f03e93ff9f4daa797ed6e38ed64bf6a1f0160401b830492506040015b6904ee2d6d415b85acef8160201b8310612a9b576904ee2d6d415b85acef8160201b830492506020015b662386f26fc100008310612ab957662386f26fc10000830492506010015b6305f5e1008310612ad1576305f5e100830492506008015b6127108310612ae557612710830492506004015b60648310612af7576064830492506002015b600a831061079e5760010192915050565b60006001600160a01b0384163b15612bfe57604051630a85bd0160e11b81526001600160a01b0385169063150b7a0290612b4c903390899088908890600401613a0a565b6020604051808303816000875af1925050508015612b87575060408051601f3d908101601f19168201909252612b8491810190613a47565b60015b612be4573d808015612bb5576040519150601f19603f3d011682016040523d82523d6000602084013e612bba565b606091505b508051600003612bdc5760405162461bcd60e51b81526004016108d1906139a2565b805181602001fd5b6001600160e01b031916630a85bd0160e11b149050612632565b506001949350505050565b6000818310612c255760008281526020849052604090206124d5565b60008381526020839052604090206124d5565b6000806fa2a8918ca85bafe22016d0b997e4df60600160ff1b03831115612c655750600090506003612ce9565b6040805160008082526020820180845289905260ff881692820192909252606081018690526080810185905260019060a0016020604051602081039080840390855afa158015612cb9573d6000803e3d6000fd5b5050604051601f1901519150506001600160a01b038116612ce257600060019250925050612ce9565b9150600090505b94509492505050565b634e487b7160e01b600052601160045260246000fd5b808202811582820484141761079e5761079e612cf2565b600082612d3c57634e487b7160e01b600052601260045260246000fd5b500490565b8181038181111561079e5761079e612cf2565b634e487b7160e01b600052604160045260246000fd5b60405161012081016001600160401b0381118282101715612d8d57612d8d612d54565b60405290565b60405161010081016001600160401b0381118282101715612d8d57612d8d612d54565b604051601f8201601f191681016001600160401b0381118282101715612dde57612dde612d54565b604052919050565b600082601f830112612df757600080fd5b81356001600160401b03811115612e1057612e10612d54565b612e23601f8201601f1916602001612db6565b818152846020838601011115612e3857600080fd5b816020850160208301376000918101602001919091529392505050565b600060208284031215612e6757600080fd5b81356001600160401b03811115612e7d57600080fd5b61263284828501612de6565b6001600160e01b031981168114611b0957600080fd5b600060208284031215612eb157600080fd5b81356124d581612e89565b60005b83811015612ed7578181015183820152602001612ebf565b50506000910152565b60008151808452612ef8816020860160208601612ebc565b601f01601f19169290920160200192915050565b6020815260006124d56020830184612ee0565b600060208284031215612f3157600080fd5b5035919050565b6001600160a01b0391909116815260200190565b80356001600160a01b0381168114612f6357600080fd5b919050565b60008060408385031215612f7b57600080fd5b612f8483612f4c565b946020939093013593505050565b60008060408385031215612fa557600080fd5b82356001600160401b03811115612fbb57600080fd5b612fc785828601612de6565b925050612fd660208401612f4c565b90509250929050565b600060208284031215612ff157600080fd5b6124d582612f4c565b60008060006060848603121561300f57600080fd5b61301884612f4c565b925061302660208501612f4c565b9150604084013590509250925092565b6000806040838503121561304957600080fd5b50508035926020909101359150565b8015158114611b0957600080fd5b8035612f6381613058565b6000610120828403121561308457600080fd5b61308c612d6a565b905081356001600160401b038111156130a457600080fd5b6130b084828501612de6565b8252506130bf60208301613066565b602082015260408201356040820152606082013560608201526080820135608082015260a082013560a082015260c082013560c082015260e082013560e082015261010061310e818401612f4c565b9082015292915050565b60006020828403121561312a57600080fd5b81356001600160401b0381111561314057600080fd5b61263284828501613071565b60006020828403121561315e57600080fd5b81356001600160601b03811681146124d557600080fd5b6000806040838503121561318857600080fd5b61319183612f4c565b915060208301356131a181613058565b809150509250929050565b600080600080608085870312156131c257600080fd5b6131cb85612f4c565b93506131d960208601612f4c565b92506040850135915060608501356001600160401b038111156131fb57600080fd5b61320787828801612de6565b91505092959194509250565b600082601f83011261322457600080fd5b813560206001600160401b0382111561323f5761323f612d54565b8160051b61324e828201612db6565b928352848101820192828101908785111561326857600080fd5b83870192505b848310156132875782358252918301919083019061326e565b979650505050505050565b6000602082840312156132a457600080fd5b81356001600160401b03808211156132bb57600080fd5b9083019061010082860312156132d057600080fd5b6132d8612d93565b8235828111156132e757600080fd5b6132f387828601613213565b82525060208301358281111561330857600080fd5b61331487828601613213565b6020830152506040830135604082015260608301358281111561333657600080fd5b61334287828601612de6565b60608301525060808301358281111561335a57600080fd5b61336687828601612de6565b60808301525060a08301358281111561337e57600080fd5b61338a87828601613071565b60a08301525060c083013560c082015260e083013560e082015280935050505092915050565b600061014060018060a01b03808e1684528c60208501528b6040850152808b1660608501528160808501526133e78285018b612ee0565b60a08501999099526001600160601b039790971660c0840152505092841660e08401526101008301919091529091166101209091015295945050505050565b6000806040838503121561343957600080fd5b61344283612f4c565b9150612fd660208401612f4c565b600181811c9082168061346457607f821691505b60208210810361348457634e487b7160e01b600052602260045260246000fd5b50919050565b6001600160a01b0392831681529116602082015260400190565b6000602082840312156134b657600080fd5b81516124d581613058565b602080825260189082015277115490cdcc8c4e881a5b9d985b1a59081d1bdad95b88125160421b604082015260600190565b60008a51613505818460208f01612ebc565b99151560f81b919099019081526001810197909752602187019590955260418601939093526061850191909152608184015260a183015260601b6001600160601b03191660c182015260d50192915050565b601f82111561097257600081815260208120601f850160051c8101602086101561357e5750805b601f850160051c820191505b8181101561359d5782815560010161358a565b505050505050565b81516001600160401b038111156135be576135be612d54565b6135d2816135cc8454613450565b84613557565b602080601f83116001811461360757600084156135ef5750858301515b600019600386901b1c1916600185901b17855561359d565b600085815260208120601f198616915b8281101561363657888601518255948401946001909101908401613617565b50858210156136545787850151600019600388901b60f8161c191681555b5050505050600190811b01905550565b8082018082111561079e5761079e612cf2565b60008251613689818460208701612ebc565b9190910192915050565b606085901b6001600160601b03191681526014810184905282516000906136c1816034850160208801612ebc565b6034920191820192909252605401949350505050565b6000600182016136e9576136e9612cf2565b5060010190565b600081546136fd81613450565b60018281168015613715576001811461372a57613759565b60ff1984168752821515830287019450613759565b8560005260208060002060005b858110156137505781548a820152908401908201613737565b50505082870194505b5050505092915050565b600061376f82886136f0565b865161377f818360208b01612ebc565b71746f6b656e2d7572693f616464726573733d60701b910190815285516137ad816012840160208a01612ebc565b68266e6574776f726b3d60b81b6012929091019182015284516137d781601b840160208901612ebc565b6826746f6b656e49643d60b81b601b92909101918201528351613801816024840160208801612ebc565b01602401979650505050505050565b600061381c82876136f0565b74636f6e74726163742d7572693f616464726573733d60581b8152855161384a816015840160208a01612ebc565b68266e6574776f726b3d60b81b60159290910191820152845161387481601e840160208901612ebc565b6826726f79616c74793d60b81b601e9290910191820152835161389e816027840160208801612ebc565b016027019695505050505050565b6020808252602d908201527f4552433732313a2063616c6c6572206973206e6f7420746f6b656e206f776e6560408201526c1c881bdc88185c1c1c9bdd9959609a1b606082015260800190565b6020808252601c908201527f4552433732313a20746f6b656e20616c7265616479206d696e74656400000000604082015260600190565b634e487b7160e01b600052603260045260246000fd5b60008161395557613955612cf2565b506000190190565b60208082526025908201527f4552433732313a207472616e736665722066726f6d20696e636f72726563742060408201526437bbb732b960d91b606082015260800190565b60208082526032908201527f4552433732313a207472616e7366657220746f206e6f6e20455243373231526560408201527131b2b4bb32b91034b6b83632b6b2b73a32b960711b606082015260800190565b634e487b7160e01b600052602160045260246000fd5b6001600160a01b0385811682528416602082015260408101839052608060608201819052600090613a3d90830184612ee0565b9695505050505050565b600060208284031215613a5957600080fd5b81516124d581612e8956fea2646970667358221220be91b5bde709f00307698adb495f06ddf60ebc202c3d6293ae5aed4a2afd039764736f6c63430008110033",
  "linkReferences": {},
  "deployedLinkReferences": {}
}