{
  "_format": "hh-sol-artifact-1",
  "contractName": "Collection721",
  "sourceName": "contracts/hydro/hydro-dftsw/Collection721.sol",
  "abi": [
    {
      "inputs": [
        {
          "components": [
            {
              "internalType": "string",
              "name": "_name",
              "type": "string"
            },
            {
              "internalType": "string",
              "name": "_symbol",
              "type": "string"
            },
            {
              "internalType": "address",
              "name": "_feeDestination",
              "type": "address"
            },
            {
              "internalType": "uint256",
              "name": "_maxMintInTotalPerWallet",
              "type": "uint256"
            },
            {
              "internalType": "bytes32",
              "name": "_saleConfigRoot",
              "type": "bytes32"
            },
            {
              "internalType": "address",
              "name": "_msgSigner",
              "type": "address"
            },
            {
              "internalType": "string",
              "name": "_baseURI",
              "type": "string"
            },
            {
              "internalType": "uint256",
              "name": "_revealTime",
              "type": "uint256"
            },
            {
              "internalType": "uint96",
              "name": "_royaltyBasis",
              "type": "uint96"
            },
            {
              "internalType": "address",
              "name": "_platformOwner",
              "type": "address"
            },
            {
              "internalType": "uint256",
              "name": "_maxMintCap",
              "type": "uint256"
            },
            {
              "internalType": "address",
              "name": "_priceFeedAddress",
              "type": "address"
            }
          ],
          "internalType": "struct Collection721.ConstructorArgs",
          "name": "args",
          "type": "tuple"
        }
      ],
      "stateMutability": "payable",
      "type": "constructor"
    },
    {
      "inputs": [
        {
          "internalType": "address",
          "name": "operator",
          "type": "address"
        }
      ],
      "name": "OperatorNotAllowed",
      "type": "error"
    },
    {
      "anonymous": false,
      "inputs": [
        {
          "indexed": true,
          "internalType": "address",
          "name": "owner",
          "type": "address"
        },
        {
          "indexed": true,
          "internalType": "address",
          "name": "approved",
          "type": "address"
        },
        {
          "indexed": true,
          "internalType": "uint256",
          "name": "tokenId",
          "type": "uint256"
        }
      ],
      "name": "Approval",
      "type": "event"
    },
    {
      "anonymous": false,
      "inputs": [
        {
          "indexed": true,
          "internalType": "address",
          "name": "owner",
          "type": "address"
        },
        {
          "indexed": true,
          "internalType": "address",
          "name": "operator",
          "type": "address"
        },
        {
          "indexed": false,
          "internalType": "bool",
          "name": "approved",
          "type": "bool"
        }
      ],
      "name": "ApprovalForAll",
      "type": "event"
    },
    {
      "anonymous": false,
      "inputs": [
        {
          "indexed": false,
          "internalType": "address",
          "name": "msgSender",
          "type": "address"
        },
        {
          "indexed": false,
          "internalType": "uint256",
          "name": "fromTokenId",
          "type": "uint256"
        },
        {
          "indexed": false,
          "internalType": "uint256",
          "name": "toTokenId",
          "type": "uint256"
        }
      ],
      "name": "Mint",
      "type": "event"
    },
    {
      "anonymous": false,
      "inputs": [
        {
          "indexed": true,
          "internalType": "address",
          "name": "previousOwner",
          "type": "address"
        },
        {
          "indexed": true,
          "internalType": "address",
          "name": "newOwner",
          "type": "address"
        }
      ],
      "name": "OwnershipTransferred",
      "type": "event"
    },
    {
      "anonymous": false,
      "inputs": [
        {
          "indexed": true,
          "internalType": "address",
          "name": "from",
          "type": "address"
        },
        {
          "indexed": true,
          "internalType": "address",
          "name": "to",
          "type": "address"
        },
        {
          "indexed": true,
          "internalType": "uint256",
          "name": "tokenId",
          "type": "uint256"
        }
      ],
      "name": "Transfer",
      "type": "event"
    },
    {
      "inputs": [],
      "name": "EMPTY_ROOT",
      "outputs": [
        {
          "internalType": "bytes32",
          "name": "",
          "type": "bytes32"
        }
      ],
      "stateMutability": "view",
      "type": "function"
    },
    {
      "inputs": [
        {
          "internalType": "address",
          "name": "to",
          "type": "address"
        },
        {
          "internalType": "uint256",
          "name": "tokenId",
          "type": "uint256"
        }
      ],
      "name": "approve",
      "outputs": [],
      "stateMutability": "nonpayable",
      "type": "function"
    },
    {
      "inputs": [
        {
          "internalType": "address",
          "name": "owner",
          "type": "address"
        }
      ],
      "name": "balanceOf",
      "outputs": [
        {
          "internalType": "uint256",
          "name": "",
          "type": "uint256"
        }
      ],
      "stateMutability": "view",
      "type": "function"
    },
    {
      "inputs": [],
      "name": "contractURI",
      "outputs": [
        {
          "internalType": "string",
          "name": "",
          "type": "string"
        }
      ],
      "stateMutability": "view",
      "type": "function"
    },
    {
      "inputs": [
        {
          "internalType": "uint256",
          "name": "tokenId",
          "type": "uint256"
        }
      ],
      "name": "getApproved",
      "outputs": [
        {
          "internalType": "address",
          "name": "",
          "type": "address"
        }
      ],
      "stateMutability": "view",
      "type": "function"
    },
    {
      "inputs": [
        {
          "components": [
            {
              "internalType": "string",
              "name": "saleIdentifier",
              "type": "string"
            },
            {
              "internalType": "bool",
              "name": "enabled",
              "type": "bool"
            },
            {
              "internalType": "uint256",
              "name": "startTime",
              "type": "uint256"
            },
            {
              "internalType": "uint256",
              "name": "endTime",
              "type": "uint256"
            },
            {
              "internalType": "uint256",
              "name": "mintCharge",
              "type": "uint256"
            },
            {
              "internalType": "bytes32",
              "name": "whitelistRoot",
              "type": "bytes32"
            },
            {
              "internalType": "uint256",
              "name": "maxMintPerWallet",
              "type": "uint256"
            },
            {
              "internalType": "uint256",
              "name": "maxMintInSale",
              "type": "uint256"
            },
            {
              "internalType": "address",
              "name": "tokenGatedAddress",
              "type": "address"
            }
          ],
          "internalType": "struct Collection721.SaleConfig",
          "name": "config",
          "type": "tuple"
        }
      ],
      "name": "getSaleConfigLeaf",
      "outputs": [
        {
          "internalType": "bytes32",
          "name": "",
          "type": "bytes32"
        }
      ],
      "stateMutability": "pure",
      "type": "function"
    },
    {
      "inputs": [
        {
          "internalType": "address",
          "name": "owner",
          "type": "address"
        },
        {
          "internalType": "address",
          "name": "operator",
          "type": "address"
        }
      ],
      "name": "isApprovedForAll",
      "outputs": [
        {
          "internalType": "bool",
          "name": "",
          "type": "bool"
        }
      ],
      "stateMutability": "view",
      "type": "function"
    },
    {
      "inputs": [
        {
          "internalType": "bytes",
          "name": "",
          "type": "bytes"
        }
      ],
      "name": "isSignatureRedeemed",
      "outputs": [
        {
          "internalType": "bool",
          "name": "",
          "type": "bool"
        }
      ],
      "stateMutability": "view",
      "type": "function"
    },
    {
      "inputs": [
        {
          "internalType": "bytes32[]",
          "name": "saleConfigProof",
          "type": "bytes32[]"
        },
        {
          "internalType": "bytes32[]",
          "name": "whitelistProof",
          "type": "bytes32[]"
        },
        {
          "internalType": "uint256",
          "name": "numberOfMint",
          "type": "uint256"
        },
        {
          "internalType": "string",
          "name": "message",
          "type": "string"
        },
        {
          "internalType": "bytes",
          "name": "signature",
          "type": "bytes"
        },
        {
          "components": [
            {
              "internalType": "string",
              "name": "saleIdentifier",
              "type": "string"
            },
            {
              "internalType": "bool",
              "name": "enabled",
              "type": "bool"
            },
            {
              "internalType": "uint256",
              "name": "startTime",
              "type": "uint256"
            },
            {
              "internalType": "uint256",
              "name": "endTime",
              "type": "uint256"
            },
            {
              "internalType": "uint256",
              "name": "mintCharge",
              "type": "uint256"
            },
            {
              "internalType": "bytes32",
              "name": "whitelistRoot",
              "type": "bytes32"
            },
            {
              "internalType": "uint256",
              "name": "maxMintPerWallet",
              "type": "uint256"
            },
            {
              "internalType": "uint256",
              "name": "maxMintInSale",
              "type": "uint256"
            },
            {
              "internalType": "address",
              "name": "tokenGatedAddress",
              "type": "address"
            }
          ],
          "internalType": "struct Collection721.SaleConfig",
          "name": "config",
          "type": "tuple"
        }
      ],
      "name": "mint",
      "outputs": [],
      "stateMutability": "payable",
      "type": "function"
    },
    {
      "inputs": [],
      "name": "mintCount",
      "outputs": [
        {
          "internalType": "uint256",
          "name": "",
          "type": "uint256"
        }
      ],
      "stateMutability": "view",
      "type": "function"
    },
    {
      "inputs": [
        {
          "internalType": "string",
          "name": "",
          "type": "string"
        }
      ],
      "name": "mintCountByIdentifier",
      "outputs": [
        {
          "internalType": "uint256",
          "name": "",
          "type": "uint256"
        }
      ],
      "stateMutability": "view",
      "type": "function"
    },
    {
      "inputs": [
        {
          "internalType": "string",
          "name": "",
          "type": "string"
        },
        {
          "internalType": "address",
          "name": "",
          "type": "address"
        }
      ],
      "name": "mintCountByIdentifierWallet",
      "outputs": [
        {
          "internalType": "uint256",
          "name": "",
          "type": "uint256"
        }
      ],
      "stateMutability": "view",
      "type": "function"
    },
    {
      "inputs": [
        {
          "internalType": "address",
          "name": "",
          "type": "address"
        }
      ],
      "name": "mintCountByWallet",
      "outputs": [
        {
          "internalType": "uint256",
          "name": "",
          "type": "uint256"
        }
      ],
      "stateMutability": "view",
      "type": "function"
    },
    {
      "inputs": [],
      "name": "name",
      "outputs": [
        {
          "internalType": "string",
          "name": "",
          "type": "string"
        }
      ],
      "stateMutability": "view",
      "type": "function"
    },
    {
      "inputs": [],
      "name": "owner",
      "outputs": [
        {
          "internalType": "address",
          "name": "",
          "type": "address"
        }
      ],
      "stateMutability": "view",
      "type": "function"
    },
    {
      "inputs": [
        {
          "internalType": "uint256",
          "name": "tokenId",
          "type": "uint256"
        }
      ],
      "name": "ownerOf",
      "outputs": [
        {
          "internalType": "address",
          "name": "",
          "type": "address"
        }
      ],
      "stateMutability": "view",
      "type": "function"
    },
    {
      "inputs": [],
      "name": "renounceOwnership",
      "outputs": [],
      "stateMutability": "nonpayable",
      "type": "function"
    },
    {
      "inputs": [
        {
          "internalType": "uint256",
          "name": "_tokenId",
          "type": "uint256"
        },
        {
          "internalType": "uint256",
          "name": "_salePrice",
          "type": "uint256"
        }
      ],
      "name": "royaltyInfo",
      "outputs": [
        {
          "internalType": "address",
          "name": "",
          "type": "address"
        },
        {
          "internalType": "uint256",
          "name": "",
          "type": "uint256"
        }
      ],
      "stateMutability": "view",
      "type": "function"
    },
    {
      "inputs": [
        {
          "internalType": "address",
          "name": "_from",
          "type": "address"
        },
        {
          "internalType": "address",
          "name": "_to",
          "type": "address"
        },
        {
          "internalType": "uint256",
          "name": "_tokenId",
          "type": "uint256"
        }
      ],
      "name": "safeTransferFrom",
      "outputs": [],
      "stateMutability": "nonpayable",
      "type": "function"
    },
    {
      "inputs": [
        {
          "internalType": "address",
          "name": "_from",
          "type": "address"
        },
        {
          "internalType": "address",
          "name": "_to",
          "type": "address"
        },
        {
          "internalType": "uint256",
          "name": "_tokenId",
          "type": "uint256"
        },
        {
          "internalType": "bytes",
          "name": "data",
          "type": "bytes"
        }
      ],
      "name": "safeTransferFrom",
      "outputs": [],
      "stateMutability": "nonpayable",
      "type": "function"
    },
    {
      "inputs": [
        {
          "internalType": "address",
          "name": "operator",
          "type": "address"
        },
        {
          "internalType": "bool",
          "name": "approved",
          "type": "bool"
        }
      ],
      "name": "setApprovalForAll",
      "outputs": [],
      "stateMutability": "nonpayable",
      "type": "function"
    },
    {
      "inputs": [],
      "name": "state",
      "outputs": [
        {
          "internalType": "address",
          "name": "feeDestination",
          "type": "address"
        },
        {
          "internalType": "uint256",
          "name": "maxMintInTotalPerWallet",
          "type": "uint256"
        },
        {
          "internalType": "bytes32",
          "name": "saleConfigRoot",
          "type": "bytes32"
        },
        {
          "internalType": "address",
          "name": "msgSigner",
          "type": "address"
        },
        {
          "internalType": "string",
          "name": "baseURI",
          "type": "string"
        },
        {
          "internalType": "uint256",
          "name": "revealTime",
          "type": "uint256"
        },
        {
          "internalType": "uint96",
          "name": "royaltyBasis",
          "type": "uint96"
        },
        {
          "internalType": "address",
          "name": "platformOwner",
          "type": "address"
        },
        {
          "internalType": "uint256",
          "name": "maxMintCap",
          "type": "uint256"
        },
        {
          "internalType": "address",
          "name": "priceFeedAddress",
          "type": "address"
        }
      ],
      "stateMutability": "view",
      "type": "function"
    },
    {
      "inputs": [
        {
          "internalType": "bytes4",
          "name": "interfaceId",
          "type": "bytes4"
        }
      ],
      "name": "supportsInterface",
      "outputs": [
        {
          "internalType": "bool",
          "name": "",
          "type": "bool"
        }
      ],
      "stateMutability": "view",
      "type": "function"
    },
    {
      "inputs": [],
      "name": "symbol",
      "outputs": [
        {
          "internalType": "string",
          "name": "",
          "type": "string"
        }
      ],
      "stateMutability": "view",
      "type": "function"
    },
    {
      "inputs": [],
      "name": "tokenId",
      "outputs": [
        {
          "internalType": "uint256",
          "name": "",
          "type": "uint256"
        }
      ],
      "stateMutability": "view",
      "type": "function"
    },
    {
      "inputs": [
        {
          "internalType": "uint256",
          "name": "_tokenId",
          "type": "uint256"
        }
      ],
      "name": "tokenURI",
      "outputs": [
        {
          "internalType": "string",
          "name": "",
          "type": "string"
        }
      ],
      "stateMutability": "view",
      "type": "function"
    },
    {
      "inputs": [
        {
          "internalType": "address",
          "name": "_from",
          "type": "address"
        },
        {
          "internalType": "address",
          "name": "_to",
          "type": "address"
        },
        {
          "internalType": "uint256",
          "name": "_tokenId",
          "type": "uint256"
        }
      ],
      "name": "transferFrom",
      "outputs": [],
      "stateMutability": "nonpayable",
      "type": "function"
    },
    {
      "inputs": [
        {
          "internalType": "address",
          "name": "newOwner",
          "type": "address"
        }
      ],
      "name": "transferOwnership",
      "outputs": [],
      "stateMutability": "nonpayable",
      "type": "function"
    },
    {
      "inputs": [
        {
          "internalType": "string",
          "name": "_baseURI",
          "type": "string"
        }
      ],
      "name": "updateBaseURI",
      "outputs": [],
      "stateMutability": "nonpayable",
      "type": "function"
    },
    {
      "inputs": [
        {
          "internalType": "address",
          "name": "_feeDestination",
          "type": "address"
        }
      ],
      "name": "updateFeeToAddress",
      "outputs": [],
      "stateMutability": "nonpayable",
      "type": "function"
    },
    {
      "inputs": [
        {
          "internalType": "uint256",
          "name": "_val",
          "type": "uint256"
        }
      ],
      "name": "updateMaxMintInTotalPerWallet",
      "outputs": [],
      "stateMutability": "nonpayable",
      "type": "function"
    },
    {
      "inputs": [
        {
          "internalType": "address",
          "name": "_address",
          "type": "address"
        }
      ],
      "name": "updatePlatformOwner",
      "outputs": [],
      "stateMutability": "nonpayable",
      "type": "function"
    },
    {
      "inputs": [
        {
          "internalType": "uint256",
          "name": "_revealTime",
          "type": "uint256"
        }
      ],
      "name": "updateRevealTime",
      "outputs": [],
      "stateMutability": "nonpayable",
      "type": "function"
    },
    {
      "inputs": [
        {
          "internalType": "uint96",
          "name": "_val",
          "type": "uint96"
        }
      ],
      "name": "updateRoyaltyBasis",
      "outputs": [],
      "stateMutability": "nonpayable",
      "type": "function"
    },
    {
      "inputs": [
        {
          "internalType": "bytes32",
          "name": "_saleConfigRoot",
          "type": "bytes32"
        }
      ],
      "name": "updateSaleConfigRoot",
      "outputs": [],
      "stateMutability": "nonpayable",
      "type": "function"
    },
    {
      "stateMutability": "payable",
      "type": "receive"
    }
  ],
  "bytecode": "0x608060405260016013556000601455604051620043c7380380620043c78339810160408190526200003091620007ac565b80516020820151733cc6cdda760b79bafa08df41ecfa224f810dceb6916001916200005b3362000476565b815162000070906001906020850190620005c7565b50805162000086906002906020840190620005c7565b50506001600955506daaeb6d7670e522a718067333cd4e3b15620001d35780156200012157604051633e9f1edf60e11b81523060048201526001600160a01b03831660248201526daaeb6d7670e522a718067333cd4e90637d3e3dbe906044015b600060405180830381600087803b1580156200010257600080fd5b505af115801562000117573d6000803e3d6000fd5b50505050620001d3565b6001600160a01b03821615620001725760405163a0af290360e01b81523060048201526001600160a01b03831660248201526daaeb6d7670e522a718067333cd4e9063a0af290390604401620000e7565b604051632210724360e11b81523060048201526daaeb6d7670e522a718067333cd4e90634420e48690602401600060405180830381600087803b158015620001b957600080fd5b505af1158015620001ce573d6000803e3d6000fd5b505050505b50506101608101516001600160a01b031615620002fe5760008161016001516001600160a01b031663feaf968c6040518163ffffffff1660e01b815260040160a060405180830381865afa15801562000230573d6000803e3d6000fd5b505050506040513d601f19601f820116820180604052508101906200025691906200091c565b5050509150506305f5e10081606462000270919062000987565b6200027c919062000a18565b610140830151620002969067d02ab486cedc000062000987565b620002a2919062000a18565b341215620002f75760405162461bcd60e51b815260206004820152601a60248201527f4e6f7420656e6f756768206368617267652070726f766964656400000000000060448201526064015b60405180910390fd5b5062000367565b610140810151620003169065886c98b7600062000a58565b341015620003675760405162461bcd60e51b815260206004820152601a60248201527f4e6f7420656e6f756768206368617267652070726f76696465640000000000006044820152606401620002ee565b6040810151600a80546001600160a01b039283166001600160a01b0319918216179091556080830151600c5560a0830151600d805491909316911617905560c08101518051620003c091600e91602090910190620005c7565b506060810151600b5560e0810151600f55610100810151620003e4903090620004c6565b6101008101516101208201516001600160a01b039081166c0100000000000000000000000081026001600160601b039093169290921760105561014083015160115561016083015160128054919092166001600160a01b03199091161790556040513480156108fc02916000818181858888f193505050501580156200046e573d6000803e3d6000fd5b505062000ab6565b600080546001600160a01b038381166001600160a01b0319831681178455604051919092169283917f8be0079c531659141344cd1fd0a4f28419497f9722a3daafe3b4186f6b6457e09190a35050565b6127106001600160601b0382161115620005365760405162461bcd60e51b815260206004820152602a60248201527f455243323938313a20726f79616c7479206665652077696c6c206578636565646044820152692073616c65507269636560b01b6064820152608401620002ee565b6001600160a01b0382166200058e5760405162461bcd60e51b815260206004820152601960248201527f455243323938313a20696e76616c6964207265636569766572000000000000006044820152606401620002ee565b604080518082019091526001600160a01b039092168083526001600160601b039091166020909201829052600160a01b90910217600755565b828054620005d59062000a7a565b90600052602060002090601f016020900481019282620005f9576000855562000644565b82601f106200061457805160ff191683800117855562000644565b8280016001018555821562000644579182015b828111156200064457825182559160200191906001019062000627565b506200065292915062000656565b5090565b5b8082111562000652576000815560010162000657565b634e487b7160e01b600052604160045260246000fd5b60405161018081016001600160401b0381118282101715620006a957620006a96200066d565b60405290565b604051601f8201601f191681016001600160401b0381118282101715620006da57620006da6200066d565b604052919050565b600082601f830112620006f457600080fd5b81516001600160401b038111156200071057620007106200066d565b602062000726601f8301601f19168201620006af565b82815285828487010111156200073b57600080fd5b60005b838110156200075b5785810183015182820184015282016200073e565b838111156200076d5760008385840101525b5095945050505050565b80516001600160a01b03811681146200078f57600080fd5b919050565b80516001600160601b03811681146200078f57600080fd5b600060208284031215620007bf57600080fd5b81516001600160401b0380821115620007d757600080fd5b908301906101808286031215620007ed57600080fd5b620007f762000683565b8251828111156200080757600080fd5b6200081587828601620006e2565b8252506020830151828111156200082b57600080fd5b6200083987828601620006e2565b6020830152506200084d6040840162000777565b604082015260608301516060820152608083015160808201526200087460a0840162000777565b60a082015260c0830151828111156200088c57600080fd5b6200089a87828601620006e2565b60c08301525060e083015160e08201526101009150620008bc82840162000794565b828201526101209150620008d282840162000777565b82820152610140915081830151828201526101609150620008f582840162000777565b91810191909152949350505050565b80516001600160501b03811681146200078f57600080fd5b600080600080600060a086880312156200093557600080fd5b620009408662000904565b9450602086015193506040860151925060608601519150620009656080870162000904565b90509295509295909350565b634e487b7160e01b600052601160045260246000fd5b60006001600160ff1b0381841382841380821686840486111615620009b057620009b062000971565b600160ff1b6000871282811687830589121615620009d257620009d262000971565b60008712925087820587128484161615620009f157620009f162000971565b8785058712818416161562000a0a5762000a0a62000971565b505050929093029392505050565b60008262000a3657634e487b7160e01b600052601260045260246000fd5b600160ff1b82146000198414161562000a535762000a5362000971565b500590565b600081600019048311821515161562000a755762000a7562000971565b500290565b600181811c9082168062000a8f57607f821691505b60208210810362000ab057634e487b7160e01b600052602260045260246000fd5b50919050565b6139018062000ac66000396000f3fe6080604052600436106101c85760003560e01c8063715018a6116100f8578063b88d4fde11610090578063b88d4fde1461064e578063ba4cc7491461066e578063c19d93fb146106a6578063c87b56dd146106d1578063dc9f75f7146106f1578063e110ec8314610711578063e8a3d48514610724578063e985e9c514610739578063f2fde38b1461075957600080fd5b8063715018a61461054357806371a8f1941461055857806383699816146105855780638847d3d5146105a55780638da5cb5b146105c5578063931688cb146105e357806395d89b41146106035780639659867e14610618578063a22cb4651461062e57600080fd5b8063210112f51161016b578063210112f51461040f57806323b872dd1461042f5780632a55205a1461044f5780632e411f221461048e57806342842e0e146104a357806361b5a2a2146104c35780636352211e146104e3578063655f07691461050357806370a082311461052357600080fd5b8063018779c7146102a457806301ffc9a7146102f457806306fdde0314610314578063081812fc14610336578063095ea7b3146103635780630b8c17851461038357806317d70f7c146103d95780631b34f107146103ef57600080fd5b3661029f57600060646101dc346002612cad565b6101e69190612ccc565b601054909150600160601b90046001600160a01b03161561024357601054604051600160601b9091046001600160a01b0316906108fc8315029083906000818181858888f19350505050158015610241573d6000803e3d6000fd5b505b600a546010546001600160a01b03918216916108fc91600160601b90041661026b5734610275565b6102758334612cee565b6040518115909202916000818181858888f1935050505015801561029d573d6000803e3d6000fd5b005b600080fd5b3480156102b057600080fd5b506102df6102bf366004612de3565b805160208183018101805160158252928201919093012091525460ff1681565b60405190151581526020015b60405180910390f35b34801561030057600080fd5b506102df61030f366004612e2d565b610779565b34801561032057600080fd5b506103296107a4565b6040516102eb9190612ea2565b34801561034257600080fd5b50610356610351366004612eb5565b610836565b6040516102eb9190612ece565b34801561036f57600080fd5b5061029d61037e366004612efe565b61085d565b34801561038f57600080fd5b506103cb61039e366004612f28565b81516020818401810180516017825292820194820194909420919093529091526000908152604090205481565b6040519081526020016102eb565b3480156103e557600080fd5b506103cb60135481565b3480156103fb57600080fd5b5061029d61040a366004612f75565b610977565b34801561041b57600080fd5b5061029d61042a366004612f75565b6109f6565b34801561043b57600080fd5b5061029d61044a366004612f90565b610a20565b34801561045b57600080fd5b5061046f61046a366004612fcc565b610b75565b604080516001600160a01b0390931683526020830191909152016102eb565b34801561049a57600080fd5b506103cb600081565b3480156104af57600080fd5b5061029d6104be366004612f90565b610c23565b3480156104cf57600080fd5b5061029d6104de366004612eb5565b610d6d565b3480156104ef57600080fd5b506103566104fe366004612eb5565b610d7a565b34801561050f57600080fd5b506103cb61051e3660046130ae565b610dae565b34801561052f57600080fd5b506103cb61053e366004612f75565b610e29565b34801561054f57600080fd5b5061029d610eaf565b34801561056457600080fd5b506103cb610573366004612f75565b60186020526000908152604090205481565b34801561059157600080fd5b5061029d6105a0366004612eb5565b610ec3565b3480156105b157600080fd5b5061029d6105c03660046130e2565b610ed0565b3480156105d157600080fd5b506000546001600160a01b0316610356565b3480156105ef57600080fd5b5061029d6105fe366004612de3565b610f04565b34801561060f57600080fd5b50610329610f23565b34801561062457600080fd5b506103cb60145481565b34801561063a57600080fd5b5061029d61064936600461310b565b610f32565b34801561065a57600080fd5b5061029d610669366004613142565b610f3d565b34801561067a57600080fd5b506103cb610689366004612de3565b805160208183018101805160168252928201919093012091525481565b3480156106b257600080fd5b506106bb611095565b6040516102eb9a999897969594939291906131a9565b3480156106dd57600080fd5b506103296106ec366004612eb5565b61117d565b3480156106fd57600080fd5b5061029d61070c366004612eb5565b611217565b61029d61071f36600461329e565b611224565b34801561073057600080fd5b50610329611ba4565b34801561074557600080fd5b506102df610754366004613377565b611bf8565b34801561076557600080fd5b5061029d610774366004612f75565b611c26565b60006001600160e01b0319821663152a902d60e11b148061079e575061079e82611c9f565b92915050565b6060600180546107b3906133a1565b80601f01602080910402602001604051908101604052809291908181526020018280546107df906133a1565b801561082c5780601f106108015761010080835404028352916020019161082c565b820191906000526020600020905b81548152906001019060200180831161080f57829003601f168201915b5050505050905090565b600061084182611cc4565b506000908152600560205260409020546001600160a01b031690565b600061086882610d7a565b9050806001600160a01b0316836001600160a01b0316036108da5760405162461bcd60e51b815260206004820152602160248201527f4552433732313a20617070726f76616c20746f2063757272656e74206f776e656044820152603960f91b60648201526084015b60405180910390fd5b336001600160a01b03821614806108f657506108f68133611bf8565b6109685760405162461bcd60e51b815260206004820152603d60248201527f4552433732313a20617070726f76652063616c6c6572206973206e6f7420746f60448201527f6b656e206f776e6572206f7220617070726f76656420666f7220616c6c00000060648201526084016108d1565b6109728383611ce9565b505050565b601054600160601b90046001600160a01b031633146109ce5760405162461bcd60e51b815260206004820152601360248201527227b7363c90283630ba3337b9369027bbb732b960691b60448201526064016108d1565b601080546001600160a01b03909216600160601b026001600160601b03909216919091179055565b6109fe611d57565b600a80546001600160a01b0319166001600160a01b0392909216919091179055565b826daaeb6d7670e522a718067333cd4e3b15610b6457336001600160a01b03821603610a5657610a51848484611db1565b610b6f565b604051633185c44d60e21b81526daaeb6d7670e522a718067333cd4e9063c617113490610a8990309033906004016133db565b602060405180830381865afa158015610aa6573d6000803e3d6000fd5b505050506040513d601f19601f82011682018060405250810190610aca91906133f5565b8015610b455750604051633185c44d60e21b81526daaeb6d7670e522a718067333cd4e9063c617113490610b0490309085906004016133db565b602060405180830381865afa158015610b21573d6000803e3d6000fd5b505050506040513d601f19601f82011682018060405250810190610b4591906133f5565b610b645733604051633b79c77360e21b81526004016108d19190612ece565b610b6f848484611db1565b50505050565b60008281526008602090815260408083208151808301909252546001600160a01b038116808352600160a01b9091046001600160601b0316928201929092528291610bea5750604080518082019091526007546001600160a01b0381168252600160a01b90046001600160601b031660208201525b602081015160009061271090610c09906001600160601b031687612cad565b610c139190612ccc565b91519350909150505b9250929050565b826daaeb6d7670e522a718067333cd4e3b15610d6257336001600160a01b03821603610c5457610a51848484611de2565b604051633185c44d60e21b81526daaeb6d7670e522a718067333cd4e9063c617113490610c8790309033906004016133db565b602060405180830381865afa158015610ca4573d6000803e3d6000fd5b505050506040513d601f19601f82011682018060405250810190610cc891906133f5565b8015610d435750604051633185c44d60e21b81526daaeb6d7670e522a718067333cd4e9063c617113490610d0290309085906004016133db565b602060405180830381865afa158015610d1f573d6000803e3d6000fd5b505050506040513d601f19601f82011682018060405250810190610d4391906133f5565b610d625733604051633b79c77360e21b81526004016108d19190612ece565b610b6f848484611de2565b610d75611d57565b600b55565b600080610d8683611dfd565b90506001600160a01b03811661079e5760405162461bcd60e51b81526004016108d190613412565b80516020808301516040808501516060860151608087015160a088015160c089015160e08a01516101008b0151965160009a610dee9a9099989101613444565b60408051601f19818403018152828252805160209182012090830152015b604051602081830303815290604052805190602001209050919050565b60006001600160a01b038216610e935760405162461bcd60e51b815260206004820152602960248201527f4552433732313a2061646472657373207a65726f206973206e6f7420612076616044820152683634b21037bbb732b960b91b60648201526084016108d1565b506001600160a01b031660009081526004602052604090205490565b610eb7611d57565b610ec16000611e18565b565b610ecb611d57565b600c55565b610ed8611d57565b610ee23082611e68565b601080546001600160601b0319166001600160601b0392909216919091179055565b610f0c611d57565b8051610f1f90600e906020840190612bfe565b5050565b6060600280546107b3906133a1565b610f1f338383611f61565b836daaeb6d7670e522a718067333cd4e3b1561108257336001600160a01b03821603610f7457610f6f8585858561202b565b61108e565b604051633185c44d60e21b81526daaeb6d7670e522a718067333cd4e9063c617113490610fa790309033906004016133db565b602060405180830381865afa158015610fc4573d6000803e3d6000fd5b505050506040513d601f19601f82011682018060405250810190610fe891906133f5565b80156110635750604051633185c44d60e21b81526daaeb6d7670e522a718067333cd4e9063c61711349061102290309085906004016133db565b602060405180830381865afa15801561103f573d6000803e3d6000fd5b505050506040513d601f19601f8201168201806040525081019061106391906133f5565b6110825733604051633b79c77360e21b81526004016108d19190612ece565b61108e8585858561202b565b5050505050565b600a8054600b54600c54600d54600e80546001600160a01b03958616969495939492909316926110c4906133a1565b80601f01602080910402602001604051908101604052809291908181526020018280546110f0906133a1565b801561113d5780601f106111125761010080835404028352916020019161113d565b820191906000526020600020905b81548152906001019060200180831161112057829003601f168201915b505050600584015460068501546007860154600890960154949591946001600160601b03821694506001600160a01b03600160601b90920482169350168a565b600f54606090600e90158015906111965750600f544211155b6111af57604051806020016040528060008152506111d0565b6040518060400160405280600781526020016668696464656e2d60c81b8152505b6111db30601461205d565b6111e4466121ff565b6111ed866121ff565b604051602001611201959493929190613541565b6040516020818303038152906040529050919050565b61121f611d57565b600f55565b61122c612291565b85858583600a600701548260145461124491906135ee565b111561128f5760405162461bcd60e51b815260206004820152601a60248201527904d696e7420436f756e742065786365656473204d6178204361760341b60448201526064016108d1565b600c546112d35760405162461bcd60e51b8152602060048201526012602482015271139bc81cd85b194818dbdb999a59dd5c995960721b60448201526064016108d1565b6112eb84600a600201546112e684610dae565b6122ea565b61132d5760405162461bcd60e51b8152602060048201526013602482015272496e76616c69642053616c6520436f6e66696760681b60448201526064016108d1565b80602001516113745760405162461bcd60e51b815260206004820152601360248201527214d85b19481a5cc81b9bdd08195b98589b1959606a1b60448201526064016108d1565b604081015142901580159061138d575081604001518110155b6113d45760405162461bcd60e51b815260206004820152601860248201527714d85b19481a185cc81b9bdd081cdd185c9d1959081e595d60421b60448201526064016108d1565b8160600151811115806113e957506060820151155b6114265760405162461bcd60e51b815260206004820152600e60248201526d14d85b19481a185cc8195b99195960921b60448201526064016108d1565b8160e0015183601684600001516040516114409190613606565b90815260200160405180910390205461145991906135ee565b11156114a75760405162461bcd60e51b815260206004820152601e60248201527f4d6178204d696e7420696e2053616c65204c696d69742045786365656473000060448201526064016108d1565b6101008201516001600160a01b0316158015906114c657506080820151155b61164e576101008201516001600160a01b0316158015906114eb575060008260800151115b156115b157600183601784600001516040516115079190613606565b9081526040805160209281900383019020336000908152925290205461152d91906135ee565b11156115ac5760405162461bcd60e51b815260206004820152604260248201527f546f6b656e2047617465642050616964204d696e74203a204d6178204d696e7460448201527f205065722057616c6c65742053616c65204c696d697420283129204578636565606482015261647360f01b608482015260a4016108d1565b61164e565b8160c0015183601784600001516040516115cb9190613606565b908152604080516020928190038301902033600090815292529020546115f191906135ee565b111561164e5760405162461bcd60e51b815260206004820152602660248201527f4d6178204d696e74205065722057616c6c65742053616c65204c696d6974204560448201526578636565647360d01b60648201526084016108d1565b600b541580159061166b57506101008201516001600160a01b0316155b156116ef57600b543360009081526018602052604090205461168e9085906135ee565b11156116ef5760405162461bcd60e51b815260206004820152602a60248201527f4d6178204d696e74207065722057616c6c657420696e20746f74616c204c696d6044820152696974204578636565647360b01b60648201526084016108d1565b60a08201511561177e5760a08201516040516001600160601b03193360601b166020820152611738918691603401604051602081830303815290604052805190602001206122ea565b61177e5760405162461bcd60e51b8152602060048201526017602482015276165bdd48185c99481b9bdd081dda1a5d195b1a5cdd1959604a1b60448201526064016108d1565b82826080015161178e9190612cad565b3410156117dd5760405162461bcd60e51b815260206004820152601f60248201527f4e6f7420656e6f756768206d696e74206368617267652070726f76696465640060448201526064016108d1565b8887896015826040516117f09190613606565b9081526040519081900360200190205460ff161561184d5760405162461bcd60e51b815260206004820152601a60248201527914da59db985d1d5c9948185b1c9958591e481c995919595b595960321b60448201526064016108d1565b600d546040516001600160a01b039091169061189c9084906118969061187b90339087908a90602001613622565b60405160208183030381529060405280519060200120612300565b9061233b565b6001600160a01b0316146118eb5760405162461bcd60e51b8152602060048201526016602482015275496e76616c6964204d696e74205369676e617475726560501b60448201526064016108d1565b60008c116119325760405162461bcd60e51b815260206004820152601460248201527304e756d626572206f66206d696e747320697320360641b60448201526064016108d1565b8b6014600082825461194491906135ee565b909155505088516040518d9160179161195d9190613606565b90815260408051602092819003830190203360009081529252812080549091906119889084906135ee565b909155505088516040518d916016916119a19190613606565b908152602001604051809103902060008282546119be91906135ee565b90915550503360009081526018602052604081208054600192906119e39084906135ee565b92505081905550600160158b6040516119fc9190613606565b908152604051908190036020019020805491151560ff19909216919091179055601354611a298d826135ee565b6013556000612710611a3d3461012c612cad565b611a479190612ccc565b601054909150600160601b90046001600160a01b031615611aa457601054604051600160601b9091046001600160a01b0316906108fc8315029083906000818181858888f19350505050158015611aa2573d6000803e3d6000fd5b505b600a546010546001600160a01b03918216916108fc91600160601b900416611acc5734611ad6565b611ad68334612cee565b6040518115909202916000818181858888f19350505050158015611afe573d6000803e3d6000fd5b5060005b8e811015611b2d57611b1d33611b1883866135ee565b61235f565b611b268161365e565b9050611b02565b507f4c209b5fc8ad50758f13e2e1088ba56a560dff690a1c6fef26394f4c03821c4f33836001601354611b609190612cee565b604080516001600160a01b03909416845260208401929092529082015260600160405180910390a150505050505050505050611b9c6001600955565b505050505050565b6060600e611bb330601461205d565b611bbc466121ff565b601054611bd1906001600160601b03166121ff565b604051602001611be49493929190613677565b604051602081830303815290604052905090565b6001600160a01b03918216600090815260066020908152604080832093909416825291909152205460ff1690565b611c2e611d57565b6001600160a01b038116611c935760405162461bcd60e51b815260206004820152602660248201527f4f776e61626c653a206e6577206f776e657220697320746865207a65726f206160448201526564647265737360d01b60648201526084016108d1565b611c9c81611e18565b50565b60006001600160e01b0319821663152a902d60e11b148061079e575061079e8261247a565b611ccd816124ca565b611c9c5760405162461bcd60e51b81526004016108d190613412565b600081815260056020526040902080546001600160a01b0319166001600160a01b0384169081179091558190611d1e82610d7a565b6001600160a01b03167f8c5be1e5ebec7d5bd14f71427d1e84f3dd0314c0f7b2291e5b200ac8c7c3b92560405160405180910390a45050565b6000546001600160a01b03163314610ec15760405162461bcd60e51b815260206004820181905260248201527f4f776e61626c653a2063616c6c6572206973206e6f7420746865206f776e657260448201526064016108d1565b611dbb33826124e7565b611dd75760405162461bcd60e51b81526004016108d190613713565b610972838383612546565b61097283838360405180602001604052806000815250610f3d565b6000908152600360205260409020546001600160a01b031690565b600080546001600160a01b038381166001600160a01b0319831681178455604051919092169283917f8be0079c531659141344cd1fd0a4f28419497f9722a3daafe3b4186f6b6457e09190a35050565b6127106001600160601b0382161115611ed65760405162461bcd60e51b815260206004820152602a60248201527f455243323938313a20726f79616c7479206665652077696c6c206578636565646044820152692073616c65507269636560b01b60648201526084016108d1565b6001600160a01b038216611f285760405162461bcd60e51b815260206004820152601960248201527822a921991c9c189d1034b73b30b634b2103932b1b2b4bb32b960391b60448201526064016108d1565b604080518082019091526001600160a01b039092168083526001600160601b039091166020909201829052600160a01b90910217600755565b816001600160a01b0316836001600160a01b031603611fbe5760405162461bcd60e51b815260206004820152601960248201527822a9219b99189d1030b8383937bb32903a379031b0b63632b960391b60448201526064016108d1565b6001600160a01b03838116600081815260066020908152604080832094871680845294825291829020805460ff191686151590811790915591519182527f17307eab39ab6107e8899845ad3d59bd9653f200f220920489ca2b5937696c31910160405180910390a3505050565b61203533836124e7565b6120515760405162461bcd60e51b81526004016108d190613713565b610b6f848484846126b7565b6060600061206c836002612cad565b6120779060026135ee565b6001600160401b0381111561208e5761208e612d05565b6040519080825280601f01601f1916602001820160405280156120b8576020820181803683370190505b509050600360fc1b816000815181106120d3576120d3613760565b60200101906001600160f81b031916908160001a905350600f60fb1b8160018151811061210257612102613760565b60200101906001600160f81b031916908160001a9053506000612126846002612cad565b6121319060016135ee565b90505b60018111156121a9576f181899199a1a9b1b9c1cb0b131b232b360811b85600f166010811061216557612165613760565b1a60f81b82828151811061217b5761217b613760565b60200101906001600160f81b031916908160001a90535060049490941c936121a281613776565b9050612134565b5083156121f85760405162461bcd60e51b815260206004820181905260248201527f537472696e67733a20686578206c656e67746820696e73756666696369656e7460448201526064016108d1565b9392505050565b6060600061220c836126ea565b60010190506000816001600160401b0381111561222b5761222b612d05565b6040519080825280601f01601f191660200182016040528015612255576020820181803683370190505b5090508181016020015b600019016f181899199a1a9b1b9c1cb0b131b232b360811b600a86061a8153600a850494508461225f57509392505050565b6002600954036122e35760405162461bcd60e51b815260206004820152601f60248201527f5265656e7472616e637947756172643a207265656e7472616e742063616c6c0060448201526064016108d1565b6002600955565b6000826122f785846127c0565b14949350505050565b6040517f19457468657265756d205369676e6564204d6573736167653a0a3332000000006020820152603c8101829052600090605c01610e0c565b600080600061234a8585612805565b9150915061235781612847565b509392505050565b6001600160a01b0382166123b55760405162461bcd60e51b815260206004820181905260248201527f4552433732313a206d696e7420746f20746865207a65726f206164647265737360448201526064016108d1565b6123be816124ca565b156123db5760405162461bcd60e51b81526004016108d19061378d565b6123e960008383600161298c565b6123f2816124ca565b1561240f5760405162461bcd60e51b81526004016108d19061378d565b6001600160a01b038216600081815260046020908152604080832080546001019055848352600390915280822080546001600160a01b0319168417905551839291907fddf252ad1be2c89b69c2b068fc378daa952ba7f163c4a11628f55a4df523b3ef908290a45050565b60006001600160e01b031982166380ac58cd60e01b14806124ab57506001600160e01b03198216635b5e139f60e01b145b8061079e57506301ffc9a760e01b6001600160e01b031983161461079e565b6000806124d683611dfd565b6001600160a01b0316141592915050565b6000806124f383610d7a565b9050806001600160a01b0316846001600160a01b0316148061251a575061251a8185611bf8565b8061253e5750836001600160a01b031661253384610836565b6001600160a01b0316145b949350505050565b826001600160a01b031661255982610d7a565b6001600160a01b03161461257f5760405162461bcd60e51b81526004016108d1906137c4565b6001600160a01b0382166125e15760405162461bcd60e51b8152602060048201526024808201527f4552433732313a207472616e7366657220746f20746865207a65726f206164646044820152637265737360e01b60648201526084016108d1565b6125ee838383600161298c565b826001600160a01b031661260182610d7a565b6001600160a01b0316146126275760405162461bcd60e51b81526004016108d1906137c4565b600081815260056020908152604080832080546001600160a01b03199081169091556001600160a01b0387811680865260048552838620805460001901905590871680865283862080546001019055868652600390945282852080549092168417909155905184937fddf252ad1be2c89b69c2b068fc378daa952ba7f163c4a11628f55a4df523b3ef91a4505050565b6126c2848484612546565b6126ce84848484612a14565b610b6f5760405162461bcd60e51b81526004016108d190613809565b60008072184f03e93ff9f4daa797ed6e38ed64bf6a1f0160401b83106127295772184f03e93ff9f4daa797ed6e38ed64bf6a1f0160401b830492506040015b6904ee2d6d415b85acef8160201b8310612753576904ee2d6d415b85acef8160201b830492506020015b662386f26fc10000831061277157662386f26fc10000830492506010015b6305f5e1008310612789576305f5e100830492506008015b612710831061279d57612710830492506004015b606483106127af576064830492506002015b600a831061079e5760010192915050565b600081815b8451811015612357576127f1828683815181106127e4576127e4613760565b6020026020010151612b15565b9150806127fd8161365e565b9150506127c5565b600080825160410361283b5760208301516040840151606085015160001a61282f87828585612b44565b94509450505050610c1c565b50600090506002610c1c565b600081600481111561285b5761285b61385b565b036128635750565b60018160048111156128775761287761385b565b036128bf5760405162461bcd60e51b815260206004820152601860248201527745434453413a20696e76616c6964207369676e617475726560401b60448201526064016108d1565b60028160048111156128d3576128d361385b565b036129205760405162461bcd60e51b815260206004820152601f60248201527f45434453413a20696e76616c6964207369676e6174757265206c656e6774680060448201526064016108d1565b60038160048111156129345761293461385b565b03611c9c5760405162461bcd60e51b815260206004820152602260248201527f45434453413a20696e76616c6964207369676e6174757265202773272076616c604482015261756560f01b60648201526084016108d1565b6001811115610b6f576001600160a01b038416156129d2576001600160a01b038416600090815260046020526040812080548392906129cc908490612cee565b90915550505b6001600160a01b03831615610b6f576001600160a01b03831660009081526004602052604081208054839290612a099084906135ee565b909155505050505050565b60006001600160a01b0384163b15612b0a57604051630a85bd0160e11b81526001600160a01b0385169063150b7a0290612a58903390899088908890600401613871565b6020604051808303816000875af1925050508015612a93575060408051601f3d908101601f19168201909252612a90918101906138ae565b60015b612af0573d808015612ac1576040519150601f19603f3d011682016040523d82523d6000602084013e612ac6565b606091505b508051600003612ae85760405162461bcd60e51b81526004016108d190613809565b805181602001fd5b6001600160e01b031916630a85bd0160e11b14905061253e565b506001949350505050565b6000818310612b315760008281526020849052604090206121f8565b60008381526020839052604090206121f8565b6000806fa2a8918ca85bafe22016d0b997e4df60600160ff1b03831115612b715750600090506003612bf5565b6040805160008082526020820180845289905260ff881692820192909252606081018690526080810185905260019060a0016020604051602081039080840390855afa158015612bc5573d6000803e3d6000fd5b5050604051601f1901519150506001600160a01b038116612bee57600060019250925050612bf5565b9150600090505b94509492505050565b828054612c0a906133a1565b90600052602060002090601f016020900481019282612c2c5760008555612c72565b82601f10612c4557805160ff1916838001178555612c72565b82800160010185558215612c72579182015b82811115612c72578251825591602001919060010190612c57565b50612c7e929150612c82565b5090565b5b80821115612c7e5760008155600101612c83565b634e487b7160e01b600052601160045260246000fd5b6000816000190483118215151615612cc757612cc7612c97565b500290565b600082612ce957634e487b7160e01b600052601260045260246000fd5b500490565b600082821015612d0057612d00612c97565b500390565b634e487b7160e01b600052604160045260246000fd5b60405161012081016001600160401b0381118282101715612d3e57612d3e612d05565b60405290565b604051601f8201601f191681016001600160401b0381118282101715612d6c57612d6c612d05565b604052919050565b600082601f830112612d8557600080fd5b81356001600160401b03811115612d9e57612d9e612d05565b612db1601f8201601f1916602001612d44565b818152846020838601011115612dc657600080fd5b816020850160208301376000918101602001919091529392505050565b600060208284031215612df557600080fd5b81356001600160401b03811115612e0b57600080fd5b61253e84828501612d74565b6001600160e01b031981168114611c9c57600080fd5b600060208284031215612e3f57600080fd5b81356121f881612e17565b60005b83811015612e65578181015183820152602001612e4d565b83811115610b6f5750506000910152565b60008151808452612e8e816020860160208601612e4a565b601f01601f19169290920160200192915050565b6020815260006121f86020830184612e76565b600060208284031215612ec757600080fd5b5035919050565b6001600160a01b0391909116815260200190565b80356001600160a01b0381168114612ef957600080fd5b919050565b60008060408385031215612f1157600080fd5b612f1a83612ee2565b946020939093013593505050565b60008060408385031215612f3b57600080fd5b82356001600160401b03811115612f5157600080fd5b612f5d85828601612d74565b925050612f6c60208401612ee2565b90509250929050565b600060208284031215612f8757600080fd5b6121f882612ee2565b600080600060608486031215612fa557600080fd5b612fae84612ee2565b9250612fbc60208501612ee2565b9150604084013590509250925092565b60008060408385031215612fdf57600080fd5b50508035926020909101359150565b8015158114611c9c57600080fd5b8035612ef981612fee565b6000610120828403121561301a57600080fd5b613022612d1b565b905081356001600160401b0381111561303a57600080fd5b61304684828501612d74565b82525061305560208301612ffc565b602082015260408201356040820152606082013560608201526080820135608082015260a082013560a082015260c082013560c082015260e082013560e08201526101006130a4818401612ee2565b9082015292915050565b6000602082840312156130c057600080fd5b81356001600160401b038111156130d657600080fd5b61253e84828501613007565b6000602082840312156130f457600080fd5b81356001600160601b03811681146121f857600080fd5b6000806040838503121561311e57600080fd5b61312783612ee2565b9150602083013561313781612fee565b809150509250929050565b6000806000806080858703121561315857600080fd5b61316185612ee2565b935061316f60208601612ee2565b92506040850135915060608501356001600160401b0381111561319157600080fd5b61319d87828801612d74565b91505092959194509250565b600061014060018060a01b03808e1684528c60208501528b6040850152808b1660608501528160808501526131e08285018b612e76565b60a08501999099526001600160601b039790971660c0840152505092841660e08401526101008301919091529091166101209091015295945050505050565b600082601f83011261323057600080fd5b813560206001600160401b0382111561324b5761324b612d05565b8160051b61325a828201612d44565b928352848101820192828101908785111561327457600080fd5b83870192505b848310156132935782358252918301919083019061327a565b979650505050505050565b60008060008060008060c087890312156132b757600080fd5b86356001600160401b03808211156132ce57600080fd5b6132da8a838b0161321f565b975060208901359150808211156132f057600080fd5b6132fc8a838b0161321f565b965060408901359550606089013591508082111561331957600080fd5b6133258a838b01612d74565b9450608089013591508082111561333b57600080fd5b6133478a838b01612d74565b935060a089013591508082111561335d57600080fd5b5061336a89828a01613007565b9150509295509295509295565b6000806040838503121561338a57600080fd5b61339383612ee2565b9150612f6c60208401612ee2565b600181811c908216806133b557607f821691505b6020821081036133d557634e487b7160e01b600052602260045260246000fd5b50919050565b6001600160a01b0392831681529116602082015260400190565b60006020828403121561340757600080fd5b81516121f881612fee565b602080825260189082015277115490cdcc8c4e881a5b9d985b1a59081d1bdad95b88125160421b604082015260600190565b60008a51613456818460208f01612e4a565b99151560f81b919099019081526001810197909752602187019590955260418601939093526061850191909152608184015260a183015260601b6001600160601b03191660c182015260d50192915050565b8054600090600181811c90808316806134c257607f831692505b602080841082036134e357634e487b7160e01b600052602260045260246000fd5b8180156134f7576001811461350857613535565b60ff19861689528489019650613535565b60008881526020902060005b8681101561352d5781548b820152908501908301613514565b505084890196505b50505050505092915050565b600061354d82886134a8565b865161355d818360208b01612e4a565b71746f6b656e2d7572693f616464726573733d60701b9101908152855161358b816012840160208a01612e4a565b68266e6574776f726b3d60b81b6012929091019182015284516135b581601b840160208901612e4a565b6826746f6b656e49643d60b81b601b929091019182015283516135df816024840160208801612e4a565b01602401979650505050505050565b6000821982111561360157613601612c97565b500190565b60008251613618818460208701612e4a565b9190910192915050565b606084901b6001600160601b03191681528251600090613649816014850160208801612e4a565b60149201918201929092526034019392505050565b60006001820161367057613670612c97565b5060010190565b600061368382876134a8565b74636f6e74726163742d7572693f616464726573733d60581b815285516136b1816015840160208a01612e4a565b68266e6574776f726b3d60b81b6015929091019182015284516136db81601e840160208901612e4a565b6826726f79616c74793d60b81b601e92909101918201528351613705816027840160208801612e4a565b016027019695505050505050565b6020808252602d908201527f4552433732313a2063616c6c6572206973206e6f7420746f6b656e206f776e6560408201526c1c881bdc88185c1c1c9bdd9959609a1b606082015260800190565b634e487b7160e01b600052603260045260246000fd5b60008161378557613785612c97565b506000190190565b6020808252601c908201527f4552433732313a20746f6b656e20616c7265616479206d696e74656400000000604082015260600190565b60208082526025908201527f4552433732313a207472616e736665722066726f6d20696e636f72726563742060408201526437bbb732b960d91b606082015260800190565b60208082526032908201527f4552433732313a207472616e7366657220746f206e6f6e20455243373231526560408201527131b2b4bb32b91034b6b83632b6b2b73a32b960711b606082015260800190565b634e487b7160e01b600052602160045260246000fd5b6001600160a01b03858116825284166020820152604081018390526080606082018190526000906138a490830184612e76565b9695505050505050565b6000602082840312156138c057600080fd5b81516121f881612e1756fea2646970667358221220521b28892ba2ecd800450d1b7c81e4b098d56fa28ef5c4310e204f6c89740d3f64736f6c634300080d0033",
  "linkReferences": {},
  "deployedLinkReferences": {}
}