{
  "_format": "hh-sol-artifact-1",
  "contractName": "Collection721",
  "sourceName": "contracts/hydro/hydro-dftsw/Collection721.sol",
  "abi": [
    {
      "inputs": [
        {
          "components": [
            {
              "internalType": "string",
              "name": "_name",
              "type": "string"
            },
            {
              "internalType": "string",
              "name": "_symbol",
              "type": "string"
            },
            {
              "internalType": "address",
              "name": "_feeDestination",
              "type": "address"
            },
            {
              "internalType": "uint256",
              "name": "_maxMintInTotalPerWallet",
              "type": "uint256"
            },
            {
              "internalType": "bytes32",
              "name": "_saleConfigRoot",
              "type": "bytes32"
            },
            {
              "internalType": "address",
              "name": "_msgSigner",
              "type": "address"
            },
            {
              "internalType": "string",
              "name": "_baseURI",
              "type": "string"
            },
            {
              "internalType": "uint256",
              "name": "_revealTime",
              "type": "uint256"
            },
            {
              "internalType": "uint96",
              "name": "_royaltyBasis",
              "type": "uint96"
            },
            {
              "internalType": "address",
              "name": "_platformOwner",
              "type": "address"
            },
            {
              "internalType": "uint256",
              "name": "_maxMintCap",
              "type": "uint256"
            },
            {
              "internalType": "address",
              "name": "_priceFeedAddress",
              "type": "address"
            }
          ],
          "internalType": "struct Collection721.ConstructorArgs",
          "name": "args",
          "type": "tuple"
        }
      ],
      "stateMutability": "payable",
      "type": "constructor"
    },
    {
      "inputs": [
        {
          "internalType": "address",
          "name": "operator",
          "type": "address"
        }
      ],
      "name": "OperatorNotAllowed",
      "type": "error"
    },
    {
      "anonymous": false,
      "inputs": [
        {
          "indexed": true,
          "internalType": "address",
          "name": "owner",
          "type": "address"
        },
        {
          "indexed": true,
          "internalType": "address",
          "name": "approved",
          "type": "address"
        },
        {
          "indexed": true,
          "internalType": "uint256",
          "name": "tokenId",
          "type": "uint256"
        }
      ],
      "name": "Approval",
      "type": "event"
    },
    {
      "anonymous": false,
      "inputs": [
        {
          "indexed": true,
          "internalType": "address",
          "name": "owner",
          "type": "address"
        },
        {
          "indexed": true,
          "internalType": "address",
          "name": "operator",
          "type": "address"
        },
        {
          "indexed": false,
          "internalType": "bool",
          "name": "approved",
          "type": "bool"
        }
      ],
      "name": "ApprovalForAll",
      "type": "event"
    },
    {
      "anonymous": false,
      "inputs": [
        {
          "indexed": false,
          "internalType": "address",
          "name": "msgSender",
          "type": "address"
        },
        {
          "indexed": false,
          "internalType": "uint256",
          "name": "fromTokenId",
          "type": "uint256"
        },
        {
          "indexed": false,
          "internalType": "uint256",
          "name": "toTokenId",
          "type": "uint256"
        }
      ],
      "name": "Mint",
      "type": "event"
    },
    {
      "anonymous": false,
      "inputs": [
        {
          "indexed": true,
          "internalType": "address",
          "name": "previousOwner",
          "type": "address"
        },
        {
          "indexed": true,
          "internalType": "address",
          "name": "newOwner",
          "type": "address"
        }
      ],
      "name": "OwnershipTransferred",
      "type": "event"
    },
    {
      "anonymous": false,
      "inputs": [
        {
          "indexed": true,
          "internalType": "address",
          "name": "from",
          "type": "address"
        },
        {
          "indexed": true,
          "internalType": "address",
          "name": "to",
          "type": "address"
        },
        {
          "indexed": true,
          "internalType": "uint256",
          "name": "tokenId",
          "type": "uint256"
        }
      ],
      "name": "Transfer",
      "type": "event"
    },
    {
      "inputs": [],
      "name": "EMPTY_ROOT",
      "outputs": [
        {
          "internalType": "bytes32",
          "name": "",
          "type": "bytes32"
        }
      ],
      "stateMutability": "view",
      "type": "function"
    },
    {
      "inputs": [
        {
          "internalType": "address",
          "name": "to",
          "type": "address"
        },
        {
          "internalType": "uint256",
          "name": "tokenId",
          "type": "uint256"
        }
      ],
      "name": "approve",
      "outputs": [],
      "stateMutability": "nonpayable",
      "type": "function"
    },
    {
      "inputs": [
        {
          "internalType": "address",
          "name": "owner",
          "type": "address"
        }
      ],
      "name": "balanceOf",
      "outputs": [
        {
          "internalType": "uint256",
          "name": "",
          "type": "uint256"
        }
      ],
      "stateMutability": "view",
      "type": "function"
    },
    {
      "inputs": [],
      "name": "contractURI",
      "outputs": [
        {
          "internalType": "string",
          "name": "",
          "type": "string"
        }
      ],
      "stateMutability": "view",
      "type": "function"
    },
    {
      "inputs": [
        {
          "internalType": "uint256",
          "name": "tokenId",
          "type": "uint256"
        }
      ],
      "name": "getApproved",
      "outputs": [
        {
          "internalType": "address",
          "name": "",
          "type": "address"
        }
      ],
      "stateMutability": "view",
      "type": "function"
    },
    {
      "inputs": [
        {
          "components": [
            {
              "internalType": "string",
              "name": "saleIdentifier",
              "type": "string"
            },
            {
              "internalType": "bool",
              "name": "enabled",
              "type": "bool"
            },
            {
              "internalType": "uint256",
              "name": "startTime",
              "type": "uint256"
            },
            {
              "internalType": "uint256",
              "name": "endTime",
              "type": "uint256"
            },
            {
              "internalType": "uint256",
              "name": "mintCharge",
              "type": "uint256"
            },
            {
              "internalType": "bytes32",
              "name": "whitelistRoot",
              "type": "bytes32"
            },
            {
              "internalType": "uint256",
              "name": "maxMintPerWallet",
              "type": "uint256"
            },
            {
              "internalType": "uint256",
              "name": "maxMintInSale",
              "type": "uint256"
            },
            {
              "internalType": "address",
              "name": "tokenGatedAddress",
              "type": "address"
            }
          ],
          "internalType": "struct Collection721.SaleConfig",
          "name": "config",
          "type": "tuple"
        }
      ],
      "name": "getSaleConfigLeaf",
      "outputs": [
        {
          "internalType": "bytes32",
          "name": "",
          "type": "bytes32"
        }
      ],
      "stateMutability": "pure",
      "type": "function"
    },
    {
      "inputs": [
        {
          "internalType": "address",
          "name": "owner",
          "type": "address"
        },
        {
          "internalType": "address",
          "name": "operator",
          "type": "address"
        }
      ],
      "name": "isApprovedForAll",
      "outputs": [
        {
          "internalType": "bool",
          "name": "",
          "type": "bool"
        }
      ],
      "stateMutability": "view",
      "type": "function"
    },
    {
      "inputs": [
        {
          "internalType": "bytes",
          "name": "",
          "type": "bytes"
        }
      ],
      "name": "isSignatureRedeemed",
      "outputs": [
        {
          "internalType": "bool",
          "name": "",
          "type": "bool"
        }
      ],
      "stateMutability": "view",
      "type": "function"
    },
    {
      "inputs": [
        {
          "internalType": "bytes32[]",
          "name": "saleConfigProof",
          "type": "bytes32[]"
        },
        {
          "internalType": "bytes32[]",
          "name": "whitelistProof",
          "type": "bytes32[]"
        },
        {
          "internalType": "uint256",
          "name": "numberOfMint",
          "type": "uint256"
        },
        {
          "internalType": "string",
          "name": "message",
          "type": "string"
        },
        {
          "internalType": "bytes",
          "name": "signature",
          "type": "bytes"
        },
        {
          "components": [
            {
              "internalType": "string",
              "name": "saleIdentifier",
              "type": "string"
            },
            {
              "internalType": "bool",
              "name": "enabled",
              "type": "bool"
            },
            {
              "internalType": "uint256",
              "name": "startTime",
              "type": "uint256"
            },
            {
              "internalType": "uint256",
              "name": "endTime",
              "type": "uint256"
            },
            {
              "internalType": "uint256",
              "name": "mintCharge",
              "type": "uint256"
            },
            {
              "internalType": "bytes32",
              "name": "whitelistRoot",
              "type": "bytes32"
            },
            {
              "internalType": "uint256",
              "name": "maxMintPerWallet",
              "type": "uint256"
            },
            {
              "internalType": "uint256",
              "name": "maxMintInSale",
              "type": "uint256"
            },
            {
              "internalType": "address",
              "name": "tokenGatedAddress",
              "type": "address"
            }
          ],
          "internalType": "struct Collection721.SaleConfig",
          "name": "config",
          "type": "tuple"
        }
      ],
      "name": "mint",
      "outputs": [],
      "stateMutability": "payable",
      "type": "function"
    },
    {
      "inputs": [],
      "name": "mintCount",
      "outputs": [
        {
          "internalType": "uint256",
          "name": "",
          "type": "uint256"
        }
      ],
      "stateMutability": "view",
      "type": "function"
    },
    {
      "inputs": [
        {
          "internalType": "string",
          "name": "",
          "type": "string"
        }
      ],
      "name": "mintCountByIdentifier",
      "outputs": [
        {
          "internalType": "uint256",
          "name": "",
          "type": "uint256"
        }
      ],
      "stateMutability": "view",
      "type": "function"
    },
    {
      "inputs": [
        {
          "internalType": "string",
          "name": "",
          "type": "string"
        },
        {
          "internalType": "address",
          "name": "",
          "type": "address"
        }
      ],
      "name": "mintCountByIdentifierWallet",
      "outputs": [
        {
          "internalType": "uint256",
          "name": "",
          "type": "uint256"
        }
      ],
      "stateMutability": "view",
      "type": "function"
    },
    {
      "inputs": [
        {
          "internalType": "address",
          "name": "",
          "type": "address"
        }
      ],
      "name": "mintCountByWallet",
      "outputs": [
        {
          "internalType": "uint256",
          "name": "",
          "type": "uint256"
        }
      ],
      "stateMutability": "view",
      "type": "function"
    },
    {
      "inputs": [],
      "name": "name",
      "outputs": [
        {
          "internalType": "string",
          "name": "",
          "type": "string"
        }
      ],
      "stateMutability": "view",
      "type": "function"
    },
    {
      "inputs": [],
      "name": "owner",
      "outputs": [
        {
          "internalType": "address",
          "name": "",
          "type": "address"
        }
      ],
      "stateMutability": "view",
      "type": "function"
    },
    {
      "inputs": [
        {
          "internalType": "uint256",
          "name": "tokenId",
          "type": "uint256"
        }
      ],
      "name": "ownerOf",
      "outputs": [
        {
          "internalType": "address",
          "name": "",
          "type": "address"
        }
      ],
      "stateMutability": "view",
      "type": "function"
    },
    {
      "inputs": [],
      "name": "renounceOwnership",
      "outputs": [],
      "stateMutability": "nonpayable",
      "type": "function"
    },
    {
      "inputs": [
        {
          "internalType": "uint256",
          "name": "_tokenId",
          "type": "uint256"
        },
        {
          "internalType": "uint256",
          "name": "_salePrice",
          "type": "uint256"
        }
      ],
      "name": "royaltyInfo",
      "outputs": [
        {
          "internalType": "address",
          "name": "",
          "type": "address"
        },
        {
          "internalType": "uint256",
          "name": "",
          "type": "uint256"
        }
      ],
      "stateMutability": "view",
      "type": "function"
    },
    {
      "inputs": [
        {
          "internalType": "address",
          "name": "_from",
          "type": "address"
        },
        {
          "internalType": "address",
          "name": "_to",
          "type": "address"
        },
        {
          "internalType": "uint256",
          "name": "_tokenId",
          "type": "uint256"
        }
      ],
      "name": "safeTransferFrom",
      "outputs": [],
      "stateMutability": "nonpayable",
      "type": "function"
    },
    {
      "inputs": [
        {
          "internalType": "address",
          "name": "_from",
          "type": "address"
        },
        {
          "internalType": "address",
          "name": "_to",
          "type": "address"
        },
        {
          "internalType": "uint256",
          "name": "_tokenId",
          "type": "uint256"
        },
        {
          "internalType": "bytes",
          "name": "data",
          "type": "bytes"
        }
      ],
      "name": "safeTransferFrom",
      "outputs": [],
      "stateMutability": "nonpayable",
      "type": "function"
    },
    {
      "inputs": [
        {
          "internalType": "address",
          "name": "operator",
          "type": "address"
        },
        {
          "internalType": "bool",
          "name": "approved",
          "type": "bool"
        }
      ],
      "name": "setApprovalForAll",
      "outputs": [],
      "stateMutability": "nonpayable",
      "type": "function"
    },
    {
      "inputs": [],
      "name": "state",
      "outputs": [
        {
          "internalType": "address",
          "name": "feeDestination",
          "type": "address"
        },
        {
          "internalType": "uint256",
          "name": "maxMintInTotalPerWallet",
          "type": "uint256"
        },
        {
          "internalType": "bytes32",
          "name": "saleConfigRoot",
          "type": "bytes32"
        },
        {
          "internalType": "address",
          "name": "msgSigner",
          "type": "address"
        },
        {
          "internalType": "string",
          "name": "baseURI",
          "type": "string"
        },
        {
          "internalType": "uint256",
          "name": "revealTime",
          "type": "uint256"
        },
        {
          "internalType": "uint96",
          "name": "royaltyBasis",
          "type": "uint96"
        },
        {
          "internalType": "address",
          "name": "platformOwner",
          "type": "address"
        },
        {
          "internalType": "uint256",
          "name": "maxMintCap",
          "type": "uint256"
        },
        {
          "internalType": "address",
          "name": "priceFeedAddress",
          "type": "address"
        }
      ],
      "stateMutability": "view",
      "type": "function"
    },
    {
      "inputs": [
        {
          "internalType": "bytes4",
          "name": "interfaceId",
          "type": "bytes4"
        }
      ],
      "name": "supportsInterface",
      "outputs": [
        {
          "internalType": "bool",
          "name": "",
          "type": "bool"
        }
      ],
      "stateMutability": "view",
      "type": "function"
    },
    {
      "inputs": [],
      "name": "symbol",
      "outputs": [
        {
          "internalType": "string",
          "name": "",
          "type": "string"
        }
      ],
      "stateMutability": "view",
      "type": "function"
    },
    {
      "inputs": [],
      "name": "tokenId",
      "outputs": [
        {
          "internalType": "uint256",
          "name": "",
          "type": "uint256"
        }
      ],
      "stateMutability": "view",
      "type": "function"
    },
    {
      "inputs": [
        {
          "internalType": "uint256",
          "name": "_tokenId",
          "type": "uint256"
        }
      ],
      "name": "tokenURI",
      "outputs": [
        {
          "internalType": "string",
          "name": "",
          "type": "string"
        }
      ],
      "stateMutability": "view",
      "type": "function"
    },
    {
      "inputs": [
        {
          "internalType": "address",
          "name": "_from",
          "type": "address"
        },
        {
          "internalType": "address",
          "name": "_to",
          "type": "address"
        },
        {
          "internalType": "uint256",
          "name": "_tokenId",
          "type": "uint256"
        }
      ],
      "name": "transferFrom",
      "outputs": [],
      "stateMutability": "nonpayable",
      "type": "function"
    },
    {
      "inputs": [
        {
          "internalType": "address",
          "name": "newOwner",
          "type": "address"
        }
      ],
      "name": "transferOwnership",
      "outputs": [],
      "stateMutability": "nonpayable",
      "type": "function"
    },
    {
      "inputs": [
        {
          "internalType": "string",
          "name": "_baseURI",
          "type": "string"
        }
      ],
      "name": "updateBaseURI",
      "outputs": [],
      "stateMutability": "nonpayable",
      "type": "function"
    },
    {
      "inputs": [
        {
          "internalType": "address",
          "name": "_feeDestination",
          "type": "address"
        }
      ],
      "name": "updateFeeToAddress",
      "outputs": [],
      "stateMutability": "nonpayable",
      "type": "function"
    },
    {
      "inputs": [
        {
          "internalType": "uint256",
          "name": "_val",
          "type": "uint256"
        }
      ],
      "name": "updateMaxMintInTotalPerWallet",
      "outputs": [],
      "stateMutability": "nonpayable",
      "type": "function"
    },
    {
      "inputs": [
        {
          "internalType": "address",
          "name": "_address",
          "type": "address"
        }
      ],
      "name": "updatePlatformOwner",
      "outputs": [],
      "stateMutability": "nonpayable",
      "type": "function"
    },
    {
      "inputs": [
        {
          "internalType": "uint256",
          "name": "_revealTime",
          "type": "uint256"
        }
      ],
      "name": "updateRevealTime",
      "outputs": [],
      "stateMutability": "nonpayable",
      "type": "function"
    },
    {
      "inputs": [
        {
          "internalType": "uint96",
          "name": "_val",
          "type": "uint96"
        }
      ],
      "name": "updateRoyaltyBasis",
      "outputs": [],
      "stateMutability": "nonpayable",
      "type": "function"
    },
    {
      "inputs": [
        {
          "internalType": "bytes32",
          "name": "_saleConfigRoot",
          "type": "bytes32"
        }
      ],
      "name": "updateSaleConfigRoot",
      "outputs": [],
      "stateMutability": "nonpayable",
      "type": "function"
    },
    {
      "stateMutability": "payable",
      "type": "receive"
    }
  ],
  "bytecode": "0x608060405260016013556000601455604051620043b2380380620043b28339810160408190526200003091620007ac565b80516020820151733cc6cdda760b79bafa08df41ecfa224f810dceb6916001916200005b3362000476565b815162000070906001906020850190620005c7565b50805162000086906002906020840190620005c7565b50506001600955506daaeb6d7670e522a718067333cd4e3b15620001d35780156200012157604051633e9f1edf60e11b81523060048201526001600160a01b03831660248201526daaeb6d7670e522a718067333cd4e90637d3e3dbe906044015b600060405180830381600087803b1580156200010257600080fd5b505af115801562000117573d6000803e3d6000fd5b50505050620001d3565b6001600160a01b03821615620001725760405163a0af290360e01b81523060048201526001600160a01b03831660248201526daaeb6d7670e522a718067333cd4e9063a0af290390604401620000e7565b604051632210724360e11b81523060048201526daaeb6d7670e522a718067333cd4e90634420e48690602401600060405180830381600087803b158015620001b957600080fd5b505af1158015620001ce573d6000803e3d6000fd5b505050505b50506101608101516001600160a01b031615620002fe5760008161016001516001600160a01b031663feaf968c6040518163ffffffff1660e01b815260040160a060405180830381865afa15801562000230573d6000803e3d6000fd5b505050506040513d601f19601f820116820180604052508101906200025691906200091c565b5050509150506305f5e10081606462000270919062000987565b6200027c919062000a18565b610140830151620002969067d02ab486cedc000062000987565b620002a2919062000a18565b341215620002f75760405162461bcd60e51b815260206004820152601a60248201527f4e6f7420656e6f756768206368617267652070726f766964656400000000000060448201526064015b60405180910390fd5b5062000367565b610140810151620003169065886c98b7600062000a58565b341015620003675760405162461bcd60e51b815260206004820152601a60248201527f4e6f7420656e6f756768206368617267652070726f76696465640000000000006044820152606401620002ee565b6040810151600a80546001600160a01b039283166001600160a01b0319918216179091556080830151600c5560a0830151600d805491909316911617905560c08101518051620003c091600e91602090910190620005c7565b506060810151600b5560e0810151600f55610100810151620003e4903090620004c6565b6101008101516101208201516001600160a01b039081166c0100000000000000000000000081026001600160601b039093169290921760105561014083015160115561016083015160128054919092166001600160a01b03199091161790556040513480156108fc02916000818181858888f193505050501580156200046e573d6000803e3d6000fd5b505062000ab6565b600080546001600160a01b038381166001600160a01b0319831681178455604051919092169283917f8be0079c531659141344cd1fd0a4f28419497f9722a3daafe3b4186f6b6457e09190a35050565b6127106001600160601b0382161115620005365760405162461bcd60e51b815260206004820152602a60248201527f455243323938313a20726f79616c7479206665652077696c6c206578636565646044820152692073616c65507269636560b01b6064820152608401620002ee565b6001600160a01b0382166200058e5760405162461bcd60e51b815260206004820152601960248201527f455243323938313a20696e76616c6964207265636569766572000000000000006044820152606401620002ee565b604080518082019091526001600160a01b039092168083526001600160601b039091166020909201829052600160a01b90910217600755565b828054620005d59062000a7a565b90600052602060002090601f016020900481019282620005f9576000855562000644565b82601f106200061457805160ff191683800117855562000644565b8280016001018555821562000644579182015b828111156200064457825182559160200191906001019062000627565b506200065292915062000656565b5090565b5b8082111562000652576000815560010162000657565b634e487b7160e01b600052604160045260246000fd5b60405161018081016001600160401b0381118282101715620006a957620006a96200066d565b60405290565b604051601f8201601f191681016001600160401b0381118282101715620006da57620006da6200066d565b604052919050565b600082601f830112620006f457600080fd5b81516001600160401b038111156200071057620007106200066d565b602062000726601f8301601f19168201620006af565b82815285828487010111156200073b57600080fd5b60005b838110156200075b5785810183015182820184015282016200073e565b838111156200076d5760008385840101525b5095945050505050565b80516001600160a01b03811681146200078f57600080fd5b919050565b80516001600160601b03811681146200078f57600080fd5b600060208284031215620007bf57600080fd5b81516001600160401b0380821115620007d757600080fd5b908301906101808286031215620007ed57600080fd5b620007f762000683565b8251828111156200080757600080fd5b6200081587828601620006e2565b8252506020830151828111156200082b57600080fd5b6200083987828601620006e2565b6020830152506200084d6040840162000777565b604082015260608301516060820152608083015160808201526200087460a0840162000777565b60a082015260c0830151828111156200088c57600080fd5b6200089a87828601620006e2565b60c08301525060e083015160e08201526101009150620008bc82840162000794565b828201526101209150620008d282840162000777565b82820152610140915081830151828201526101609150620008f582840162000777565b91810191909152949350505050565b80516001600160501b03811681146200078f57600080fd5b600080600080600060a086880312156200093557600080fd5b620009408662000904565b9450602086015193506040860151925060608601519150620009656080870162000904565b90509295509295909350565b634e487b7160e01b600052601160045260246000fd5b60006001600160ff1b0381841382841380821686840486111615620009b057620009b062000971565b600160ff1b6000871282811687830589121615620009d257620009d262000971565b60008712925087820587128484161615620009f157620009f162000971565b8785058712818416161562000a0a5762000a0a62000971565b505050929093029392505050565b60008262000a3657634e487b7160e01b600052601260045260246000fd5b600160ff1b82146000198414161562000a535762000a5362000971565b500590565b600081600019048311821515161562000a755762000a7562000971565b500290565b600181811c9082168062000a8f57607f821691505b60208210810362000ab057634e487b7160e01b600052602260045260246000fd5b50919050565b6138ec8062000ac66000396000f3fe6080604052600436106101c85760003560e01c8063715018a6116100f8578063b88d4fde11610090578063b88d4fde1461064e578063ba4cc7491461066e578063c19d93fb146106a6578063c87b56dd146106d1578063dc9f75f7146106f1578063e110ec8314610711578063e8a3d48514610724578063e985e9c514610739578063f2fde38b1461075957600080fd5b8063715018a61461054357806371a8f1941461055857806383699816146105855780638847d3d5146105a55780638da5cb5b146105c5578063931688cb146105e357806395d89b41146106035780639659867e14610618578063a22cb4651461062e57600080fd5b8063210112f51161016b578063210112f51461040f57806323b872dd1461042f5780632a55205a1461044f5780632e411f221461048e57806342842e0e146104a357806361b5a2a2146104c35780636352211e146104e3578063655f07691461050357806370a082311461052357600080fd5b8063018779c7146102a457806301ffc9a7146102f457806306fdde0314610314578063081812fc14610336578063095ea7b3146103635780630b8c17851461038357806317d70f7c146103d95780631b34f107146103ef57600080fd5b3661029f57600060646101dc346002612c98565b6101e69190612cb7565b601054909150600160601b90046001600160a01b03161561024357601054604051600160601b9091046001600160a01b0316906108fc8315029083906000818181858888f19350505050158015610241573d6000803e3d6000fd5b505b600a546010546001600160a01b03918216916108fc91600160601b90041661026b5734610275565b6102758334612cd9565b6040518115909202916000818181858888f1935050505015801561029d573d6000803e3d6000fd5b005b600080fd5b3480156102b057600080fd5b506102df6102bf366004612dce565b805160208183018101805160158252928201919093012091525460ff1681565b60405190151581526020015b60405180910390f35b34801561030057600080fd5b506102df61030f366004612e18565b610779565b34801561032057600080fd5b506103296107a4565b6040516102eb9190612e8d565b34801561034257600080fd5b50610356610351366004612ea0565b610836565b6040516102eb9190612eb9565b34801561036f57600080fd5b5061029d61037e366004612ee9565b61085d565b34801561038f57600080fd5b506103cb61039e366004612f13565b81516020818401810180516017825292820194820194909420919093529091526000908152604090205481565b6040519081526020016102eb565b3480156103e557600080fd5b506103cb60135481565b3480156103fb57600080fd5b5061029d61040a366004612f60565b610977565b34801561041b57600080fd5b5061029d61042a366004612f60565b6109f6565b34801561043b57600080fd5b5061029d61044a366004612f7b565b610a20565b34801561045b57600080fd5b5061046f61046a366004612fb7565b610b75565b604080516001600160a01b0390931683526020830191909152016102eb565b34801561049a57600080fd5b506103cb600081565b3480156104af57600080fd5b5061029d6104be366004612f7b565b610c23565b3480156104cf57600080fd5b5061029d6104de366004612ea0565b610d6d565b3480156104ef57600080fd5b506103566104fe366004612ea0565b610d7a565b34801561050f57600080fd5b506103cb61051e366004613099565b610dae565b34801561052f57600080fd5b506103cb61053e366004612f60565b610e29565b34801561054f57600080fd5b5061029d610eaf565b34801561056457600080fd5b506103cb610573366004612f60565b60186020526000908152604090205481565b34801561059157600080fd5b5061029d6105a0366004612ea0565b610ec3565b3480156105b157600080fd5b5061029d6105c03660046130cd565b610ed0565b3480156105d157600080fd5b506000546001600160a01b0316610356565b3480156105ef57600080fd5b5061029d6105fe366004612dce565b610f04565b34801561060f57600080fd5b50610329610f23565b34801561062457600080fd5b506103cb60145481565b34801561063a57600080fd5b5061029d6106493660046130f6565b610f32565b34801561065a57600080fd5b5061029d61066936600461312d565b610f3d565b34801561067a57600080fd5b506103cb610689366004612dce565b805160208183018101805160168252928201919093012091525481565b3480156106b257600080fd5b506106bb611095565b6040516102eb9a99989796959493929190613194565b3480156106dd57600080fd5b506103296106ec366004612ea0565b61117d565b3480156106fd57600080fd5b5061029d61070c366004612ea0565b611217565b61029d61071f366004613289565b611224565b34801561073057600080fd5b50610329611b8f565b34801561074557600080fd5b506102df610754366004613362565b611be3565b34801561076557600080fd5b5061029d610774366004612f60565b611c11565b60006001600160e01b0319821663152a902d60e11b148061079e575061079e82611c8a565b92915050565b6060600180546107b39061338c565b80601f01602080910402602001604051908101604052809291908181526020018280546107df9061338c565b801561082c5780601f106108015761010080835404028352916020019161082c565b820191906000526020600020905b81548152906001019060200180831161080f57829003601f168201915b5050505050905090565b600061084182611caf565b506000908152600560205260409020546001600160a01b031690565b600061086882610d7a565b9050806001600160a01b0316836001600160a01b0316036108da5760405162461bcd60e51b815260206004820152602160248201527f4552433732313a20617070726f76616c20746f2063757272656e74206f776e656044820152603960f91b60648201526084015b60405180910390fd5b336001600160a01b03821614806108f657506108f68133611be3565b6109685760405162461bcd60e51b815260206004820152603d60248201527f4552433732313a20617070726f76652063616c6c6572206973206e6f7420746f60448201527f6b656e206f776e6572206f7220617070726f76656420666f7220616c6c00000060648201526084016108d1565b6109728383611cd4565b505050565b601054600160601b90046001600160a01b031633146109ce5760405162461bcd60e51b815260206004820152601360248201527227b7363c90283630ba3337b9369027bbb732b960691b60448201526064016108d1565b601080546001600160a01b03909216600160601b026001600160601b03909216919091179055565b6109fe611d42565b600a80546001600160a01b0319166001600160a01b0392909216919091179055565b826daaeb6d7670e522a718067333cd4e3b15610b6457336001600160a01b03821603610a5657610a51848484611d9c565b610b6f565b604051633185c44d60e21b81526daaeb6d7670e522a718067333cd4e9063c617113490610a8990309033906004016133c6565b602060405180830381865afa158015610aa6573d6000803e3d6000fd5b505050506040513d601f19601f82011682018060405250810190610aca91906133e0565b8015610b455750604051633185c44d60e21b81526daaeb6d7670e522a718067333cd4e9063c617113490610b0490309085906004016133c6565b602060405180830381865afa158015610b21573d6000803e3d6000fd5b505050506040513d601f19601f82011682018060405250810190610b4591906133e0565b610b645733604051633b79c77360e21b81526004016108d19190612eb9565b610b6f848484611d9c565b50505050565b60008281526008602090815260408083208151808301909252546001600160a01b038116808352600160a01b9091046001600160601b0316928201929092528291610bea5750604080518082019091526007546001600160a01b0381168252600160a01b90046001600160601b031660208201525b602081015160009061271090610c09906001600160601b031687612c98565b610c139190612cb7565b91519350909150505b9250929050565b826daaeb6d7670e522a718067333cd4e3b15610d6257336001600160a01b03821603610c5457610a51848484611dcd565b604051633185c44d60e21b81526daaeb6d7670e522a718067333cd4e9063c617113490610c8790309033906004016133c6565b602060405180830381865afa158015610ca4573d6000803e3d6000fd5b505050506040513d601f19601f82011682018060405250810190610cc891906133e0565b8015610d435750604051633185c44d60e21b81526daaeb6d7670e522a718067333cd4e9063c617113490610d0290309085906004016133c6565b602060405180830381865afa158015610d1f573d6000803e3d6000fd5b505050506040513d601f19601f82011682018060405250810190610d4391906133e0565b610d625733604051633b79c77360e21b81526004016108d19190612eb9565b610b6f848484611dcd565b610d75611d42565b600b55565b600080610d8683611de8565b90506001600160a01b03811661079e5760405162461bcd60e51b81526004016108d1906133fd565b80516020808301516040808501516060860151608087015160a088015160c089015160e08a01516101008b0151965160009a610dee9a909998910161342f565b60408051601f19818403018152828252805160209182012090830152015b604051602081830303815290604052805190602001209050919050565b60006001600160a01b038216610e935760405162461bcd60e51b815260206004820152602960248201527f4552433732313a2061646472657373207a65726f206973206e6f7420612076616044820152683634b21037bbb732b960b91b60648201526084016108d1565b506001600160a01b031660009081526004602052604090205490565b610eb7611d42565b610ec16000611e03565b565b610ecb611d42565b600c55565b610ed8611d42565b610ee23082611e53565b601080546001600160601b0319166001600160601b0392909216919091179055565b610f0c611d42565b8051610f1f90600e906020840190612be9565b5050565b6060600280546107b39061338c565b610f1f338383611f4c565b836daaeb6d7670e522a718067333cd4e3b1561108257336001600160a01b03821603610f7457610f6f85858585612016565b61108e565b604051633185c44d60e21b81526daaeb6d7670e522a718067333cd4e9063c617113490610fa790309033906004016133c6565b602060405180830381865afa158015610fc4573d6000803e3d6000fd5b505050506040513d601f19601f82011682018060405250810190610fe891906133e0565b80156110635750604051633185c44d60e21b81526daaeb6d7670e522a718067333cd4e9063c61711349061102290309085906004016133c6565b602060405180830381865afa15801561103f573d6000803e3d6000fd5b505050506040513d601f19601f8201168201806040525081019061106391906133e0565b6110825733604051633b79c77360e21b81526004016108d19190612eb9565b61108e85858585612016565b5050505050565b600a8054600b54600c54600d54600e80546001600160a01b03958616969495939492909316926110c49061338c565b80601f01602080910402602001604051908101604052809291908181526020018280546110f09061338c565b801561113d5780601f106111125761010080835404028352916020019161113d565b820191906000526020600020905b81548152906001019060200180831161112057829003601f168201915b505050600584015460068501546007860154600890960154949591946001600160601b03821694506001600160a01b03600160601b90920482169350168a565b600f54606090600e90158015906111965750600f544211155b6111af57604051806020016040528060008152506111d0565b6040518060400160405280600781526020016668696464656e2d60c81b8152505b6111db306014612048565b6111e4466121ea565b6111ed866121ea565b60405160200161120195949392919061352c565b6040516020818303038152906040529050919050565b61121f611d42565b600f55565b61122c61227c565b85858583600a600701548260145461124491906135d9565b111561128f5760405162461bcd60e51b815260206004820152601a60248201527904d696e7420436f756e742065786365656473204d6178204361760341b60448201526064016108d1565b600c546112d35760405162461bcd60e51b8152602060048201526012602482015271139bc81cd85b194818dbdb999a59dd5c995960721b60448201526064016108d1565b6112eb84600a600201546112e684610dae565b6122d5565b61132d5760405162461bcd60e51b8152602060048201526013602482015272496e76616c69642053616c6520436f6e66696760681b60448201526064016108d1565b80602001516113745760405162461bcd60e51b815260206004820152601360248201527214d85b19481a5cc81b9bdd08195b98589b1959606a1b60448201526064016108d1565b604081015142901580159061138d575081604001518110155b6113d45760405162461bcd60e51b815260206004820152601860248201527714d85b19481a185cc81b9bdd081cdd185c9d1959081e595d60421b60448201526064016108d1565b8160600151811115806113e957506060820151155b6114265760405162461bcd60e51b815260206004820152600e60248201526d14d85b19481a185cc8195b99195960921b60448201526064016108d1565b8160e00151836016846000015160405161144091906135f1565b90815260200160405180910390205461145991906135d9565b11156114a75760405162461bcd60e51b815260206004820152601e60248201527f4d6178204d696e7420696e2053616c65204c696d69742045786365656473000060448201526064016108d1565b6101008201516001600160a01b0316158015906114c8575060008260800151115b1561158957600183601784600001516040516114e491906135f1565b9081526040805160209281900383019020336000908152925290205461150a91906135d9565b11156115895760405162461bcd60e51b815260206004820152604260248201527f546f6b656e2047617465642050616964204d696e74203a204d6178204d696e7460448201527f205065722057616c6c65742053616c65204c696d697420283129204578636565606482015261647360f01b608482015260a4016108d1565b6101008201516001600160a01b0316611639578160c0015183601784600001516040516115b691906135f1565b908152604080516020928190038301902033600090815292529020546115dc91906135d9565b11156116395760405162461bcd60e51b815260206004820152602660248201527f4d6178204d696e74205065722057616c6c65742053616c65204c696d6974204560448201526578636565647360d01b60648201526084016108d1565b600b54156116c057600b543360009081526018602052604090205461165f9085906135d9565b11156116c05760405162461bcd60e51b815260206004820152602a60248201527f4d6178204d696e74207065722057616c6c657420696e20746f74616c204c696d6044820152696974204578636565647360b01b60648201526084016108d1565b60a0820151158015906116df57506101008201516001600160a01b0316155b156117695760a08201516040516001600160601b03193360601b166020820152611723918691603401604051602081830303815290604052805190602001206122d5565b6117695760405162461bcd60e51b8152602060048201526017602482015276165bdd48185c99481b9bdd081dda1a5d195b1a5cdd1959604a1b60448201526064016108d1565b8282608001516117799190612c98565b3410156117c85760405162461bcd60e51b815260206004820152601f60248201527f4e6f7420656e6f756768206d696e74206368617267652070726f76696465640060448201526064016108d1565b8887896015826040516117db91906135f1565b9081526040519081900360200190205460ff16156118385760405162461bcd60e51b815260206004820152601a60248201527914da59db985d1d5c9948185b1c9958591e481c995919595b595960321b60448201526064016108d1565b600d546040516001600160a01b03909116906118879084906118819061186690339087908a9060200161360d565b604051602081830303815290604052805190602001206122eb565b90612326565b6001600160a01b0316146118d65760405162461bcd60e51b8152602060048201526016602482015275496e76616c6964204d696e74205369676e617475726560501b60448201526064016108d1565b60008c1161191d5760405162461bcd60e51b815260206004820152601460248201527304e756d626572206f66206d696e747320697320360641b60448201526064016108d1565b8b6014600082825461192f91906135d9565b909155505088516040518d9160179161194891906135f1565b90815260408051602092819003830190203360009081529252812080549091906119739084906135d9565b909155505088516040518d9160169161198c91906135f1565b908152602001604051809103902060008282546119a991906135d9565b90915550503360009081526018602052604081208054600192906119ce9084906135d9565b92505081905550600160158b6040516119e791906135f1565b908152604051908190036020019020805491151560ff19909216919091179055601354611a148d826135d9565b6013556000612710611a283461012c612c98565b611a329190612cb7565b601054909150600160601b90046001600160a01b031615611a8f57601054604051600160601b9091046001600160a01b0316906108fc8315029083906000818181858888f19350505050158015611a8d573d6000803e3d6000fd5b505b600a546010546001600160a01b03918216916108fc91600160601b900416611ab75734611ac1565b611ac18334612cd9565b6040518115909202916000818181858888f19350505050158015611ae9573d6000803e3d6000fd5b5060005b8e811015611b1857611b0833611b0383866135d9565b61234a565b611b1181613649565b9050611aed565b507f4c209b5fc8ad50758f13e2e1088ba56a560dff690a1c6fef26394f4c03821c4f33836001601354611b4b9190612cd9565b604080516001600160a01b03909416845260208401929092529082015260600160405180910390a150505050505050505050611b876001600955565b505050505050565b6060600e611b9e306014612048565b611ba7466121ea565b601054611bbc906001600160601b03166121ea565b604051602001611bcf9493929190613662565b604051602081830303815290604052905090565b6001600160a01b03918216600090815260066020908152604080832093909416825291909152205460ff1690565b611c19611d42565b6001600160a01b038116611c7e5760405162461bcd60e51b815260206004820152602660248201527f4f776e61626c653a206e6577206f776e657220697320746865207a65726f206160448201526564647265737360d01b60648201526084016108d1565b611c8781611e03565b50565b60006001600160e01b0319821663152a902d60e11b148061079e575061079e82612465565b611cb8816124b5565b611c875760405162461bcd60e51b81526004016108d1906133fd565b600081815260056020526040902080546001600160a01b0319166001600160a01b0384169081179091558190611d0982610d7a565b6001600160a01b03167f8c5be1e5ebec7d5bd14f71427d1e84f3dd0314c0f7b2291e5b200ac8c7c3b92560405160405180910390a45050565b6000546001600160a01b03163314610ec15760405162461bcd60e51b815260206004820181905260248201527f4f776e61626c653a2063616c6c6572206973206e6f7420746865206f776e657260448201526064016108d1565b611da633826124d2565b611dc25760405162461bcd60e51b81526004016108d1906136fe565b610972838383612531565b61097283838360405180602001604052806000815250610f3d565b6000908152600360205260409020546001600160a01b031690565b600080546001600160a01b038381166001600160a01b0319831681178455604051919092169283917f8be0079c531659141344cd1fd0a4f28419497f9722a3daafe3b4186f6b6457e09190a35050565b6127106001600160601b0382161115611ec15760405162461bcd60e51b815260206004820152602a60248201527f455243323938313a20726f79616c7479206665652077696c6c206578636565646044820152692073616c65507269636560b01b60648201526084016108d1565b6001600160a01b038216611f135760405162461bcd60e51b815260206004820152601960248201527822a921991c9c189d1034b73b30b634b2103932b1b2b4bb32b960391b60448201526064016108d1565b604080518082019091526001600160a01b039092168083526001600160601b039091166020909201829052600160a01b90910217600755565b816001600160a01b0316836001600160a01b031603611fa95760405162461bcd60e51b815260206004820152601960248201527822a9219b99189d1030b8383937bb32903a379031b0b63632b960391b60448201526064016108d1565b6001600160a01b03838116600081815260066020908152604080832094871680845294825291829020805460ff191686151590811790915591519182527f17307eab39ab6107e8899845ad3d59bd9653f200f220920489ca2b5937696c31910160405180910390a3505050565b61202033836124d2565b61203c5760405162461bcd60e51b81526004016108d1906136fe565b610b6f848484846126a2565b60606000612057836002612c98565b6120629060026135d9565b6001600160401b0381111561207957612079612cf0565b6040519080825280601f01601f1916602001820160405280156120a3576020820181803683370190505b509050600360fc1b816000815181106120be576120be61374b565b60200101906001600160f81b031916908160001a905350600f60fb1b816001815181106120ed576120ed61374b565b60200101906001600160f81b031916908160001a9053506000612111846002612c98565b61211c9060016135d9565b90505b6001811115612194576f181899199a1a9b1b9c1cb0b131b232b360811b85600f16601081106121505761215061374b565b1a60f81b8282815181106121665761216661374b565b60200101906001600160f81b031916908160001a90535060049490941c9361218d81613761565b905061211f565b5083156121e35760405162461bcd60e51b815260206004820181905260248201527f537472696e67733a20686578206c656e67746820696e73756666696369656e7460448201526064016108d1565b9392505050565b606060006121f7836126d5565b60010190506000816001600160401b0381111561221657612216612cf0565b6040519080825280601f01601f191660200182016040528015612240576020820181803683370190505b5090508181016020015b600019016f181899199a1a9b1b9c1cb0b131b232b360811b600a86061a8153600a850494508461224a57509392505050565b6002600954036122ce5760405162461bcd60e51b815260206004820152601f60248201527f5265656e7472616e637947756172643a207265656e7472616e742063616c6c0060448201526064016108d1565b6002600955565b6000826122e285846127ab565b14949350505050565b6040517f19457468657265756d205369676e6564204d6573736167653a0a3332000000006020820152603c8101829052600090605c01610e0c565b600080600061233585856127f0565b9150915061234281612832565b509392505050565b6001600160a01b0382166123a05760405162461bcd60e51b815260206004820181905260248201527f4552433732313a206d696e7420746f20746865207a65726f206164647265737360448201526064016108d1565b6123a9816124b5565b156123c65760405162461bcd60e51b81526004016108d190613778565b6123d4600083836001612977565b6123dd816124b5565b156123fa5760405162461bcd60e51b81526004016108d190613778565b6001600160a01b038216600081815260046020908152604080832080546001019055848352600390915280822080546001600160a01b0319168417905551839291907fddf252ad1be2c89b69c2b068fc378daa952ba7f163c4a11628f55a4df523b3ef908290a45050565b60006001600160e01b031982166380ac58cd60e01b148061249657506001600160e01b03198216635b5e139f60e01b145b8061079e57506301ffc9a760e01b6001600160e01b031983161461079e565b6000806124c183611de8565b6001600160a01b0316141592915050565b6000806124de83610d7a565b9050806001600160a01b0316846001600160a01b0316148061250557506125058185611be3565b806125295750836001600160a01b031661251e84610836565b6001600160a01b0316145b949350505050565b826001600160a01b031661254482610d7a565b6001600160a01b03161461256a5760405162461bcd60e51b81526004016108d1906137af565b6001600160a01b0382166125cc5760405162461bcd60e51b8152602060048201526024808201527f4552433732313a207472616e7366657220746f20746865207a65726f206164646044820152637265737360e01b60648201526084016108d1565b6125d98383836001612977565b826001600160a01b03166125ec82610d7a565b6001600160a01b0316146126125760405162461bcd60e51b81526004016108d1906137af565b600081815260056020908152604080832080546001600160a01b03199081169091556001600160a01b0387811680865260048552838620805460001901905590871680865283862080546001019055868652600390945282852080549092168417909155905184937fddf252ad1be2c89b69c2b068fc378daa952ba7f163c4a11628f55a4df523b3ef91a4505050565b6126ad848484612531565b6126b9848484846129ff565b610b6f5760405162461bcd60e51b81526004016108d1906137f4565b60008072184f03e93ff9f4daa797ed6e38ed64bf6a1f0160401b83106127145772184f03e93ff9f4daa797ed6e38ed64bf6a1f0160401b830492506040015b6904ee2d6d415b85acef8160201b831061273e576904ee2d6d415b85acef8160201b830492506020015b662386f26fc10000831061275c57662386f26fc10000830492506010015b6305f5e1008310612774576305f5e100830492506008015b612710831061278857612710830492506004015b6064831061279a576064830492506002015b600a831061079e5760010192915050565b600081815b8451811015612342576127dc828683815181106127cf576127cf61374b565b6020026020010151612b00565b9150806127e881613649565b9150506127b0565b60008082516041036128265760208301516040840151606085015160001a61281a87828585612b2f565b94509450505050610c1c565b50600090506002610c1c565b600081600481111561284657612846613846565b0361284e5750565b600181600481111561286257612862613846565b036128aa5760405162461bcd60e51b815260206004820152601860248201527745434453413a20696e76616c6964207369676e617475726560401b60448201526064016108d1565b60028160048111156128be576128be613846565b0361290b5760405162461bcd60e51b815260206004820152601f60248201527f45434453413a20696e76616c6964207369676e6174757265206c656e6774680060448201526064016108d1565b600381600481111561291f5761291f613846565b03611c875760405162461bcd60e51b815260206004820152602260248201527f45434453413a20696e76616c6964207369676e6174757265202773272076616c604482015261756560f01b60648201526084016108d1565b6001811115610b6f576001600160a01b038416156129bd576001600160a01b038416600090815260046020526040812080548392906129b7908490612cd9565b90915550505b6001600160a01b03831615610b6f576001600160a01b038316600090815260046020526040812080548392906129f49084906135d9565b909155505050505050565b60006001600160a01b0384163b15612af557604051630a85bd0160e11b81526001600160a01b0385169063150b7a0290612a4390339089908890889060040161385c565b6020604051808303816000875af1925050508015612a7e575060408051601f3d908101601f19168201909252612a7b91810190613899565b60015b612adb573d808015612aac576040519150601f19603f3d011682016040523d82523d6000602084013e612ab1565b606091505b508051600003612ad35760405162461bcd60e51b81526004016108d1906137f4565b805181602001fd5b6001600160e01b031916630a85bd0160e11b149050612529565b506001949350505050565b6000818310612b1c5760008281526020849052604090206121e3565b60008381526020839052604090206121e3565b6000806fa2a8918ca85bafe22016d0b997e4df60600160ff1b03831115612b5c5750600090506003612be0565b6040805160008082526020820180845289905260ff881692820192909252606081018690526080810185905260019060a0016020604051602081039080840390855afa158015612bb0573d6000803e3d6000fd5b5050604051601f1901519150506001600160a01b038116612bd957600060019250925050612be0565b9150600090505b94509492505050565b828054612bf59061338c565b90600052602060002090601f016020900481019282612c175760008555612c5d565b82601f10612c3057805160ff1916838001178555612c5d565b82800160010185558215612c5d579182015b82811115612c5d578251825591602001919060010190612c42565b50612c69929150612c6d565b5090565b5b80821115612c695760008155600101612c6e565b634e487b7160e01b600052601160045260246000fd5b6000816000190483118215151615612cb257612cb2612c82565b500290565b600082612cd457634e487b7160e01b600052601260045260246000fd5b500490565b600082821015612ceb57612ceb612c82565b500390565b634e487b7160e01b600052604160045260246000fd5b60405161012081016001600160401b0381118282101715612d2957612d29612cf0565b60405290565b604051601f8201601f191681016001600160401b0381118282101715612d5757612d57612cf0565b604052919050565b600082601f830112612d7057600080fd5b81356001600160401b03811115612d8957612d89612cf0565b612d9c601f8201601f1916602001612d2f565b818152846020838601011115612db157600080fd5b816020850160208301376000918101602001919091529392505050565b600060208284031215612de057600080fd5b81356001600160401b03811115612df657600080fd5b61252984828501612d5f565b6001600160e01b031981168114611c8757600080fd5b600060208284031215612e2a57600080fd5b81356121e381612e02565b60005b83811015612e50578181015183820152602001612e38565b83811115610b6f5750506000910152565b60008151808452612e79816020860160208601612e35565b601f01601f19169290920160200192915050565b6020815260006121e36020830184612e61565b600060208284031215612eb257600080fd5b5035919050565b6001600160a01b0391909116815260200190565b80356001600160a01b0381168114612ee457600080fd5b919050565b60008060408385031215612efc57600080fd5b612f0583612ecd565b946020939093013593505050565b60008060408385031215612f2657600080fd5b82356001600160401b03811115612f3c57600080fd5b612f4885828601612d5f565b925050612f5760208401612ecd565b90509250929050565b600060208284031215612f7257600080fd5b6121e382612ecd565b600080600060608486031215612f9057600080fd5b612f9984612ecd565b9250612fa760208501612ecd565b9150604084013590509250925092565b60008060408385031215612fca57600080fd5b50508035926020909101359150565b8015158114611c8757600080fd5b8035612ee481612fd9565b6000610120828403121561300557600080fd5b61300d612d06565b905081356001600160401b0381111561302557600080fd5b61303184828501612d5f565b82525061304060208301612fe7565b602082015260408201356040820152606082013560608201526080820135608082015260a082013560a082015260c082013560c082015260e082013560e082015261010061308f818401612ecd565b9082015292915050565b6000602082840312156130ab57600080fd5b81356001600160401b038111156130c157600080fd5b61252984828501612ff2565b6000602082840312156130df57600080fd5b81356001600160601b03811681146121e357600080fd5b6000806040838503121561310957600080fd5b61311283612ecd565b9150602083013561312281612fd9565b809150509250929050565b6000806000806080858703121561314357600080fd5b61314c85612ecd565b935061315a60208601612ecd565b92506040850135915060608501356001600160401b0381111561317c57600080fd5b61318887828801612d5f565b91505092959194509250565b600061014060018060a01b03808e1684528c60208501528b6040850152808b1660608501528160808501526131cb8285018b612e61565b60a08501999099526001600160601b039790971660c0840152505092841660e08401526101008301919091529091166101209091015295945050505050565b600082601f83011261321b57600080fd5b813560206001600160401b0382111561323657613236612cf0565b8160051b613245828201612d2f565b928352848101820192828101908785111561325f57600080fd5b83870192505b8483101561327e57823582529183019190830190613265565b979650505050505050565b60008060008060008060c087890312156132a257600080fd5b86356001600160401b03808211156132b957600080fd5b6132c58a838b0161320a565b975060208901359150808211156132db57600080fd5b6132e78a838b0161320a565b965060408901359550606089013591508082111561330457600080fd5b6133108a838b01612d5f565b9450608089013591508082111561332657600080fd5b6133328a838b01612d5f565b935060a089013591508082111561334857600080fd5b5061335589828a01612ff2565b9150509295509295509295565b6000806040838503121561337557600080fd5b61337e83612ecd565b9150612f5760208401612ecd565b600181811c908216806133a057607f821691505b6020821081036133c057634e487b7160e01b600052602260045260246000fd5b50919050565b6001600160a01b0392831681529116602082015260400190565b6000602082840312156133f257600080fd5b81516121e381612fd9565b602080825260189082015277115490cdcc8c4e881a5b9d985b1a59081d1bdad95b88125160421b604082015260600190565b60008a51613441818460208f01612e35565b99151560f81b919099019081526001810197909752602187019590955260418601939093526061850191909152608184015260a183015260601b6001600160601b03191660c182015260d50192915050565b8054600090600181811c90808316806134ad57607f831692505b602080841082036134ce57634e487b7160e01b600052602260045260246000fd5b8180156134e257600181146134f357613520565b60ff19861689528489019650613520565b60008881526020902060005b868110156135185781548b8201529085019083016134ff565b505084890196505b50505050505092915050565b60006135388288613493565b8651613548818360208b01612e35565b71746f6b656e2d7572693f616464726573733d60701b91019081528551613576816012840160208a01612e35565b68266e6574776f726b3d60b81b6012929091019182015284516135a081601b840160208901612e35565b6826746f6b656e49643d60b81b601b929091019182015283516135ca816024840160208801612e35565b01602401979650505050505050565b600082198211156135ec576135ec612c82565b500190565b60008251613603818460208701612e35565b9190910192915050565b606084901b6001600160601b03191681528251600090613634816014850160208801612e35565b60149201918201929092526034019392505050565b60006001820161365b5761365b612c82565b5060010190565b600061366e8287613493565b74636f6e74726163742d7572693f616464726573733d60581b8152855161369c816015840160208a01612e35565b68266e6574776f726b3d60b81b6015929091019182015284516136c681601e840160208901612e35565b6826726f79616c74793d60b81b601e929091019182015283516136f0816027840160208801612e35565b016027019695505050505050565b6020808252602d908201527f4552433732313a2063616c6c6572206973206e6f7420746f6b656e206f776e6560408201526c1c881bdc88185c1c1c9bdd9959609a1b606082015260800190565b634e487b7160e01b600052603260045260246000fd5b60008161377057613770612c82565b506000190190565b6020808252601c908201527f4552433732313a20746f6b656e20616c7265616479206d696e74656400000000604082015260600190565b60208082526025908201527f4552433732313a207472616e736665722066726f6d20696e636f72726563742060408201526437bbb732b960d91b606082015260800190565b60208082526032908201527f4552433732313a207472616e7366657220746f206e6f6e20455243373231526560408201527131b2b4bb32b91034b6b83632b6b2b73a32b960711b606082015260800190565b634e487b7160e01b600052602160045260246000fd5b6001600160a01b038581168252841660208201526040810183905260806060820181905260009061388f90830184612e61565b9695505050505050565b6000602082840312156138ab57600080fd5b81516121e381612e0256fea2646970667358221220d865ed1eac051bcbe0951bdec05fe5061900e9cb0ef785e4550deb0d1f972ce164736f6c634300080d0033",
  "linkReferences": {},
  "deployedLinkReferences": {}
}